:020000040000FA
:100000000C9447050C946F050C946F050C946F05C8
:100010000C946F050C946F050C946F050C946F0590
:100020000C946F050C946F050C946F050C946F0580
:100030000C946F050C946F050C946F050C946F0570
:100040000C9457140C946F050C946F050C946F0569
:100050000C946F050C946F050C946F050C946F0550
:100060000C94A1140C946F052200FF2100000000E5
:1000700000003E5B4F5B3E3E6B4F6B3E1C3E7C3E4A
:100080001C183C7E3C181C577D571C1C5E7F5E1C58
:1000900000183C1800FFE7C3E7FF0018241800FF12
:1000A000E7DBE7FF30483A060E2629792926407F0C
:1000B000050507407F05253F5A3CE73C5A7F3E1C1B
:1000C0001C08081C1C3E7F14227F22145F5F005F07
:1000D0005F06097F017F006689956A6060606060E5
:1000E00094A2FFA29408047E040810207E20100829
:1000F000082A1C08081C2A08081E101010100C1EC4
:100100000C1E0C30383E3830060E3E0E0600000045
:10011000000000005F00000007000700147F147F4C
:1001200014242A7F2A122313086462364956205069
:100130000008070300001C2241000041221C002A85
:100140001C7F1C2A08083E08080080703000080840
:10015000080808000060600020100804023E5149B1
:10016000453E00427F400072494949462141494D80
:10017000331814127F1027454545393C4A49493107
:1001800041211109073649494936464949291E0086
:100190000014000000403400000008142241141430
:1001A000141414004122140802015909063E415D4D
:1001B000594E7C1211127C7F494949363E414141DA
:1001C000227F4141413E7F494949417F0909090157
:1001D0003E414151737F0808087F00417F41002064
:1001E00040413F017F081422417F404040407F0250
:1001F0001C027F7F0408107F3E4141413E7F090978
:1002000009063E4151215E7F09192946264949497F
:100210003203017F01033F4040403F1F2040201F29
:100220003F4038403F6314081463030478040361BB
:1002300059494D43007F41414102040810200041CB
:1002400041417F0402010204404040404000030756
:10025000080020545478407F2844443838444444AB
:1002600028384444287F385454541800087E090222
:1002700018A4A49C787F0804047800447D400020E2
:1002800040403D007F1028440000417F40007C0436
:100290007804787C080404783844444438FC1824F2
:1002A000241818242418FC7C0804040848545454C6
:1002B0002404043F44243C4040207C1C2040201C5B
:1002C0003C4030403C44281028444C9090907C4462
:1002D00064544C440008364100000077000000419F
:1002E00036080002010204023C2623263C1EA1A17E
:1002F00061123A4040207A38545455592155557965
:100300004122545478422155547840205455794024
:100310000C1E527212395555555939545454593985
:10032000555454580000457C410002457D4200016F
:10033000457C407D1211127DF0282528F07C545513
:1003400045002054547C547C0A097F49324949496C
:10035000323A4444443A324A4848303A4141217A98
:100360003A42402078009DA0A07D3D4242423D3D62
:100370004040403D3C24FF2424487E4943662B2FC7
:10038000FC2F2BFF0929F620C0887E090320545436
:1003900079410000447D413048484A32384040228B
:1003A0007A007A0A0A727D0D19317D2629292F28B3
:1003B000262929292630484D4020380808080808F1
:1003C000080808382F10C8ACBA2F102834FA0000DB
:1003D0007B000008142A142222142A140855005500
:1003E0000055AA55AA55AAFF55FF55FF000000FF6A
:1003F00000101010FF00141414FF001010FF00FF75
:100400001010F010F0141414FC001414F700FF0086
:1004100000FF00FF1414F404FC141417101F101034
:100420001F101F1414141F00101010F00000000003
:100430001F101010101F10101010F010000000FFFF
:10044000101010101010101010FF10000000FF14FA
:100450000000FF00FF00001F10170000FC04F41450
:10046000141710171414F404F40000FF00F7141408
:100470001414141414F700F7141414171410101F84
:10048000101F141414F4141010F010F000001F10BA
:100490001F0000001F14000000FC140000F010F00A
:1004A0001010FF10FF141414FF141010101F000080
:1004B0000000F010FFFFFFFFFFF0F0F0F0F0FFFF93
:1004C000FF0000000000FFFF0F0F0F0F0F38444424
:1004D0003844FC4A4A4A347E02020606027E027E04
:1004E0000263554941633844443C04407E201E2049
:1004F00006027E020299A5E7A5991C2A492A1C4CEE
:100500007201724C304A4D4D303048784830BC62F0
:100510005A463D3E494949007E0101017E2A2A2A68
:100520002A2A44445F444440514A444040444A518A
:10053000400000FF0103E080FF000008086B6B082B
:100540003612362436060F090F0600001818000070
:10055000001010003040FF0101001F01011E0019B2
:100560001D1712003C3C3C3C000000000000010351
:10057000070F1F3F7F0080C0E0F0F8FCFE00000086
:100580000800020100000304070000000000000052
:100590000000000000240027002A00DB40A4A62E53
:1005A000AF2000A1C8D300408DAED580A8000000C8
:1005B00000250028002B0000006000000000000063
:1005C0000000000000000000E0000000000000004B
:1005D00000000000000001E000000000000000003A
:1005E000000000000001F00000000000000000001A
:1005F0000000000003F00000000000000000000008
:1006000000000007F00000000000000000000000F3
:10061000000007F8000000000000000000000000DB
:10062000000FF800000003C0007E000001E0007F22
:100630000FF800000003C000FE000001E000FFEF23
:10064000F800000003C000FE000001E000FFFFF81A
:1006500000000003C000F00000000F007FFE7FC01C
:10066000000003C000F00000000F003FFE7FF83FD5
:10067000F1FBCFFCFEF3BC3DEFE01FFE7FFF7FFBF5
:10068000FFDFFEFEFFBC3DEFE01FC6FFFF7FFBFF6D
:10069000DFFEFEFFBC3DEFE00FE3C7FE787BC3DE6D
:1006A0001EF0FFBC3DEF0007FF87FC787BC3DE1E1A
:1006B000F0F83C3DEF0001FFFFF0007BC3C01EF0EF
:1006C000F03C3DEF0001F37FE03FFBC3CFFEF0F0D5
:1006D0003C3DEF0003E33F807FFBC3DFFEF0F03CD7
:1006E0003DEF0007E73C00787BC3DE1EF0F03C3DA9
:1006F000EF0007FFBE00787BC3DE1EF0F03C3DEF4D
:100700000007FFFE00787BC3DE1EF0F03C3DEF00EB
:100710000FFFFE007FFBFFDFFEF0F03FFDEFE00F7D
:10072000FFFF007FFBFFDFFEF0F03FFDEFE00FF982
:10073000FF003E79F9CF9EF0F01F3DE7E01FF1FF8B
:100740000000000000000000000000001F80FF000B
:100750007FFFFFFFFFFFFFFFFFFFE01C007F007F29
:10076000FFFFFFFEB46D888D18E000001F007FFFC3
:10077000FFFFFE95AD7DB577E000000F007FFFFF26
:10078000FFFEA5AD9D8D19E0000006007FFFFFFF75
:10079000FEB5ADEDB57EE000000000000180000078
:1007A00000000000000000038000000000000000C6
:1007B000000007C000000000000000000007C000AB
:1007C00000000000000000000FC00000000000005A
:1007D0000000001FE00000000000000000001FE01B
:1007E0000000000000000000003FE00000000000EA
:1007F000000000003FF00000000000000000007F4B
:10080000F0000000000000001FF87FF00000000072
:100810000000003FFE7FF0000000000000003FFFEE
:100820007FF0000000000000001FFFFBE000000060
:10083000000000000FFFF9FFC00000000000000FE3
:10084000FFF9FFF800000000000007FFF1FFFF00C4
:10085000000000000003FC73FFFF800000000000A8
:1008600001FE3FFFFF80000000000000FF1E0FFFA1
:10087000000000000000007FFE1FFC0000000000E0
:1008800000003FFFFFF8000000000000000FDFFF46
:10089000E0000000000000001F19FFC00000000081
:1008A0000000003F3CFF00000000000000007E7CD4
:1008B000F800000000000000007FFE7C0000000047
:1008C00000000000FFFFFC0000000000000000FF2F
:1008D000FFFE0000000000000000FFFFFE0000001F
:1008E0000000000001FFEFFE00000000000000011A
:1008F000FFCFFE0000000000000003FF07FE000025
:10090000000000000003FC07FE00000000000000E3
:1009100003F003FE00000000000000018000FE0064
:100920000000000000000000007E00000000000049
:10093000000000003E000000000000000000000C6D
:10094000000000000000078000FC000003C0000061
:1009500000078001FC000003C0000000078001FCCC
:10096000000003C0000000078001E00000001E003E
:100970000000078001E00000001E007FE3F79FF900
:10098000FDE7787BDFC0FFF7FFBFFDFDFF787BDF72
:10099000C0FFF7FFBFFDFDFF787BDFC0F0F787BC2E
:1009A0003DE1FF787BDE00F0F787BC3DE1F0787B2E
:1009B000DE0000F787803DE1E0787BDE007FF7878F
:1009C0009FFDE1E0787BDE00FFF787BFFDE1E07887
:1009D0007BDE00F0F787BC3DE1E0787BDE00F0F7DE
:1009E00087BC3DE1E0787BDE00F0F787BC3DE1E0CD
:1009F000787BDE00FFF7FFBFFDE1E07FFBDFC0FF9C
:100A0000F7FFBFFDE1E07FFBDFC07CF3F39F3DE13B
:100A1000E03E7BCFC00000000000000000000000AE
:100A2000FFFFFFFFFFFFFFFFFFFFC0FFFFFFFFFD17
:100A300068DB111A31C0FFFFFFFFFD2B5AFB6AEF85
:100A4000C0FFFFFFFFFD4B5B3B1A33C0FFFFFFFF03
:100A5000FD6B5BDB6AFDC00000000023002600295F
:100A60000004040404040404040202020202020357
:100A70000303030303010204081020408001020461
:100A80000810200102040810200005164419112442
:100A90001FBECFEFD8E0DEBFCDBF11E0A0E0B1E0D8
:100AA000E2E7F5E302C005900D92AA34B107D9F749
:100AB00022E0AAE4B1E001C01D92A436B207E1F73A
:100AC00015E0C6E4D5E004C02197FE010E94751927
:100AD000C534D107C9F70E9461160C94AC1A0C9466
:100AE0000000089508950895AF92BF92CF92DF92CB
:100AF000EF92FF920F931F93CF93DF936C017B01D3
:100B00008B01040F151FEB015E01AE18BF08C01763
:100B1000D10759F06991D601ED91FC910190F081D6
:100B2000E02DC6010995892B79F7C501DF91CF9199
:100B30001F910F91FF90EF90DF90CF90BF90AF90FB
:100B4000089590E0FC01E358FA4F2491FC01EB5822
:100B5000F54F3491FC01EF59F54FE491EE23C9F0C4
:100B6000222339F0233001F1A8F4213019F1223089
:100B700029F1F0E0EE0FFF1FE355FA4FA591B49174
:100B80008FB7F894EC91611126C030953E233C93C9
:100B90008FBF08952730A9F02830C9F0243049F7D5
:100BA000809180008F7D03C0809180008F7780933B
:100BB0008000DFCF84B58F7784BDDBCF84B58F7D98
:100BC000FBCF8091B0008F778093B000D2CF80911F
:100BD000B0008F7DF9CF3E2BDACFCF93DF9390E03B
:100BE000FC01EB58F54F24918F59954FFC018491EE
:100BF0008823D1F090E0880F991FFC01EF56FA4F3F
:100C0000A591B491FC01E355FA4FC591D4916111BE
:100C10000EC09FB7F8948C91E22FE0958E238C93B1
:100C20002881E223E8839FBFDF91CF9108958FB79A
:100C3000F894EC91E22BEC938FBFF6CF3FB7F8948A
:100C40008091FF0190910002A0910102B0910202F7
:100C500026B5A89B05C02F3F19F00196A11DB11D17
:100C60003FBFBA2FA92F982F8827BC01CD01620F53
:100C7000711D811D911D42E0660F771F881F991F0E
:100C80004A95D1F708958F929F92AF92BF92CF92DB
:100C9000DF92EF92FF924B015C010E941E066B01F6
:100CA0007C010E941E066C197D098E099F09683E11
:100CB000734081059105A8F321E0821A9108A108EB
:100CC000B10888EEC80E83E0D81EE11CF11C811427
:100CD0009104A104B10429F7FF90EF90DF90CF9029
:100CE000BF90AF909F908F900895EF92FF920F93D7
:100CF0001F93CF93DF93EC01EC80FD806E157F0591
:100D00000CF070C057FF04C0240F351F50E040E0C6
:100D10008E819F81FA01E20FF31F8E179F071CF44B
:100D20009C01241B350B121613060CF05BC0922F8E
:100D3000842F8695869586958E9DD0018F9DB00DCA
:100D400011246A0F7B1FAF8DB8A1A60FB71F477084
:100D500049F188E0841B482F682F70E0FB01EB58B5
:100D6000FA4FE491281708F063C0621B71092FEF56
:100D700030E002C0359527956A95E2F7E22301300D
:100D8000110539F0B0F10230110561F58C91E827B9
:100D900002C08C91E82BEC93941720F12C813D81BB
:100DA000A20FB31FE92FE41BE83078F002301105E1
:100DB00021F58E2F9C9190959C932C813D81A20FC3
:100DC000B31F88508830B0F7E770EE2359F0F0E099
:100DD000E359FA4FE49101301105F9F010F10230B6
:100DE000110519F1DF91CF911F910F91FF90EF90B5
:100DF0000895E0958C91E823CECF81E0011511058F
:100E000009F480E081959E2F8C932C813D81A20F67
:100E1000B31F98509830C0F7D7CF8C91E82BEC9344
:100E2000E1CFE0958C91E823FACF8C91E827F7CFBA
:100E30000130110509F4ADCFE0F20230110509F4DB
:100E4000A5CFAE0DBF1DAECF0F931F93CF93DF93F2
:100E500077FF04C0260F371F70E060E0DC011496B6
:100E6000CD91DC91FB01E20FF31FCE17DF071CF4DD
:100E70009E01261B370B121613064CF5FA0157FD7F
:100E80003796A3E0F595E795AA95E1F7EC9FD00199
:100E9000ED9FB00DFC9FB00D11246A0F7B1FDC018C
:100EA0005F96ED91FC91E60FF71F4770552781E0A3
:100EB00090E001C0880F4A95EAF7482F01301105EC
:100EC00059F0A8F02E0F3F1F02301105E1F0DF911D
:100ED000CF911F910F9108952E0F3F1FE217F30737
:100EE000B1F38191DF011197842B8C93F7CF80951B
:100EF0002E0F3F1FE217F30751F39191DF01119776
:100F000098239C93F7CFE217F30709F38191DF0150
:100F1000119784278C93F7CF0F931F93FA01DC016D
:100F200056964C9156974230E9F04330A1F141304A
:100F300061F514964D915C91DA01AE1BBF0BFD017A
:100F4000E21BF30B77FD0BC0DC0116964D915C9113
:100F50006417750724F4AB01BF010E9424071F9199
:100F60000F91089514964D915C91DA01A61BB70B71
:100F7000BD0161507109DC0116964D915C91DA0159
:100F8000AE1BBF0BFD01E21BF30B77FDE8CFAF01FA
:100F90000E947506E4CF16964D915C91DA01A61B6E
:100FA000B70BBD0161507109CDCF0F931F93FA01AB
:100FB000DC0156964C9156974230A9F0433091F19E
:100FC000413019F514964D915C91DA01AE1BBF0BBF
:100FD000FD013197F7FD04C0AB01BF010E9475060A
:100FE0001F910F91089514964D915C91DA01A61B03
:100FF000B70BBD01DC0116964D915C91DA01AE1B79
:10100000BF0BFD013197621B730BF7FDE9CFDC01CC
:1010100016964D915C91E417F50714F7AF010E9405
:101020002407DECF16964D915C91DA01A61BB70B13
:10103000BD01621B730BCECFFC0177FD64C08085C0
:101040009185681779070CF05EC057FD5CC08285FA
:101050009385481759070CF056C086898230B1F045
:10106000833029F1813041F484819581841B950B73
:10107000AB01BC01615071092130310509F108F45F
:1010800043C02230310509F463C0089584819581FD
:10109000DC01A61BB70BBD016150710986819781E8
:1010A000DC01A41BB50BAD0141505109E5CF868190
:1010B0009781861B970BBA01AC0141505109DCCFD7
:1010C000CA0157FD0796A3E095958795AA95E1F784
:1010D000A481B5818A9F90018B9F300D9A9F300D1E
:1010E0001124620F731F078CF0A1E02DE60FF71F8C
:1010F0004770552721E030E001C0220F4A95EAF7FA
:101100008081822B80830895CA0157FD079633E0C2
:10111000959587953A95E1F7A481B5818A9F9001CD
:101120008B9F300D9A9F300D1124620F731F078C17
:10113000F0A1E02DE60FF71F4770552781E090E002
:1011400001C0880F4A95EAF7809590818923DACF0C
:10115000CA0157FD079623E0959587952A95E1F7F3
:10116000A481B5818A9F90018B9F300D9A9F300D8D
:101170001124620F731F078CF0A1E02DE60FF71FFB
:101180004770552721E030E001C0220F4A95EAF769
:1011900080818227B7CF08958EBD00000DB407FE71
:1011A000FDCF8EB508958CBD9DBD08950895FC01B9
:1011B0006370668B8481958126813781613039F037
:1011C000633029F09187808733872287089531879C
:1011D00020879387828708952F923F924F925F9244
:1011E0006F927F928F929F92AF92BF92CF92DF9237
:1011F000EF92FF920F931F93CF93DF93CDB7DEB79C
:101200006A970FB6F894DEBF0FBECDBF9A8F898F55
:101210007A8369834A01D22E18870F833701BC2C49
:10122000DC0159962D913C915A972115310509F011
:1012300015C118968D919C911997681779070CF034
:10124000D7C11A968D919C91481759070CF0D0C1BF
:101250004C2C512CB6E0CB9E600D711D11247C8767
:101260006B87161617060CF0C3C1EA2DF0E0FA875B
:10127000E98793E0EE0FFF1F9A95E1F7F88BEF8770
:10128000CF01840F951F181619060CF0B1C1A98D56
:10129000BA8D58968C91811104C0BFEABD1508F42F
:1012A000D394A98DBA8DED91FC9111970284F385A9
:1012B000E02DCD010995B5E0DB9EC0011124E98147
:1012C000FA81FC83EB83312C212C9C0123593F4F65
:1012D000388F2F8B4A2D50E05E8B4D8BEF89F88D28
:1012E000E20DF31D44919E828D82D12CC12C698127
:1012F0007A81620D731D7A8B698B842F90E09C8BB1
:101300008B8BE98DFA8DA081B18140FF82C0F1E025
:10131000BF126FC0AF126DC01C96ED91FC912F8172
:101320003885A4014C0D5D1D69897A89898D9A8D56
:101330000995EB89FC89F595E7954E2F5FEFC51A66
:10134000D50A6D817E818D899E89680F791F7E8384
:101350006D8398E0C916D10481F6AFEF2A1A3A0AD4
:10136000EB81FC81E40DF51DFC83EB83F5E02F168A
:10137000310409F0B3CF2F81388526153705B9F030
:10138000A98DBA8DED91FC91B1E0BB1257C0AB12A3
:1013900055C069817A816B5F7F4F0088F189E02DAC
:1013A000830128E030E0A401898D9A8D0995A98DEB
:1013B000BA8DED91FC9111970688F789E02DCD014A
:1013C0006A960FB6F894DEBF0FBECDBFDF91CF9106
:1013D0001F910F91FF90EF90DF90CF90BF90AF9053
:1013E0009F908F907F906F905F904F903F902F9045
:1013F00009941E96ED91FC91EF80F88409851A8579
:1014000092014D815E816B817C81898D9A8D0995D8
:1014100090CF2F8138852615370509F48ACF31E022
:10142000B31207C0A31205C01C96ED91FC91930165
:1014300078CF1E96ED91FC917301E0CF6B857C8592
:10144000641975090684F785E02D73010F851889E5
:101450009201A401898D9A8D0995A9CFF90134963D
:101460009491329745915491D91AB7E0DB9E400D83
:10147000511D1124F901259134913C8B2B8BFA01DC
:1014800025903490FA013296749031963491398BCC
:10149000329664903196449041E04C1518F04A150C
:1014A00008F07FC0662D062C000C770B7C836B83C5
:1014B000842D042C000C990B9E838D83A98DBA8DED
:1014C000ED91FC9111970284F385E02DCD010995F2
:1014D000512CD12CC12CEA2DF0E0FA87E9872B2D75
:1014E00030E03C872B87A401440D511D47FC5A95E1
:1014F000588F4F8B69817A81660D711D67FC7A95D3
:101500007E876D877989C71608F051CF2C2D30E082
:101510004D815E81420F531FA985BA854A9FC00144
:101520004B9F900D5A9F900D1124FC01E80DF91D61
:10153000F88BEF87852D612C4F89588D420F531FF3
:101540005E8B4D8B671408F050C044244394480EC2
:10155000877041F4C1010196EB89FC89E20DF31D0E
:10156000D4901C01D7FE19C0A98DBA8DED91FC91C4
:10157000662D70E0B1E0BB1219C0AB1217C02D850B
:101580003E85620F731F0484F585E02D2F81388519
:101590004D895E89898D9A8D0995DD0C6394842D22
:1015A000D1CF1E821D821C821B8288CF4B815C8121
:1015B000640F751FAB85BC856A9FC0016B9F900D42
:1015C0007A9F900D112469817A81680F791F0684B2
:1015D000F785E02DEF80F88409851A859D014F85F8
:1015E0005889898D9A8D0995D8CF570CC3948ACF85
:1015F0006A960FB6F894DEBF0FBECDBFDF91CF91D4
:101600001F910F91FF90EF90DF90CF90BF90AF9020
:101610009F908F907F906F905F904F903F902F9012
:1016200008958F929F92AF92CF92EF92FF920F9375
:101630001F93CF93DF93EC01262F898D9A8D00970E
:1016400009F051C06A30D1F41D861C868D8948E0AE
:10165000849F900111248E859F85820F931F9F8701
:101660008E8781E090E0DF91CF911F910F91FF90E5
:10167000EF90CF90AF909F908F9008956D3089F349
:10168000CC88AD888F898823C1F08C859D8536E014
:10169000C39E800D911D112448855985481759070F
:1016A00064F44E855F851D861C8638E0A39EC001CC
:1016B0001124840F951F9F878E87EA88FB880889ED
:1016C00019894E855F856C857D85CE010E94EC0869
:1016D0002C898C859D8546E0249F800D911D1124C9
:1016E0009D878C87BECF6A3069F41D861C86FC01FD
:1016F0003896E4912D898E859F85E29F800D911DFE
:101700001124ADCF6D3009F4ACCFFC013496349187
:10171000631708F4A6CF3296E491E61708F4A1CF38
:10172000FC01329685909490462F431B342F47E05E
:10173000349F800C911C1124F4013296349131961F
:10174000E4913323A9F1EE2399F1CC88F401359685
:10175000E491AD884F89442301F10E2E000CFF0B5C
:10176000E30FF11DCE9EA001CF9E500D11246C857C
:101770007D85460F571F68857985641775076CF45A
:101780004E855F851D861C86FC013896E491AE9ED1
:10179000400D511D11245F874E87EA88FB88088918
:1017A00019894E855F856C857D85CE010E94EC0888
:1017B000F4013496E4912C898C859D85E29F800DFF
:1017C000911D11248DCF6F927F928F929F92AF9235
:1017D000BF92CF92DF92EF92FF920F931F93CF931E
:1017E000DF93EC016B015A0139014801E881F9816D
:1017F0000284F385E02D0995E881F9810288F38957
:10180000E02D87019301A501B601CE010995A5013F
:10181000480D591D41505109E881F9810288F38929
:10182000E02D9301B601CE010995E881F981008888
:10183000F189E02D9401A501B601CE010995C60CF0
:10184000D71CB60161507109E881F9810088F189DE
:10185000E02D9401A501CE010995E881F981068862
:10186000F789E02DCE01DF91CF911F910F91FF906D
:10187000EF90DF90CF90BF90AF909F908F907F9030
:101880006F9009946F927F928F929F92AF92BF92C6
:10189000CF92DF92EF92FF920F931F93CF93DF933C
:1018A0005C01EB016A01490138018701DC01ED911E
:1018B000FC916217730719F5641675062CF0962DC6
:1018C000872D3A01C92ED82E9601261937092F5F88
:1018D0003F4F048CF58DE02DA301BE01C501099594
:1018E000DF91CF911F910F91FF90EF90DF90CF90FC
:1018F000BF90AF909F908F907F906F900895461506
:10190000570591F42617370724F0892D4B01C22F74
:10191000D82F9E01281939092F5F3F4F068CF78D6C
:10192000E02DA601B401DACF0284F385E02D0995FC
:10193000D501ED91FC910488F589E02D8301940196
:10194000A601BE01C5010995D501ED91FC9106885E
:10195000F789E02DC501DF91CF911F910F91FF9085
:10196000EF90DF90CF90BF90AF909F908F907F903F
:101970006F900994EF92FF920F931F93DC011A96D8
:101980000D911C911B9718962D913C911997ED91F3
:10199000FC9100A0F1A1E02D7B0150E040E070E05F
:1019A00060E009951F910F91FF90EF9008954F927D
:1019B0005F926F927F928F929F92AF92BF92CF92DF
:1019C000DF92EF92FF920F931F93CF93DF936C01FF
:1019D0002B015A0139014801DC01ED91FC9102848F
:1019E000F385E02D0995E201640C751CD601ED919B
:1019F000FC91C615D7055CF40088F189E02D8701BC
:101A00009401A501BE01C60109952196EFCF068874
:101A1000F789E02DC601DF91CF911F910F91FF90C3
:101A2000EF90DF90CF90BF90AF909F908F907F907E
:101A30006F905F904F9009948F929F92AF92BF9258
:101A4000CF92DF92EF92FF920F931F93CF93DF938A
:101A5000EC015B014A016901E881F9810284F385A7
:101A6000E02D099595012C0D3D1D21503109E8818E
:101A7000F9810488F589E02D78018401A401B5017C
:101A8000CE010995E881F9810688F789E02DCE011C
:101A9000DF91CF911F910F91FF90EF90DF90CF904A
:101AA000BF90AF909F908F9009948F929F92AF922A
:101AB000BF92CF92DF92EF92FF920F931F93CF933B
:101AC000DF93EC015B014A0169017801E881F9814A
:101AD0000284F385E02D0995C80CD91C86010150BC
:101AE0001109E881F9810488F589E02D9501A401A7
:101AF000B501CE010995E881F9810688F789E02DC5
:101B0000CE01DF91CF911F910F91FF90EF90DF9069
:101B1000CF90BF90AF909F908F900994EF92FF92DB
:101B20000F931F93DC01ED91FC9100A0F1A1E02D3A
:101B300009951F910F91FF90EF9008950F931F93B8
:101B4000DC01ED91FC91068CF78DE02D09951F913C
:101B50000F9108950F931F93DC01ED91FC91048C7C
:101B6000F58DE02D09951F910F910895DC01ED9100
:101B7000FC910084F185E02D09943F924F925F9291
:101B80006F927F928F929F92AF92BF92CF92DF928D
:101B9000EF92FF920F931F93CF93DF935C017B0132
:101BA0004A016901390187E0680E711C93E0759460
:101BB00067949A95E1F72B01400E511E10E000E06A
:101BC000312CD0E0C0E0CE0187709927330C892BEF
:101BD00059F4FE0183E0F595E7958A95E1F7E00F6A
:101BE000F11FE80DF91D349037FE0AC021E030E006
:101BF000A701B5016C0F7D1F80E292E00E94B60D37
:101C00002196CC16DD06F9F68FEFE81AF80A060DD4
:101C1000171DE414F504A9F6DF91CF911F910F91E0
:101C2000FF90EF90DF90CF90BF90AF909F908F90FC
:101C30007F906F905F904F903F9008952F923F92CA
:101C40004F925F926F927F928F929F92AF92BF92CC
:101C5000CF92DF92EF92FF920F931F93CF93DF9378
:101C600000D000D000D0CDB7DEB73C016A013E8382
:101C70002D83FC82EB825801A41AB50AB7FE03C07B
:101C8000B194A194B1088D809E80861A970A97FE20
:101C900003C09194819491088A149B045CF0902F66
:101CA000812F0D811E819D838E839C2D8D2D6B0137
:101CB000692F782F0C151D055CF09D818E817E8328
:101CC0006D83692F782F902F812F8601C92ED82EF2
:101CD0001601201A310A2B012D813E81421A530A26
:101CE00057FE03C0519441945108710137FE03C05F
:101CF0003FEFE31AF30AF594E7948D819E818617EE
:101D000097075CF5A1E0B0E0BA83A983C016D106BD
:101D10004CF1D301ED91FC910484F585E02D2B81EC
:101D20003C81A8016D817E818A149B041CF04D8149
:101D30005E81B801C3010995E418F508F7FE0AC0F1
:101D40002D813E8189819A81280F391F3E832D8301
:101D5000E20CF31C0F5F1F4FD9CF2FEF3FEF3A83F9
:101D60002983D4CF26960FB6F894DEBF0FBECDBF21
:101D7000DF91CF911F910F91FF90EF90DF90CF9067
:101D8000BF90AF909F908F907F906F905F904F909B
:101D90003F902F90089508952091B001260F33278A
:101DA000331F21323105ECF42091D401FC0190E085
:101DB00080E0243069F082E00895A091B001219183
:101DC000AC0140575E4FA40FB52FB11D2C93019667
:101DD000861798F38091B001680F6093B00180E09E
:101DE000089581E008951092D40181E08093D60196
:101DF0001092D50161E082E10E94A10561E083E1DA
:101E00000E94A105E9EBF0E080818E7F80838081D4
:101E10008D7F808388E48093B80085E48093BC0044
:101E20000895CF93DF9391E090938F018823B9F0C9
:101E3000C091B800D091BA008091BC008A7B809399
:101E4000BC0060E082E10E94A10560E083E10E94A5
:101E5000A1050E94F30ED093BA00C093B800DF91A1
:101E6000CF910895E091090280910802E81730F4BB
:101E7000F0E0E659FE4F808190E008958FEF9FEFEC
:101E8000089590910902809108022FEF3FEF981773
:101E900048F4E92FF0E0E659FE4F208130E09F5FE3
:101EA00090930902C9010895809108029091090256
:101EB000891B990B0895CF92DF92EF92FF920F93B7
:101EC0001F93CF93DF937C01CB018A0120911302F2
:101ED000222389F0EB016B01C40ED51ECC15DD0564
:101EE00069F06991D701ED91FC910190F081E02DAD
:101EF000C7010995F3CF642F0E94CC0EC801DF9172
:101F0000CF911F910F91FF90EF90DF90CF900895A8
:101F1000CF93DF931F92CDB7DEB769832091130271
:101F20002223F9F020911002203258F021E030E015
:101F3000FC013383228390E080E00F90DF91CF910A
:101F4000089580911102E82FF0E0E65BFE4F998141
:101F500090838F5F809311028093100281E090E064
:101F6000ECCF61E0CE0101960E94CC0EF7CFCF926C
:101F7000DF92EF92FF920F931F93CF93DF93D09155
:101F8000100281E0D13208F09CC0C09112020E9480
:101F90001E066B017C018091D40181116CC082E02E
:101FA0008093D40181E08093D6018FEF8093D30199
:101FB0001092F801D093F701AAE4B1E0E7EDF1E067
:101FC00080E0D8138DC01092F9018091F901CC0FF7
:101FD000C82BC093F9018091D501813009F084C0EC
:101FE0001092D5010E941E066B017C018091F901BF
:101FF0008093BB0080918B0190918C01A0918D0109
:10200000B0918E01892B8A2B8B2BA1F00E941E068A
:1020100000918B0110918C0120918D0130918E01E6
:102020006C197D098E099F090617170728073907BC
:1020300008F442C08091BC0083FDD8CF85EC80932A
:10204000BC000E941E066B017C018091D40182308D
:1020500009F44CC08091D3018F3F09F469C080918D
:10206000D301803209F466C08091D301803309F432
:1020700063C084E026C080918B0190918C01A09177
:102080008D01B0918E01892B8A2B8B2B09F483CF84
:102090000E941E0600918B0110918C0120918D01F0
:1020A00030918E016C197D098E099F09061717075B
:1020B0002807390708F06FCF80918A010E94110F1D
:1020C00085E0109211021092100210921302DF911B
:1020D000CF911F910F91FF90EF90DF90CF900895D7
:1020E0009D9191938F5F6DCF85EEA9CF80918B01EC
:1020F00090918C01A0918D01B0918E01892B8A2B3A
:102100008B2B09F4A2CF0E941E0600918B01109127
:102110008C0120918D0130918E016C197D098E0901
:102120009F09061717072807390708F08ECFC4CF75
:1021300080E0C7CF82E0C5CF83E0C3CFEF92FF92AC
:102140000F931F93CF93DF937C01C62F80913D02A5
:1021500090913E02009709F459C02091410231E06C
:102160003093130220931202109211021092100267
:10217000DC01ED91FC910190F081E02D60E009958A
:102180008701EE24E394F12CD1E0C15080913D020F
:1021900090913E02CF3F91F1B0E2EB16F104D8F0FE
:1021A0000E94B70F80913D0290913E022091410222
:1021B000D093130220931202109211021092100277
:1021C000DC01ED91FC910190F081E02D60E009953A
:1021D000EE24E394F12C80913D0290913E02F801AF
:1021E0006491DC01ED91FC910190F081E02D099565
:1021F000BFEFEB1AFB0A0F5F1F4FC7CFDF91CF91E5
:102200001F910F91FF90EF900C94B70FE0914D024A
:10221000F0914E02908180915302809589238083B2
:102220008701C15008F438C0F801849120913B0225
:1022300030913C02232B29F00E94CC080F5F1F4FE6
:10224000F0CF28E030E040E8E0914902F0914A0206
:1022500090915102582F5423D9F05081952B90839F
:10226000E0914B02F0914C02908150915202952BDB
:102270009083E0914B02F0914C0250819091520278
:10228000909595239083469521503109E9F6D6CF54
:10229000508190959523E3CFDF91CF911F910F91BE
:1022A000FF90EF9008951F93CF93DF93EC018D8DF6
:1022B0009E8D009721F1162F29A131E03093130252
:1022C000209312021092110210921002DC01ED9183
:1022D000FC910190F081E02D60E009958D8D9E8D3F
:1022E000DC01ED91FC910190F081E02D612F0995C9
:1022F0008D8D9E8DDF91CF911F910C94B70FADA561
:10230000BEA59C918BA9809589238C938B8D9C8DE8
:10231000892B31F0862FDF91CF911F910C94CC083F
:1023200028E030E080E8A9A5BAA599A9462F48235E
:10233000C1F04C91942B9C93ABA5BCA59C914AA950
:10234000942B9C93ABA5BCA54C919AA990959423F2
:102350009C9386952150310931F7DF91CF911F91E0
:1023600008954C9190959423E6CF1F93CF93DF93DC
:10237000EC01162F8D8D9E8D892BB1F12DA93EA9D3
:102380004FA958AD60E074E284EF90E00E945319C9
:10239000205131094109510956954795379527959F
:1023A0002093B80066EA111167EACE010E9453112A
:1023B0008D8D9E8D892B41F129AD3AAD4BAD5CAD34
:1023C00060E074E284EF90E00E94531920513109DB
:1023D0004109510956954795379527952093B8009F
:1023E000DF91CF911F9108958B8D9C8D892B21F0CA
:1023F0008EAD9FAD0E94D308EFA5F8A990818CA95E
:10240000809589238083CECFEFA5F8A980819CA9F0
:10241000892B8083E5CF90E080E008958F929F9292
:10242000AF92BF920F931F93CF93DF93CDB7DEB7D9
:10243000A1970FB6F894DEBF0FBECDBF19A24230F0
:1024400008F44AE08E010F5D1F4F842E912CB12CB1
:10245000A12CA50194010E945319E62FB901CA01CC
:10246000EA3044F5E05DD801EE938D01232B242B57
:10247000252B79F790E080E0109769F0FD0101903D
:102480000020E9F73197AF014A1B5B0BBD0180E2E9
:1024900092E00E947405A1960FB6F894DEBF0FBEBD
:1024A000CDBFDF91CF911F910F91BF90AF909F90C3
:1024B0008F900895E95CD7CF2091260230912702B2
:1024C000C901079697FD079623E0959587952A956C
:1024D000E1F72091240230912502829FA001839F81
:1024E000500D929F500D112470E060E080913F02EA
:1024F000909140020C94A51ACF92DF92EF92FF9236
:102500000F931F93CF93DF930E945C1281E090E0C2
:102510009093330280933202909331028093300281
:10252000C2E0C0933402C09335020AE010E0109379
:102530002D0200932C0210932F0200932E0245E0EF
:1025400050E064E471E080E292E00E947405C09380
:102550003402C093350210932D0200932C028EE1B9
:1025600090E090932F0280932E02C0900A02D090A8
:102570000B020D2C000CEE08FF084AE0C701B60163
:10258000F7FE0DC06DE280E292E00E94110B66271B
:102590007727CB016C197D098E099F094AE00E94BB
:1025A0000E1280913D0290913E02892B09F494C055
:1025B0002091550230915602409157025091580295
:1025C00060E074E284EF90E00E94531920513109D9
:1025D0004109510956954795379527952093B8009D
:1025E00065E088E690E00E949E10609124026150B0
:1025F00080E292E00E94531120912602309127023E
:10260000C901079697FD079623E0959587952A952A
:10261000E1F72091240230912502829F7001839F6F
:10262000F00C929FF00C1124C0913F02D091400217
:1026300080913D0290913E02EC0EFD1E009709F440
:102640008CC02091410231E030931302209312029A
:102650001092110210921002DC01ED91FC91019098
:10266000F081E02D60E4099501E010E0DD24D394D1
:1026700080913D0290913E02EC16FD0609F443C0A4
:1026800000321105D0F00E94B70F80913D02909169
:102690003E0220914102D092130220931202109226
:1026A000110210921002DC01ED91FC910190F08179
:1026B000E02D60E4099501E010E080913D029091E9
:1026C0003E026991DC01ED91FC910190F081E02DD9
:1026D00009950F5F1F4FCCCF80913B0290913C0238
:1026E000892B31F080915E0290915F020E94D308A5
:1026F000E0914F02F09150029081809154028095B8
:10270000892380836DCF0E94B70F80913D02909105
:102710003E02892B09F462C02091590230915A027D
:1027200040915B0250915C0260E074E284EF90E0C3
:102730000E94531920513109410951095695479575
:10274000379527952093B800DF91CF911F910F9176
:10275000FF90EF90DF90CF900895E0914D02F091BF
:102760004E02808190915302892B8083EC16FD06E6
:1027700061F2899120913B0230913C02232B19F0A8
:102780000E94CC08F3CF28E030E040E8E091490215
:10279000F0914A0290915102582F5423D9F0508160
:1027A000952B9083E0914B02F0914C0290815091D7
:1027B0005202952B9083E0914B02F0914C02508194
:1027C000909152029095952390834695215031091E
:1027D000E9F6CCCF508190959523E3CFE0914F025D
:1027E000F0915002808190915402892B8083ACCF6C
:1027F0000F931F93482FEDE7FAE06491E9E6FAE0C2
:10280000E4918111462FF0E0EE0FFF1FE95AF54FDA
:102810008591949100E412E42FE030E00E94C0150D
:10282000611571058105910529F06F5F7F4F8F4F0D
:102830009F4F9F701F910F9108950E94A01A85EDE0
:102840008093BC0080918B0190918C01A0918D01AF
:10285000B0918E010796A11DB11D23E0B695A795F5
:10286000979587952A95D1F72091BC0024FD03C048
:102870001092D401089540918B0150918C01609188
:102880008D0170918E01452B462B472B69F30097E4
:10289000A105B10541F025E32A95F1F70000019764
:1028A000A109B109E1CF80918A010C94110F1F9207
:1028B0000F920FB60F9211242F933F938F939F93F4
:1028C000AF93BF938091FB019091FC01A091FD011A
:1028D000B091FE013091FA0123E0230F2D3758F516
:1028E0000196A11DB11D2093FA018093FB019093E5
:1028F000FC01A093FD01B093FE018091FF01909136
:102900000002A0910102B09102020196A11DB11D29
:102910008093FF0190930002A0930102B093020202
:10292000BF91AF919F918F913F912F910F900FBECB
:102930000F901F90189526E8230F0296A11DB11D38
:10294000D2CF1F920F920FB60F9211242F933F9365
:102950004F935F936F937F938F939F93AF93BF93A7
:10296000EF93FF938091B900887F803609F44AC0C5
:10297000F0F5883209F4A7C018F5803109F49BC03E
:10298000B8F4882309F4F9C0883009F494C0FF91A1
:10299000EF91BF91AF919F918F917F916F915F91D7
:1029A0004F913F912F910F900FBE0F901F90189550
:1029B000883109F488C0803251F78093D30114C064
:1029C000803409F49DC040F48033B9F38833F9F6BC
:1029D0008093D30185ECB0C0803509F485C088357B
:1029E00009F496C0883499F60E941F14D0CF883914
:1029F00009F48CC038F5883729F050F4883611F086
:102A0000803729F683E08093D4011092D20157C019
:102A1000883809F47BC0803919F0803809F0B7CFC5
:102A20008091D201803208F071C0E091D20181E042
:102A30008E0F8093D2018091BB00F0E0EE54FE4FE8
:102A400080833DC0803B39F0E0F4803A09F479C0DE
:102A5000883A09F09CCF84E08093D4011092B101B0
:102A60001092B001E0910602F09107020995809161
:102A7000B00181110FC081E08093B00110929001EC
:102A800009C0803C09F4A6CF883C09F4A3CF883B59
:102A900009F07DCFE091B10181E08E0F8093B1010B
:102AA000F0E0E057FE4F80818093BB009091B10130
:102AB0008091B00129C08091F9018093BB0085EC21
:102AC0008093BC0064CF9091F8018091F701981732
:102AD00058F5E091F80181E08E0F8093F801F0E065
:102AE000E952FE4F8081E9CFE091F80181E08E0F3D
:102AF0008093F8018091BB00F0E0E952FE4F8083A3
:102B00009091F8018091F7019817C8F285E8D8CF25
:102B1000E091F80181E08E0F8093F8018091BB0075
:102B2000F0E0E952FE4F80838091D60181115CCFA5
:102B300081E08093D50184EA8093BC001092D40197
:102B400026CF85EC8093BC001092D4018091D201F5
:102B5000803230F4E091D201F0E0EE54FE4F10826A
:102B60006091D20170E0E0910402F091050282EBE5
:102B700091E009951092D2010ACF1092D30134CF7F
:102B8000CF92DF92EF92FF920F931F93E82FF92FCE
:102B900005C0015011092109310961F19081962385
:102BA0009417B9F305C0015011092109310911F138
:102BB000908196239413F7CFC12CD12CE12CF12CCA
:102BC0000AC08FEFC81AD80AE80AF80A0C151D05C2
:102BD0002E053F0579F080818623841791F36C2DB3
:102BE0007D2D8E2D9F2D1F910F91FF90EF90DF90E7
:102BF000CF90089560E070E080E090E01F910F9129
:102C0000FF90EF90DF90CF900895A4E1B2E013968B
:102C10001C921E92129748EE53E060E070E014960A
:102C20004D935D936D937C9317978AE091E0119695
:102C30009C938E93E0E2F2E01382128220E830E06F
:102C40003583248380E490E09783868331872087CF
:102C500093878287168A158614861786168681E0E2
:102C6000858B848B2FEF3FEF338B228B318B208B27
:102C7000878B108E128E118E8CE191E09183808370
:102C8000148E138EB68FA58F10A2178E8FEF84A38C
:102C900085A386A387A384E080A780E89AE1A6E0C5
:102CA000B0E085AB96ABA7ABB0AF80EA96E8A1E009
:102CB000B0E081AF92AFA3AFB4AF80E586AF17AEFF
:102CC0000895789484B5826084BD84B5816084BDA4
:102CD00085B5826085BD85B5816085BD80916E00BA
:102CE000816080936E0010928100809181008260EB
:102CF0008093810080918100816080938100809128
:102D000080008160809380008091B1008460809316
:102D1000B1008091B00081608093B00080917A0012
:102D2000846080937A0080917A00826080937A0038
:102D300080917A00816080937A0080917A00806827
:102D400080937A001092C10010920902109208023A
:102D500010921102109210020E94F30E82E795E089
:102D6000909307028093060283E795E09093050213
:102D70008093040280913F0290914002892B11F1CF
:102D80000E945C1220912602309127028091240239
:102D900090912502213231050CF080C0B9016052BA
:102DA000710977FF02C06F5F7F4F759567958357F5
:102DB000910997FD019600E210E023E730E047EB30
:102DC00055E07FC02091260230912702C901079665
:102DD00097FD0796B3E095958795BA95E1F7209111
:102DE000240230912502AC01429FC001439F900D07
:102DF000529F900D11240E947B1990934002809362
:102E00003F02892B09F0BCCF0E945C1281E090E068
:102E10009093330280933202909331028093300278
:102E200060E088E00E94ED050E947C1280E4C82EDC
:102E300082E4D82E8FE0E82EF12CC0E0D0E081E0D3
:102E40000E94F81360930C0270930D0280930E029F
:102E500090930F0280E00E94F81320910C023091B1
:102E60000D0240910E0250910F02260F371F481F8E
:102E7000591FC701B6010E94531930930B022093CA
:102E80000A020E947C1264EF71E080E090E00E94F0
:102E900043062097A1F20E940000D1CFB9016054EF
:102EA000710977FF02C06F5F7F4F759567958255F7
:102EB000910997FD019600E410E022E530E047E932
:102EC00057E0959587950E94BD0D82E08093420260
:102ED00080913D0290913E02892B09F4DFC08DE381
:102EE000809341021092090210920802109211027E
:102EF000109210020E94F30E82E795E09093070271
:102F00008093060283E795E0909305028093040284
:102F10008091480287FD1EC061E00E94ED0561E0DE
:102F2000809148020E94A10561E070E080E090E09D
:102F30000E94430660E0809148020E94A1056AE079
:102F400070E080E090E00E94430661E080914802DA
:102F50000E94A10580913D0290913E02892B09F4C7
:102F60005CC1209155023091560240915702509118
:102F7000580260E074E284EF90E00E9453192051FF
:102F80003109410951095695479537952795209361
:102F9000B80064E089EA95E00E949E1060912602E4
:102FA000615080E292E00E94531164E085EA95E06E
:102FB0000E949E108091420264E1813009F460E138
:102FC00080E292E00E94531164E081EA95E00E9461
:102FD0009E108FE880935D028091240290912502DB
:102FE0008038910509F032C1809126029091270224
:102FF0008034910509F03AC180914202813009F490
:1030000023C18FEC80935D02C2E16AED80E292E021
:103010000E9453116C2F80E292E00E94531161E8EC
:1030200080E292E00E94531160915D0280E292E0A2
:103030000E94531169ED80E292E00E945311809149
:10304000420261EF813009F462E280E292E00E9484
:10305000531166E08BE995E00E949E1080913D023D
:1030600090913E02892B09F405C1209159023091BB
:103070005A0240915B0250915C0260E074E284EF7E
:1030800090E00E9453192051310941095109569588
:103090004795379527952093B800B6CE61E080918B
:1030A00046020E94ED0561E0809147020E94ED0515
:1030B00080914602082E000C990BFC01EF59F54F48
:1030C000E491F0E0EE0FFF1FE355FA4F25913491A4
:1030D00030934E0220934D02FC01EB58F54FE491E2
:1030E000E093530280914702082E000C990BFC01DB
:1030F000EF59F54FE491F0E0EE0FFF1FE355FA4F63
:10310000A591B491B0935002A0934F02FC01EB58EB
:10311000F54FE491E09354028C91E82BEC9380916D
:103120003B0290913C02892B09F434C0CFB7F8944C
:1031300080910302811127C0EBE6FAE08491EFE76A
:10314000FAE09491E82FF0E0EE0FFF1FEF56FA4FF0
:10315000A591B491EC91E92321F461E08AE00E9409
:10316000A10561E08AE00E94ED058CB580618CBD0F
:103170008CB580648CBD61E08DE00E94ED0561E05E
:103180008BE00E94ED05809103028F5F8093030224
:10319000CFBFBECE61E0809144020E94ED0561E0A8
:1031A000809145020E94ED0580914402082E000C9A
:1031B000990BFC01EF59F54FE491F0E0EE0FFF1F82
:1031C000E355FA4F2591349130934A0220934902F6
:1031D000FC01EB58F54FE491E093510280914502D8
:1031E000082E000C990BFC01EF59F54FE491F0E02B
:1031F000EE0FFF1FE355FA4FA591B491B0934C0227
:10320000A0934B02FC01EB58F54FE491E09352027E
:103210008C91E095E823EC937BCE80913B029091DA
:103220003C02892B31F080915E0290915F020E94F6
:10323000D308E0914F02F0915002908180915402A6
:10324000809589238083A5CE8FE9DCCE80369105D9
:1032500069F48091260290912702409739F4809179
:103260004202813029F08FEA80935D02C2E0CDCE28
:1032700080E1FACFE0914F02F0915002808190916D
:103280005402892B8083C0CD8CE191E09093210280
:103290008093200280913F0290914002009711F0AC
:1032A0000C94171A0895A1E21A2EAA1BBB1BFD014C
:1032B0000DC0AA1FBB1FEE1FFF1FA217B307E40715
:1032C000F50720F0A21BB30BE40BF50B661F771F6D
:1032D000881F991F1A9469F760957095809590954D
:1032E0009B01AC01BD01CF010895EE0FFF1F0590BA
:1032F000F491E02D09940F931F93CF93DF938230C5
:10330000910510F482E090E0E0916202F091630296
:1033100030E020E0B0E0A0E0309799F421153105CD
:1033200009F44AC0281B390B24303105D8F58A81AD
:103330009B816115710589F1FB0193838283FE01F5
:1033400011C0408151810281138148175907E0F073
:103350004817590799F4109761F012960C93129739
:1033600013961C933296CF01DF91CF911F910F914D
:1033700008950093620210936302F4CF2115310582
:1033800051F04217530738F0A901DB019A01BD0142
:10339000DF01F801C1CFEF01F9CF90936302809371
:1033A0006202CDCFFE01E20FF31F81939193225071
:1033B000310939832883D7CF20916002309161028F
:1033C000232B41F4209102013091030130936102DB
:1033D00020936002209100013091010121153105F7
:1033E00041F42DB73EB74091040150910501241BD3
:1033F000350BE0916002F0916102E217F307A0F44F
:103400002E1B3F0B2817390778F0AC014E5F5F4F3A
:103410002417350748F04E0F5F1F50936102409309
:103420006002819391939FCFF0E0E0E09CCFCF9337
:10343000DF930097E9F0FC01329713821282A0918A
:103440006202B0916302ED0130E020E01097A1F438
:1034500020813181820F931F20916002309161029F
:103460002817390709F061C0F0936102E093600208
:10347000DF91CF910895EA01CE17DF07E8F54A8181
:103480005B819E0141155105B1F7E901FB83EA8398
:1034900049915991C40FD51FEC17FD0761F4808144
:1034A00091810296840F951FE90199838883828117
:1034B00093819B838A83F0E0E0E012968D919C914A
:1034C00013970097B9F52D913C911197CD01029674
:1034D000820F931F209160023091610228173907F3
:1034E00039F6309751F51092630210926202B09350
:1034F0006102A0936002BCCFD383C283408151811B
:10350000840F951FC817D90761F44E5F5F4F8881FC
:103510009981480F591F518340838A819B819383EE
:1035200082832115310509F0B0CFF0936302E09357
:1035300062029ECFFD01DC01C0CF13821282D7CF81
:1035400081E090E0F8940C94AC1ADC0101C06D931A
:1035500041505040E0F7089515E0C6E4D5E004C0BE
:10356000FE010E9475192196C734D107C9F7F89456
:10357000FFCF00006402800000000000880F5B0F96
:103580000B127105540F410F320F00000000110B98
:1035900074050B12CB0E1C087105B60D8E0DAA0D0D
:1035A0009E0D1E0E7105D708B5118C07D507D70CD7
:0C35B000BA0C420CE30B465245433D00B0
:107E0000112484B714BE81FFF0D085E080938100F7
:107E100082E08093C00088E18093C10086E0809377
:107E2000C20080E18093C4008EE0C9D0259A86E02C
:107E300020E33CEF91E0309385002093840096BBD3
:107E4000B09BFECF1D9AA8958150A9F7CC24DD24C4
:107E500088248394B5E0AB2EA1E19A2EF3E0BF2EE7
:107E6000A2D0813461F49FD0082FAFD0023811F036
:107E7000013811F484E001C083E08DD089C08234E0
:107E800011F484E103C0853419F485E0A6D080C0E4
:107E9000853579F488D0E82EFF2485D0082F10E0AE
:107EA000102F00270E291F29000F111F8ED06801E7
:107EB0006FC0863521F484E090D080E0DECF843638
:107EC00009F040C070D06FD0082F6DD080E0C81688
:107ED00080E7D80618F4F601B7BEE895C0E0D1E017
:107EE00062D089930C17E1F7F0E0CF16F0E7DF06D8
:107EF00018F0F601B7BEE89568D007B600FCFDCFD4
:107F0000A601A0E0B1E02C9130E011968C91119780
:107F100090E0982F8827822B932B1296FA010C0160
:107F200087BEE89511244E5F5F4FF1E0A038BF0790
:107F300051F7F601A7BEE89507B600FCFDCF97BE46
:107F4000E89526C08437B1F42ED02DD0F82E2BD052
:107F50003CD0F601EF2C8F010F5F1F4F84911BD097
:107F6000EA94F801C1F70894C11CD11CFA94CF0C13
:107F7000D11C0EC0853739F428D08EE10CD085E9AC
:107F80000AD08FE07ACF813511F488E018D01DD067
:107F900080E101D065CF982F8091C00085FFFCCF94
:107FA0009093C60008958091C00087FFFCCF809118
:107FB000C00084FD01C0A8958091C6000895E0E648
:107FC000F0E098E1908380830895EDDF803219F02E
:107FD00088E0F5DFFFCF84E1DECF1F93182FE3DFCA
:107FE0001150E9F7F2DF1F91089580E0E8DFEE27F6
:047FF000FF270994CA
:027FFE00040479
:00000001FF
