:100000000C9461000C9473000C9473000C947300B6
:100010000C9473000C9473000C9473000C94730094
:100020000C9473000C9473000C9473000C94730084
:100030000C9473000C9480020C9473000C94730065
:100040000C9436020C9473000C9473000C9473009F
:100050000C9473000C9473000C9473000C94730054
:100060000C94A7020C9473000000000024002700E9
:100070002A0000000000250028002B0000000000DE
:1000800023002600290004040404040404040202DA
:100090000202020203030303030301020408102007
:1000A0004080010204081020010204081020000012
:1000B0000008000201000003040700000000000027
:1000C000000011241FBECFEFD8E0DEBFCDBF21E07E
:1000D000A0E0B1E001C01D92A238B207E1F70E9492
:1000E000C2030C9481090C940000833081F028F441
:1000F000813099F08230A9F008958730A9F08830D6
:10010000C9F08430B1F4809180008F7D03C080916C
:1001100080008F7780938000089584B58F7784BDA9
:10012000089584B58F7DFBCF8091B0008F77809349
:10013000B00008958091B0008F7DF9CFCF93DF9309
:10014000282F30E0F901E255FF4F8491F901E6567E
:10015000FF4FD491F901EA57FF4FC491CC23A1F08E
:1001600081110E947500EC2FF0E0EE0FFF1FE458A4
:10017000FF4FA591B491EC91ED2381E090E009F45B
:1001800080E0DF91CF91089580E090E0FACF1F9357
:10019000CF93DF93282F30E0F901E255FF4F849190
:1001A000F901E656FF4FD491F901EA57FF4FC49188
:1001B000CC23A9F0162F81110E947500EC2FF0E0DE
:1001C000EE0FFF1FEE58FF4FA591B4918FB7F89433
:1001D000EC91111108C0D095DE23DC938FBFDF9125
:1001E000CF911F910895DE2BF8CFCF93DF9390E04E
:1001F000FC01E656FF4F24918A579F4FFC018491E2
:100200008823D1F090E0880F991FFC01E859FF4F37
:10021000A591B491FC01EE58FF4FC591D4916111A5
:100220000EC09FB7F8948C91E22FE0958E238C93AB
:100230002881E223E8839FBFDF91CF9108958FB794
:10024000F894EC91E22BEC938FBFF6CF20912D0127
:10025000260F3327331F21323105ECF42091510151
:10026000FC0190E080E0243069F082E00895A091E4
:100270002D012191AC01435F5E4FA40FB52FB11D3D
:100280002C930196861798F380912D01680F609347
:100290002D0180E0089581E0089508958FEF9FEF8C
:1002A00008958FEF9FEF08958091060190E091955A
:1002B000819591090895CF93DF93CB01EA01642FD3
:1002C0000E942601CE01DF91CF910895CF93DF9355
:1002D0001F92CDB7DEB7698361E0CE0101960E941F
:1002E000260181E090E00F90DF91CF91089590E09A
:1002F00080E008958091040190910501019690930A
:100300000501809304018091020190910301892BE2
:1003100031F560E081E10E94C70081E090E09093B8
:100320000301809302018091040190910501843CB6
:100330009940A1F48091000190910101892BC1F4B1
:1003400060E082E10E94C70081E090E090930101AB
:10035000809300011092050110920401089561E05C
:1003600081E10E94C7001092030110920201DBCFCD
:1003700061E082E10E94C700109201011092000129
:10038000E9CF1F93CF93DF9385ED8093BC008091DD
:10039000090190910A01A0910B01B0910C010796FF
:1003A000A11DB11D23E0B695A795979587952A9530
:1003B000D1F72091BC0024FD03C01092510152C01E
:1003C0004091090150910A0160910B0170910C015B
:1003D000452B462B472B69F30097A105B10541F04A
:1003E00025E32A95F1F700000197A109B109E1CFB2
:1003F00080910801C1E0C0930701882399F1D09151
:10040000B8001091BA008091BC008A7B8093BC0038
:1004100060E082E10E94C70060E083E10E94C700C3
:1004200010925101C09353011092520161E082E198
:100430000E94C70061E083E10E94C7008091B9007B
:100440008E7F8093B9008091B9008D7F8093B90031
:1004500088E48093B80085E48093BC001093BA00D0
:10046000D093B800DF91CF911F9108951F920F9202
:100470000FB60F9211242F933F938F939F93AF93B7
:10048000BF9380917C0190917D01A0917E01B091FC
:100490007F0130917B0123E0230F2D3758F5019622
:1004A000A11DB11D20937B0180937C0190937D0160
:1004B000A0937E01B0937F018091770190917801A4
:1004C000A0917901B0917A010196A11DB11D80938F
:1004D000770190937801A0937901B0937A01BF914D
:1004E000AF919F918F913F912F910F900FBE0F90E1
:1004F0001F90189526E8230F0296A11DB11DD2CF9B
:100500001F920F920FB60F9211242F933F934F9388
:100510005F936F937F938F939F93AF93BF93EF936B
:10052000FF93E0918001F09181010995FF91EF9196
:10053000BF91AF919F918F917F916F915F914F91FB
:100540003F912F910F900FBE0F901F9018951F9203
:100550000F920FB60F9211242F933F934F935F93F7
:100560006F937F938F939F93AF93BF93EF93FF937B
:100570008091B900887F803609F44AC0F0F588324E
:1005800009F4A5C018F5803109F499C0B8F488239E
:1005900009F4F5C0883009F492C0FF91EF91BF9142
:1005A000AF919F918F917F916F915F914F913F910B
:1005B0002F910F900FBE0F901F901895883109F45E
:1005C00086C0803251F78093500114C0803409F402
:1005D0009BC040F48033B9F38833F9F6809350011F
:1005E00085ECAEC0803509F483C0883509F494C029
:1005F000883499F60E94C101D0CF883909F48AC0A5
:1006000038F5883729F050F4883611F0803729F60C
:1006100083E08093510110924F0155C0883809F44E
:1006200079C0803919F0803809F0B7CF80914F0137
:10063000803208F06FC0E0914F0181E08E0F80930F
:100640004F018091BB00F0E0E15DFE4F80833BC035
:10065000803B39F0D0F4803A09F477C0883A09F049
:100660009CCF84E08093510110922E0110922D01B5
:10067000F0E0E0E0099580912D0181110FC081E04B
:1006800080932D0110920D0109C0803C09F4A8CF80
:10069000883C09F4A5CF883B09F07FCFE0912E017B
:1006A00081E08E0F80932E01F0E0E35FFE4F8081AA
:1006B0008093BB0090912E0180912D0129C08091E3
:1006C00076018093BB0085EC8093BC0066CF90914F
:1006D000750180917401981758F5E091750181E0DA
:1006E0008E0F80937501F0E0EC5AFE4F8081E9CFC8
:1006F000E091750181E08E0F809375018091BB00C0
:10070000F0E0EC5AFE4F8083909175018091740166
:100710009817C8F285E8D8CFE091750181E08E0F77
:10072000809375018091BB00F0E0EC5AFE4F80830E
:100730008091530181115ECF81E08093520184EA60
:100740008093BC001092510128CF85EC8093BC00AF
:100750001092510180914F01803230F4E0914F01AD
:10076000F0E0E15DFE4F108260914F0170E08FE29A
:1007700091E0F0E0E0E0099510924F010ECF109269
:10078000500138CF789484B5826084BD84B581608F
:1007900084BD85B5826085BD85B5816085BD80914C
:1007A0006E00816080936E001092810080918100C4
:1007B00082608093810080918100816080938100BC
:1007C000809180008160809380008091B10084607E
:1007D0008093B1008091B00081608093B0008091DF
:1007E0007A00846080937A0080917A00826080939E
:1007F0007A0080917A00816080937A0080917A00FB
:10080000806880937A001092C10060E081E00E94CD
:10081000F50060E082E00E94F50060E083E00E9465
:10082000F50060E084E00E94F50060E085E00E9451
:10083000F50060E086E00E94F50060E087E00E943D
:10084000F50061E088E00E94F50061E089E00E9427
:10085000F50061E08AE00E94F50061E08BE00E9413
:10086000F50061E08CE00E94F50061E08DE00E94FF
:10087000F50061E08EE00E94F50061E08FE00E94EB
:10088000F50061E080E10E94F50061E081E10E94F5
:10089000F50061E082E10E94F50080E18093810033
:1008A0001092800080E89EE39093870080938600FA
:1008B00081E1809381008AE791E0909381018093A8
:1008C000800181E080936F00F0E0EF2EF0E0FF2EDA
:1008D00081E00E949E0031E020E0019709F030E0C5
:1008E000C32FD22F82E00E949E00019779F4BE01AF
:1008F000DD0F880B990B0E94F50820E030E040E006
:1009000050E40E9451080E94BD08EB0183E00E9460
:100910009E00019779F4BE01DD0F880B990B0E94B0
:10092000F50820E030E040E850E40E9451080E94C1
:10093000BD08EB0184E00E949E00019779F4BE019E
:10094000DD0F880B990B0E94F50820E030E040E0B5
:1009500051E40E9451080E94BD08EB0185E00E940D
:100960009E00019779F4BE01DD0F880B990B0E9460
:10097000F50820E030E040E851E40E9451080E9470
:10098000BD08EB0186E00E949E00019779F4BE014C
:10099000DD0F880B990B0E94F50820E030E040E065
:1009A00052E40E9451080E94BD08EB0187E00E94BA
:1009B0009E00019779F4BE01DD0F880B990B0E9410
:1009C000F50820E030E040E852E40E9451080E941F
:1009D000BD08EB01CA30D10508F0A9C2BE01C0FDB7
:1009E00098C275956795B12C60FD9AC2759567950B
:1009F000C12CDD24D39410E000E060FD04C08B0125
:100A000015950795D12C6B2D88E00E94C7006C2DA1
:100A100089E00E94C7006D2D8AE00E94C700602F08
:100A20008BE00E94C70060E08CE00E94C70060E09D
:100A30008DE00E94C70060E08EE00E94C70060E089
:100A40008FE00E94C70060E080E10E94C700D0E014
:100A5000C0E0CE010A978A309105B8F580FD6DC2DD
:100A6000EC01D595C795C0FD70C2D595C795C0FD61
:100A700072C2D595C795209709F4E8016B2D88E0DF
:100A80000E94C7006C2D89E00E94C7006D2D8AE08E
:100A90000E94C7006C2F8BE00E94C70061E08CE0D1
:100AA0000E94C70060E08DE00E94C70060E08EE019
:100AB0000E94C70060E08FE00E94C70060E080E114
:100AC0000E94C7008E01D0E0C0E0CE0144978A307A
:100AD0009105B8F580FD42C2EC01D595C795C0FDE2
:100AE00045C2D595C795C0FD47C2D595C7952097F6
:100AF00009F4E8016B2D88E00E94C7006C2D89E0A5
:100B00000E94C7006D2D8AE00E94C7006C2F8BE009
:100B10000E94C70060E08CE00E94C70061E08DE0A9
:100B20000E94C70060E08EE00E94C70060E08FE096
:100B30000E94C70060E080E10E94C7008E01D0E003
:100B4000C0E0CE014E978A309105B8F580FD17C2FE
:100B5000EC01D595C795C0FD1AC2D595C795C0FDC6
:100B60001CC2D595C795209709F4E8016B2D88E044
:100B70000E94C7006C2D89E00E94C7006D2D8AE09D
:100B80000E94C7006C2F8BE00E94C70061E08CE0E0
:100B90000E94C70061E08DE00E94C70060E08EE027
:100BA0000E94C70060E08FE00E94C70060E080E123
:100BB0000E94C7008E01D0E0C0E0CE0188978A3045
:100BC0009105B8F580FDECC1EC01D595C795C0FD48
:100BD000EFC1D595C795C0FDF1C1D595C7952097B3
:100BE00009F4E8016B2D88E00E94C7006C2D89E0B4
:100BF0000E94C7006D2D8AE00E94C7006C2F8BE019
:100C00000E94C70060E08CE00E94C70060E08DE0B9
:100C10000E94C70061E08EE00E94C70060E08FE0A4
:100C20000E94C70060E080E10E94C7008E01D0E012
:100C3000C0E0CE01C2978A309105B8F580FDC1C1F0
:100C4000EC01D595C795C0FDC4C1D595C795C0FD2C
:100C5000C6C1D595C795209709F4E8016B2D88E0AA
:100C60000E94C7006C2D89E00E94C7006D2D8AE0AC
:100C70000E94C7006C2F8BE00E94C70061E08CE0EF
:100C80000E94C70060E08DE00E94C70061E08EE036
:100C90000E94C70060E08FE00E94C70060E080E132
:100CA0000E94C7008E01D0E0C0E0CE01CC978A3010
:100CB0009105B8F580FD96C1EC01D595C795C0FDAD
:100CC00099C1D595C795C0FD9BC1D595C79520976E
:100CD00009F4E8016B2D88E00E94C7006C2D89E0C3
:100CE0000E94C7006D2D8AE00E94C7006C2F8BE028
:100CF0000E94C70060E08CE00E94C70061E08DE0C8
:100D00000E94C70061E08EE00E94C70060E08FE0B3
:100D10000E94C70060E080E10E94C7008E01D0E021
:100D2000C0E0BE01665471096A307105B8F560FD16
:100D30006AC1EB01D595C795C0FD6EC1D595C79524
:100D4000C0FD70C1D595C795209709F4E8016B2DBA
:100D500088E00E94C7006C2D89E00E94C7006D2DBD
:100D60008AE00E94C7006C2F8BE00E94C70061E000
:100D70008CE00E94C70061E08DE00E94C70061E046
:100D80008EE00E94C70060E08FE00E94C70060E034
:100D900080E10E94C7008E01D0E0C0E0BE01605536
:100DA00071096A307105B8F560FD3FC1EB01D59559
:100DB000C795C0FD43C1D595C795C0FD45C1D59523
:100DC000C795209709F4E8016B2D88E00E94C700C1
:100DD0006C2D89E00E94C7006D2D8AE00E94C7003B
:100DE0006C2F8BE00E94C70060E08CE00E94C7007F
:100DF00060E08DE00E94C70060E08EE00E94C700C6
:100E000061E08FE00E94C70060E080E10E94C700BF
:100E10008E01D0E0C0E0BE016A5571096A307105EB
:100E2000B8F560FD14C1EB01D595C795C0FD18C19B
:100E3000D595C795C0FD1AC1D595C795209709F4DA
:100E4000E8016B2D88E00E94C7006C2D89E00E94AC
:100E5000C7006D2D8AE00E94C7006C2F8BE00E94B6
:100E6000C70061E08CE00E94C70060E08DE00E9456
:100E7000C70060E08EE00E94C70061E08FE00E9442
:100E8000C70060E080E10E94C7008E01D0E0C0E0B2
:100E9000BE01645671096A307105A0F560FDE9C0B4
:100EA0007595679560FDF1C07595679560FDF4C017
:100EB000EB01D595C795209709F4E8016B2D88E0E3
:100EC0000E94C7006C2D89E00E94C7006D2D8AE04A
:100ED0000E94C7006C2F8BE00E94C70060E08CE08E
:100EE0000E94C70060E08DE00E94C70060E08EE0D5
:100EF0000E94C70060E08FE00E94C70061E080E1CF
:100F00000E94C700E114F10409F4E2CC0E94000041
:100F1000DFCC6150710975956795BB24B39464CD9E
:100F20006150710975956795CC24C39462CD10E02A
:100F300000E0D12CC12CB12C8CCD2B97D7FDEC012E
:100F4000D595C795BB24B3948ECD2197D595C795DC
:100F5000CC24C3948CCDDD24D3948FCD6597D7FD5D
:100F6000EC01D595C795BB24B394B9CD2197D59500
:100F7000C795CC24C394B7CDDD24D394BACD6F9755
:100F8000D7FDEC01D595C795BB24B394E4CD21974B
:100F9000D595C795CC24C394E2CDDD24D394E5CD7B
:100FA000A997D7FDEC01D595C795BB24B3940FCE77
:100FB0002197D595C795CC24C3940DCEDD24D39429
:100FC00010CEE397D7FDEC01D595C795BB24B3941C
:100FD0003ACE2197D595C795CC24C39438CEDD243D
:100FE000D3943BCEED97D7FDEC01D595C795BB24A7
:100FF000B39465CE2197D595C795CC24C39463CE81
:10100000DD24D39466CEC754D109D7FD2196D5955A
:10101000C795BB24B39490CE2197D595C795CC2482
:10102000C3948ECEDD24D39491CEC155D109D7FD82
:101030002196D595C795BB24B394BBCE2197D59562
:10104000C795CC24C394B9CEDD24D394BCCECB5564
:10105000D109D7FD2196D595C795BB24B394E6CE8B
:101060002197D595C795CC24C394E4CEDD24D394A1
:10107000E7CEBE016556710977FF02C06F5F7F4FF3
:1010800075956795BB24B3940DCF61507109759523
:101090006795CC24C3940ACFDD24D3940ECF089552
:1010A0005058BB27AA270E9468080C9447090E9441
:1010B000390938F00E94400920F039F49F3F19F4B3
:1010C00026F40C9436090EF4E095E7FB0C943009F5
:1010D000E92F0E94580958F3BA176207730784076B
:1010E000950720F079F4A6F50C947A090EF4E095B2
:1010F0000B2EBA2FA02D0B01B90190010C01CA01D2
:10110000A0011124FF27591B99F0593F50F4503E7C
:1011100068F11A16F040A22F232F342F4427585F6E
:10112000F3CF469537952795A795F0405395C9F786
:101130007EF41F16BA0B620B730B840BBAF091503E
:10114000A1F0FF0FBB1F661F771F881FC2F70EC0DD
:10115000BA0F621F731F841F48F4879577956795B0
:10116000B795F7959E3F08F0B0CF9395880F08F09C
:101170009927EE0F9795879508950E94C408689463
:10118000B1110C947B0908950E94600988F09F5763
:1011900098F0B92F9927B751B0F0E1F0660F771F9B
:1011A000881F991F1AF0BA95C9F714C0B13091F091
:1011B0000E947A09B1E008950C947A09672F782F7C
:1011C0008827B85F39F0B93FCCF386957795679556
:1011D000B395D9F73EF490958095709561957F4FC2
:1011E0008F4F9F4F0895E89409C097FB3EF4909568
:1011F0008095709561957F4F8F4F9F4F9923A9F0F0
:10120000F92F96E9BB279395F6958795779567957E
:10121000B795F111F8CFFAF4BB0F11F460FF1BC0C2
:101220006F5F7F4F8F4F9F4F16C0882311F096E955
:1012300011C0772321F09EE8872F762F05C0662303
:1012400071F096E8862F70E060E02AF09A95660FBC
:10125000771F881FDAF7880F9695879597F9089575
:1012600097F99F6780E870E060E008959FEF80EC59
:10127000089500240A9416161706180609060895FC
:1012800000240A9412161306140605060895092E62
:101290000394000C11F4882352F0BB0F40F4BF2BD1
:1012A00011F460FF04C06F5F7F4F8F4F9F4F089511
:1012B00057FD9058440F551F59F05F3F71F0479507
:1012C000880F97FB991F61F09F3F79F087950895EC
:1012D000121613061406551FF2CF4695F1DF08C00B
:1012E000161617061806991FF1CF86957105610528
:1012F00008940895E894BB2766277727CB0197F9D0
:061300000895F894FFCFF0
:00000001FF
