:100000000C9461000C9473000C9473000C947300B6
:100010000C9473000C9473000C9473000C94730094
:100020000C9473000C9473000C9473000C94730084
:100030000C9473000C9473000C9473000C94730074
:100040000C9414020C9473000C9473000C947300C1
:100050000C9473000C9473000C9473000C94730054
:100060000C945E020C947300000000002400270032
:100070002A0000000000250028002B0000000000DE
:1000800023002600290004040404040404040202DA
:100090000202020203030303030301020408102007
:1000A0004080010204081020010204081020000012
:1000B0000008000201000003040700000000000027
:1000C000000011241FBECFEFD8E0DEBFCDBF21E07E
:1000D000A0E0B1E001C01D92AA37B207E1F70E948B
:1000E00079030C9476040C940000833081F028F49A
:1000F000813099F08230A9F008958730A9F08830D6
:10010000C9F08430B1F4809180008F7D03C080916C
:1001100080008F7780938000089584B58F7784BDA9
:10012000089584B58F7DFBCF8091B0008F77809349
:10013000B00008958091B0008F7DF9CFCF93DF9309
:10014000282F30E0F901E255FF4F8491F901E6567E
:10015000FF4FD491F901EA57FF4FC491CC23A1F08E
:1001600081110E947500EC2FF0E0EE0FFF1FE458A4
:10017000FF4FA591B491EC91ED2381E090E009F45B
:1001800080E0DF91CF91089580E090E0FACF1F9357
:10019000CF93DF93282F30E0F901E255FF4F849190
:1001A000F901E656FF4FD491F901EA57FF4FC49188
:1001B000CC23A9F0162F81110E947500EC2FF0E0DE
:1001C000EE0FFF1FEE58FF4FA591B4918FB7F89433
:1001D000EC91111108C0D095DE23DC938FBFDF9125
:1001E000CF911F910895DE2BF8CFCF93DF9390E04E
:1001F000FC01E656FF4F24918A579F4FFC018491E2
:100200008823D1F090E0880F991FFC01E859FF4F37
:10021000A591B491FC01EE58FF4FC591D4916111A5
:100220000EC09FB7F8948C91E22FE0958E238C93AB
:100230002881E223E8839FBFDF91CF9108958FB794
:10024000F894EC91E22BEC938FBFF6CF3FB7F89484
:100250008091760190917701A0917801B091790118
:1002600026B5A89B05C02F3F19F00196A11DB11D11
:100270003FBFBA2FA92F982F8827BC01CD01620F4D
:10028000711D811D911D42E0660F771F881F991F08
:100290004A95D1F7089520912701260F3327331F60
:1002A00021323105ECF420914B01FC0190E080E01B
:1002B000243069F082E00895A09127012191AC01DA
:1002C000495F5E4FA40FB52FB11D2C930196861781
:1002D00098F380912701680F6093270180E00895CB
:1002E00081E0089508958FEF9FEF08958FEF9FEFBE
:1002F00008958091000190E091958195910908956C
:10030000CF93DF93CB01EA01642F0E944B01CE0112
:10031000DF91CF910895CF93DF931F92CDB7DEB7D2
:10032000698361E0CE0101960E944B0181E090E07B
:100330000F90DF91CF91089590E080E008951F9392
:10034000CF93DF9385ED8093BC0080910301909162
:100350000401A0910501B09106010796A11DB11DF0
:1003600023E0B695A795979587952A95D1F7209183
:10037000BC0024FD03C010924B0152C04091030108
:10038000509104016091050170910601452B462BA7
:10039000472B69F30097A105B10541F025E32A95A4
:1003A000F1F700000197A109B109E1CF80910201A5
:1003B000C1E0C0930101882399F1D091B800109158
:1003C000BA008091BC008A7B8093BC0060E082E12F
:1003D0000E94C70060E083E10E94C70010924B01B9
:1003E000C0934D0110924C0161E082E10E94C70070
:1003F00061E083E10E94C7008091B9008E7F809305
:10040000B9008091B9008D7F8093B90088E4809312
:10041000B80085E48093BC001093BA00D093B80074
:10042000DF91CF911F9108951F920F920FB60F92F7
:1004300011242F933F938F939F93AF93BF938091FA
:10044000720190917301A0917401B0917501309186
:10045000710123E0230F2D3758F50196A11DB11D21
:10046000209371018093720190937301A0937401A2
:10047000B09375018091760190917701A0917801F8
:10048000B09179010196A11DB11D809376019093E1
:100490007701A0937801B0937901BF91AF919F91BB
:1004A0008F913F912F910F900FBE0F901F90189535
:1004B00026E8230F0296A11DB11DD2CF1F920F92E5
:1004C0000FB60F9211242F933F934F935F936F9327
:1004D0007F938F939F93AF93BF93EF93FF938091FD
:1004E000B900887F803609F44AC0F0F5883209F4F3
:1004F000A5C018F5803109F499C0B8F4882309F42F
:10050000F5C0883009F492C0FF91EF91BF91AF918F
:100510009F918F917F916F915F914F913F912F911B
:100520000F900FBE0F901F901895883109F486C068
:10053000803251F780934A0114C0803409F49BC083
:1005400040F48033B9F38833F9F680934A0185EC9F
:10055000AEC0803509F483C0883509F494C088346E
:1005600099F60E949F01D0CF883909F48AC038F5E6
:10057000883729F050F4883611F0803729F683E067
:1005800080934B011092490155C0883809F479C015
:10059000803919F0803809F0B7CF80914901803255
:1005A00008F06FC0E091490181E08E0F809349010E
:1005B0008091BB00F0E0E75DFE4F80833BC0803B55
:1005C00039F0D0F4803A09F477C0883A09F09CCF2A
:1005D00084E080934B011092280110922701F0E0F3
:1005E000E0E009958091270181110FC081E080939F
:1005F00027011092070109C0803C09F4A8CF883C6C
:1006000009F4A5CF883B09F07FCFE091280181E074
:100610008E0F80932801F0E0E95FFE4F8081809388
:10062000BB00909128018091270129C08091700121
:100630008093BB0085EC8093BC0066CF90916F01E6
:1006400080916E01981758F5E0916F0181E08E0F4F
:1006500080936F01F0E0E25BFE4F8081E9CFE09193
:100660006F0181E08E0F80936F018091BB00F0E0FD
:10067000E25BFE4F808390916F0180916E0198172D
:10068000C8F285E8D8CFE0916F0181E08E0F8093AA
:100690006F018091BB00F0E0E25BFE4F80838091B0
:1006A0004D0181115ECF81E080934C0184EA8093FB
:1006B000BC0010924B0128CF85EC8093BC001092B7
:1006C0004B0180914901803230F4E0914901F0E022
:1006D000E75DFE4F10826091490170E089E291E090
:1006E000F0E0E0E00995109249010ECF10924A0126
:1006F00038CF789484B5826084BD84B5816084BD30
:1007000085B5826085BD85B5816085BD80916E00AF
:10071000816080936E0010928100809181008260E0
:10072000809381008091810081608093810080911D
:1007300080008160809380008091B100846080930C
:10074000B1008091B00081608093B00080917A0008
:10075000846080937A0080917A00826080937A002E
:1007600080917A00816080937A0080917A0080681D
:1007700080937A001092C10060E081E00E94F50051
:1007800060E082E00E94F50060E083E00E94F500F6
:1007900060E084E00E94F50060E085E00E94F500E2
:1007A00060E086E00E94F50060E087E00E94F500CE
:1007B00061E088E00E94F50061E089E00E94F500B8
:1007C00061E08AE00E94F50061E08BE00E94F500A4
:1007D00061E08CE00E94F50061E08DE00E94F50090
:1007E00061E08EE00E94F50061E08FE00E94F5007C
:1007F00061E080E10E94F50061E081E10E94F50086
:1008000061E082E10E94F500C0E0D0E060E088E0B5
:100810000E94C70060E089E00E94C70060E08AE0B3
:100820000E94C70060E08BE00E94C70060E08CE09F
:100830000E94C70060E08DE00E94C70060E08EE08B
:100840000E94C70060E08FE00E94C70060E080E186
:100850000E94C70081E00E949E0082E00E949E00EC
:1008600083E00E949E0084E00E949E0085E00E943A
:100870009E0086E00E949E0087E00E949E0060E04D
:1008800089E00E94C70060E08AE00E94C70060E043
:100890008BE00E94C7000E9426014B015C0184E6A8
:1008A000C82ED12CE12CF12C0E942601681979095F
:1008B0008A099B09683E734081059105A8F321E0F0
:1008C000C21AD108E108F10888EE880E83E0981E6C
:1008D000A11CB11CC114D104E104F10429F7209733
:1008E00009F494CF0E94000091CF0895F894FFCFAF
:00000001FF
