:020000040000FA
:100000000C9462000C948A000C948A000C948A0070
:100010000C948A000C948A000C948A000C948A0038
:100020000C948A000C948A000C948A000C948A0028
:100030000C948A000C9426050C948A000C948A0077
:100040000C94DC040C948A000C948A000C948A00B2
:100050000C948A000C948A000C948A000C948A00F8
:100060000C944D050C948A00000000002400270029
:100070002A0000000000250028002B0000000000DE
:1000800023002600290004040404040404040202DA
:100090000202020203030303030301020408102007
:1000A0004080010204081020010204081020000012
:1000B0000008000201000003040700000000000027
:1000C0000000B10611241FBECFEFD8E0DEBFCDBFC8
:1000D00011E0A0E0B1E0E6E9F9E102C005900D927F
:1000E000A236B107D9F722E0A2E6B1E001C01D9225
:1000F000AD34B207E1F710E0C2E6D0E004C02197CA
:10010000FE010E94C30CC136D107C9F70E94D10677
:100110000C94C90C0C94000008950895AF92BF92FE
:10012000CF92DF92EF92FF920F931F93CF93DF93C3
:100130006C017B018B01040F151FEB015E01AE18F2
:10014000BF08C017D10759F06991D601ED91FC9114
:100150000190F081E02DC6010995892B79F7C50141
:10016000DF91CF911F910F91FF90EF90DF90CF9093
:10017000BF90AF900895833081F028F4813099F0DA
:100180008230A9F008958730A9F08830C9F0843012
:10019000B1F4809180008F7D03C0809180008F77C3
:1001A00080938000089584B58F7784BD089584B5C9
:1001B0008F7DFBCF8091B0008F778093B000089542
:1001C0008091B0008F7DF9CFCF93DF93282F30E05F
:1001D000F901E255FF4F8491F901E656FF4FD491A2
:1001E000F901EA57FF4FC491CC23A1F081110E947D
:1001F000BB00EC2FF0E0EE0FFF1FE458FF4FA5917E
:10020000B491EC91ED2381E090E009F480E0DF917E
:10021000CF91089580E090E0FACF1F93CF93DF93C2
:10022000282F30E0F901E255FF4F8491F901E6569D
:10023000FF4FD491F901EA57FF4FC491CC23A9F0A5
:10024000162F81110E94BB00EC2FF0E0EE0FFF1F74
:10025000EE58FF4FA591B4918FB7F894EC9111111E
:1002600008C0D095DE23DC938FBFDF91CF911F9123
:100270000895DE2BF8CFCF93DF9390E0FC01E65694
:10028000FF4F24918A579F4FFC0184918823D1F01E
:1002900090E0880F991FFC01E859FF4FA591B49198
:1002A000FC01EE58FF4FC591D49161110EC09FB76C
:1002B000F8948C91E22FE0958E238C932881E22391
:1002C000E8839FBFDF91CF9108958FB7F894EC91A9
:1002D000E22BEC938FBFF6CF3FB7F89480911F02CB
:1002E00090912002A0912102B091220226B5A89BF4
:1002F00005C02F3F19F00196A11DB11D3FBFBA2FB8
:10030000A92F982F8827BC01CD01620F711D811D77
:10031000911D42E0660F771F881F991F4A95D1F7FC
:1003200008958F929F92AF92BF92CF92DF92EF92F9
:10033000FF924B015C010E946C016B017C010E94E9
:100340006C016C197D098E099F09683E7340810517
:100350009105A8F321E0821A9108A108B10888EE5E
:10036000C80E83E0D81EE11CF11C81149104A10485
:10037000B10429F7FF90EF90DF90CF90BF90AF903E
:100380009F908F90089508952091A901260F3327FB
:10039000331F21323105ECF42091F201FC0190E091
:1003A00080E0243069F082E00895A091A9012191B4
:1003B000AC0147575E4FA40FB52FB11D2C9301968A
:1003C000861798F38091A901680F6093A90180E0D6
:1003D000089581E008951092F20181E08093F10187
:1003E0001092CC0161E082E10E940D0161E083E1A5
:1003F0000E940D01E9EBF0E080818E7F8083808197
:100400008D7F808388E48093B80085E48093BC006E
:100410000895CF93DF9391E0909388018823B9F0FA
:10042000C091B800D091BA008091BC008A7B8093C3
:10043000BC0060E082E10E940D0160E083E10E9467
:100440000D010E94EB01D093BA00C093B800DF9178
:10045000CF9108950895E0912A0280912902E8172A
:1004600030F4F0E0E859FE4F808190E008958FEF7E
:100470009FEF089590912A02809129022FEF3FEF7C
:10048000981748F4E92FF0E0E859FE4F208130E05A
:100490009F5F90932A02C90108958091290290914B
:1004A0002A02891B990B0895CF92DF92EF92FF9257
:1004B0000F931F93CF93DF937C01CB018A0120918F
:1004C000F801222389F0EB016B01C40ED51ECC1577
:1004D000DD0569F06991D701ED91FC910190F08102
:1004E000E02DC7010995F3CF642F0E94C401C80114
:1004F000DF91CF911F910F91FF90EF90DF90CF9000
:100500000895CF93DF931F92CDB7DEB76983209113
:10051000F8012223F9F020912702203258F021E03F
:1005200030E0FC013383228390E080E00F90DF9184
:10053000CF91089580912802E82FF0E0E750FE4F18
:10054000998190838F5F809328028093270281E0B6
:1005500090E0ECCF61E0CE0101960E94C401F7CF9C
:10056000CF92DF92EF92FF920F931F93CF93DF937F
:10057000FC01C48121E02093F801C093190210927C
:100580002802109227028385682B85E392E00E945F
:100590008102D0912702D13208F092C00E946C01F2
:1005A0006B017C018091F201811165C082E0809332
:1005B000F20181E08093F1018FEF8093F0011092BE
:1005C000EF01D093EE01A9EFB1E0EEECF1E080E0B5
:1005D000D81385C01092CD018091CD01CC0FC82BCE
:1005E000C093CD018091CC01813009F07CC0109284
:1005F000CC010E946C016B017C018091CD01809344
:10060000BB008091F4019091F501A091F601B091A9
:10061000F701892B8A2B8B2B99F00E946C0100919A
:10062000F4011091F5012091F6013091F7016C1958
:100630007D098E099F090617170728073907E0F17A
:100640008091BC0083FDD9CF85EC8093BC000E94D3
:100650006C016B017C018091F201823009F445C08C
:100660008091F0018F3F61F18091F001803241F182
:100670008091F00125C08091F4019091F501A09145
:10068000F601B091F701892B8A2B8B2B09F48ACFC5
:100690000E946C010091F4011091F5012091F60186
:1006A0003091F7016C197D098E099F09061717070C
:1006B0002807390708F076CF8091F3010E940902DC
:1006C00010922802109227021092F801DF91CF9128
:1006D0001F910F91FF90EF90DF90CF9008959D9123
:1006E00091938F5F75CF85EEB0CF8091F40190919B
:1006F000F501A091F601B091F701892B8A2B8B2B84
:1007000009F4A9CF0E946C010091F4011091F50148
:100710002091F6013091F7016C197D098E099F092E
:10072000061717072807390708F095CFC5CF90E0BF
:1007300080E0089580916601909167010196909301
:100740006701809366018091640190916501892B16
:1007500031F560E089E00E940D0181E090E0909326
:1007600065018093640180916601909167018C3DE1
:100770009540A1F48091620190916301892BC1F4AD
:1007800060E088E00E940D0181E090E090936301B9
:10079000809362011092670110926601089561E0F2
:1007A00089E00E940D011092650110926401DBCF77
:1007B00061E088E00E940D011092630110926201D5
:1007C000E9CFFC0101900020E9F73197AF01481B08
:1007D000590BBC0181E492E00C948E008F929F92A1
:1007E000AF92BF920F931F93CF93DF93CDB7DEB736
:1007F000A1970FB6F894DEBF0FBECDBF19A242304D
:1008000008F44AE08E010F5D1F4F842E912CB12C0D
:10081000A12CA50194010E94A10CE62FB901CA01E7
:10082000EA30F4F4E05DD801EE938D01232B242B04
:10083000252B79F790E080E0109719F0CD010E9408
:10084000E103A1960FB6F894DEBF0FBECDBFDF91D6
:10085000CF911F910F91BF90AF909F908F9008956F
:10086000E95CE1CF0F931F93CF938C01C62F0E94B9
:10087000B0026C2F6460C8010E94B0026C2F6B7FC5
:10088000C8010E94B00283EC90E00197F1F7CF918C
:100890001F910F9108950F931F93CF93DF938C01B6
:1008A000D62FC42F607F642B0E94320480E1D89F32
:1008B000B00111246C2BC801DF91CF911F910F91D2
:1008C0000C94320440E061E081E492E00E944B0429
:1008D0008BE39FE10197F1F70895CF93DF93CDB7B5
:1008E000DEB728970FB6F894DEBF0FBECDBF98E0F5
:1008F000E0E0F1E0DE01119601900D929A95E1F7AA
:1009000090914902981708F48FEF90E0880F991F93
:1009100021E030E02C0F3D1F820F931FFC0160810E
:10092000606840E081E492E028960FB6F894DEBF5C
:100930000FBECDBFDF91CF910C944B0441E00E94DC
:100940004B0481E090E0089585ED8093BC00809198
:10095000F4019091F501A091F601B091F70107968D
:10096000A11DB11D23E0B695A795979587952A956A
:10097000D1F72091BC0024FD03C01092F20108952C
:100980004091F4015091F5016091F6017091F701E9
:10099000452B462B472B69F30097A105B10541F084
:1009A00025E32A95F1F700000197A109B109E1CFEC
:1009B0008091F3010C9409021F920F920FB60F92CF
:1009C00011242F933F938F939F93AF93BF93809165
:1009D0001B0290911C02A0911D02B0911E02309149
:1009E0001A0223E0230F2D3758F50196A11DB11DE2
:1009F00020931A0280931B0290931C02A0931D0265
:100A0000B0931E0280911F0290912002A0912102BA
:100A1000B09122020196A11DB11D80931F029093F7
:100A20002002A0932102B0932202BF91AF919F9127
:100A30008F913F912F910F900FBE0F901F9018959F
:100A400026E8230F0296A11DB11DD2CF1F920F924F
:100A50000FB60F9211242F933F934F935F936F9391
:100A60007F938F939F93AF93BF93EF93FF93E09107
:100A70002B02F0912C020995FF91EF91BF91AF915C
:100A80009F918F917F916F915F914F913F912F91A6
:100A90000F900FBE0F901F9018951F920F920FB6D8
:100AA0000F9211242F933F934F935F936F937F93F4
:100AB0008F939F93AF93BF93EF93FF938091B90070
:100AC000887F803609F44AC0F0F5883209F4A7C05F
:100AD00018F5803109F49BC0B8F4882309F4F9C0F3
:100AE000883009F494C0FF91EF91BF91AF919F912D
:100AF0008F917F916F915F914F913F912F910F90C7
:100B00000FBE0F901F901895883109F488C080326D
:100B100051F78093F00114C0803409F49DC040F473
:100B20008033B9F38833F9F68093F00185ECB0C0D7
:100B3000803509F485C0883509F496C0883499F663
:100B40000E94A404D0CF883909F48CC038F58837C6
:100B500029F050F4883611F0803729F683E080932D
:100B6000F2011092CB0157C0883809F47BC080395C
:100B700019F0803809F0B7CF8091CB01803208F0AE
:100B800071C0E091CB0181E08E0F8093CB01809109
:100B9000BB00F0E0E555FE4F80833DC0803B39F05F
:100BA000E0F4803A09F479C0883A09F09CCF84E0F7
:100BB0008093F2011092AA011092A901E0912502FE
:100BC000F091260209958091A90181110FC081E061
:100BD0008093A9011092890109C0803C09F4A6CF35
:100BE000883C09F4A3CF883B09F07DCFE091AA01AE
:100BF00081E08E0F8093AA01F0E0E757FE4F8081DD
:100C00008093BB009091AA018091A90129C0809195
:100C1000CD018093BB0085EC8093BC0064CF9091A4
:100C2000EF018091EE01981758F5E091EF0181E016
:100C30008E0F8093EF01F0E0E253FE4F8081E9CF09
:100C4000E091EF0181E08E0F8093EF018091BB0076
:100C5000F0E0E253FE4F80839091EF018091EE012E
:100C60009817C8F285E8D8CFE091EF0181E08E0FA8
:100C70008093EF018091BB00F0E0E253FE4F808350
:100C80008091F10181115CCF81E08093CC0184EAF5
:100C90008093BC001092F20126CF85EC8093BC00BB
:100CA0001092F2018091CB01803230F4E091CB01BF
:100CB000F0E0E555FE4F10826091CB0170E0E091CD
:100CC0002302F09124028BEA91E009951092CB0166
:100CD0000ACF1092F00134CFCF92DF92EF92FF92C1
:100CE0000F931F93E82FF92F05C001501109210917
:100CF000310961F1908196239417B9F305C0015031
:100D000011092109310911F1908196239413F7CF2C
:100D1000C12CD12CE12CF12C0AC08FEFC81AD80AB3
:100D2000E80AF80A0C151D052E053F0579F08081AB
:100D30008623841791F36C2D7D2D8E2D9F2D1F9171
:100D40000F91FF90EF90DF90CF90089560E070E0FA
:100D500080E090E01F910F91FF90EF90DF90CF9097
:100D60000895E5E3F2E01382128288EE93E0A0E0BA
:100D7000B0E084839583A683B7838CE091E0918370
:100D80008083E1E4F2E0138212828EE191E09183AC
:100D900080838FE3848380E1818782E0828713866A
:100DA0000895789484B5826084BD84B5816084BDE3
:100DB00085B5826085BD85B5816085BD80916E00F9
:100DC000816080936E00109281008091810082602A
:100DD0008093810080918100816080938100809167
:100DE00080008160809380008091B1008460809356
:100DF000B1008091B00081608093B00080917A0052
:100E0000846080937A0080917A00826080937A0077
:100E100080917A00816080937A0080917A00806866
:100E200080937A001092C10010922A021092290237
:100E300010922802109227020E94EB018CE890E0A9
:100E400090932602809325028DE890E090932402EF
:100E5000809323021092460280914B02823018F058
:100E600098E0909346028093490262E370E080E04C
:100E700090E00E94910160914C0281E492E00E9416
:100E8000B00268EE73E080E090E00E94910160E3C0
:100E900081E492E00E943204CBE4D6E4CE010197D3
:100EA000F1F760E381E492E00E9432042197F1F7C8
:100EB00060E381E492E00E94320483E592E00197CE
:100EC000F1F760E281E492E00E9432046091460210
:100ED000606240E081E492E00E944B0484E08093F1
:100EE000470240E06CE081E492E00E944B040E94E3
:100EF000620482E08093480240E066E081E492E090
:100F00000E944B0440E062E081E492E00E944B04C6
:100F10008BE39FE10197F1F788E080934C0260E05A
:100F200081E492E00E94B00286E291E00E94E10337
:100F300060ED77E080E090E00E9491010E94620401
:100F400061E08BE00E943B0160E080E00E943B0199
:100F500060E081E00E943B0160E082E00E943B0192
:100F600060E083E00E943B0160E084E00E943B017E
:100F700060E085E00E943B0160E086E00E943B016A
:100F800060E08AE00E943B0161E08CE00E943B014E
:100F900060E087E00E943B0161E089E00E943B0144
:100FA00061E088E00E943B0180E180938100109223
:100FB000800080E89EE3909387008093860081E123
:100FC000809381008AE993E090932C0280932B0216
:100FD00081E080936F0021EA222E20E0322ECDE8BE
:100FE000D0E039EB832E30E0932E40E0A42E40E099
:100FF000B42E0E946204109234021092330261E017
:101000008CE00E940D0161E070E080E090E00E94C1
:10101000910160E08CE00E940D01F1016491FE01FC
:101020008491E82FF0E0EE0FFF1FE458FF4F859109
:10103000949100E412E42FE030E0462F0E946C0609
:10104000611571058105910529F06F5F7F4F8F4F05
:101050009F4F9F700E94780B2DEC3CEC48E652E4C9
:101060000E94D00A0E94420B2B017B017093320236
:101070006093310261E08BE00E943B014114510416
:1010800009F05CC160E08BE00E940D0180E00E94ED
:10109000E4000197B1F46091330270913402072E9D
:1010A000000C880B990B0E947A0B20E030E040E89E
:1010B0005FE30E945F0A0E94420B709334026093C8
:1010C000330281E00E94E4000197B1F460913302A1
:1010D00070913402072E000C880B990B0E947A0B3A
:1010E00020E030E040E050E40E945F0A0E94420BA2
:1010F000709334026093330282E00E94E40001970F
:10110000B1F46091330270913402072E000C880B09
:10111000990B0E947A0B20E030E040E850E40E94F6
:101120005F0A0E94420B709334026093330283E0A3
:101130000E94E4000197B1F460913302709134028F
:10114000072E000C880B990B0E947A0B20E030E0F0
:1011500040E051E40E945F0A0E94420B7093340207
:101160006093330284E00E94E4000197B1F460913F
:10117000330270913402072E000C880B990B0E94E9
:101180007A0B20E030E040E851E40E945F0A0E94C0
:10119000420B709334026093330285E00E94E400B6
:1011A0000197B1F46091330270913402072E000C64
:1011B000880B990B0E947A0B20E030E040E052E46B
:1011C0000E945F0A0E94420B7093340260933302C4
:1011D00086E00E94E4000197B1F4609133027091BF
:1011E0003402072E000C880B990B0E947A0B20E02A
:1011F00030E040E852E40E945F0A0E94420B709384
:101200003402609333028AE00E94E400892BE1F506
:101210006091330270913402072E000C880B990BF9
:101220000E947A0B60932D0270932E0280932F02FE
:101230009093300280E00E946D0483E391E00E946D
:10124000E1036091330270913402072E000C880B89
:10125000990B41E00E94EE0381E00E946D046091D1
:10126000310270913202072E000C880B990B41E07D
:101270000E94EE038FE391E00E94E10364EF71E0CE
:1012800080E090E00E9491018AE00E94E4000197D2
:1012900009F04DC060913302709134026F307105D6
:1012A00014F061507109660F771F072E000C880B30
:1012B000990B0E947A0B60932D0270932E028093FB
:1012C0002F029093300280E00E946D0483E491E04D
:1012D0000E94E1036091330270913402072E000CEA
:1012E000880B990B41E00E94EE0381E00E946D049F
:1012F000C0902D02D0902E02E0902F02F09030028C
:10130000A7019601C701B6010E949C0C882309F42D
:101310005DC081E591E00E94E1038DE591E00E94CE
:10132000E10364EF71E080E090E00E949101A1147C
:10133000B10409F45ECE0E9400005BCEFFEF4F16B1
:10134000510411F461E09FCEF4018491833021F1C6
:1013500048F48130B9F08230D1F0F0E8EF16F104B2
:101360008CF790CE873011F1883041F18430A9F7A5
:101370008091800080628093800050928B00409228
:101380008A0084CE84B5806884BD47BC7FCE84B596
:10139000806284BD48BC7ACE809180008068809352
:1013A0008000509289004092880070CE8091B000F9
:1013B00080688093B0004092B30068CE8091B00006
:1013C00080628093B0004092B40060CE2601370165
:1013D000E89477F82FEF3FEF4FE75FE7C301B201E3
:1013E0000E949C0C81110DC02FEF3FEF4FE75FE78C
:1013F000C301B2010E94CB0A18161CF485E591E0E6
:101400008ACF2FEF3FEF4FE75FE4C701B6010E949D
:101410002A0C18161CF489E591E07DCF2FEF3FEFE1
:101420004FE75FECC701B6010E94CB0A87FDF3CFFF
:1014300020E030E0A901C701B6010E94CB0A87FF76
:101440000AC041E06DE281E492E00E944B04F7FAA9
:10145000F094F7F8F0942DEC3CEC4CE45DE3C7011C
:10146000B6010E945F0A2B013C010E94490B6B01EF
:101470007C010E94780B9B01AC01C301B2010E9468
:101480005E0A2B013C014AE0C701B6010E94EE034F
:1014900041E06EE281E492E00E944B0420E030E003
:1014A00040E251E4C301B2010E942F0C0E94490B9B
:1014B00090E080E04AE00E94EE032FCF5058BB2717
:1014C000AA270E94760A0C94F00B0E94E20B38F0D7
:1014D0000E94E90B20F039F49F3F19F426F40C9494
:1014E000DF0B0EF4E095E7FB0C94D90BE92F0E947B
:1014F000010C58F3BA17620773078407950720F0A9
:1015000079F4A6F50C94230C0EF4E0950B2EBA2F6B
:10151000A02D0B01B90190010C01CA01A0011124F9
:10152000FF27591B99F0593F50F4503E68F11A16A5
:10153000F040A22F232F342F4427585FF3CF469536
:1015400037952795A795F0405395C9F77EF41F1658
:10155000BA0B620B730B840BBAF09150A1F0FF0F22
:10156000BB1F661F771F881FC2F70EC0BA0F621F0E
:10157000731F841F48F4879577956795B795F795FE
:101580009E3F08F0B0CF9395880F08F09927EE0F93
:101590009795879508950E94B50B08F481E008950A
:1015A0000E94E40A0C94F00B0E94E90B58F00E9490
:1015B000E20B40F029F45F3F29F00C94D90B511154
:1015C0000C94240C0C94DF0B0E94010C68F39923FB
:1015D000B1F3552391F3951B550BBB27AA2762172F
:1015E0007307840738F09F5F5F4F220F331F441F3C
:1015F000AA1FA9F335D00E2E3AF0E0E832D0915070
:101600005040E695001CCAF72BD0FE2F29D0660F5C
:10161000771F881FBB1F261737074807AB07B0E89F
:1016200009F0BB0B802DBF01FF2793585F4F3AF0A5
:101630009E3F510578F00C94D90B0C94240C5F3F1D
:10164000E4F3983ED4F3869577956795B795F7952B
:101650009F5FC9F7880F911D9695879597F9089513
:10166000E1E0660F771F881FBB1F621773078407AF
:10167000BA0720F0621B730B840BBA0BEE1F88F7BE
:10168000E09508950E94490B6894B1110C94240CC4
:1016900008950E94090C88F09F5798F0B92F992758
:1016A000B751B0F0E1F0660F771F881F991F1AF04D
:1016B000BA95C9F714C0B13091F00E94230CB1E083
:1016C00008950C94230C672F782F8827B85F39F082
:1016D000B93FCCF3869577956795B395D9F73EF4E6
:1016E00090958095709561957F4F8F4F9F4F08958E
:1016F000E89409C097FB3EF49095809570956195AC
:101700007F4F8F4F9F4F9923A9F0F92F96E9BB2761
:101710009395F695879577956795B795F111F8CFDD
:10172000FAF4BB0F11F460FF1BC06F5F7F4F8F4F48
:101730009F4F16C0882311F096E911C0772321F03E
:101740009EE8872F762F05C0662371F096E8862FD6
:1017500070E060E02AF09A95660F771F881FDAF72D
:10176000880F9695879597F90895990F0008550F5A
:10177000AA0BE0E8FEEF16161706E807F907C0F017
:1017800012161306E407F50798F0621B730B840B1F
:10179000950B39F40A2661F0232B242B252B21F4F9
:1017A00008950A2609F4A140A6958FEF811D811D99
:1017B000089597F99F6780E870E060E008959FEFD3
:1017C00080EC089500240A941616170618060906D8
:1017D000089500240A9412161306140605060895A7
:1017E000092E0394000C11F4882352F0BB0F40F42F
:1017F000BF2B11F460FF04C06F5F7F4F8F4F9F4F6F
:10180000089557FD9058440F551F59F05F3F71F0F0
:101810004795880F97FB991F61F09F3F79F0879557
:101820000895121613061406551FF2CF4695F1DFE0
:1018300008C0161617061806991FF1CF8695710570
:10184000610508940895E894BB2766277727CB01A4
:1018500097F908950E94B50B08F48FEF08950E9440
:10186000420C0C94F00B0E94E20B38F00E94E90B42
:1018700020F0952311F00C94D90B0C94DF0B11245C
:101880000C94240C0E94010C70F3959FC1F3950FEA
:1018900050E0551F629FF001729FBB27F00DB11DF4
:1018A000639FAA27F00DB11DAA1F649F6627B00D84
:1018B000A11D661F829F2227B00DA11D621F739F6D
:1018C000B00DA11D621F839FA00D611D221F749F7B
:1018D0003327A00D611D231F849F600D211D822FC2
:1018E000762F6A2F11249F5750409AF0F1F08823E9
:1018F0004AF0EE0FFF1FBB1F661F771F881F915016
:101900005040A9F79E3F510580F00C94D90B0C94E0
:10191000240C5F3FE4F3983ED4F386957795679562
:10192000B795F795E7959F5FC1F7FE2B880F911D3F
:101930009695879597F908950E94B50B880B990B9A
:101940000895A1E21A2EAA1BBB1BFD010DC0AA1F00
:10195000BB1FEE1FFF1FA217B307E407F50720F018
:10196000A21BB30BE40BF50B661F771F881F991F93
:101970001A9469F760957095809590959B01AC01DC
:10198000BD01CF010895EE0FFF1F0590F491E02DEA
:101990000994F894FFCF00004000140054000000A8
:1019A00000008102540297032A024D023A022B02E0
:1019B000000000009E048E009703C301486F6C690D
:1019C0002050726F666565650044697374616E636B
:1019D0006961203A0020636D0054656D7065726125
:1019E00074757261203A006E616E00696E66006FF8
:0819F00076660020DF430000D1
:107E0000112484B714BE81FFF0D085E080938100F7
:107E100082E08093C00088E18093C10086E0809377
:107E2000C20080E18093C4008EE0C9D0259A86E02C
:107E300020E33CEF91E0309385002093840096BBD3
:107E4000B09BFECF1D9AA8958150A9F7CC24DD24C4
:107E500088248394B5E0AB2EA1E19A2EF3E0BF2EE7
:107E6000A2D0813461F49FD0082FAFD0023811F036
:107E7000013811F484E001C083E08DD089C08234E0
:107E800011F484E103C0853419F485E0A6D080C0E4
:107E9000853579F488D0E82EFF2485D0082F10E0AE
:107EA000102F00270E291F29000F111F8ED06801E7
:107EB0006FC0863521F484E090D080E0DECF843638
:107EC00009F040C070D06FD0082F6DD080E0C81688
:107ED00080E7D80618F4F601B7BEE895C0E0D1E017
:107EE00062D089930C17E1F7F0E0CF16F0E7DF06D8
:107EF00018F0F601B7BEE89568D007B600FCFDCFD4
:107F0000A601A0E0B1E02C9130E011968C91119780
:107F100090E0982F8827822B932B1296FA010C0160
:107F200087BEE89511244E5F5F4FF1E0A038BF0790
:107F300051F7F601A7BEE89507B600FCFDCF97BE46
:107F4000E89526C08437B1F42ED02DD0F82E2BD052
:107F50003CD0F601EF2C8F010F5F1F4F84911BD097
:107F6000EA94F801C1F70894C11CD11CFA94CF0C13
:107F7000D11C0EC0853739F428D08EE10CD085E9AC
:107F80000AD08FE07ACF813511F488E018D01DD067
:107F900080E101D065CF982F8091C00085FFFCCF94
:107FA0009093C60008958091C00087FFFCCF809118
:107FB000C00084FD01C0A8958091C6000895E0E648
:107FC000F0E098E1908380830895EDDF803219F02E
:107FD00088E0F5DFFFCF84E1DECF1F93182FE3DFCA
:107FE0001150E9F7F2DF1F91089580E0E8DFEE27F6
:047FF000FF270994CA
:027FFE00040479
:00000001FF
