:020000040000FA
:100000000C94EC020C9414030C9414030C9414033D
:100010000C9414030C9414030C9414030C94140304
:100020000C9414030C9414030C9414030C947B127E
:100030000C9414030C9414030C9414030C941403E4
:100040000C9431120C9414030C9414030C941403A8
:100050000C9414030C9414030C9414030C941403C4
:100060000C9437130C94140305A84CCDB2D44EB99C
:100070003836A9020C50B9918688083CA6AAAA2A4B
:10008000BE000000803F00000000003E5B4F5B3E72
:100090003E6B4F6B3E1C3E7C3E1C183C7E3C181C4D
:1000A000577D571C1C5E7F5E1C00183C1800FFE744
:1000B000C3E7FF0018241800FFE7DBE7FF30483AEA
:1000C000060E2629792926407F050507407F05254C
:1000D0003F5A3CE73C5A7F3E1C1C08081C1C3E7FD4
:1000E00014227F22145F5F005F5F06097F017F009B
:1000F0006689956A606060606094A2FFA2940804BB
:100100007E040810207E201008082A1C08081C2ADB
:1001100008081E101010100C1E0C1E0C30383E3833
:1001200030060E3E0E06000000000000005F0000DA
:100130000007000700147F147F14242A7F2A12234B
:100140001308646236495620500008070300001C5B
:100150002241000041221C002A1C7F1C2A08083E64
:100160000808008070300008080808080000606077
:100170000020100804023E5149453E00427F4000E5
:1001800072494949462141494D331814127F1027BD
:10019000454545393C4A494931412111090736490C
:1001A000494936464949291E0000140000004034E0
:1001B00000000008142241141414141400412214E5
:1001C0000802015909063E415D594E7C1211127C0C
:1001D0007F494949363E414141227F4141413E7F6D
:1001E000494949417F090909013E414151737F084D
:1001F00008087F00417F41002040413F017F0814F3
:1002000022417F404040407F021C027F7F04081053
:100210007F3E4141413E7F090909063E4151215E31
:100220007F09192946264949493203017F01033FC5
:100230004040403F1F2040201F3F4038403F631454
:1002400008146303047804036159494D43007F4156
:1002500041410204081020004141417F0402010293
:1002600004404040404000030708002054547840B8
:100270007F284444383844444428384444287F384C
:100280005454541800087E090218A4A49C787F08CE
:1002900004047800447D40002040403D007F102849
:1002A000440000417F40007C047804787C0804040A
:1002B000783844444438FC1824241818242418FCA2
:1002C0007C08040408485454542404043F44243C47
:1002D0004040207C1C2040201C3C4030403C4428B6
:1002E0001028444C9090907C4464544C4400083650
:1002F00041000000770000004136080002010204BE
:10030000023C2623263C1EA1A161123A4040207ADD
:100310003854545559215555794122545478422125
:100320005554784020545579400C1E52721239555C
:100330005555593954545459395554545800004559
:100340007C410002457D420001457C407D12111236
:100350007DF0282528F07C545545002054547C54C9
:100360007C0A097F4932494949323A4444443A3285
:100370004A4848303A4141217A3A42402078009D2B
:10038000A0A07D3D4242423D3D4040403D3C24FFD7
:100390002424487E4943662B2FFC2F2BFF0929F686
:1003A00020C0887E090320545479410000447D41D7
:1003B0003048484A32384040227A007A0A0A727D30
:1003C0000D19317D2629292F28262929292630484B
:1003D0004D4020380808080808080808382F10C8B9
:1003E000ACBA2F102834FA00007B000008142A143D
:1003F0002222142A14085500550055AA55AA55AAB8
:10040000FF55FF55FF000000FF00101010FF001403
:100410001414FF001010FF00FF1010F010F014145F
:1004200014FC001414F700FF0000FF00FF1414F484
:1004300004FC141417101F10101F101F1414141F85
:1004400000101010F0000000001F101010101F10FE
:10045000101010F010000000FF10101010101010FD
:100460001010FF10000000FF140000FF00FF00004C
:100470001F10170000FC04F414141710171414F4C0
:1004800004F40000FF00F714141414141414F700FB
:10049000F7141414171410101F101F141414F4144C
:1004A0001010F010F000001F101F0000001F1400BB
:1004B0000000FC140000F010F01010FF10FF1414E6
:1004C00014FF141010101F00000000F010FFFFFFB9
:1004D000FFFFF0F0F0F0F0FFFFFF0000000000FF72
:1004E000FF0F0F0F0F0F3844443844FC4A4A4A3478
:1004F0007E02020606027E027E026355494163388F
:1005000044443C04407E201E2006027E020299A53F
:10051000E7A5991C2A492A1C4C7201724C304A4D9D
:100520004D303048784830BC625A463D3E494949D2
:10053000007E0101017E2A2A2A2A2A44445F44447B
:1005400040514A444040444A51400000FF0103E00A
:1005500080FF000008086B6B083612362436060F41
:10056000090F06000018180000001010003040FFAE
:100570000101001F01011E00191D1712003C3C3C27
:100580003C00000000000000000800020100000321
:10059000040700000000000000000000000025002B
:1005A00028002B0000000000240027002A0004047B
:1005B000040404040404020202020202030303030B
:1005C00003030102040810204080010204081020E7
:1005D000010204081020561411241FBECFEFD8E0EA
:1005E000DEBFCDBF15E0A0E0B1E0ECE7F5E302C06F
:1005F00005900D92AE36B107D9F726E0AEE6B5E02C
:1006000001C01D92A83AB207E1F712E0CCEED2E0A9
:1006100004C02197FE010E94B11ACB3ED107C9F751
:100620000E94D1140C94BC1A0C94000090E0FC01C0
:10063000EE53FA4F249182559A4FFC0184918823FE
:1006400099F090E0880F991FFC01EC55FA4FA591A5
:10065000B491FC01E656FA4F859194918FB7F894C6
:10066000EC91E22BEC938FBF089528E030E040E856
:10067000E0919E06F0919F0650819091A50690957D
:1006800095239083E0919C06F0919D069091A4069D
:10069000582F542389F05081952B9083E0919E062A
:1006A000F0919F0690815091A506952B90834695D9
:1006B00021503109E9F60895508190959523EDCFA9
:1006C000089508950895AF92BF92CF92DF92EF926E
:1006D000FF920F931F93CF93DF936C017B018B01EC
:1006E000040F151FEB015E01AE18BF08C017D1073C
:1006F00059F06991D601ED91FC910190F081E02DC6
:10070000C6010995892B79F7C501DF91CF911F911A
:100710000F91FF90EF90DF90CF90BF90AF90089532
:1007200090E0FC01EA57FA4F2491FC01EE53FA4F96
:100730003491FC01E255FA4FE491EE23C9F02223F3
:1007400039F0233001F1A8F4213019F1223029F1D8
:10075000F0E0EE0FFF1FE656FA4FA591B4918FB768
:10076000F894EC91611126C030953E233C938FBFE5
:1007700008952730A9F02830C9F0243049F7809136
:1007800080008F7D03C0809180008F7780938000F0
:10079000DFCF84B58F7784BDDBCF84B58F7DFBCF72
:1007A0008091B0008F778093B000D2CF8091B0005D
:1007B0008F7DF9CF3E2BDACF3FB7F8948091E405D7
:1007C0009091E505A091E605B091E70526B5A89BB7
:1007D00005C02F3F19F00196A11DB11D3FBFBA2FD3
:1007E000A92F982F8827BC01CD01620F711D811D93
:1007F000911D42E0660F771F881F991F4A95D1F718
:1008000008958F929F92AF92BF92CF92DF92EF9214
:10081000FF924B015C010E94DC036B017C010E9492
:10082000DC036C197D098E099F09683E73408105C0
:100830009105A8F321E0821A9108A108B10888EE79
:10084000C80E83E0D81EE11CF11C81149104A104A0
:10085000B10429F7FF90EF90DF90CF90BF90AF9059
:100860009F908F9008950F931F93CF93DF93EC0188
:100870008E89823009F453C0833009F4ACC08130D2
:1008800009F05CC0EC81FD81E41BF50BAF01421B5C
:10089000530B77FD3FC08E819F8168177907D4F590
:1008A00057FF04C0240F351F50E040E08C819D812C
:1008B000FA01E20FF31F8E179F071CF49C01241B03
:1008C000350B1216130634F5FB0177FD3796A3E0BE
:1008D000F595E795AA95E1F7F695FE2FEE27F795A2
:1008E000E795E40FF51FE050FF4F6770772781E031
:1008F00090E001C0880F6A95EAF7482F0130110592
:1009000009F472C008F47CC02E0F3F1F023011059D
:1009100009F483C0DF91CF911F910F910895AC81AD
:10092000BD81CD01861B970BBC0161507109EE8121
:10093000FF81E41BF50BAF01421B530B77FDEACFA0
:100940008C819D81681779072CF757FF04C0240F0D
:10095000351F50E040E08E819F81FA01E20FF31FC6
:100960008E179F071CF49C01241B350B12161306CF
:100970008CF6922FA42FA695A695A69580E8A89F01
:10098000D0011124A60FB71FA050BF4F477009F424
:1009900057C058E0541B452F652F70E0FB01E85FFE
:1009A000FA4F8081251708F0B0C0621B71092FEF44
:1009B00030E002C0359527956A95E2F78223013031
:1009C0001105A9F108F464C00230110509F0A2CFA5
:1009D0002C9182272EC0AE81BF81CD01861B970B43
:1009E000BC016150710955CF2E0F3F1FE217F3076D
:1009F00009F490CF8191DF011197842B8C93F6CF6E
:100A000080952E0F3F1FE217F30709F483CF9191D2
:100A1000DF01119798239C93F6CFE217F30709F4AF
:100A200079CF8191DF01119784278C93F6CF2C9198
:100A3000822B8C93941708F46DCF941BA058BF4F52
:100A4000983008F447C00230110531F5FD01892FB7
:100A5000208120952083E058FF4F88508830C0F7D0
:100A600028EF290F26952695269530E02F5F3F4FDA
:100A70003695322F222737952795A20FB31F9770EF
:100A800009F448CFE92FF0E0E050FB4F808132C0FD
:100A900080952C918223CDCF81E00130110509F0A2
:100AA00080E08195FD01292F8083E058FF4F285079
:100AB0002830D0F728EF290F26952695269530E087
:100AC0002F5F3F4F3695322F222737952795A20F5C
:100AD000B31F9770992309F41DCFE92FF0E0E05080
:100AE000FB4F80810130110541F058F002301105B3
:100AF00009F010CF9C91892702C09C91892B8C937F
:100B000009CF80959C918923FACF0130110509F412
:100B10008ECF08F4BDCF0230110509F459CF8DCF27
:100B20000F931F93CF93DF93EC018E89823009F4EA
:100B30005EC0833009F4B5C0813009F067C0AC8174
:100B4000BD81CD01841B950BAC014150510957FD6E
:100B500049C08C819D81481759070CF043C077FF2D
:100B600004C0260F371F70E060E08E819F81FB017B
:100B7000E20FF31F8E179F071CF49C01261B370BF7
:100B8000121613067CF5922FA62FA695A695A6956C
:100B900080E8A89FD0011124A40FB51FA050BF4F1B
:100BA000677009F48FC048E0461B642F70E0FB01BA
:100BB000E85FFA4F8081241708F002C1621B7109B7
:100BC0002FEF30E002C0359527956A95E2F7822332
:100BD0000130110509F46DC008F49CC00230110504
:100BE00009F4F8C0DF91CF911F910F910895EC8126
:100BF000FD81E61BF70BAE81BF81CD01841B950BF8
:100C0000AC0141505109BF01621B730B57FDEACF84
:100C10008E819F81481759072CF777FF04C0260F54
:100C2000371F70E060E08C819D81FB01E20FF31FB4
:100C30008E179F071CF49C01261B370B12161306F8
:100C40008CF6FA0157FD379693E0F595E7959A955E
:100C5000E1F7F695FE2FEE27F795E795E60FF71FDC
:100C6000E050FF4F4770552781E090E001C0880FAA
:100C70004A95EAF7482F0130110509F488C008F4B5
:100C800092C02E0F3F1F0230110509F0ABCFE217C3
:100C9000F30709F4A7CF8191DF01119784278C9383
:100CA000F6CFEE81FF81E61BF70BBF01621B730BD2
:100CB0004ECF2C91822B8C93941708F493CF941BD6
:100CC000A058BF4F983008F447C00230110531F5E5
:100CD000FD01892F208120952083E058FF4F885007
:100CE0008830C0F728EF290F26952695269530E005
:100CF0002F5F3F4F3695322F222737952795A20F2A
:100D0000B31F977009F46ECFE92FF0E0E050FB4F6E
:100D1000808132C080952C918223CDCF81E001303B
:100D2000110509F080E08195FD01292F8083E058AD
:100D3000FF4F28502830D0F728EF290F2695269509
:100D4000269530E02F5F3F4F3695322F222737957B
:100D50002795A20FB31F9770992309F443CFE92F6A
:100D6000F0E0E050FB4F80810130110541F058F078
:100D70000230110509F036CF9C91892702C09C9161
:100D8000892B8C932FCF80959C918923FACF2E0F9E
:100D90003F1FE217F30709F425CF8191DF01119777
:100DA000842B8C93F6CF80952E0F3F1F2E173F0775
:100DB00009F418CF9191DF01119798239C93F6CFF6
:100DC0000130110509F475CF08F4A4CF02301105E4
:100DD00009F075CF2C9182276ECFDC0177FD67C0BB
:100DE00018968D919C911997681779070CF05FC040
:100DF00057FD5DC01A968D919C911B974817590716
:100E00000CF055C056968C9156978230B9F08330CD
:100E100041F1813049F414968D919C91841B950B7E
:100E2000AB01BC01615071092130310521F108F499
:100E30003FC02230310509F458C008951496ED9151
:100E4000FC911597E61BF70BBF01615071091696CF
:100E50008D919C91FC01E41BF50BAF0141505109B0
:100E6000E3CF16968D919C91861B970BBA01AC012E
:100E700041505109D9CFFA0157FD3796A3E0F595B6
:100E8000E795AA95E1F7F695FE2FEE27F795E795FA
:100E9000E60FF71FE050FF4F4770552721E030E085
:100EA00001C0220F4A95EAF78081822B8083089542
:100EB000FA0157FD379623E0F595E7952A95E1F776
:100EC000F695FE2FEE27F795E795E60FF71FE05012
:100ED000FF4F4770552781E090E001C0880F4A9589
:100EE000EAF7809590818923E1CFFA0157FD379683
:100EF00083E0F595E7958A95E1F7F695FE2FEE27C5
:100F0000F795E795E60FF71FE050FF4F477055271D
:100F100021E030E001C0220F4A95EAF78081822764
:100F2000C5CF0895FC016370668B8481958126810D
:100F30003781613039F0633029F0918780873387BA
:100F400022870895318720879387828708952F927B
:100F50003F924F925F926F927F928F929F92AF9249
:100F6000BF92CF92DF92EF92FF920F931F93CF9396
:100F7000DF93CDB7DEB76A970FB6F894DEBF0FBE2A
:100F8000CDBF9A8F898F7A8369834A01D22E1887C1
:100F90000F833701BC2CDC0159962D913C915A9757
:100FA0002115310509F015C118968D919C9119975D
:100FB000681779070CF0D7C11A968D919C91481744
:100FC00059070CF0D0C14C2C512CB6E0CB9E600DD3
:100FD000711D11247C876B87161617060CF0C3C190
:100FE000EA2DF0E0FA87E98793E0EE0FFF1F9A956C
:100FF000E1F7F88BEF87CF01840F951F18161906BC
:101000000CF0B1C1A98DBA8D58968C91811104C094
:10101000BFEABD1508F4D394A98DBA8DED91FC916A
:1010200011970284F385E02DCD010995B5E0DB9E93
:10103000C0011124E981FA81FC83EB83312C212C3E
:101040009C012A573F4F388F2F8B4A2D50E05E8BE3
:101050004D8BEF89F88DE20DF31D44919E828D82B8
:10106000D12CC12C69817A81620D731D7A8B698BB9
:10107000842F90E09C8B8B8BE98DFA8DA081B181C0
:1010800040FF82C0F1E0BF126FC0AF126DC01C966E
:10109000ED91FC912F813885A4014C0D5D1D69896E
:1010A0007A89898D9A8D0995EB89FC89F595E79563
:1010B0004E2F5FEFC51AD50A6D817E818D899E897D
:1010C000680F791F7E836D8398E0C916D10481F67D
:1010D000AFEF2A1A3A0AEB81FC81E40DF51DFC837F
:1010E000EB83F5E02F16310409F0B3CF2F8138855B
:1010F00026153705B9F0A98DBA8DED91FC91B1E0B7
:10110000BB1257C0AB1255C069817A816B5F7F4FAC
:101110000088F189E02D830128E030E0A401898D69
:101120009A8D0995A98DBA8DED91FC91119706883C
:10113000F789E02DCD016A960FB6F894DEBF0FBE99
:10114000CDBFDF91CF911F910F91FF90EF90DF9076
:10115000CF90BF90AF909F908F907F906F905F9057
:101160004F903F902F9009941E96ED91FC91EF8047
:10117000F88409851A8592014D815E816B817C819D
:10118000898D9A8D099590CF2F8138852615370541
:1011900009F48ACF31E0B31207C0A31205C01C9630
:1011A000ED91FC91930178CF1E96ED91FC91730126
:1011B000E0CF6B857C85641975090684F785E02D81
:1011C00073010F8518899201A401898D9A8D099563
:1011D000A9CFF90134969491329745915491D91A37
:1011E000B7E0DB9E400D511D1124F901259134918A
:1011F0003C8B2B8BFA0125903490FA013296749037
:1012000031963491398B329664903196449041E016
:101210004C1518F04A1508F07FC0662D062C000CFE
:10122000770B7C836B83842D042C000C990B9E839D
:101230008D83A98DBA8DED91FC9111970284F38570
:10124000E02DCD010995512CD12CC12CEA2DF0E0D7
:10125000FA87E9872B2D30E03C872B87A401440DCA
:10126000511D47FC5A95588F4F8B69817A81660DC5
:10127000711D67FC7A957E876D877989C71608F09E
:1012800051CF2C2D30E04D815E81420F531FA98537
:10129000BA854A9FC0014B9F900D5A9F900D112413
:1012A000FC01E80DF91DF88BEF87852D612C4F8926
:1012B000588D420F531F5E8B4D8B671408F050C042
:1012C00044244394480E877041F4C1010196EB8990
:1012D000FC89E20DF31DD4901C01D7FE19C0A98D25
:1012E000BA8DED91FC91662D70E0B1E0BB1219C092
:1012F000AB1217C02D853E85620F731F0484F585E0
:10130000E02D2F8138854D895E89898D9A8D0995CB
:10131000DD0C6394842DD1CF1E821D821C821B8222
:1013200088CF4B815C81640F751FAB85BC856A9F3C
:10133000C0016B9F900D7A9F900D112469817A8175
:10134000680F791F0684F785E02DEF80F884098502
:101350001A859D014F855889898D9A8D0995D8CF19
:10136000570CC3948ACF6A960FB6F894DEBF0FBEAF
:10137000CDBFDF91CF911F910F91FF90EF90DF9044
:10138000CF90BF90AF909F908F907F906F905F9025
:101390004F903F902F9008958F929F92AF92CF924F
:1013A000EF92FF920F931F93CF93DF93EC01262FC1
:1013B000898D9A8D009709F051C06A30D1F41D864D
:1013C0001C868D8948E0849F900111248E859F851D
:1013D000820F931F9F878E8781E090E0DF91CF91EE
:1013E0001F910F91FF90EF90CF90AF909F908F90B3
:1013F00008956D3089F3CC88AD888F898823C1F03A
:101400008C859D8536E0C39E800D911D11244885F5
:1014100059854817590764F44E855F851D861C86DB
:1014200038E0A39EC0011124840F951F9F878E87EB
:10143000EA88FB88088919894E855F856C857D85DA
:10144000CE010E94A7072C898C859D8546E0249FAC
:10145000800D911D11249D878C87BECF6A3069F461
:101460001D861C86FC013896E4912D898E859F850A
:10147000E29F800D911D1124ADCF6D3009F4ACCFEA
:10148000FC0134963491631708F4A6CF3296E491A8
:10149000E61708F4A1CFFC01329685909490462F70
:1014A000431B342F47E0349F800C911C1124F4011E
:1014B000329634913196E4913323A9F1EE2399F1D8
:1014C000CC88F4013596E491AD884F89442301F12D
:1014D0000E2E000CFF0BE30FF11DCE9EA001CF9E40
:1014E000500D11246C857D85460F571F68857985C1
:1014F000641775076CF44E855F851D861C86FC019C
:101500003896E491AE9E400D511D11245F874E87A1
:10151000EA88FB88088919894E855F856C857D85F9
:10152000CE010E94A707F4013496E4912C898C85A2
:101530009D85E29F800D911D11248DCF6F927F922A
:101540008F929F92AF92BF92CF92DF92EF92FF92D3
:101550000F931F93CF93DF93EC016B015A01390175
:101560004801E881F9810284F385E02D0995E8813D
:10157000F9810288F389E02D87019301A501B60165
:10158000CE010995A501480D591D41505109E88129
:10159000F9810288F389E02D9301B601CE01099506
:1015A000E881F9810088F189E02D9401A501B60157
:1015B000CE010995C60CD71CB60161507109E881AE
:1015C000F9810088F189E02D9401A501CE010995EA
:1015D000E881F9810688F789E02DCE01DF91CF916E
:1015E0001F910F91FF90EF90DF90CF90BF90AF9041
:1015F0009F908F907F906F9009946F927F928F92BF
:101600009F92AF92BF92CF92DF92EF92FF920F9391
:101610001F93CF93DF935C01EB016A01490138010D
:101620008701DC01ED91FC916217730719F56416CF
:1016300075062CF0962D872D3A01C92ED82E9601CD
:10164000261937092F5F3F4F048CF58DE02DA3013C
:10165000BE01C5010995DF91CF911F910F91FF90B8
:10166000EF90DF90CF90BF90AF909F908F907F9042
:101670006F9008954615570591F42617370724F003
:10168000892D4B01C22FD82F9E01281939092F5FB0
:101690003F4F068CF78DE02DA601B401DACF02840E
:1016A000F385E02D0995D501ED91FC910488F5892C
:1016B000E02D83019401A601BE01C5010995D50164
:1016C000ED91FC910688F789E02DC501DF91CF915E
:1016D0001F910F91FF90EF90DF90CF90BF90AF9050
:1016E0009F908F907F906F900994EF92FF920F934D
:1016F0001F93DC011A960D911C911B9718962D9142
:101700003C911997ED91FC9100A0F1A1E02D7B0196
:1017100050E040E070E060E009951F910F91FF906C
:10172000EF9008954F925F926F927F928F929F9267
:10173000AF92BF92CF92DF92EF92FF920F931F93DF
:10174000CF93DF936C012B015A0139014801DC0171
:10175000ED91FC910284F385E02D0995E201640C82
:10176000751CD601ED91FC91C615D7055CF4008877
:10177000F189E02D87019401A501BE01C6010995FB
:101780002196EFCF0688F789E02DC601DF91CF9132
:101790001F910F91FF90EF90DF90CF90BF90AF908F
:1017A0009F908F907F906F905F904F9009948F9251
:1017B0009F92AF92BF92CF92DF92EF92FF920F93E0
:1017C0001F93CF93DF93EC015B014A016901E8812C
:1017D000F9810284F385E02D099595012C0D3D1DBD
:1017E00021503109E881F9810488F589E02D7801DB
:1017F0008401A401B501CE010995E881F98106882B
:10180000F789E02DCE01DF91CF911F910F91FF90CD
:10181000EF90DF90CF90BF90AF909F908F90099402
:101820008F929F92AF92BF92CF92DF92EF92FF92F0
:101830000F931F93CF93DF93EC015B014A01690182
:101840007801E881F9810284F385E02D0995C80CBF
:10185000D91C860101501109E881F9810488F589B4
:10186000E02D9501A401B501CE010995E881F9812A
:101870000688F789E02DCE01DF91CF911F910F915E
:10188000FF90EF90DF90CF90BF90AF909F908F90A0
:101890000994EF92FF920F931F93DC01ED91FC915D
:1018A00000A0F1A1E02D09951F910F91FF90EF90FD
:1018B00008950F931F93DC01ED91FC91068CF78D39
:1018C000E02D09951F910F9108950F931F93DC014F
:1018D000ED91FC91048CF58DE02D09951F910F91F0
:1018E0000895DC01ED91FC910084F185E02D0994CF
:1018F0002F923F924F925F926F927F928F929F9220
:10190000AF92BF92CF92DF92EF92FF920F931F930D
:10191000CF93DF93EC0181E090E07C01EC1AFD0AAB
:10192000662477246C1A7D0A660C771CAE01415C34
:101930005F4F21E030E060E470E089E796E00E94CC
:10194000710C4FE350E04C1B5D0B21E030E060E494
:1019500070E089E796E00E94710CBE01605C7F4FE9
:1019600021E030E04FE350E089E796E00E94710CFF
:1019700060E470E06C1B7D0B21E030E04FE350E051
:1019800089E796E00E94710C44244394512C10E0A6
:1019900000E040E4242E312CF7FC06C0219782E0C1
:1019A000680E711CE60CF71C0F5F1F4F82E0480E9B
:1019B000511CE40CF51C480180E4880E911C21E0C8
:1019C00030E06E018FE3C80ED11CA601B40189E797
:1019D00096E00E94710C5101A01AB10A21E030E09A
:1019E000A601B50189E796E00E94710C21E030E084
:1019F0008FE3C82ED12CCC1ADD0AA601B40189E7E9
:101A000096E00E94710C21E030E0A601B50189E763
:101A100096E00E94710C68018FE3C80ED11C21E092
:101A200030E0A6015E0180E4A80EB11CB50189E793
:101A300096E00E94710C21E030E0A6016101CC1A11
:101A4000DD0AB60189E796E00E94710C9FE3892EBA
:101A5000912C801A910A21E030E0A401B50189E7B8
:101A600096E00E94710C21E030E0A401B60189E704
:101A700096E00E94710C0C171D070CF48DCFDF91BE
:101A8000CF911F910F91FF90EF90DF90CF90BF907B
:101A9000AF909F908F907F906F905F904F903F900E
:101AA0002F9008952F923F924F925F926F927F9264
:101AB0008F929F92AF92BF92CF92DF92EF92FF925E
:101AC0000F931F93CF93DF9300D000D000D0CDB7FA
:101AD000DEB73C016A013E832D83FC82EB82580114
:101AE000A41AB50AB7FE03C0B194A194B1088D80C1
:101AF0009E80861A970A97FE03C09194819491085C
:101B00008A149B045CF0902F812F0D811E819D8390
:101B10008E839C2D8D2D6B01692F782F0C151D0543
:101B20005CF09D818E817E836D83692F782F902F4D
:101B3000812F8601C92ED82E1601201A310A2B01B9
:101B40002D813E81421A530A57FE03C0519441949D
:101B50005108710137FE03C03FEFE31AF30AF59411
:101B6000E7948D819E81861797075CF5A1E0B0E030
:101B7000BA83A983C016D1064CF1D301ED91FC9133
:101B80000484F585E02D2B813C81A8016D817E8147
:101B90008A149B041CF04D815E81B801C301099534
:101BA000E418F508F7FE0AC02D813E8189819A81EB
:101BB000280F391F3E832D83E20CF31C0F5F1F4F4C
:101BC000D9CF2FEF3FEF3A832983D4CF26960FB694
:101BD000F894DEBF0FBECDBFDF91CF911F910F9163
:101BE000FF90EF90DF90CF90BF90AF909F908F903D
:101BF0007F906F905F904F903F902F900895089541
:101C00002091BB05260F3327331F21323105ECF419
:101C100020911B06FC0190E080E0243069F082E016
:101C20000895A091BB052191AC0145565A4FA40FD0
:101C3000B52FB11D2C930196861798F38091BB05A3
:101C4000680F6093BB0580E0089581E008951092CD
:101C50001B0681E080931A061092F50561E082E18F
:101C60000E94900361E083E10E949003E9EBF0E0C1
:101C700080818E7F808380818D7F808388E48093C4
:101C8000B80085E48093BC000895CF93DF9391E082
:101C900090939A058823B9F0C091B800D091BA000A
:101CA0008091BC008A7B8093BC0060E082E10E944E
:101CB000900360E083E10E9490030E94270ED0937E
:101CC000BA00C093B800DF91CF910895CF92DF9210
:101CD000EF92FF920F931F93CF93DF93D09144061F
:101CE00081E0D13208F09CC0C09143060E94DC0321
:101CF0006B017C0180911B0681116CC082E0809396
:101D00001B0681E080931A068FEF809319061092CC
:101D10001806D0931706A3E2B6E0E7EFF5E080E0FF
:101D2000D8138DC01092F6058091F605CC0FC82B04
:101D3000C093F6058091F505813009F084C01092BA
:101D4000F5050E94DC036B017C018091F605809310
:101D5000BB0080911D0690911E06A0911F06B091B8
:101D60002006892B8A2B8B2BA1F00E94DC0300918B
:101D70001D0610911E0620911F06309120066C1939
:101D80007D098E099F09061717072807390708F4E8
:101D900042C08091BC0083FDD8CF85EC8093BC000D
:101DA0000E94DC036B017C0180911B06823009F4E8
:101DB0004CC0809119068F3F09F469C080911906C3
:101DC000803209F466C080911906803309F463C03B
:101DD00084E026C080911D0690911E06A0911F06EA
:101DE000B0912006892B8A2B8B2B09F483CF0E947C
:101DF000DC0300911D0610911E0620911F063091F4
:101E000020066C197D098E099F09061717072807F8
:101E1000390708F06FCF80911C060E94450E85E0BF
:101E2000109222061092440610922106DF91CF9163
:101E30001F910F91FF90EF90DF90CF9008959D91AB
:101E400091938F5F6DCF85EEA9CF80911D06909104
:101E50001E06A0911F06B0912006892B8A2B8B2B82
:101E600009F4A2CF0E94DC0300911D0610911E060A
:101E700020911F06309120066C197D098E099F095B
:101E8000061717072807390708F08ECFC4CF80E060
:101E9000C7CF82E0C5CF83E0C3CFE091ED0580914D
:101EA000EC05E81730F4F0E0E658FA4F808190E056
:101EB00008958FEF9FEF08959091ED058091EC05C7
:101EC0002FEF3FEF981748F4E92FF0E0E658FA4F6C
:101ED000208130E09F5F9093ED05C90108958091C6
:101EE000EC059091ED05891B990B0895CF92DF9237
:101EF000EF92FF920F931F93CF93DF937C01CB015F
:101F00008A0120912106222389F0EB016B01C40E86
:101F1000D51ECC15DD0569F06991D701ED91FC91D5
:101F20000190F081E02DC7010995F3CF642F0E9445
:101F3000000EC801DF91CF911F910F91FF90EF909C
:101F4000DF90CF900895CF93DF931F92CDB7DEB788
:101F50006983209121062223F9F020914406203242
:101F600058F021E030E0FC013383228390E080E0F0
:101F70000F90DF91CF91089580912206E82FF0E035
:101F8000ED5DF94F998190838F5F80932206809356
:101F9000440681E090E0ECCF61E0CE0101960E9422
:101FA000000EF7CFCF93C82F809196068F3FB1F1E7
:101FB000E091A006F091A10680819091A606892B60
:101FC0008083E091A206F091A30690818091A706FC
:101FD000809589238083E091A006F091A1069081ED
:101FE0008091A60680958923808380919B06882313
:101FF00089F0CEBD00000DB407FEFDCF8EB5E09197
:10200000A006F091A10680819091A606892B80837D
:10201000CF9108958C2F0E943503F1CF80919406C3
:1020200091E090932106809343061092220610922D
:10203000440660E085E496E00E94A30F6C2F85E4DF
:1020400096E00E94A30FCF910C94660E90E080E082
:1020500008950E94B71A85ED8093BC0080911D06FB
:1020600090911E06A0911F06B09120060796A11D13
:10207000B11D23E0B695A795979587952A95D1F739
:102080002091BC0024FD03C010921B0608954091CE
:102090001D0650911E0660911F0670912006452B6B
:1020A000462B472B69F30097A105B10541F025E3C5
:1020B0002A95F1F700000197A109B109E1CF8091BC
:1020C0001C060C94450E8F929F92AF92BF92CF92B6
:1020D000DF92EF92FF920F931F93CF93DF93809144
:1020E000EF059091F0052AE0289FB001299F700D1F
:1020F0001124072E000C880B990B0E94F31825E37E
:102100003AEF4EE85CE30E94C3194B015C01609119
:10211000F3057091F405072E000C880B990B0E94B3
:10212000F31825E33AEF4EE85CE30E94C3190E94DE
:10213000301A20E030E040E752E40E94C3196B01FE
:102140007C01C501B4010E94B6189B01AC01C70116
:10215000B6010E94C3199B01AC0160E070E080E809
:1021600092E40E94491860937205709373058093FE
:10217000740590937505C501B4010E94301A9B0146
:10218000AC01C701B6010E94C3199B01AC0160E01C
:1021900070E08CE792E40E94491860936E0570939A
:1021A0006F05809370059093710581E090E09093A6
:1021B0008C0680938B0690938A06809389060E94F2
:1021C000780C8DE390E00E94780C60916E05709120
:1021D0006F0580917005909171050E94BB186B018D
:1021E00060917205709173058091740590917505E9
:1021F0000E94BB1821E030E0A60189E796E00E942A
:10220000ED0680E00E94D20F80E10E94D20F80E4B0
:102210000E94D20F809196068F3F09F46BC030EB7D
:10222000F32ED0E0C0E08F2D0E94D20F82E00E94FA
:10223000D20F80E10E94D20F10E000E0CE0180506A
:102240009F4F6C01E091A006F091A10680819091D2
:10225000A606892B8083E091A206F091A3068081D7
:102260009091A706892B8083E091A006F091A106AA
:1022700090818091A6068095892380835601A00EC7
:10228000B11E20E1E22EF50181915F0190919B0644
:10229000992369F18EBD00000DB407FEFDCF8EB508
:1022A000EA94E110F0CFE091A006F091A1068081C0
:1022B0009091A606892B8083005F1F4F003811057F
:1022C00009F0C0CFC058DF4FF394C115F4E0DF0729
:1022D00009F0A9CFDF91CF911F910F91FF90EF905F
:1022E000DF90CF90BF90AF909F908F9008950E9405
:1022F0003503D6CF9090B8008CE08093B80090EB77
:10230000F92ED0E0C0E0882483948F2D0E94D20F54
:1023100082E00E94D20F80E10E94D20F10E000E024
:10232000CE0180509F4F5C018091940680922106DF
:1023300080934306109222061092440660E485E4DE
:1023400096E00E94A30F6501C00ED11E80E1E82E29
:10235000F60161916F0185E496E00E94A30FEA9473
:10236000E110F6CF0E94660E005F1F4F0038110586
:10237000D9F6C058DF4FF394C115F4E0DF0729F612
:102380009092B800A7CF2CEA3FEF43E35DE3609162
:1023900076057091770580917805909179050E9476
:1023A0004A1860937605709377058093780590932B
:1023B000790520E030E040E251E40E94BE1987FD3B
:1023C00013C08091EF059091F00501979093F0056F
:1023D0008093EF050E9463101092760510927705A6
:1023E000109278051092790562E370E080E090E049
:1023F0000C9401042CEA3FEF43E35DE36091760522
:102400007091770580917805909179050E944A181E
:10241000609376057093770580937805909379059E
:1024200020E030E040E251E40E94BE1987FD13C075
:102430008091EF059091F00501969093F0058093BF
:10244000EF050E94631010927605109277051092A6
:1024500078051092790562E370E080E090E00C94DA
:1024600001041F920F920FB60F9211242F933F93E6
:102470008F939F93AF93BF938091E0059091E10577
:10248000A091E205B091E3053091DF0523E0230F31
:102490002D3758F50196A11DB11D2093DF058093BE
:1024A000E0059093E105A093E205B093E3058091E8
:1024B000E4059091E505A091E605B091E705019648
:1024C000A11DB11D8093E4059093E505A093E60559
:1024D000B093E705BF91AF919F918F913F912F915D
:1024E0000F900FBE0F901F90189526E8230F0296AD
:1024F000A11DB11DD2CF1F920F920FB60F921124C2
:102500002F933F934F935F936F937F938F939F93FB
:10251000AF93BF93CF93DF93EF93FF938091DE054B
:10252000C0917506D0E087FF24C0109285001092FC
:1025300084008091DE058F5F8093DE058091DE054B
:10254000082E000C990B8C179D0724F48091DE0552
:102550008C30C4F180918400909185000496803481
:102560009C4908F47AC0809184009091850004967B
:1025700076C08091DE05082E000C990B8C179D0704
:10258000C4F6E091DE058E2FEE0F990BFC01EE0FE5
:10259000FF1FE80FF91FEF5AF94F808186FFC9CF5F
:1025A000E091DE058E2FEE0F990BFC01EE0FFF1F61
:1025B000E80FF91FEF5AF94F808160E08F730E9496
:1025C0009003B7CF2091840030918500E091DE0523
:1025D0008E2FEE0F990BFC01EE0FFF1FE80FF91F76
:1025E000EF5AF94F81819281820F931F9093890056
:1025F00080938800E091DE058E2FEE0F990BFC0191
:10260000EE0FFF1FE80FF91FEF5AF94F808186FF89
:1026100011C0E091DE058E2FEE0F990BFC01EE0F3D
:10262000FF1FE80FF91FEF5AF94F808161E08F73A8
:102630000E949003FF91EF91DF91CF91BF91AF91F5
:102640009F918F917F916F915F914F913F912F91CA
:102650000F900FBE0F901F90189580E49CE9909307
:102660008900809388008FEF8093DE05E3CF1F926F
:102670000F920FB60F9211242F933F934F935F93B6
:102680006F937F938F939F93AF93BF93EF93FF933A
:102690008091B900887F803609F44AC0F0F588320D
:1026A00009F4A7C018F5803109F49BC0B8F4882359
:1026B00009F4F9C0883009F494C0FF91EF91BF91FB
:1026C000AF919F918F917F916F915F914F913F91CA
:1026D0002F910F900FBE0F901F901895883109F41D
:1026E00088C0803251F78093190614C0803409F4F1
:1026F0009DC040F48033B9F38833F9F6809319060E
:1027000085ECB0C0803509F485C0883509F496C0E1
:10271000883499F60E942B10D0CF883909F48CC0E8
:1027200038F5883729F050F4883611F0803729F6CB
:1027300083E080931B061092DD0557C0883809F4AA
:102740007BC0803919F0803809F0B7CF8091DD0562
:10275000803208F071C0E091DD0581E08E0F80933A
:10276000DD058091BB00F0E0E354FA4F80833DC06B
:10277000803B39F0E0F4803A09F479C0883A09F0F6
:102780009CCF84E080931B061092BC051092BB0581
:10279000E091EA05F091EB0509958091BB05811167
:1027A0000FC081E08093BB0510929B0509C0803C5F
:1027B00009F4A6CF883C09F4A3CF883B09F07DCF6C
:1027C000E091BC0581E08E0F8093BC05F0E0E556FA
:1027D000FA4F80818093BB009091BC058091BB052E
:1027E00029C08091F6058093BB0085EC8093BC00E6
:1027F00064CF9091180680911706981758F5E091CC
:10280000180681E08E0F80931806F0E0E950FA4F29
:102810008081E9CFE091180681E08E0F8093180641
:102820008091BB00F0E0E950FA4F80839091180648
:10283000809117069817C8F285E8D8CFE09118065E
:1028400081E08E0F809318068091BB00F0E0E95084
:10285000FA4F808380911A0681115CCF81E08093CA
:10286000F50584EA8093BC0010921B0626CF85EC08
:102870008093BC0010921B068091DD05803230F4FD
:10288000E091DD05F0E0E354FA4F10826091DD0540
:1028900070E0E091E805F091E9058DEB95E0099590
:1028A0001092DD050ACF1092190634CF1092480617
:1028B0001092470688EE93E0A0E0B0E080934906CE
:1028C00090934A06A0934B06B0934C0684E395E0A0
:1028D000909346068093450610927C0610927B06E4
:1028E00020E830E030937E0620937D0680E490E07F
:1028F0009093800680937F06309382062093810612
:10290000909384068093830610928F061092860619
:1029100010928506109288061092870681E08093B7
:102920008E0680938D062FEF3FEF30938C06209319
:102930008B0630938A062093890680939006109226
:102940009106109293061092920686E495E0909379
:102950007A06809379069FEF9093960690939A0655
:10296000909398069093970684E0809399068091BF
:1029700075068C3098F491E0980F909375068093CB
:10298000760690E0FC01EE0FFF1FE80FF91FEF5AEB
:10299000F94F88EB9BE092838183089590937606AC
:1029A0000895CF93DF9300D01F92CDB7DEB7789410
:1029B00084B5826084BD84B5816084BD85B5826044
:1029C00085BD85B5816085BD80916E0081608093F5
:1029D0006E0010928100809181008260809381005E
:1029E000809181008160809381008091800081606E
:1029F000809380008091B10084608093B1008091C9
:102A0000B00081608093B00080917A0084608093F0
:102A10007A0080917A00826080937A0080917A00B7
:102A2000816080937A0080917A00806880937A0038
:102A30001092C1001092ED051092EC051092220642
:102A4000109244060E94270E81E693E09093EB05D6
:102A50008093EA0582E693E09093E9058093E80588
:102A600082E0809395068CE380939406809196068D
:102A70008F3F09F462C2809198060E9416038091EC
:102A80009A060E94160380919A06082E000C990B54
:102A9000FC01E255FA4FE491F0E0EE0FFF1FE6561D
:102AA000FA4F259134913093A1062093A006FC01A2
:102AB000EE53FA4FE491E093A60680919806082E13
:102AC000000C990BFC01E255FA4FE491F0E0EE0F97
:102AD000FF1FE656FA4F259134913093A3062093B9
:102AE000A206FC01EE53FA4FE491E093A706809111
:102AF0009B0681113CC0809196060E94160380912E
:102B000097060E94160380919706082E000C990BD9
:102B1000FC01E255FA4FE491F0E0EE0FFF1FE6569C
:102B2000FA4F2591349130939F0620939E06FC0125
:102B3000EE53FA4FE491E093A50680919606082E95
:102B4000000C990BFC01E255FA4FE491F0E0EE0F16
:102B5000FF1FE656FA4F2591349130939D0620933E
:102B60009C06FC01EE53FA4FE491E093A406809199
:102B70009B06882309F438C02FB72983F8948091E5
:102B8000EE05811124C0E8EBF5E08491ECECF5E072
:102B90009491E82FF0E0EE0FFF1FEC55FA4FA5914E
:102BA000B491EC91E92321F461E08AE00E94900362
:102BB0008AE00E9416038CB580618CBD8CB5806460
:102BC0008CBD8DE00E9416038BE00E94160380915D
:102BD000EE058F5F8093EE0539813FBF8CB58C7F0A
:102BE0008CBD8DB581608DBD809199060E941603C4
:102BF00061E0809199060E94900361E070E080E0BE
:102C000090E00E94010460E0809199060E94900388
:102C10006AE070E080E090E00E94010461E0809151
:102C200099060E9490038EEA0E94D20F85ED0E94C1
:102C3000D20F80E80E94D20F88EA0E94D20F8FE361
:102C40000E94D20F83ED0E94D20F80E00E94D20F2B
:102C500080E40E94D20F8DE80E94D20F84E10E948E
:102C6000D20F80E20E94D20F80E00E94D20F81EA50
:102C70000E94D20F88EC0E94D20F8AED0E94D20FE0
:102C800082E10E94D20F81E80E94D20F8FEC0E9455
:102C9000D20F89ED0E94D20F81EF0E94D20F8BEDEF
:102CA0000E94D20F80E40E94D20F84EA0E94D20FC9
:102CB00086EA0E94D20F8FEA0E94D20FE0E0F1E094
:102CC00080E094E0DF019C011D9221503040E1F74B
:102CD000809176068C3008F052C085E00E94160381
:102CE00080917606282F30E0F901EE0FFF1FE20FEA
:102CF000F31FEF5AF94F9081907C956090839FEF7E
:102D00009093770697EE909378062CE0622F0E94BE
:102D1000A51A829FB001112430E020E0AB01420FE0
:102D2000531FFA01EE0FFF1FE40FF51FEF5AF94F83
:102D3000908196FD16C02F5F3F4F2C30310571F703
:102D400081110FC01092800082E080938100109268
:102D5000850010928400B19A80916F008260809308
:102D60006F00E09176068E2F90E0FC01EE0FFF1FC2
:102D7000E80FF91FEF5AF94F80818064808388E063
:102D80000E94160389E00E9416038AE00E9416033F
:102D90008BE00E941603E8E52E2EE2E03E2EF4EBD7
:102DA0008F2E912CA12CB12CCC24C394D12CB2E128
:102DB000EB2EF12C80E094E0A0E0B1E0FC011D924C
:102DC0003197E9F78AE090E09093F4058093F3055A
:102DD000A091F305B091F405AB35B1050CF0EEC050
:102DE000F0917606F983FC3008F059C0809178069E
:102DF0008101081B110987FD1395000F111F000F9A
:102E0000111F8091770628E830E0281B310987FDE3
:102E10003395220F331F220F331F3B832A8329014F
:102E2000330F66087708B7FF02C0B0E0A0E0980152
:102E3000012E000C440B550B24193509460957097E
:102E40000E941018A50194010E94E617420E531E1D
:102E5000641E751EAA81BB814A165B063CF01B836B
:102E60000A834016510614F45B824A82EA81FB8190
:102E70003297EE0FFF1FFB83EA834FB7F894F98177
:102E80002F2F30E0C901880F991F820F931FFC017B
:102E9000EF5AF94F2A813B81328321834FBF8091C2
:102EA000F1059091F205892B09F04AC00E94631048
:102EB00000E011E080E195E09B838A83AA81BB81D9
:102EC0006C9188E00E9490030E94FA11EA81FB81D4
:102ED000628189E00E9490030E94FA11AA81BB815D
:102EE00014966C918AE00E9490030E94FA11EA8184
:102EF000FB8166818BE00E9490030E94FA112A8177
:102F00003B81285F3F4F3B832A8380E395E0821714
:102F10009307A1F60150110969F6D092F205C0920B
:102F2000F105F092F005E092EF050E9463108091A8
:102F3000F3059091F4050A9647CF0E94270E54CED0
:102F40000E94631000E011E0A0E1B5E0BB83AA831A
:102F5000EA81FB81608D88E00E9490030E94C3118A
:102F6000AA81BB815A966C9189E00E9490030E94CD
:102F7000C311EA81FB81648D8AE00E9490030E9464
:102F8000C311AA81BB815E966C918BE00E94900375
:102F90000E94C311EA81FB813897FB83EA83E05FDB
:102FA000F440B1F60150110979F61092F205109231
:102FB000F1051092F0051092EF05B7CF80E090E098
:102FC000892B09F4F7CE0E940000F4CE052E97FB62
:102FD0001EF400940E94FD1757FD07D00E94181898
:102FE00007FC03D04EF40C94FD1750954095309596
:102FF00021953F4F4F4F5F4F089590958095709565
:1030000061957F4F8F4F9F4F08950E943A18A59F5B
:10301000900DB49F900DA49F800D911D11240895D3
:10302000B7FF0C9405180E940518821B930B089596
:10303000A1E21A2EAA1BBB1BFD010DC0AA1FBB1FBC
:10304000EE1FFF1FA217B307E407F50720F0A21B2E
:10305000B30BE40BF50B661F771F881F991F1A949B
:1030600069F760957095809590959B01AC01BD01C5
:10307000CF010895A29FB001B39FC001A39F700D1F
:10308000811D1124911DB29F700D811D1124911D70
:1030900008955058BB27AA270E9461180C947019F4
:1030A0000E94371938F00E943E1920F039F49F3FF2
:1030B00019F426F40C9434190EF4E095E7FB0C9403
:1030C0002E19E92F0E94951958F3BA176207730752
:1030D0008407950720F079F4A6F50C94B7190EF43F
:1030E000E0950B2EBA2FA02D0B01B90190010C0118
:1030F000CA01A0011124FF27591B99F0593F50F430
:10310000503E68F11A16F040A22F232F342F442787
:10311000585FF3CF469537952795A795F04053957F
:10312000C9F77EF41F16BA0B620B730B840BBAF04F
:103130009150A1F0FF0FBB1F661F771F881FC2F7BA
:103140000EC0BA0F621F731F841F48F487957795CE
:103150006795B795F7959E3F08F0B0CF9395880F88
:1031600008F09927EE0F9795879508950E944719C3
:10317000E3950C9481190E94C2186894B1110C94C3
:10318000B81908950E949D1988F09F5798F0B92F9B
:103190009927B751B0F0E1F0660F771F881F991F8C
:1031A0001AF0BA95C9F714C0B13091F00E94B7195E
:1031B000B1E008950C94B719672F782F8827B85F6E
:1031C00039F0B93FCCF3869577956795B395D9F7E4
:1031D0003EF490958095709561957F4F8F4F9F4FEE
:1031E0000895E89409C097FB3EF4909580957095FA
:1031F00061957F4F8F4F9F4F9923A9F0F92F96E943
:10320000BB279395F695879577956795B795F111B7
:10321000F8CFFAF4BB0F11F460FF1BC06F5F7F4F54
:103220008F4F9F4F16C0882311F096E911C0772366
:1032300021F09EE8872F762F05C0662371F096E86F
:10324000862F70E060E02AF09A95660F771F881F3E
:10325000DAF7880F9695879597F9089597F99F67FC
:1032600080E870E060E008959FEF80EC089500240E
:103270000A941616170618060906089500240A94DB
:10328000121613061406050608950C9434190E94AC
:103290009D19D8F3E894E0E0BB279F57F0F02AEDA2
:1032A0003FE049EC06C0EE0FBB0F661F771F881F7B
:1032B00028F0B23A62077307840728F0B25A620B0B
:1032C000730B840BE3959A9572F7803830F49A95D6
:1032D000BB0F661F771F881FD2F790480C945E1AA9
:1032E000092E0394000C11F4882352F0BB0F40F414
:1032F000BF2B11F460FF04C06F5F7F4F8F4F9F4F54
:103300000895EF93E0FF07C0A2EA2AED3FE049EC01
:103310005FEB0E9461180E9470190F90039401FCEA
:103320009058E8E6F0E00C946A1A57FD9058440F64
:10333000551F59F05F3F71F04795880F97FB991F14
:1033400061F09F3F79F087950895121613061406D1
:10335000551FF2CF4695F1DF08C01616170618065E
:10336000991FF1CF86957105610508940895E89439
:10337000BB2766277727CB0197F908950E94381A53
:1033800008F48FEF08950E94D6190C9470190E94CA
:10339000371938F00E943E1920F0952311F00C9453
:1033A0002E190C94341911240C94B8190E949519F3
:1033B00070F3959FC1F3950F50E0551F629FF00188
:1033C000729FBB27F00DB11D639FAA27F00DB11DA1
:1033D000AA1F649F6627B00DA11D661F829F22272A
:1033E000B00DA11D621F739FB00DA11D621F839FB1
:1033F000A00D611D221F749F3327A00D611D231F87
:10340000849F600D211D822F762F6A2F11249F57D4
:1034100050409AF0F1F088234AF0EE0FFF1FBB1FD7
:10342000661F771F881F91505040A9F79E3F510596
:1034300080F00C942E190C94B8195F3FE4F3983E79
:10344000D4F3869577956795B795F795E7959F5F40
:10345000C1F7FE2B880F911D9695879597F90895D2
:103460009F930E9447190F9007FCEE5F0C948119FF
:10347000990F0008550FAA0BE0E8FEEF1616170685
:10348000E807F907C0F012161306E407F50798F0ED
:10349000621B730B840B950B39F40A2661F0232B06
:1034A000242B252B21F408950A2609F4A140A69582
:1034B0008FEF811D811D08959F3F31F0915020F4C1
:1034C000879577956795B795880F911D9695879500
:1034D00097F908959F938F937F936F93FF93EF9343
:1034E0009B01AC010E94C319EF91FF910E947E1ACB
:1034F0002F913F914F915F910C94C319DF93CF931C
:103500001F930F93FF92EF92DF927B018C016894DF
:1035100006C0DA2EEF010E94D619FE01E894A591AB
:103520002591359145915591A6F3EF010E946118BF
:10353000FE019701A801DA9469F7DF90EF90FF9000
:103540000F911F91CF91DF910895991B79E004C0ED
:10355000991F961708F0961B881F7A95C9F78095D2
:103560000895EE0FFF1F0590F491E02D099481E07E
:1035700090E0F8940C94BC1AF894FFCF000000007F
:10358000000000000000000000000000000000003B
:10359000000000000000000000000000000000002B
:1035A000000000000000000000000000000000001B
:1035B000000000000000000000000080808000008B
:1035C000000000000000000000000000008080C03B
:1035D000C00000000000000000000000000000002B
:1035E00000000000000000000000000000000000DB
:1035F00000000000000000000000000000000000CB
:1036000000000000000000000000000000000000BA
:1036100080C0E0F0F8FCF8E00000000000000000CE
:10362000000000000000000000808080808000809A
:103630008000000000808080808000FFFFFF00008D
:1036400000008080808000008080000080FFFF807C
:1036500080008080008080808000808000000000EA
:1036600000808000008C8E84000080F8F8F88000D4
:10367000000000000000000000000000F0F0F0F08A
:10368000F0F0F0F0F0F0F0F0E0E0C08000E0FCFEE0
:10369000FFFFFF7FFFFFFFFFFF00000000000000B3
:1036A00000000000000000FEFFC70101010183FFD0
:1036B000FF00007CFEC70101010183FFFFFF00380E
:1036C000FEC78301010183C7FFFF000001FFFF0167
:1036D0000100FFFF0701010100007FFF80000000E3
:1036E000FFFF7F0000FFFFFF000001FFFFFF010061
:1036F000000000000000000000000000030F3F7FFA
:103700007FFFFFFFFFFFFFFFE7C7C78F8F9FBFFF51
:10371000FFC3C0F0FFFFFFFFFFFCFCFCFCFCFCFC58
:10372000FCF8F8F0F0E0C000010303030303010319
:103730000300000000010303030301010301000073
:10374000000103030303010103030000000303005E
:103750000000030300000000000000010303030356
:103760000301000000010301000000030301000049
:1037700000000000000000000000000000000080C9
:10378000C0E0F0F9FFFFFFFFFF3F1F0F87C7F7FF04
:10379000FF1F1F3DFCF8F8F8F87C7DFFFFFFFFFFDF
:1037A000FFFFFF7F3F0F07003030000000000000E8
:1037B0000000000000000000000000000000000009
:1037C000FEFEFC0000000000000000000000000001
:1037D000000000000000000000E0C0000000000049
:1037E0000000000000003030000000000000000079
:1037F00000000000000000000000000000C0FEFF0C
:10380000FFFFFFFFFFFFFFFF7F7F3F1F0F071F7FB0
:10381000FFFFF8F8FFFFFFFFFFFEF8E000000001E8
:103820000000000000000000FEFE000000FCFEFCA6
:103830000C06060EFCF80000F0F81C0E0606060C3E
:10384000FFFFFF0000FEFE00000000FCFEFC001871
:103850003C7E66E6CE84000006FFFF0606FCFEFC0A
:103860000C0606060000FEFE0000C0F8FC4E4646B0
:10387000464E7C7840183C76E6CECC8000000000B6
:103880000000000000000000000000000000000038
:1038900001070F1F1F3F3F3F3F1F0F0300000000A6
:1038A00000000000000000000F0F0000000F0F0FCD
:1038B000000000000F0F000003070E0C18180C0684
:1038C0000F0F0F0000010F0E0C180C0F0701000462
:1038D0000E0C180C0F070000000F0F00000F0F0F49
:1038E0000000000000000F0F00000007070C0C187C
:1038F0001C0C060600040E0C180C0F07000000003C
:1039000000000000000000000000000000000000B7
:1039100000000000000000000000000000000000A7
:103920000000000000000000000000000000000097
:103930000000000000000000000000000000000087
:103940000000000000000000000000000000000077
:103950000000000000000000000000000000000067
:103960000000000000000000000000000000000057
:10397000000000000000000000000000000103073C
:103980000F1F3F7F0080C0E0F0F8FCFE0100010047
:103990000000000000000100010000000000000025
:1039A0000100010001000000000001000000000013
:1039B000A30F760F261060036F0F5C0F4D0F0000F2
:1039C0000000CC0963032610FF0DED066003710CA7
:1039D000490C650C590C520D600392079107330492
:0A39E0009005920B750BFD0A9E0A7C
:107E0000112484B714BE81FFF0D085E080938100F7
:107E100082E08093C00088E18093C10086E0809377
:107E2000C20080E18093C4008EE0C9D0259A86E02C
:107E300020E33CEF91E0309385002093840096BBD3
:107E4000B09BFECF1D9AA8958150A9F7CC24DD24C4
:107E500088248394B5E0AB2EA1E19A2EF3E0BF2EE7
:107E6000A2D0813461F49FD0082FAFD0023811F036
:107E7000013811F484E001C083E08DD089C08234E0
:107E800011F484E103C0853419F485E0A6D080C0E4
:107E9000853579F488D0E82EFF2485D0082F10E0AE
:107EA000102F00270E291F29000F111F8ED06801E7
:107EB0006FC0863521F484E090D080E0DECF843638
:107EC00009F040C070D06FD0082F6DD080E0C81688
:107ED00080E7D80618F4F601B7BEE895C0E0D1E017
:107EE00062D089930C17E1F7F0E0CF16F0E7DF06D8
:107EF00018F0F601B7BEE89568D007B600FCFDCFD4
:107F0000A601A0E0B1E02C9130E011968C91119780
:107F100090E0982F8827822B932B1296FA010C0160
:107F200087BEE89511244E5F5F4FF1E0A038BF0790
:107F300051F7F601A7BEE89507B600FCFDCF97BE46
:107F4000E89526C08437B1F42ED02DD0F82E2BD052
:107F50003CD0F601EF2C8F010F5F1F4F84911BD097
:107F6000EA94F801C1F70894C11CD11CFA94CF0C13
:107F7000D11C0EC0853739F428D08EE10CD085E9AC
:107F80000AD08FE07ACF813511F488E018D01DD067
:107F900080E101D065CF982F8091C00085FFFCCF94
:107FA0009093C60008958091C00087FFFCCF809118
:107FB000C00084FD01C0A8958091C6000895E0E648
:107FC000F0E098E1908380830895EDDF803219F02E
:107FD00088E0F5DFFFCF84E1DECF1F93182FE3DFCA
:107FE0001150E9F7F2DF1F91089580E0E8DFEE27F6
:047FF000FF270994CA
:027FFE00040479
:00000001FF
