:100000000C9447050C946F050C946F050C946F05C8
:100010000C946F050C946F050C946F050C946F0590
:100020000C946F050C946F050C946F050C946F0580
:100030000C946F050C9417180C946F050C946F05B5
:100040000C94AE160C946F050C946F050C946F0510
:100050000C946F050C946F050C946F050C946F0550
:100060000C94F8160C946F052200FF21000000008C
:1000700000003E5B4F5B3E3E6B4F6B3E1C3E7C3E4A
:100080001C183C7E3C181C577D571C1C5E7F5E1C58
:1000900000183C1800FFE7C3E7FF0018241800FF12
:1000A000E7DBE7FF30483A060E2629792926407F0C
:1000B000050507407F05253F5A3CE73C5A7F3E1C1B
:1000C0001C08081C1C3E7F14227F22145F5F005F07
:1000D0005F06097F017F006689956A6060606060E5
:1000E00094A2FFA29408047E040810207E20100829
:1000F000082A1C08081C2A08081E101010100C1EC4
:100100000C1E0C30383E3830060E3E0E0600000045
:10011000000000005F00000007000700147F147F4C
:1001200014242A7F2A122313086462364956205069
:100130000008070300001C2241000041221C002A85
:100140001C7F1C2A08083E08080080703000080840
:10015000080808000060600020100804023E5149B1
:10016000453E00427F400072494949462141494D80
:10017000331814127F1027454545393C4A49493107
:1001800041211109073649494936464949291E0086
:100190000014000000403400000008142241141430
:1001A000141414004122140802015909063E415D4D
:1001B000594E7C1211127C7F494949363E414141DA
:1001C000227F4141413E7F494949417F0909090157
:1001D0003E414151737F0808087F00417F41002064
:1001E00040413F017F081422417F404040407F0250
:1001F0001C027F7F0408107F3E4141413E7F090978
:1002000009063E4151215E7F09192946264949497F
:100210003203017F01033F4040403F1F2040201F29
:100220003F4038403F6314081463030478040361BB
:1002300059494D43007F41414102040810200041CB
:1002400041417F0402010204404040404000030756
:10025000080020545478407F2844443838444444AB
:1002600028384444287F385454541800087E090222
:1002700018A4A49C787F0804047800447D400020E2
:1002800040403D007F1028440000417F40007C0436
:100290007804787C080404783844444438FC1824F2
:1002A000241818242418FC7C0804040848545454C6
:1002B0002404043F44243C4040207C1C2040201C5B
:1002C0003C4030403C44281028444C9090907C4462
:1002D00064544C440008364100000077000000419F
:1002E00036080002010204023C2623263C1EA1A17E
:1002F00061123A4040207A38545455592155557965
:100300004122545478422155547840205455794024
:100310000C1E527212395555555939545454593985
:10032000555454580000457C410002457D4200016F
:10033000457C407D1211127DF0282528F07C545513
:1003400045002054547C547C0A097F49324949496C
:10035000323A4444443A324A4848303A4141217A98
:100360003A42402078009DA0A07D3D4242423D3D62
:100370004040403D3C24FF2424487E4943662B2FC7
:10038000FC2F2BFF0929F620C0887E090320545436
:1003900079410000447D413048484A32384040228B
:1003A0007A007A0A0A727D0D19317D2629292F28B3
:1003B000262929292630484D4020380808080808F1
:1003C000080808382F10C8ACBA2F102834FA0000DB
:1003D0007B000008142A142222142A140855005500
:1003E0000055AA55AA55AAFF55FF55FF000000FF6A
:1003F00000101010FF00141414FF001010FF00FF75
:100400001010F010F0141414FC001414F700FF0086
:1004100000FF00FF1414F404FC141417101F101034
:100420001F101F1414141F00101010F00000000003
:100430001F101010101F10101010F010000000FFFF
:10044000101010101010101010FF10000000FF14FA
:100450000000FF00FF00001F10170000FC04F41450
:10046000141710171414F404F40000FF00F7141408
:100470001414141414F700F7141414171410101F84
:10048000101F141414F4141010F010F000001F10BA
:100490001F0000001F14000000FC140000F010F00A
:1004A0001010FF10FF141414FF141010101F000080
:1004B0000000F010FFFFFFFFFFF0F0F0F0F0FFFF93
:1004C000FF0000000000FFFF0F0F0F0F0F38444424
:1004D0003844FC4A4A4A347E02020606027E027E04
:1004E0000263554941633844443C04407E201E2049
:1004F00006027E020299A5E7A5991C2A492A1C4CEE
:100500007201724C304A4D4D303048784830BC62F0
:100510005A463D3E494949007E0101017E2A2A2A68
:100520002A2A44445F444440514A444040444A518A
:10053000400000FF0103E080FF000008086B6B082B
:100540003612362436060F090F0600001818000070
:10055000001010003040FF0101001F01011E0019B2
:100560001D1712003C3C3C3C000000000000010351
:10057000070F1F3F7F0080C0E0F0F8FCFE00000086
:1005800000240027002A00DB40A4A62EAF2000A1F3
:10059000C8D300408DAED580A800000000250028FB
:1005A000002B0000006000000000000000000000C0
:1005B00000000000E000000000000000000000005B
:1005C000000001E00000000000000000000000004A
:1005D0000001F0000000000000000000000000002A
:1005E00003F0000000000000000000000000000711
:1005F000F00000000000000000000000000007F80C
:10060000000000000000000000000000000FF800E3
:10061000000003C0007E000001E0007F0FF8000032
:100620000003C000FE000001E000FFEFF800000042
:1006300003C000FE000001E000FFFFF8000000031F
:10064000C000F00000000F007FFE7FC0000003C06C
:1006500000F00000000F003FFE7FF83FF1FBCFFCF1
:10066000FEF3BC3DEFE01FFE7FFF7FFBFFDFFEFEE2
:10067000FFBC3DEFE01FC6FFFF7FFBFFDFFEFEFF7D
:10068000BC3DEFE00FE3C7FE787BC3DE1EF0FFBC8E
:100690003DEF0007FF87FC787BC3DE1EF0F83C3D92
:1006A000EF0001FFFFF0007BC3C01EF0F03C3DEF08
:1006B0000001F37FE03FFBC3CFFEF0F03C3DEF00D5
:1006C00003E33F807FFBC3DFFEF0F03C3DEF00071C
:1006D000E73C00787BC3DE1EF0F03C3DEF0007FFF7
:1006E000BE00787BC3DE1EF0F03C3DEF0007FFFE4E
:1006F00000787BC3DE1EF0F03C3DEF000FFFFE00F4
:100700007FFBFFDFFEF0F03FFDEFE00FFFFF007F1C
:10071000FBFFDFFEF0F03FFDEFE00FF9FF003E7959
:10072000F9CF9EF0F01F3DE7E01FF1FF0000000051
:1007300000000000000000001F80FF007FFFFFFF9F
:10074000FFFFFFFFFFFFE01C007F007FFFFFFFFEBA
:10075000B46D888D18E000001F007FFFFFFFFE953D
:10076000AD7DB577E000000F007FFFFFFFFEA5AD78
:100770009D8D19E0000006007FFFFFFFFEB5ADED87
:10078000B57EE000000000000180000000000000D5
:10079000000000038000000000000000000007C00F
:1007A00000000000000000000007C0000000000082
:1007B000000000000FC00000000000000000001F4B
:1007C000E00000000000000000001FE0000000004A
:1007D00000000000003FE0000000000000000000FA
:1007E0003FF00000000000000000007FF00000006B
:1007F000000000001FF87FF0000000000000003F34
:10080000FE7FF0000000000000003FFF7FF00000CE
:1008100000000000001FFFFBE000000000000000DF
:100820000FFFF9FFC00000000000000FFFF9FFF804
:1008300000000000000007FFF1FFFF0000000000C3
:100840000003FC73FFFF80000000000001FE3FFF7B
:10085000FF80000000000000FF1E0FFF00000000EE
:100860000000007FFE1FFC000000000000003FFFB2
:10087000FFF8000000000000000FDFFFE0000000B4
:10088000000000001F19FFC0000000000000003F32
:100890003CFF00000000000000007E7CF80000002B
:1008A00000000000007FFE7C00000000000000004F
:1008B000FFFFFC0000000000000000FFFFFE000042
:1008C000000000000000FFFFFE000000000000002C
:1008D00001FFEFFE0000000000000001FFCFFE005E
:1008E00000000000000003FF07FE00000000000001
:1008F0000003FC07FE0000000000000003F003FE00
:1009000000000000000000018000FE000000000068
:1009100000000000007E0000000000000000000059
:100920003E000000000000000000000C000000007D
:100930000000078000FC000003C0000000078001E9
:10094000FC000003C0000000078001FC000003C0A1
:10095000000000078001E00000001E00000007808A
:1009600001E00000001E007FE3F79FF9FDE7787BC0
:10097000DFC0FFF7FFBFFDFDFF787BDFC0FFF7FFA4
:10098000BFFDFDFF787BDFC0F0F787BC3DE1FF785E
:100990007BDE00F0F787BC3DE1F0787BDE0000F7FE
:1009A00087803DE1E0787BDE007FF7879FFDE1E017
:1009B000787BDE00FFF787BFFDE1E0787BDE00F0AB
:1009C000F787BC3DE1E0787BDE00F0F787BC3DE1D6
:1009D000E0787BDE00F0F787BC3DE1E0787BDE006D
:1009E000FFF7FFBFFDE1E07FFBDFC0FFF7FFBFFDCB
:1009F000E1E07FFBDFC07CF3F39F3DE1E03E7BCF96
:100A0000C00000000000000000000000FFFFFFFF2A
:100A1000FFFFFFFFFFFFC0FFFFFFFFFD68DB111AB5
:100A200031C0FFFFFFFFFD2B5AFB6AEFC0FFFFFF46
:100A3000FFFD4B5B3B1A33C0FFFFFFFFFD6B5BDB32
:100A40006AFDC00000000800020100000304070066
:100A50000000000000000000000000230026002924
:100A60000004040404040404040202020202020357
:100A70000303030303010204081020408001020461
:100A8000081020010204081020008318941C11246F
:100A90001FBECFEFD8E0DEBFCDBF11E0A0E0B1E0D8
:100AA000E2E0F1E402C005900D92AC39B107D9F74C
:100AB00022E0ACE9B1E001C01D92A63CB207E1F72B
:100AC00015E0C6E4D5E004C02197FE010E943D1F59
:100AD000C534D107C9F70E94DF180C9474200C9418
:100AE00000000895CF92DF92EF92FF9223EC35EF52
:100AF00048EC5FE360916A0270916B0280916C0236
:100B000090916D020E94C41E2091A0013091A1011C
:100B10004091A2015091A3010E94F41C6B017C0141
:100B200020E030E44CE156E40E94BF1E87FF20C065
:100B3000C092A001D092A101E092A201F092A30183
:100B400080919C0190919D01A0919E01B0919F0187
:100B50000196A11DB11D80939C0190939D01A093CE
:100B60009E01B0939F01FF90EF90DF90CF9008958A
:100B70001092A0011092A1011092A2011092A30163
:100B8000DFCF08950895AF92BF92CF92DF92EF9298
:100B9000FF920F931F93CF93DF936C017B018B0127
:100BA000040F151FEB015E01AE18BF08C017D10777
:100BB00059F06991D601ED91FC910190F081E02D01
:100BC000C6010995892B79F7C501DF91CF911F9156
:100BD0000F91FF90EF90DF90CF90BF90AF9008956E
:100BE00090E0FC01ED5BF54F2491FC01EB58F54FD3
:100BF0003491FC01EF59F54FE491EE23C9F0222323
:100C000039F0233001F1A8F4213019F1223029F113
:100C1000F0E0EE0FFF1FE756FA4FA591B4918FB7A2
:100C2000F894EC91611126C030953E233C938FBF20
:100C300008952730A9F02830C9F0243049F7809171
:100C400080008F7D03C0809180008F77809380002B
:100C5000DFCF84B58F7784BDDBCF84B58F7DFBCFAD
:100C60008091B0008F778093B000D2CF8091B00098
:100C70008F7DF9CF3E2BDACFCF93DF9390E0FC014D
:100C8000EB58F54F24918F59954FFC01849188239F
:100C9000D1F090E0880F991FFC01E358FA4FA5911D
:100CA000B491FC01E756FA4FC591D49161110EC081
:100CB0009FB7F8948C91E22FE0958E238C93288136
:100CC000E223E8839FBFDF91CF9108958FB7F89417
:100CD000EC91E22BEC938FBFF6CF3FB7F894809165
:100CE000590290915A02A0915B02B0915C0226B524
:100CF000A89B05C02F3F19F00196A11DB11D3FBF54
:100D0000BA2FA92F982F8827BC01CD01620F711D22
:100D1000811D911D42E0660F771F881F991F4A951C
:100D2000D1F708958F929F92AF92BF92CF92DF92A8
:100D3000EF92FF924B015C010E946D066B017C01FA
:100D40000E946D066C197D098E099F09683E7340EB
:100D500081059105A8F321E0821A9108A108B10844
:100D600088EEC80E83E0D81EE11CF11C81149104AA
:100D7000A104B10429F7FF90EF90DF90CF90BF90CE
:100D8000AF909F908F900895EF92FF920F931F93D3
:100D9000CF93DF93EC01EC80FD806E157F050CF0A6
:100DA00070C057FF04C0240F351F50E040E08E8113
:100DB0009F81FA01E20FF31F8E179F071CF49C011D
:100DC000241B350B121613060CF05BC0922F842FD8
:100DD0008695869586958E9DD0018F9DB00D1124A8
:100DE0006A0F7B1FAF8DB8A1A60FB71F477049F1DF
:100DF00088E0841B482F682F70E0FB01EB58FA4F06
:100E0000E491281708F063C0621B71092FEF30E0EE
:100E100002C0359527956A95E2F7E2230130110566
:100E200039F0B0F10230110561F58C91E82702C06C
:100E30008C91E82BEC93941720F12C813D81A20F2B
:100E4000B31FE92FE41BE83078F00230110521F5DB
:100E50008E2F9C9190959C932C813D81A20FB31F66
:100E600088508830B0F7E770EE2359F0F0E0E3598E
:100E7000FA4FE49101301105F9F010F1023011053B
:100E800019F1DF91CF911F910F91FF90EF9008958D
:100E9000E0958C91E823CECF81E00115110509F48E
:100EA00080E081959E2F8C932C813D81A20FB31FF2
:100EB00098509830C0F7D7CF8C91E82BEC93E1CFC6
:100EC000E0958C91E823FACF8C91E827F7CF013099
:100ED000110509F4ADCFE0F20230110509F4A5CFF8
:100EE000AE0DBF1DAECF0F931F93CF93DF9377FF50
:100EF00004C0260F371F70E060E0DC011496CD912E
:100F0000DC91FB01E20FF31FCE17DF071CF49E01FB
:100F1000261B370B121613064CF5FA0157FD3796B0
:100F2000A3E0F595E795AA95E1F7EC9FD001ED9F39
:100F3000B00DFC9FB00D11246A0F7B1FDC015F9682
:100F4000ED91FC91E60FF71F4770552781E090E087
:100F500001C0880F4A95EAF7482F0130110559F072
:100F6000A8F02E0F3F1F02301105E1F0DF91CF9165
:100F70001F910F9108952E0F3F1FE217F307B1F352
:100F80008191DF011197842B8C93F7CF80952E0FE1
:100F90003F1FE217F30751F39191DF011197982357
:100FA0009C93F7CFE217F30709F38191DF011197C3
:100FB00084278C93F7CF0F931F93FA01DC01569689
:100FC0004C9156974230E9F04330A1F1413061F540
:100FD00014964D915C91DA01AE1BBF0BFD01E21B33
:100FE000F30B77FD0BC0DC0116964D915C916417F5
:100FF000750724F4AB01BF010E9473071F910F9185
:10100000089514964D915C91DA01A61BB70BBD01B2
:1010100061507109DC0116964D915C91DA01AE1BAD
:10102000BF0BFD01E21BF30B77FDE8CFAF010E9480
:10103000C406E4CF16964D915C91DA01A61BB70B5E
:10104000BD0161507109CDCF0F931F93FA01DC01EF
:1010500056964C9156974230A9F0433091F1413069
:1010600019F514964D915C91DA01AE1BBF0BFD0191
:101070003197F7FD04C0AB01BF010E94C4061F9168
:101080000F91089514964D915C91DA01A61BB70B50
:10109000BD01DC0116964D915C91DA01AE1BBF0BD0
:1010A000FD013197621B730BF7FDE9CFDC0116964A
:1010B0004D915C91E417F50714F7AF010E94730797
:1010C000DECF16964D915C91DA01A61BB70BBD01E0
:1010D000621B730BCECFFC0177FD64C080859185C8
:1010E000681779070CF05EC057FD5CC08285938558
:1010F000481759070CF056C086898230B1F083300A
:1011000029F1813041F484819581841B950BAB01D9
:10111000BC01615071092130310509F108F443C067
:101120002230310509F463C0089584819581DC0182
:10113000A61BB70BBD016150710986819781DC0147
:10114000A41BB50BAD0141505109E5CF86819781B4
:10115000861B970BBA01AC0141505109DCCFCA0183
:1011600057FD0796A3E095958795AA95E1F7A48189
:10117000B5818A9F90018B9F300D9A9F300D11246D
:10118000620F731F078CF0A1E02DE60FF71F477069
:10119000552721E030E001C0220F4A95EAF780810F
:1011A000822B80830895CA0157FD079633E09595F9
:1011B00087953A95E1F7A481B5818A9F90018B9F2D
:1011C000300D9A9F300D1124620F731F078CF0A110
:1011D000E02DE60FF71F4770552781E090E001C032
:1011E000880F4A95EAF7809590818923DACFCA0162
:1011F00057FD079623E0959587952A95E1F7A481F9
:10120000B5818A9F90018B9F300D9A9F300D1124DC
:10121000620F731F078CF0A1E02DE60FF71F4770D8
:10122000552721E030E001C0220F4A95EAF780817E
:101230008227B7CF08958EBD00000DB407FEFDCF05
:101240008EB508958CBD9DBD08950895FC01637011
:10125000668B8481958126813781613039F06330D6
:1012600029F09187808733872287089531872087E7
:101270009387828708952F923F924F925F926F9249
:101280007F928F929F92AF92BF92CF92DF92EF9216
:10129000FF920F931F93CF93DF93CDB7DEB76A977B
:1012A0000FB6F894DEBF0FBECDBF9A8F898F7A83B9
:1012B00069834A01D22E18870F833701BC2CDC01C9
:1012C00059962D913C915A972115310509F015C178
:1012D00018968D919C911997681779070CF0D7C1D2
:1012E0001A968D919C91481759070CF0D0C14C2C3F
:1012F000512CB6E0CB9E600D711D11247C876B874D
:10130000161617060CF0C3C1EA2DF0E0FA87E9873C
:1013100093E0EE0FFF1F9A95E1F7F88BEF87CF016F
:10132000840F951F181619060CF0B1C1A98DBA8D3E
:1013300058968C91811104C0BFEABD1508F4D3946E
:10134000A98DBA8DED91FC9111970284F385E02D62
:10135000CD010995B5E0DB9EC0011124E981FA8138
:10136000FC83EB83312C212C9C0123593F4F388F78
:101370002F8B4A2D50E05E8B4D8BEF89F88DE20D5F
:10138000F31D44919E828D82D12CC12C69817A817A
:10139000620D731D7A8B698B842F90E09C8B8B8BF5
:1013A000E98DFA8DA081B18140FF82C0F1E0BF12CA
:1013B0006FC0AF126DC01C96ED91FC912F813885E6
:1013C000A4014C0D5D1D69897A89898D9A8D0995D5
:1013D000EB89FC89F595E7954E2F5FEFC51AD50A85
:1013E0006D817E818D899E89680F791F7E836D83D3
:1013F00098E0C916D10481F6AFEF2A1A3A0AEB81B8
:10140000FC81E40DF51DFC83EB83F5E02F16310420
:1014100009F0B3CF2F81388526153705B9F0A98D8E
:10142000BA8DED91FC91B1E0BB1257C0AB1255C023
:1014300069817A816B5F7F4F0088F189E02D83019C
:1014400028E030E0A401898D9A8D0995A98DBA8D87
:10145000ED91FC9111970688F789E02DCD016A96F0
:101460000FB6F894DEBF0FBECDBFDF91CF911F91B5
:101470000F91FF90EF90DF90CF90BF90AF909F9033
:101480008F907F906F905F904F903F902F90099436
:101490001E96ED91FC91EF80F88409851A859201E2
:1014A0004D815E816B817C81898D9A8D099590CF6C
:1014B0002F8138852615370509F48ACF31E0B3121C
:1014C00007C0A31205C01C96ED91FC91930178CF43
:1014D0001E96ED91FC917301E0CF6B857C856419BC
:1014E00075090684F785E02D73010F85188992012F
:1014F000A401898D9A8D0995A9CFF901349694910B
:10150000329745915491D91AB7E0DB9E400D511D99
:101510001124F901259134913C8B2B8BFA012590F4
:101520003490FA013296749031963491398B329618
:1015300064903196449041E04C1518F04A1508F03B
:101540007FC0662D062C000C770B7C836B83842D6B
:10155000042C000C990B9E838D83A98DBA8DED917F
:10156000FC9111970284F385E02DCD010995512C52
:10157000D12CC12CEA2DF0E0FA87E9872B2D30E041
:101580003C872B87A401440D511D47FC5A95588F69
:101590004F8B69817A81660D711D67FC7A957E8714
:1015A0006D877989C71608F051CF2C2D30E04D8119
:1015B0005E81420F531FA985BA854A9FC0014B9F88
:1015C000900D5A9F900D1124FC01E80DF91DF88B28
:1015D000EF87852D612C4F89588D420F531F5E8BED
:1015E0004D8B671408F050C044244394480E877014
:1015F00041F4C1010196EB89FC89E20DF31DD49001
:101600001C01D7FE19C0A98DBA8DED91FC91662DF4
:1016100070E0B1E0BB1219C0AB1217C02D853E853A
:10162000620F731F0484F585E02D2F8138854D8965
:101630005E89898D9A8D0995DD0C6394842DD1CFB7
:101640001E821D821C821B8288CF4B815C81640FAD
:10165000751FAB85BC856A9FC0016B9F900D7A9FFB
:10166000900D112469817A81680F791F0684F785AE
:10167000E02DEF80F88409851A859D014F855889F2
:10168000898D9A8D0995D8CF570CC3948ACF6A96C5
:101690000FB6F894DEBF0FBECDBFDF91CF911F9183
:1016A0000F91FF90EF90DF90CF90BF90AF909F9001
:1016B0008F907F906F905F904F903F902F90089504
:1016C0008F929F92AF92CF92EF92FF920F931F93C0
:1016D000CF93DF93EC01262F898D9A8D009709F027
:1016E00051C06A30D1F41D861C868D8948E0849FE4
:1016F000900111248E859F85820F931F9F878E876F
:1017000081E090E0DF91CF911F910F91FF90EF90DA
:10171000CF90AF909F908F9008956D3089F3CC88D3
:10172000AD888F898823C1F08C859D8536E0C39E66
:10173000800D911D1124488559854817590764F477
:101740004E855F851D861C8638E0A39EC00111244E
:10175000840F951F9F878E87EA88FB8808891989DF
:101760004E855F856C857D85CE010E943B092C8965
:101770008C859D8546E0249F800D911D11249D87B9
:101780008C87BECF6A3069F41D861C86FC013896B2
:10179000E4912D898E859F85E29F800D911D1124F6
:1017A000ADCF6D3009F4ACCFFC01349634916317A2
:1017B00008F4A6CF3296E491E61708F4A1CFFC0115
:1017C000329685909490462F431B342F47E0349FE8
:1017D000800C911C1124F401329634913196E491DD
:1017E0003323A9F1EE2399F1CC88F4013596E491E5
:1017F000AD884F89442301F10E2E000CFF0BE30F3F
:10180000F11DCE9EA001CF9E500D11246C857D85CB
:10181000460F571F68857985641775076CF44E85E8
:101820005F851D861C86FC013896E491AE9E400DB6
:10183000511D11245F874E87EA88FB880889198922
:101840004E855F856C857D85CE010E943B09F40144
:101850003496E4912C898C859D85E29F800D911DA5
:1018600011248DCF6F927F928F929F92AF92BF92F1
:10187000CF92DF92EF92FF920F931F93CF93DF935C
:10188000EC016B015A0139014801E881F9810284B8
:10189000F385E02D0995E881F9810288F389E02D2F
:1018A00087019301A501B601CE010995A501480D57
:1018B000591D41505109E881F9810288F389E02DD1
:1018C0009301B601CE010995E881F9810088F1897B
:1018D000E02D9401A501B601CE010995C60CD71CD7
:1018E000B60161507109E881F9810088F189E02D24
:1018F0009401A501CE010995E881F9810688F7894F
:10190000E02DCE01DF91CF911F910F91FF90EF90CD
:10191000DF90CF90BF90AF909F908F907F906F900F
:1019200009946F927F928F929F92AF92BF92CF92C3
:10193000DF92EF92FF920F931F93CF93DF935C019F
:10194000EB016A01490138018701DC01ED91FC914D
:101950006217730719F5641675062CF0962D872DFE
:101960003A01C92ED82E9601261937092F5F3F4F0D
:10197000048CF58DE02DA301BE01C5010995DF9111
:10198000CF911F910F91FF90EF90DF90CF90BF907C
:10199000AF909F908F907F906F9008954615570558
:1019A00091F42617370724F0892D4B01C22FD82F29
:1019B0009E01281939092F5F3F4F068CF78DE02DC6
:1019C000A601B401DACF0284F385E02D0995D50193
:1019D000ED91FC910488F589E02D83019401A60125
:1019E000BE01C5010995D501ED91FC910688F789E5
:1019F000E02DC501DF91CF911F910F91FF90EF90E6
:101A0000DF90CF90BF90AF909F908F907F906F901E
:101A10000994EF92FF920F931F93DC011A960D9198
:101A20001C911B9718962D913C911997ED91FC9163
:101A300000A0F1A1E02D7B0150E040E070E060E00B
:101A400009951F910F91FF90EF9008954F925F922B
:101A50006F927F928F929F92AF92BF92CF92DF92BE
:101A6000EF92FF920F931F93CF93DF936C012B01A3
:101A70005A0139014801DC01ED91FC910284F385A2
:101A8000E02D0995E201640C751CD601ED91FC91E5
:101A9000C615D7055CF40088F189E02D8701940113
:101AA000A501BE01C60109952196EFCF0688F789E9
:101AB000E02DC601DF91CF911F910F91FF90EF9024
:101AC000DF90CF90BF90AF909F908F907F906F905E
:101AD0005F904F9009948F929F92AF92BF92CF9256
:101AE000DF92EF92FF920F931F93CF93DF93EC015E
:101AF0005B014A016901E881F9810284F385E02DE7
:101B0000099595012C0D3D1D21503109E881F98180
:101B10000488F589E02D78018401A401B501CE0186
:101B20000995E881F9810688F789E02DCE01DF91DA
:101B3000CF911F910F91FF90EF90DF90CF90BF90CA
:101B4000AF909F908F9009948F929F92AF92BF9287
:101B5000CF92DF92EF92FF920F931F93CF93DF9379
:101B6000EC015B014A0169017801E881F981028495
:101B7000F385E02D0995C80CD91C86010150110987
:101B8000E881F9810488F589E02D9501A401B5016A
:101B9000CE010995E881F9810688F789E02DCE010B
:101BA000DF91CF911F910F91FF90EF90DF90CF9039
:101BB000BF90AF909F908F900994EF92FF920F93F8
:101BC0001F93DC01ED91FC9100A0F1A1E02D09959E
:101BD0001F910F91FF90EF9008950F931F93DC01D9
:101BE000ED91FC91068CF78DE02D09951F910F91D9
:101BF00008950F931F93DC01ED91FC91048CF58DFA
:101C0000E02D09951F910F910895DC01ED91FC9154
:101C10000084F185E02D09943F924F925F926F927C
:101C20007F928F929F92AF92BF92CF92DF92EF926C
:101C3000FF920F931F93CF93DF935C017B014A01C7
:101C40006901390187E0680E711C93E0759467940F
:101C50009A95E1F72B01400E511E10E000E0312C67
:101C6000D0E0C0E0CE0187709927330C892B59F45E
:101C7000FE0183E0F595E7958A95E1F7E00FF11F06
:101C8000E80DF91D349037FE0AC021E030E0A701CD
:101C9000B5016C0F7D1F82E892E00E94050E21962F
:101CA000CC16DD06F9F68FEFE81AF80A060D171DB7
:101CB000E414F504A9F6DF91CF911F910F91FF90E5
:101CC000EF90DF90CF90BF90AF909F908F907F90DC
:101CD0006F905F904F903F9008952F923F924F9258
:101CE0005F926F927F928F929F92AF92BF92CF92AC
:101CF000DF92EF92FF920F931F93CF93DF9300D069
:101D000000D000D0CDB7DEB73C016A013E832D8301
:101D1000FC82EB825801A41AB50AB7FE03C0B19445
:101D2000A194B1088D809E80861A970A97FE03C001
:101D30009194819491088A149B045CF0902F812FD8
:101D40000D811E819D838E839C2D8D2D6B01692FAE
:101D5000782F0C151D055CF09D818E817E836D832F
:101D6000692F782F902F812F8601C92ED82E16012A
:101D7000201A310A2B012D813E81421A530A57FE47
:101D800003C0519441945108710137FE03C03FEFE5
:101D9000E31AF30AF594E7948D819E8186179707DD
:101DA0005CF5A1E0B0E0BA83A983C016D1064CF17E
:101DB000D301ED91FC910484F585E02D2B813C81CC
:101DC000A8016D817E818A149B041CF04D815E8187
:101DD000B801C3010995E418F508F7FE0AC02D8182
:101DE0003E8189819A81280F391F3E832D83E20C21
:101DF000F31C0F5F1F4FD9CF2FEF3FEF3A8329839B
:101E0000D4CF26960FB6F894DEBF0FBECDBFDF91BC
:101E1000CF911F910F91FF90EF90DF90CF90BF90E7
:101E2000AF909F908F907F906F905F904F903F907A
:101E30002F900895089520910A02260F3327331F0B
:101E400021323105ECF420912E02FC0190E080E07B
:101E5000243069F082E00895A0910A022191AC013A
:101E600046515E4FA40FB52FB11D2C9301968617D6
:101E700098F380910A02680F60930A0280E0089547
:101E800081E0089510922E0281E08093300210923A
:101E90002F0261E082E10E94F00561E083E10E948F
:101EA000F005E9EBF0E080818E7F808380818D7F7B
:101EB000808388E48093B80085E48093BC00089513
:101EC000CF93DF9391E09093E9018823B9F0C0911B
:101ED000B800D091BA008091BC008A7B8093BC008E
:101EE00060E082E10E94F00560E083E10E94F0057D
:101EF0000E94420FD093BA00C093B800DF91CF91F7
:101F00000895E091630280916202E81730F4F0E0F6
:101F1000EC53FE4F808190E008958FEF9FEF08957E
:101F200090916302809162022FEF3FEF981748F47F
:101F3000E92FF0E0EC53FE4F208130E09F5F90935B
:101F40006302C90108958091620290916302891B26
:101F5000990B0895CF92DF92EF92FF920F931F9308
:101F6000CF93DF937C01CB018A012091750222235C
:101F700089F0EB016B01C40ED51ECC15DD0569F0AF
:101F80006991D701ED91FC910190F081E02DC7019D
:101F90000995F3CF642F0E941B0FC801DF91CF91E9
:101FA0001F910F91FF90EF90DF90CF900895CF9306
:101FB000DF931F92CDB7DEB769832091750222238C
:101FC000F9F020917202203258F021E030E0FC015B
:101FD0003383228390E080E00F90DF91CF910895CA
:101FE00080917302E82FF0E0EC55FE4F99819083C9
:101FF0008F5F809373028093720281E090E0ECCF58
:1020000061E0CE0101960E941B0FF7CFCF92DF92C5
:10201000EF92FF920F931F93CF93DF93D0917202B1
:1020200081E0D13208F09CC0C09174020E946D061C
:102030006B017C0180912E0281116CC082E0809343
:102040002E0281E0809330028FEF80932D02109258
:102050005202D0935102A4EAB1E0E1E3F2E080E061
:10206000D8138DC01092530280915302CC0FC82B0D
:10207000C093530280912F02813009F084C01092E6
:102080002F020E946D066B017C01809153028093A8
:10209000BB008091E5019091E601A091E701B0912C
:1020A000E801892B8A2B8B2BA1F00E946D060091F1
:1020B000E5011091E6012091E7013091E8016C19EA
:1020C0007D098E099F09061717072807390708F4A5
:1020D00042C08091BC0083FDD8CF85EC8093BC00CA
:1020E0000E946D066B017C0180912E02823009F402
:1020F0004CC080912D028F3F09F469C080912D0260
:10210000803209F466C080912D02803309F463C0E7
:1021100084E026C08091E5019091E601A091E7015D
:10212000B091E801892B8A2B8B2B09F483CF0E9475
:102130006D060091E5011091E6012091E7013091D3
:10214000E8016C197D098E099F09061717072807F2
:10215000390708F06FCF8091E4010E94600F85E09D
:10216000109273021092720210927502DF91CF9159
:102170001F910F91FF90EF90DF90CF9008959D9168
:1021800091938F5F6DCF85EEA9CF8091E5019091FE
:10219000E601A091E701B091E801892B8A2B8B2BF6
:1021A00009F4A2CF0E946D060091E5011091E601AD
:1021B0002091E7013091E8016C197D098E099F0992
:1021C000061717072807390708F08ECFC4CF80E01D
:1021D000C7CF82E0C5CF83E0C3CFEF92FF920F93CA
:1021E0001F93CF93DF937C01C62F80919F02909124
:1021F000A002009709F459C02091A30231E0309366
:102200007502209374021092730210927202DC0124
:10221000ED91FC910190F081E02D60E0099587013E
:10222000EE24E394F12CD1E0C15080919F02909173
:10223000A002CF3F91F1B0E2EB16F104D8F00E947A
:10224000061080919F029091A0022091A302D0934A
:102250007502209374021092730210927202DC01D4
:10226000ED91FC910190F081E02D60E00995EE2464
:10227000E394F12C80919F029091A002F801649167
:10228000DC01ED91FC910190F081E02D0995BFEF0B
:10229000EB1AFB0A0F5F1F4FC7CFDF91CF911F9142
:1022A0000F91FF90EF900C940610E091AF02F09127
:1022B000B00290818091B502809589238083870147
:1022C000C15008F438C0F801849120919D023091EA
:1022D0009E02232B29F00E941B090F5F1F4FF0CF96
:1022E00028E030E040E8E091AB02F091AC02909140
:1022F000B302582F5423D9F05081952B9083E0914D
:10230000AD02F091AE0290815091B402952B908372
:10231000E091AD02F091AE0250819091B40290959F
:1023200095239083469521503109E9F6D6CF508107
:1023300090959523E3CFDF91CF911F910F91FF905F
:10234000EF9008951F93CF93DF93EC018D8D9E8DB9
:10235000009721F1162F29A131E0309375022093C7
:1023600074021092730210927202DC01ED91FC91E2
:102370000190F081E02D60E009958D8D9E8DDC014E
:10238000ED91FC910190F081E02D612F09958D8DEB
:102390009E8DDF91CF911F910C940610ADA5BEA527
:1023A0009C918BA9809589238C938B8D9C8D892BF7
:1023B00031F0862FDF91CF911F910C941B0928E0FB
:1023C00030E080E8A9A5BAA599A9462F4823C1F015
:1023D0004C91942B9C93ABA5BCA59C914AA9942BA2
:1023E0009C93ABA5BCA54C919AA9909594239C93E2
:1023F00086952150310931F7DF91CF911F910895D2
:102400004C9190959423E6CF1F93CF93DF93EC01EB
:10241000162F8D8D9E8D892BB1F12DA93EA94FA927
:1024200058AD60E074E284EF90E00E94C21C20513D
:1024300031094109510956954795379527952093BC
:10244000B80066EA111167EACE010E94A2118D8DD3
:102450009E8D892B41F129AD3AAD4BAD5CAD60E06D
:1024600074E284EF90E00E94C21C205131094109BE
:10247000510956954795379527952093B800DF91D8
:10248000CF911F9108958B8D9C8D892B21F08EAD5E
:102490009FAD0E942209EFA5F8A990818CA9809593
:1024A00089238083CECFEFA5F8A980819CA9892BB1
:1024B0008083E5CF90E080E00895FC01019000204A
:1024C000E9F73197AF01481B590BBC0182E892E054
:1024D0000C94C3058F929F92AF92BF920F931F935C
:1024E000CF93DF93CDB7DEB7A1970FB6F894DEBFD9
:1024F0000FBECDBF19A2423008F44AE08E010F5D35
:102500001F4F842E912CB12CA12CA50194010E9467
:10251000C21CE62FB901CA01EA30F4F4E05DD8012B
:10252000EE938D01232B242B252B79F790E080E06F
:10253000109719F0CD010E945D12A1960FB6F89484
:10254000DEBF0FBECDBFDF91CF911F910F91BF9026
:10255000AF909F908F900895E95CE1CFCF92DF928A
:10256000EF92FF92CF93DF936C01990FEE08FF0873
:10257000F7FE19C06DE282E892E00E94600BEC0168
:1025800066277727CB016C197D098E099F094AE0E0
:102590000E946A128C0F9D1FDF91CF91FF90EF90E8
:1025A000DF90CF9008954AE0C701B601DF91CF9147
:1025B000FF90EF90DF90CF900C946A120C945D1214
:1025C0004F925F926F927F928F929F92AF92BF9243
:1025D000CF92DF92EF92FF920F931F93CF936B01F5
:1025E0007C01742EAC019B010E94311F882399F05D
:1025F00084E491E0CF911F910F91FF90EF90DF90D5
:10260000CF90BF90AF909F908F907F906F905F9092
:102610004F900C945D1246015701E894B7F82FEFE4
:102620003FEF4FE75FE7C501B4010E94311F811101
:102630000DC02FEF3FEF4FE75FE7C501B4010E94E8
:10264000601D18161CF488E491E0D4CF2FEF3FEF03
:102650004FE75FE4C701B6010E94BF1E18161CF4C5
:102660008CE491E0C7CF2FEF3FEF4FE75FECC7015E
:10267000B6010E94601D87FDF3CF20E030E0A90184
:10268000C701B6010E94601D10E000E087FF0AC08C
:102690006DE282E892E00E94600B8C01F7FAF09400
:1026A000F7F8F094C0E060E070E080E09FE37C1613
:1026B00041F020E030E040E251E40E94651DCF5F30
:1026C000F6CFA70196010E94F41C2B013C010E9449
:1026D000DE1D4B015C014AE00E946A127C01E00EA3
:1026E000F11ECC23C1F1C501B4010E940D1E9B0156
:1026F000AC01C301B2010E94F31C4B015C016EE20C
:1027000082E892E00E94600BE80EF91EC15018F1B9
:1027100020E030E040E251E4C501B4010E94C41E53
:102720002B013C010E94DE1D4B01B12CA12C4AE083
:10273000C501B4010E946A12E80EF91EC501B40178
:102740000E940D1E9B01AC01C301B2010E94F31C4B
:102750004B015C01DBCFC701CF911F910F91FF901F
:10276000EF90DF90CF90BF90AF909F908F907F9031
:102770006F905F904F900895209188023091890268
:10278000C901079697FD079623E0959587952A95A9
:10279000E1F72091860230918702829FA001839FFA
:1027A000500D929F500D112470E060E08091A102C5
:1027B0009091A2020C946D20AF92BF92CF92DF92C3
:1027C000EF92FF920F931F93CF93DF930E94BC135E
:1027D00001E010E01093950200939402109393028D
:1027E00000939202C1E0C0939602C09397028FE1DA
:1027F00090E090938F0280938E0210939102009349
:10280000900280E591E00E94DE12C0939602C09390
:10281000970210938F0200938E0270E1A72EB12CC5
:10282000B0929102A09290028CE591E00E94DE129B
:10283000C0939602C0939702E7E3CE2ED12CD0929C
:102840008F02C0928E02B0929102A092900260918B
:102850006A0270916B0280916C0290916D0242E06D
:102860000E94E012C0939602C0939702F4E6EF2E06
:10287000F12CF0928F02E0928E02B0929102A0921F
:10288000900285E691E00E94DE12C0939602C0930A
:10289000970210938F0200938E02AAE1AA2EB12C08
:1028A000B0929102A092900288E691E00E94DE121E
:1028B000C0939602C0939702D0928F02C0928E026C
:1028C000B0929102A0929002809168029091690268
:1028D0000E94AE12C0939602C0939702F0928F02AC
:1028E000E0928E02B0929102A092900281E791E074
:1028F0000E94DE12C0939602C093970210938F023B
:1029000000938E02B4E2AB2EB12CB0929102A09251
:10291000900285E791E00E94DE12C0939602C09378
:102920009702D0928F02C0928E02B0929102A09232
:10293000900280916602909167020E94AE12C0934D
:102940009602C0939702F0928F02E0928E02B092AC
:102950009102A09290028EE791E00E94DE12C09355
:102960009602C093970210938F0200938E02DEE2CC
:10297000AD2EB12CB0929102A092900282E891E02B
:102980000E94DE12C0939602C0939702D0928F02EB
:10299000C0928E02B0929102A09290026091A0012A
:1029A0007091A1018091A2019091A30142E00E9447
:1029B000E012C0939602C0939702F0928F02E092C9
:1029C0008E02B0929102A09290028BE891E00E9458
:1029D000DE12C0939602C093970210938F02009369
:1029E0008E0208E310E010939102009390028FE8AA
:1029F00091E00E94DE12C0939602C0939702D0929B
:102A00008F02C0928E021093910200939002609107
:102A10009C0170919D0180919E0190919F014AE0DF
:102A20000E946A12C0939602C0939702F0928F029E
:102A3000E0928E02109391020093900288E991E057
:102A40000E94DE1280919F029091A002892B09F4CE
:102A500098C02091B7023091B8024091B9025091CC
:102A6000BA0260E074E284EF90E00E94C21C205140
:102A70003109410951095695479537952795209376
:102A8000B80065E088E690E00E94ED106091860253
:102A9000615082E892E00E94A21120918802309158
:102AA0008902C901079697FD079633E095958795AA
:102AB0003A95E1F72091860230918702829F80014A
:102AC000839F100D929F100D1124C091A102D091EF
:102AD000A20280919F029091A0020C0F1D1F0097EF
:102AE00009F492C02091A30231E030937502209343
:102AF00074021092730210927202DC01ED91FC914B
:102B00000190F081E02D60E40995EE24E394F12C2E
:102B1000DD24D39480919F029091A0020C171D0791
:102B200009F446C0B0E2EB16F104D8F00E9406109A
:102B300080919F029091A0022091A302D0927502F1
:102B4000209374021092730210927202DC01ED91D4
:102B5000FC910190F081E02D60E40995EE24E3946E
:102B6000F12C80919F029091A0026991DC01ED917E
:102B7000FC910190F081E02D0995BFEFEB1AFB0A63
:102B8000C9CF80919D0290919E02892B31F0809156
:102B9000C0029091C1020E942209E091B102F0911D
:102BA000B20290818091B60280958923808369CF9B
:102BB0000E94061080919F029091A002892B09F437
:102BC00064C02091BB023091BC024091BD02509183
:102BD000BE0260E074E284EF90E00E94C21C2051CB
:102BE0003109410951095695479537952795209305
:102BF000B800DF91CF911F910F91FF90EF90DF9080
:102C0000CF90BF90AF900895E091AF02F091B002E5
:102C100080819091B502892B80830C171D0751F29A
:102C2000899120919D0230919E02232B19F00E94E0
:102C30001B09F3CF28E030E040E8E091AB02F091CF
:102C4000AC029091B302582F5423D9F05081952BA8
:102C50009083E091AD02F091AE0290815091B40268
:102C6000952B9083E091AD02F091AE02508190914E
:102C7000B402909595239083469521503109E9F649
:102C8000CCCF508190959523E3CFE091B102F091A4
:102C9000B20280819091B602892B8083AACF0F93D4
:102CA0001F93482FEDE7FAE06491E9E6FAE0E4913A
:102CB0008111462FF0E0EE0FFF1FE95AF54F859185
:102CC000949100E412E42FE030E00E943E18611578
:102CD00071058105910529F06F5F7F4F8F4F9F4FE1
:102CE0009F701F910F9108950E94682085ED809339
:102CF000BC008091E5019091E601A091E701B091BF
:102D0000E8010796A11DB11D23E0B695A7959795FB
:102D100087952A95D1F72091BC0024FD03C010921D
:102D20002E0208954091E5015091E6016091E7017E
:102D30007091E801452B462B472B69F30097A105BD
:102D4000B10541F025E32A95F1F700000197A109AB
:102D5000B109E1CF8091E4010C94600F1F920F92B2
:102D60000FB60F9211242F933F938F939F93AF939E
:102D7000BF938091550290915602A0915702B09155
:102D800058023091540223E0230F2D3758F5019655
:102D9000A11DB11D209354028093550290935602B9
:102DA000A0935702B09358028091590290915A0211
:102DB000A0915B02B0915C020196A11DB11D8093B0
:102DC000590290935A02A0935B02B0935C02BF91A8
:102DD000AF919F918F913F912F910F900FBE0F90C8
:102DE0001F90189526E8230F0296A11DB11DD2CF82
:102DF0001F920F920FB60F9211242F933F934F9370
:102E00005F936F937F938F939F93AF93BF93EF9352
:102E1000FF938091B900887F803609F44AC0F0F5AD
:102E2000883209F4A7C018F5803109F49BC0B8F4C2
:102E3000882309F4F9C0883009F494C0FF91EF9118
:102E4000BF91AF919F918F917F916F915F914F91C2
:102E50003F912F910F900FBE0F901F9018958831C2
:102E600009F488C0803251F780932D0214C0803459
:102E700009F49DC040F48033B9F38833F9F68093A8
:102E80002D0285ECB0C0803509F485C0883509F481
:102E900096C0883499F60E947616D0CF883909F406
:102EA0008CC038F5883729F050F4883611F0803717
:102EB00029F683E080932E0210922C0257C08838A6
:102EC00009F47BC0803919F0803809F0B7CF8091C0
:102ED0002C02803208F071C0E0912C0281E08E0F4C
:102EE00080932C028091BB00F0E0E45FFD4F808373
:102EF0003DC0803B39F0E0F4803A09F479C0883A6B
:102F000009F09CCF84E080932E0210920B02109265
:102F10000A02E0916002F0916102099580910A0233
:102F200081110FC081E080930A021092EA0109C06A
:102F3000803C09F4A6CF883C09F4A3CF883B09F074
:102F40007DCFE0910B0281E08E0F80930B02F0E0C9
:102F5000E651FE4F80818093BB0090910B028091DF
:102F60000A0229C0809153028093BB0085EC8093B4
:102F7000BC0064CF9091520280915102981758F58D
:102F8000E091520281E08E0F80935202F0E0EF5CFC
:102F9000FD4F8081E9CFE091520281E08E0F809356
:102FA00052028091BB00F0E0EF5CFD4F8083909176
:102FB0005202809151029817C8F285E8D8CFE0916B
:102FC000520281E08E0F809352028091BB00F0E0AC
:102FD000EF5CFD4F80838091300281115CCF81E0F6
:102FE00080932F0284EA8093BC0010922E0226CF99
:102FF00085EC8093BC0010922E0280912C028032CE
:1030000030F4E0912C02F0E0E45FFD4F108260911B
:103010002C0270E0E0915E02F0915F028CE092E0A1
:10302000099510922C020ACF10922D0234CF1F92D4
:103030000F920FB60F9211242F933F934F935F93EC
:103040006F937F938F939F93AF93BF93EF93FF9370
:10305000E0916402F09165020995FF91EF91BF91B3
:10306000AF919F918F917F916F915F914F913F9120
:103070002F910F900FBE0F901F901895CF92DF9257
:10308000EF92FF920F931F93E82FF92F05C0015085
:1030900011092109310961F1908196239417B9F33F
:1030A00005C0015011092109310911F190819623C0
:1030B0009413F7CFC12CD12CE12CF12C0AC08FEF47
:1030C000C81AD80AE80AF80A0C151D052E053F058E
:1030D00079F080818623841791F36C2D7D2D8E2DC0
:1030E0009F2D1F910F91FF90EF90DF90CF9008954B
:1030F00060E070E080E090E01F910F91FF90EF9012
:10310000DF90CF900895A6E7B2E013961C921E922E
:10311000129748EE53E060E070E014964D935D9393
:103120006D937C9317978AE091E011969C938E9310
:10313000E2E8F2E01382128220E830E03583248353
:1031400080E490E097838683318720879387828706
:10315000168A158614861786168681E0858B848BE1
:103160002FEF3FEF338B228B318B208B878B108E91
:10317000128E118E8CE191E091838083148E138ED8
:10318000B68FA58F10A2178E8FEF84A385A386A379
:1031900087A384E080A780E89AE1A6E0B0E085AB51
:1031A00096ABA7ABB0AF80EA96E8A1E0B0E081AF04
:1031B00092AFA3AFB4AF80E586AF17AE0895789411
:1031C00084B5826084BD84B5816084BD85B582602C
:1031D00085BD85B5816085BD80916E0081608093DD
:1031E0006E00109281008091810082608093810046
:1031F0008091810081608093810080918000816056
:10320000809380008091B10084608093B1008091B0
:10321000B00081608093B00080917A0084608093D8
:103220007A0080917A00826080937A0080917A009F
:10323000816080937A0080917A00806880937A0020
:103240001092C100109263021092620210927302F7
:10325000109272020E94420F81EC95E090936102FD
:103260008093600282EC95E090935F0280935E020F
:103270008091A1029091A202892B11F10E94BC13AE
:103280002091880230918902809186029091870274
:10329000213231050CF00AC1B9016052710977FF82
:1032A00002C06F5F7F4F759567958357910997FDB2
:1032B000019600E210E023E730E043EA55E009C15F
:1032C0002091880230918902C901079697FD0796DF
:1032D000B3E095958795BA95E1F7209186023091F4
:1032E0008702AC01429FC001439F900D529F900DF9
:1032F00011240E94431F9093A2028093A102892B64
:1033000009F0BCCF0E94BC1381E090E0909395023D
:1033100080939402909393028093920261E085E0FF
:103320000E943C0660E088E00E943C0661E08AE082
:103330000E943C0680E1809381001092800082E12F
:103340009AE7909387008093860084E180938100C0
:1033500082E795E0909365028093640281E0809318
:103360006F000E94DC1380E4382ECC24CA9493E0D2
:10337000D92EE12CF12C28E4822E2AE0922E30E482
:10338000432E32E4532E3FE0632E712C4CE3242E67
:1033900050E0A52E50E0B52E30927C0080917A004E
:1033A000806480937A0080917A0086FDFCCF8091C2
:1033B0007800A0917900BA2FA82F2FEF30E00E945B
:1033C000361FA70196010E94A31CE901890161E053
:1033D00085E00E943C06209709F05EC260E085E02F
:1033E0000E94F00581E00E944F1660936E02709378
:1033F0006F02809370029093710280E00E944F16DA
:1034000020916E0230916F024091700250917102D2
:10341000260F371F481F591FC301B2010E94C21C4B
:10342000CA01B9010E940D1E60936A0270936B027B
:1034300080936C0290936D0220E030E040E752E40C
:103440000E94C41E0E94D71D709369026093680297
:10345000269E9001279E300D1124B901330F880B51
:10346000990B0E940F1E2BED3FE049EC5FE30E9499
:10347000C41E20E030E04AE754E40E94651D0E942B
:10348000D71D70936702609366026E3171050CF46C
:1034900049C261E08AE00E94F0050E94DC13A11499
:1034A000B10409F479CF0E94000076CFB9016054CD
:1034B000710977FF02C06F5F7F4F759567958255E1
:1034C000910997FD019600E410E022E530E043E821
:1034D00057E0959587950E940C0E82E08093A40298
:1034E00080919F029091A002892B09F4DFC08DE3A7
:1034F0008093A302109263021092620210927302F0
:10350000109272020E94420F81EC95E0909361024A
:103510008093600282EC95E090935F0280935E025C
:103520008091AA0287FD1EC061E00E943C0661E016
:103530008091AA020E94F00561E070E080E090E0D6
:103540000E94920660E08091AA020E94F0056AE063
:1035500070E080E090E00E94920661E08091AA0213
:103560000E94F00580919F029091A002892B09F49E
:103570005CC12091B7023091B8024091B9025091DC
:10358000BA0260E074E284EF90E00E94C21C205115
:10359000310941095109569547953795279520934B
:1035A000B80064E085E995E00E94ED106091880222
:1035B000615082E892E00E94A21164E081E995E006
:1035C0000E94ED108091A40264E1813009F460E171
:1035D00082E892E00E94A21164E08DE895E00E94EA
:1035E000ED108FE88093BF02809186029091870250
:1035F0008038910509F032C180918802909189024A
:103600008034910509F03AC18091A402813009F417
:1036100023C18FEC8093BF02C2E16AED82E892E0A1
:103620000E94A2116C2F82E892E00E94A21161E830
:1036300082E892E00E94A2116091BF0282E892E0CB
:103640000E94A21169ED82E892E00E94A21180918D
:10365000A40261EF813009F462E282E892E00E9404
:10366000A21166E087E895E00E94ED1080919F022C
:103670009091A002892B09F405C12091BB023091E1
:10368000BC024091BD025091BE0260E074E284EF42
:1036900090E00E94C21C2051310941095109569500
:1036A0004795379527952093B8002CCE61E08091FF
:1036B000A8020E943C0661E08091A9020E943C069B
:1036C0008091A802082E000C990BFC01EF59F54FD0
:1036D000E491F0E0EE0FFF1FE756FA4F2591349189
:1036E0003093B0022093AF02FC01EB58F54FE49108
:1036F000E093B5028091A902082E000C990BFC0101
:10370000EF59F54FE491F0E0EE0FFF1FE756FA4F47
:10371000A591B491B093B202A093B102FC01EB5811
:10372000F54FE491E093B6028C91E82BEC938091F5
:103730009D0290919E02892B09F434C0CFB7F89472
:1037400080915D02811127C0EBE6FAE08491EFE7FA
:10375000FAE09491E82FF0E0EE0FFF1FE358FA4FE4
:10376000A591B491EC91E92321F461E08AE00E94F3
:10377000F00561E08AE00E943C068CB580618CBD5A
:103780008CB580648CBD61E08DE00E943C0661E0F8
:103790008BE00E943C0680915D028F5F80935D020A
:1037A000CFBFBECE61E08091A6020E943C0661E0E0
:1037B0008091A7020E943C068091A602082E000C70
:1037C000990BFC01EF59F54FE491F0E0EE0FFF1F6C
:1037D000E756FA4F259134913093AC022093AB0217
:1037E000FC01EB58F54FE491E093B3028091A702FE
:1037F000082E000C990BFC01EF59F54FE491F0E015
:10380000EE0FFF1FE756FA4FA591B491B093AE02A9
:10381000A093AD02FC01EB58F54FE491E093B402A4
:103820008C91E095E823EC937BCE80919D02909162
:103830009E02892B31F08091C0029091C1020E94BA
:103840002209E091B102F091B20290818091B6021A
:10385000809589238083A5CE8FE9DCCE80369105C3
:1038600069F48091880290918902409739F480919F
:10387000A402813029F08FEA8093BF02C2E0CDCE4E
:1038800080E1FACFE091B102F091B2028081909193
:10389000B602892B808336CDCF3FD10511F461E08C
:1038A0009ECDF4018491833019F140F48130B1F060
:1038B0008230C9F00038110594F790CD873011F1AE
:1038C000883041F18430B1F780918000806280932C
:1038D0008000D0938B00C0938A0084CD84B580682B
:1038E00084BDC7BD7FCD84B5806284BDC8BD7ACD9F
:1038F00080918000806880938000D0938900C0937D
:10390000880070CD8091B00080688093B000C09333
:10391000B30068CD8091B00080628093B000C09306
:10392000B40060CD60E0B6CD8CE191E0909383026D
:10393000809382028091A1029091A202009711F0DF
:103940000C94DF1F0895052E97FB1EF400940E942F
:10395000BA1C57FD07D00E94C21C07FC03D04EF4CE
:103960000C94BA1C50954095309521953F4F4F4F80
:103970005F4F089590958095709561957F4F8F4F1B
:103980009F4F0895A1E21A2EAA1BBB1BFD010DC07B
:10399000AA1FBB1FEE1FFF1FA217B307E407F507FF
:1039A00020F0A21BB30BE40BF50B661F771F881FDB
:1039B000991F1A9469F760957095809590959B0171
:1039C000AC01BD01CF010895A29FB001B39FC0011A
:1039D000A39F700D811D1124911DB29F700D811D3B
:1039E0001124911D08955058BB27AA270E940B1D32
:1039F0000C94851E0E94771E38F00E947E1E20F0D7
:103A000039F49F3F19F426F40C94741E0EF4E095DB
:103A1000E7FB0C946E1EE92F0E94961E58F3BA170E
:103A2000620773078407950720F079F4A6F50C94D4
:103A3000B81E0EF4E0950B2EBA2FA02D0B01B90184
:103A400090010C01CA01A0011124FF27591B99F014
:103A5000593F50F4503E68F11A16F040A22F232F20
:103A6000342F4427585FF3CF469537952795A79570
:103A7000F0405395C9F77EF41F16BA0B620B730B17
:103A8000840BBAF09150A1F0FF0FBB1F661F771F88
:103A9000881FC2F70EC0BA0F621F731F841F48F43D
:103AA000879577956795B795F7959E3F08F0B0CFC6
:103AB0009395880F08F09927EE0F979587950895AD
:103AC0000E944A1E08F481E008950E94791D0C941A
:103AD000851E0E947E1E58F00E94771E40F029F439
:103AE0005F3F29F00C946E1E51110C94B91E0C947A
:103AF000741E0E94961E68F39923B1F3552391F327
:103B0000951B550BBB27AA2762177307840738F04C
:103B10009F5F5F4F220F331F441FAA1FA9F335D0A9
:103B20000E2E3AF0E0E832D091505040E695001C5D
:103B3000CAF72BD0FE2F29D0660F771F881FBB1F17
:103B4000261737074807AB07B0E809F0BB0B802DF5
:103B5000BF01FF2793585F4F3AF09E3F510578F021
:103B60000C946E1E0C94B91E5F3FE4F3983ED4F3A0
:103B7000869577956795B795F7959F5FC9F7880FF5
:103B8000911D9695879597F90895E1E0660F771F47
:103B9000881FBB1F621773078407BA0720F0621BD8
:103BA000730B840BBA0BEE1F88F7E09508950E9403
:103BB000DE1D6894B1110C94B91E08950E949E1EDA
:103BC00088F09F5798F0B92F9927B751B0F0E1F0DE
:103BD000660F771F881F991F1AF0BA95C9F714C08E
:103BE000B13091F00E94B81EB1E008950C94B81E57
:103BF000672F782F8827B85F39F0B93FCCF38695C7
:103C000077956795B395D9F73EF490958095709523
:103C100061957F4F8F4F9F4F0895E89409C097FBA0
:103C20003EF490958095709561957F4F8F4F9F4F93
:103C30009923A9F0F92F96E9BB279395F6958795D7
:103C400077956795B795F111F8CFFAF4BB0F11F49A
:103C500060FF1BC06F5F7F4F8F4F9F4F16C0882341
:103C600011F096E911C0772321F09EE8872F762F77
:103C700005C0662371F096E8862F70E060E02AF0B8
:103C80009A95660F771F881FDAF7880F96958795A4
:103C900097F90895990F0008550FAA0BE0E8FEEF79
:103CA00016161706E807F907C0F012161306E40700
:103CB000F50798F0621B730B840B950B39F40A26F9
:103CC00061F0232B242B252B21F408950A2609F4D7
:103CD000A140A6958FEF811D811D089597F99F67DB
:103CE00080E870E060E008959FEF80EC0895002484
:103CF0000A941616170618060906089500240A9451
:103D000012161306140605060895092E0394000CD6
:103D100011F4882352F0BB0F40F4BF2B11F460FF65
:103D200004C06F5F7F4F8F4F9F4F089557FD90588E
:103D3000440F551F59F05F3F71F04795880F97FB6F
:103D4000991F61F09F3F79F0879508951216130629
:103D50001406551FF2CF4695F1DF08C01616170658
:103D60001806991FF1CF869571056105089408958D
:103D7000E894BB2766277727CB0197F908950E941F
:103D80004A1E08F48FEF08950E94D71E0C94851EDA
:103D90000E94771E38F00E947E1E20F0952311F0BD
:103DA0000C946E1E0C94741E11240C94B91E0E9467
:103DB000961E70F3959FC1F3950F50E0551F629FBB
:103DC000F001729FBB27F00DB11D639FAA27F00D74
:103DD000B11DAA1F649F6627B00DA11D661F829F9B
:103DE0002227B00DA11D621F739FB00DA11D621F80
:103DF000839FA00D611D221F749F3327A00D611D9D
:103E0000231F849F600D211D822F762F6A2F11247E
:103E10009F5750409AF0F1F088234AF0EE0FFF1FB1
:103E2000BB1F661F771F881F91505040A9F79E3F08
:103E3000510580F00C946E1E0C94B91E5F3FE4F3A4
:103E4000983ED4F3869577956795B795F795E7955E
:103E50009F5FC1F7FE2B880F911D9695879597F967
:103E600008950E944A1E880B990B08950E94E41C35
:103E7000B7FF0895821B930B0895EE0FFF1F059067
:103E8000F491E02D09940F931F93CF93DF93823029
:103E9000910510F482E090E0E091C402F091C50237
:103EA00030E020E0B0E0A0E0309799F42115310532
:103EB00009F44AC0281B390B24303105D8F58A8112
:103EC0009B816115710589F1FB0193838283FE015A
:103ED00011C0408151810281138148175907E0F0D8
:103EE0004817590799F4109761F012960C9312979E
:103EF00013961C933296CF01DF91CF911F910F91B2
:103F000008950093C4021093C502F4CF2115310522
:103F100051F04217530738F0A901DB019A01BD01A6
:103F2000DF01F801C1CFEF01F9CF9093C502809373
:103F3000C402CDCFFE01E20FF31F81939193225073
:103F4000310939832883D7CF2091C2023091C3022F
:103F5000232B41F420910201309103013093C302DD
:103F60002093C202209100013091010121153105F9
:103F700041F42DB73EB74091040150910501241B37
:103F8000350BE091C202F091C302E217F307A0F4EF
:103F90002E1B3F0B2817390778F0AC014E5F5F4F9F
:103FA0002417350748F04E0F5F1F5093C30240930C
:103FB000C202819391939FCFF0E0E0E09CCFCF933A
:103FC000DF930097E9F0FC01329713821282A091EF
:103FD000C402B091C502ED0130E020E01097A1F4D9
:103FE00020813181820F931F2091C2023091C30240
:103FF0002817390709F061C0F093C302E093C202A9
:10400000DF91CF910895EA01CE17DF07E8F54A81E5
:104010005B819E0141155105B1F7E901FB83EA83FC
:1040200049915991C40FD51FEC17FD0761F48081A8
:1040300091810296840F951FE9019983888382817B
:1040400093819B838A83F0E0E0E012968D919C91AE
:1040500013970097B9F52D913C911197CD010296D8
:10406000820F931F2091C2023091C3022817390793
:1040700039F6309751F51092C5021092C402B093F0
:10408000C302A093C202BCCFD383C28340815181BB
:10409000840F951FC817D90761F44E5F5F4F888161
:1040A0009981480F591F518340838A819B81938353
:1040B00082832115310509F0B0CFF093C502E0935A
:1040C000C4029ECFFD01DC01C0CF13821282D7CF84
:1040D00081E090E0F8940C947420DC0101C06D93B1
:1040E00041505040E0F7089515E0C6E4D5E004C023
:1040F000FE010E943D1F2196C734D107C9F7F894ED
:02410000FFCFEF
:104102000000C602800000000000D70FAA0F5A125A
:104112007105A30F900F810F00000000600BC30513
:104122005A121A0F6B087105050EDD0DF90DED0D12
:104132006D0E710526090412DB072408260D090DF0
:10414200910C320C6E616E00696E66006F766600CD
:1041520076656C6F63696D6574726F004672656334
:104162002020203A00487A0052706D202020203A08
:104172000052706D0056656C202020203A004B2FB3
:104182006800446973742020203A004D747300540F
:0C41920069656D7020203A0073656700BD
:00000001FF
