:020000040000FA
:100000000C9451050C9479050C9479050C947905A0
:100010000C9479050C9479050C9479050C94790568
:100020000C9479050C9479050C9479050C94511570
:100030000C9479050C9479050C9479050C94790548
:100040000C9407150C9479050C9479050C9479059A
:100050000C9479050C9479050C9479050C94790528
:100060000C940D160C94790505A84CCDB2D44EB95C
:100070003836A9020C50B9918688083CA6AAAA2A4B
:10008000BE000000803F2200FF21000000000000B1
:100090003E5B4F5B3E3E6B4F6B3E1C3E7C3E1C18F6
:1000A0003C7E3C181C577D571C1C5E7F5E1C001854
:1000B0003C1800FFE7C3E7FF0018241800FFE7DB48
:1000C000E7FF30483A060E2629792926407F0505A4
:1000D00007407F05253F5A3CE73C5A7F3E1C1C08E1
:1000E000081C1C3E7F14227F22145F5F005F5F06A6
:1000F000097F017F006689956A606060606094A2F4
:10010000FFA29408047E040810207E201008082A0C
:100110001C08081C2A08081E101010100C1E0C1EAB
:100120000C30383E3830060E3E0E0600000000004F
:1001300000005F00000007000700147F147F1424F4
:100140002A7F2A1223130864623649562050000879
:10015000070300001C2241000041221C002A1C7FD2
:100160001C2A08083E0808008070300008080808AB
:1001700008000060600020100804023E5149453E1E
:1001800000427F400072494949462141494D331898
:1001900014127F1027454545393C4A4949314121D0
:1001A0001109073649494936464949291E000014B4
:1001B00000000040340000000814224114141414FC
:1001C00014004122140802015909063E415D594EAE
:1001D0007C1211127C7F494949363E414141227FC0
:1001E0004141413E7F494949417F090909013E4159
:1001F0004151737F0808087F00417F410020404142
:100200003F017F081422417F404040407F021C0292
:100210007F7F0408107F3E4141413E7F0909090666
:100220003E4151215E7F0919294626494949320339
:10023000017F01033F4040403F1F2040201F3F40BF
:1002400038403F6314081463030478040361594978
:100250004D43007F414141020408102000414141CB
:100260007F040201020440404040400003070800B0
:1002700020545478407F2844443838444444283833
:100280004444287F385454541800087E090218A4A6
:10029000A49C787F0804047800447D4000204040FE
:1002A0003D007F1028440000417F40007C0478041A
:1002B000787C080404783844444438FC1824241812
:1002C00018242418FC7C08040408485454542404BA
:1002D000043F44243C4040207C1C2040201C3C40E7
:1002E00030403C44281028444C9090907C44645406
:1002F0004C440008364100000077000000413608F9
:100300000002010204023C2623263C1EA1A1611228
:100310003A4040207A385454555921555579412254
:1003200054547842215554784020545579400C1E3D
:1003300052721239555555593954545459395554E6
:1003400054580000457C410002457D420001457C37
:10035000407D1211127DF0282528F07C545545006F
:100360002054547C547C0A097F4932494949323A25
:100370004444443A324A4848303A4141217A3A4268
:10038000402078009DA0A07D3D4242423D3D40403E
:10039000403D3C24FF2424487E4943662B2FFC2FFC
:1003A0002BFF0929F620C0887E0903205454794187
:1003B0000000447D413048484A32384040227A00AB
:1003C0007A0A0A727D0D19317D2629292F282629BE
:1003D00029292630484D4020380808080808080810
:1003E00008382F10C8ACBA2F102834FA00007B0050
:1003F0000008142A142222142A1408550055005506
:10040000AA55AA55AAFF55FF55FF000000FF00108E
:100410001010FF00141414FF001010FF00FF101044
:10042000F010F0141414FC001414F700FF0000FF87
:1004300000FF1414F404FC141417101F10101F10E4
:100440001F1414141F00101010F0000000001F10E3
:100450001010101F10101010F010000000FF1010EE
:1004600010101010101010FF10000000FF140000FA
:10047000FF00FF00001F10170000FC04F414141705
:1004800010171414F404F40000FF00F714141414EB
:10049000141414F700F7141414171410101F101F5D
:1004A000141414F4141010F010F000001F101F00AA
:1004B00000001F14000000FC140000F010F01010E9
:1004C000FF10FF141414FF141010101F0000000080
:1004D000F010FFFFFFFFFFF0F0F0F0F0FFFFFF0074
:1004E00000000000FFFF0F0F0F0F0F384444384487
:1004F000FC4A4A4A347E02020606027E027E0263FB
:10050000554941633844443C04407E201E20060285
:100510007E020299A5E7A5991C2A492A1C4C720162
:10052000724C304A4D4D303048784830BC625A46A3
:100530003D3E494949007E0101017E2A2A2A2A2A94
:1005400044445F444440514A444040444A5140007E
:1005500000FF0103E080FF000008086B6B08361203
:10056000362436060F090F06000018180000001088
:1005700010003040FF0101001F01011E00191D176E
:1005800012003C3C3C3C0000000000000103070F4F
:100590001F3F7F0080C0E0F0F8FCFE000000080074
:1005A000020100000304070000000000000000DB5F
:1005B00040A4A62EAF2000A1C8D300408DAED580A8
:1005C000A800006000000000000000000000000023
:1005D0000000E0000000000000000000000000003B
:1005E00001E0000000000000000000000000000129
:1005F000F00000000000000000000000000003F018
:100600000000000000000000000000000007F000F3
:1006100000000000000000000000000007F80000DB
:1006200000000000000000000000000FF8000000C3
:1006300003C0007E000001E0007F0FF8000000030F
:10064000C000FE000001E000FFEFF800000003C062
:1006500000FE000001E000FFFFF800000003C00002
:10066000F00000000F007FFE7FC0000003C000F01C
:100670000000000F003FFE7FF83FF1FBCFFCFEF3D0
:10068000BC3DEFE01FFE7FFF7FFBFFDFFEFEFFBCF8
:100690003DEFE01FC6FFFF7FFBFFDFFEFEFFBC3D1F
:1006A000EFE00FE3C7FE787BC3DE1EF0FFBC3DEF3B
:1006B0000007FF87FC787BC3DE1EF0F83C3DEF00AF
:1006C00001FFFFF0007BC3C01EF0F03C3DEF0001D6
:1006D000F37FE03FFBC3CFFEF0F03C3DEF0003E3D0
:1006E0003F807FFBC3DFFEF0F03C3DEF0007E73CBF
:1006F00000787BC3DE1EF0F03C3DEF0007FFBE003C
:10070000787BC3DE1EF0F03C3DEF0007FFFE007873
:100710007BC3DE1EF0F03C3DEF000FFFFE007FFBD1
:10072000FFDFFEF0F03FFDEFE00FFFFF007FFBFF7C
:10073000DFFEF0F03FFDEFE00FF9FF003E79F9CF6B
:100740009EF0F01F3DE7E01FF1FF000000000000F9
:100750000000000000001F80FF007FFFFFFFFFFF81
:10076000FFFFFFFFE01C007F007FFFFFFFFEB46D77
:10077000888D18E000001F007FFFFFFFFE95AD7D14
:10078000B577E000000F007FFFFFFFFEA5AD9D8D58
:1007900019E0000006007FFFFFFFFEB5ADEDB57E5E
:1007A000E0000000000001800000000000000000E8
:1007B00000038000000000000000000007C00000EF
:1007C0000000000000000007C00000000000000062
:1007D00000000FC00000000000000000001FE0004B
:1007E00000000000000000001FE00000000000000A
:1007F0000000003FE00000000000000000003FF0AB
:100800000000000000000000007FF0000000000079
:1008100000001FF87FF0000000000000003FFE7F96
:10082000F0000000000000003FFF7FF0000000002B
:100830000000001FFFFBE0000000000000000FFFB1
:10084000F9FFC00000000000000FFFF9FFF80000F2
:100850000000000007FFF1FFFF00000000000003A0
:10086000FC73FFFF80000000000001FE3FFFFF80DF
:10087000000000000000FF1E0FFF0000000000004D
:10088000007FFE1FFC000000000000003FFFFFF89B
:10089000000000000000000FDFFFE000000000008B
:1008A00000001F19FFC0000000000000003F3CFFD7
:1008B00000000000000000007E7CF8000000000046
:1008C0000000007FFE7C0000000000000000FFFF31
:1008D000FC0000000000000000FFFFFE0000000020
:1008E00000000000FFFFFE0000000000000001FF0C
:1008F000EFFE0000000000000001FFCFFE0000003E
:100900000000000003FF07FE0000000000000003DD
:10091000FC07FE0000000000000003F003FE0000E2
:100920000000000000018000FE0000000000000048
:100930000000007E000000000000000000003E00FB
:100940000000000000000000000C0000000000009B
:10095000078000FC000003C0000000078001FC00CD
:100960000003C0000000078001FC000003C000007D
:1009700000078001E00000001E000000078001E089
:100980000000001E007FE3F79FF9FDE7787BDFC0E2
:10099000FFF7FFBFFDFDFF787BDFC0FFF7FFBFFD67
:1009A000FDFF787BDFC0F0F787BC3DE1FF787BDEA1
:1009B00000F0F787BC3DE1F0787BDE0000F7878030
:1009C0003DE1E0787BDE007FF7879FFDE1E0787B0B
:1009D000DE00FFF787BFFDE1E0787BDE00F0F78700
:1009E000BC3DE1E0787BDE00F0F787BC3DE1E078DC
:1009F0007BDE00F0F787BC3DE1E0787BDE00FFF7AF
:100A0000FFBFFDE1E07FFBDFC0FFF7FFBFFDE1E0DF
:100A10007FFBDFC07CF3F39F3DE1E03E7BCFC00076
:100A200000000000000000000000FFFFFFFFFFFFCC
:100A3000FFFFFFFFC0FFFFFFFFFD68DB111A31C0A2
:100A4000FFFFFFFFFD2B5AFB6AEFC0FFFFFFFFFD1B
:100A50004B5B3B1A33C0FFFFFFFFFD6B5BDB6AFDA7
:100A6000C000000000250028002B0000000000242A
:100A70000027002A000404040404040404020202FF
:100A800002020203030303030301020408102040CF
:100A900080010204081020010204081020002C1715
:100AA0005A1C11241FBECFEFD8E0DEBFCDBF11E02E
:100AB000A0E0B1E0E0EFF0E402C005900D92A436B2
:100AC000B107D9F722E0A4E6B1E001C01D92A33B33
:100AD000B207E1F715E0C0E5D5E004C02197FE01BB
:100AE0000E94341FCF34D107C9F70E94D2170C944B
:100AF0006B200C94000090E0FC01E757F54F249127
:100B00008B58954FFC018491882399F090E0880FD1
:100B1000991FFC01E559F54FA591B491FC01EF59DE
:100B2000F54F859194918FB7F894EC91E22BEC936B
:100B30008FBF0895089508950895AF92BF92CF9200
:100B4000DF92EF92FF920F931F93CF93DF936C018D
:100B50007B018B01040F151FEB015E01AE18BF086E
:100B6000C017D10759F06991D601ED91FC91019020
:100B7000F081E02DC6010995892B79F7C501DF9138
:100B8000CF911F910F91FF90EF90DF90CF90BF908A
:100B9000AF90089590E0FC01E556FA4F2491FC01D6
:100BA000E757F54F3491FC01EB58F54FE491EE23F4
:100BB000C9F0222339F0233001F1A8F4213019F1D2
:100BC000223029F1F0E0EE0FFF1FEF59F54FA5910C
:100BD000B4918FB7F894EC91611126C030953E2303
:100BE0003C938FBF08952730A9F02830C9F02430F6
:100BF00049F7809180008F7D03C0809180008F77BE
:100C000080938000DFCF84B58F7784BDDBCF84B540
:100C10008F7DFBCF8091B0008F778093B000D2CFD3
:100C20008091B0008F7DF9CF3E2BDACF3FB7F8949B
:100C30008091220290912302A0912402B09125027A
:100C400026B5A89B05C02F3F19F00196A11DB11D27
:100C50003FBFBA2FA92F982F8827BC01CD01620F63
:100C6000711D811D911D42E0660F771F881F991F1E
:100C70004A95D1F708958F929F92AF92BF92CF92EB
:100C8000DF92EF92FF924B015C010E9416066B010E
:100C90007C010E9416066C197D098E099F09683E29
:100CA000734081059105A8F321E0821A9108A108FB
:100CB000B10888EEC80E83E0D81EE11CF11C811437
:100CC0009104A104B10429F7FF90EF90DF90CF9039
:100CD000BF90AF909F908F900895EF92FF920F93E7
:100CE0001F93CF93DF93EC01EC80FD806E157F05A1
:100CF0000CF070C057FF04C0240F351F50E040E0D7
:100D00008E819F81FA01E20FF31F8E179F071CF45B
:100D10009C01241B350B121613060CF05BC0922F9E
:100D2000842F8695869586958E9DD0018F9DB00DDA
:100D300011246A0F7B1FAF8DB8A1A60FB71F477094
:100D400049F188E0841B482F682F70E0FB01ED56C5
:100D5000FA4FE491281708F063C0621B71092FEF66
:100D600030E002C0359527956A95E2F7E22301301D
:100D7000110539F0B0F10230110561F58C91E827C9
:100D800002C08C91E82BEC93941720F12C813D81CB
:100D9000A20FB31FE92FE41BE83078F002301105F1
:100DA00021F58E2F9C9190959C932C813D81A20FD3
:100DB000B31F88508830B0F7E770EE2359F0F0E0A9
:100DC000E557FA4FE49101301105F9F010F10230C6
:100DD000110519F1DF91CF911F910F91FF90EF90C5
:100DE0000895E0958C91E823CECF81E0011511059F
:100DF00009F480E081959E2F8C932C813D81A20F78
:100E0000B31F98509830C0F7D7CF8C91E82BEC9354
:100E1000E1CFE0958C91E823FACF8C91E827F7CFCA
:100E20000130110509F4ADCFE0F20230110509F4EB
:100E3000A5CFAE0DBF1DAECF0F931F93CF93DF9302
:100E400077FF04C0260F371F70E060E0DC011496C6
:100E5000CD91DC91FB01E20FF31FCE17DF071CF4ED
:100E60009E01261B370B121613064CF5FA0157FD8F
:100E70003796A3E0F595E795AA95E1F7EC9FD001A9
:100E8000ED9FB00DFC9FB00D11246A0F7B1FDC019C
:100E90005F96ED91FC91E60FF71F4770552781E0B3
:100EA00090E001C0880F4A95EAF7482F01301105FC
:100EB00059F0A8F02E0F3F1F02301105E1F0DF912D
:100EC000CF911F910F9108952E0F3F1FE217F30747
:100ED000B1F38191DF011197842B8C93F7CF80952B
:100EE0002E0F3F1FE217F30751F39191DF01119786
:100EF00098239C93F7CFE217F30709F38191DF0161
:100F0000119784278C93F7CF0F931F93FA01DC017D
:100F100056964C9156974230E9F04330A1F141305A
:100F200061F514964D915C91DA01AE1BBF0BFD018A
:100F3000E21BF30B77FD0BC0DC0116964D915C9123
:100F40006417750724F4AB01BF010E941C071F91B1
:100F50000F91089514964D915C91DA01A61BB70B81
:100F6000BD0161507109DC0116964D915C91DA0169
:100F7000AE1BBF0BFD01E21BF30B77FDE8CFAF010A
:100F80000E946D06E4CF16964D915C91DA01A61B86
:100F9000B70BBD0161507109CDCF0F931F93FA01BB
:100FA000DC0156964C9156974230A9F0433091F1AE
:100FB000413019F514964D915C91DA01AE1BBF0BCF
:100FC000FD013197F7FD04C0AB01BF010E946D0622
:100FD0001F910F91089514964D915C91DA01A61B13
:100FE000B70BBD01DC0116964D915C91DA01AE1B89
:100FF000BF0BFD013197621B730BF7FDE9CFDC01DD
:1010000016964D915C91E417F50714F7AF010E9415
:101010001C07DECF16964D915C91DA01A61BB70B2B
:10102000BD01621B730BCECFFC0177FD64C08085D0
:101030009185681779070CF05EC057FD5CC082850A
:101040009385481759070CF056C086898230B1F055
:10105000833029F1813041F484819581841B950B83
:10106000AB01BC01615071092130310509F108F46F
:1010700043C02230310509F463C00895848195810D
:10108000DC01A61BB70BBD016150710986819781F8
:10109000DC01A41BB50BAD0141505109E5CF8681A0
:1010A0009781861B970BBA01AC0141505109DCCFE7
:1010B000CA0157FD0796A3E095958795AA95E1F794
:1010C000A481B5818A9F90018B9F300D9A9F300D2E
:1010D0001124620F731F078CF0A1E02DE60FF71F9C
:1010E0004770552721E030E001C0220F4A95EAF70A
:1010F0008081822B80830895CA0157FD079633E0D3
:10110000959587953A95E1F7A481B5818A9F9001DD
:101110008B9F300D9A9F300D1124620F731F078C27
:10112000F0A1E02DE60FF71F4770552781E090E012
:1011300001C0880F4A95EAF7809590818923DACF1C
:10114000CA0157FD079623E0959587952A95E1F703
:10115000A481B5818A9F90018B9F300D9A9F300D9D
:101160001124620F731F078CF0A1E02DE60FF71F0B
:101170004770552721E030E001C0220F4A95EAF779
:1011800080818227B7CF08958EBD00000DB407FE81
:10119000FDCF8EB508958CBD9DBD08950895FC01C9
:1011A0006370668B8481958126813781613039F047
:1011B000633029F0918780873387228708953187AC
:1011C00020879387828708952F923F924F925F9254
:1011D0006F927F928F929F92AF92BF92CF92DF9247
:1011E000EF92FF920F931F93CF93DF93CDB7DEB7AC
:1011F0006A970FB6F894DEBF0FBECDBF9A8F898F66
:101200007A8369834A01D22E18870F833701BC2C59
:10121000DC0159962D913C915A972115310509F021
:1012200015C118968D919C911997681779070CF044
:10123000D7C11A968D919C91481759070CF0D0C1CF
:101240004C2C512CB6E0CB9E600D711D11247C8777
:101250006B87161617060CF0C3C1EA2DF0E0FA876B
:10126000E98793E0EE0FFF1F9A95E1F7F88BEF8780
:10127000CF01840F951F181619060CF0B1C1A98D66
:10128000BA8D58968C91811104C0BFEABD1508F43F
:10129000D394A98DBA8DED91FC9111970284F385B9
:1012A000E02DCD010995B5E0DB9EC0011124E98157
:1012B000FA81FC83EB83312C212C9C0125573F4F75
:1012C000388F2F8B4A2D50E05E8B4D8BEF89F88D38
:1012D000E20DF31D44919E828D82D12CC12C698137
:1012E0007A81620D731D7A8B698B842F90E09C8BC1
:1012F0008B8BE98DFA8DA081B18140FF82C0F1E036
:10130000BF126FC0AF126DC01C96ED91FC912F8182
:101310003885A4014C0D5D1D69897A89898D9A8D66
:101320000995EB89FC89F595E7954E2F5FEFC51A76
:10133000D50A6D817E818D899E89680F791F7E8394
:101340006D8398E0C916D10481F6AFEF2A1A3A0AE4
:10135000EB81FC81E40DF51DFC83EB83F5E02F169A
:10136000310409F0B3CF2F81388526153705B9F040
:10137000A98DBA8DED91FC91B1E0BB1257C0AB12B3
:1013800055C069817A816B5F7F4F0088F189E02DBC
:10139000830128E030E0A401898D9A8D0995A98DFB
:1013A000BA8DED91FC9111970688F789E02DCD015A
:1013B0006A960FB6F894DEBF0FBECDBFDF91CF9116
:1013C0001F910F91FF90EF90DF90CF90BF90AF9063
:1013D0009F908F907F906F905F904F903F902F9055
:1013E00009941E96ED91FC91EF80F88409851A8589
:1013F00092014D815E816B817C81898D9A8D0995E9
:1014000090CF2F8138852615370509F48ACF31E032
:10141000B31207C0A31205C01C96ED91FC91930175
:1014200078CF1E96ED91FC917301E0CF6B857C85A2
:10143000641975090684F785E02D73010F851889F5
:101440009201A401898D9A8D0995A9CFF90134964D
:101450009491329745915491D91AB7E0DB9E400D93
:10146000511D1124F901259134913C8B2B8BFA01EC
:1014700025903490FA013296749031963491398BDC
:10148000329664903196449041E04C1518F04A151C
:1014900008F07FC0662D062C000C770B7C836B83D5
:1014A000842D042C000C990B9E838D83A98DBA8DFD
:1014B000ED91FC9111970284F385E02DCD01099502
:1014C000512CD12CC12CEA2DF0E0FA87E9872B2D85
:1014D00030E03C872B87A401440D511D47FC5A95F1
:1014E000588F4F8B69817A81660D711D67FC7A95E3
:1014F0007E876D877989C71608F051CF2C2D30E093
:101500004D815E81420F531FA985BA854A9FC00154
:101510004B9F900D5A9F900D1124FC01E80DF91D71
:10152000F88BEF87852D612C4F89588D420F531F03
:101530005E8B4D8B671408F050C044244394480ED2
:10154000877041F4C1010196EB89FC89E20DF31D1E
:10155000D4901C01D7FE19C0A98DBA8DED91FC91D4
:10156000662D70E0B1E0BB1219C0AB1217C02D851B
:101570003E85620F731F0484F585E02D2F81388529
:101580004D895E89898D9A8D0995DD0C6394842D32
:10159000D1CF1E821D821C821B8288CF4B815C8131
:1015A000640F751FAB85BC856A9FC0016B9F900D52
:1015B0007A9F900D112469817A81680F791F0684C2
:1015C000F785E02DEF80F88409851A859D014F8508
:1015D0005889898D9A8D0995D8CF570CC3948ACF95
:1015E0006A960FB6F894DEBF0FBECDBFDF91CF91E4
:1015F0001F910F91FF90EF90DF90CF90BF90AF9031
:101600009F908F907F906F905F904F903F902F9022
:1016100008958F929F92AF92CF92EF92FF920F9385
:101620001F93CF93DF93EC01262F898D9A8D00971E
:1016300009F051C06A30D1F41D861C868D8948E0BE
:10164000849F900111248E859F85820F931F9F8711
:101650008E8781E090E0DF91CF911F910F91FF90F5
:10166000EF90CF90AF909F908F9008956D3089F359
:10167000CC88AD888F898823C1F08C859D8536E024
:10168000C39E800D911D112448855985481759071F
:1016900064F44E855F851D861C8638E0A39EC001DC
:1016A0001124840F951F9F878E87EA88FB880889FD
:1016B00019894E855F856C857D85CE010E94E40881
:1016C0002C898C859D8546E0249F800D911D1124D9
:1016D0009D878C87BECF6A3069F41D861C86FC010D
:1016E0003896E4912D898E859F85E29F800D911D0E
:1016F0001124ADCF6D3009F4ACCFFC013496349198
:10170000631708F4A6CF3296E491E61708F4A1CF48
:10171000FC01329685909490462F431B342F47E06E
:10172000349F800C911C1124F4013296349131962F
:10173000E4913323A9F1EE2399F1CC88F401359695
:10174000E491AD884F89442301F10E2E000CFF0B6C
:10175000E30FF11DCE9EA001CF9E500D11246C858C
:101760007D85460F571F68857985641775076CF46A
:101770004E855F851D861C86FC013896E491AE9EE1
:10178000400D511D11245F874E87EA88FB88088928
:1017900019894E855F856C857D85CE010E94E408A0
:1017A000F4013496E4912C898C859D85E29F800D0F
:1017B000911D11248DCF6F927F928F929F92AF9245
:1017C000BF92CF92DF92EF92FF920F931F93CF932E
:1017D000DF93EC016B015A0139014801E881F9817D
:1017E0000284F385E02D0995E881F9810288F38967
:1017F000E02D87019301A501B601CE010995A50150
:10180000480D591D41505109E881F9810288F38939
:10181000E02D9301B601CE010995E881F981008898
:10182000F189E02D9401A501B601CE010995C60C00
:10183000D71CB60161507109E881F9810088F189EE
:10184000E02D9401A501CE010995E881F981068872
:10185000F789E02DCE01DF91CF911F910F91FF907D
:10186000EF90DF90CF90BF90AF909F908F907F9040
:101870006F9009946F927F928F929F92AF92BF92D6
:10188000CF92DF92EF92FF920F931F93CF93DF934C
:101890005C01EB016A01490138018701DC01ED912E
:1018A000FC916217730719F5641675062CF0962DD6
:1018B000872D3A01C92ED82E9601261937092F5F98
:1018C0003F4F048CF58DE02DA301BE01C5010995A4
:1018D000DF91CF911F910F91FF90EF90DF90CF900C
:1018E000BF90AF909F908F907F906F900895461516
:1018F000570591F42617370724F0892D4B01C22F85
:10190000D82F9E01281939092F5F3F4F068CF78D7C
:10191000E02DA601B401DACF0284F385E02D09950C
:10192000D501ED91FC910488F589E02D83019401A6
:10193000A601BE01C5010995D501ED91FC9106886E
:10194000F789E02DC501DF91CF911F910F91FF9095
:10195000EF90DF90CF90BF90AF909F908F907F904F
:101960006F900994EF92FF920F931F93DC011A96E8
:101970000D911C911B9718962D913C911997ED9103
:10198000FC9100A0F1A1E02D7B0150E040E070E06F
:1019900060E009951F910F91FF90EF9008954F928D
:1019A0005F926F927F928F929F92AF92BF92CF92EF
:1019B000DF92EF92FF920F931F93CF93DF936C010F
:1019C0002B015A0139014801DC01ED91FC9102849F
:1019D000F385E02D0995E201640C751CD601ED91AB
:1019E000FC91C615D7055CF40088F189E02D8701CC
:1019F0009401A501BE01C60109952196EFCF068885
:101A0000F789E02DC601DF91CF911F910F91FF90D3
:101A1000EF90DF90CF90BF90AF909F908F907F908E
:101A20006F905F904F9009948F929F92AF92BF9268
:101A3000CF92DF92EF92FF920F931F93CF93DF939A
:101A4000EC015B014A016901E881F9810284F385B7
:101A5000E02D099595012C0D3D1D21503109E8819E
:101A6000F9810488F589E02D78018401A401B5018C
:101A7000CE010995E881F9810688F789E02DCE012C
:101A8000DF91CF911F910F91FF90EF90DF90CF905A
:101A9000BF90AF909F908F9009948F929F92AF923A
:101AA000BF92CF92DF92EF92FF920F931F93CF934B
:101AB000DF93EC015B014A0169017801E881F9815A
:101AC0000284F385E02D0995C80CD91C86010150CC
:101AD0001109E881F9810488F589E02D9501A401B7
:101AE000B501CE010995E881F9810688F789E02DD5
:101AF000CE01DF91CF911F910F91FF90EF90DF907A
:101B0000CF90BF90AF909F908F900994EF92FF92EB
:101B10000F931F93DC01ED91FC9100A0F1A1E02D4A
:101B200009951F910F91FF90EF9008950F931F93C8
:101B3000DC01ED91FC91068CF78DE02D09951F914C
:101B40000F9108950F931F93DC01ED91FC91048C8C
:101B5000F58DE02D09951F910F910895DC01ED9110
:101B6000FC910084F185E02D09943F924F925F92A1
:101B70006F927F928F929F92AF92BF92CF92DF929D
:101B8000EF92FF920F931F93CF93DF935C017B0142
:101B90004A016901390187E0680E711C93E0759470
:101BA00067949A95E1F72B01400E511E10E000E07A
:101BB000312CD0E0C0E0CE0187709927330C892BFF
:101BC00059F4FE0183E0F595E7958A95E1F7E00F7A
:101BD000F11FE80DF91D349037FE0AC021E030E016
:101BE000A701B5016C0F7D1F8FE692E00E94AE0D3C
:101BF0002196CC16DD06F9F68FEFE81AF80A060DE5
:101C0000171DE414F504A9F6DF91CF911F910F91F0
:101C1000FF90EF90DF90CF90BF90AF909F908F900C
:101C20007F906F905F904F903F9008952F923F92DA
:101C30004F925F926F927F928F929F92AF92BF92DC
:101C4000CF92DF92EF92FF920F931F93CF93DF9388
:101C5000EC0181E090E07C01EC1AFD0A6624772417
:101C60006C1A7D0A660C771CAE01415C5F4F21E067
:101C700030E060E470E08FE692E00E94AE0D4FE34A
:101C800050E04C1B5D0B21E030E060E470E08FE63B
:101C900092E00E94AE0DBE01605C7F4F21E030E01B
:101CA0004FE350E08FE692E00E94AE0D60E470E0FA
:101CB0006C1B7D0B21E030E04FE350E08FE692E0BB
:101CC0000E94AE0D44244394512C10E000E040E407
:101CD000242E312CF7FC06C0219782E0680E711C7F
:101CE000E60CF71C0F5F1F4F82E0480E511CE40CFE
:101CF000F51C480180E4880E911C21E030E06E0163
:101D00008FE3C80ED11CA601B4018FE692E00E94B9
:101D1000AE0D5101A01AB10A21E030E0A601B501D3
:101D20008FE692E00E94AE0D21E030E08FE3C82EF6
:101D3000D12CCC1ADD0AA601B4018FE692E00E94F4
:101D4000AE0D21E030E0A601B5018FE692E00E94E1
:101D5000AE0D68018FE3C80ED11C21E030E0A60172
:101D60005E0180E4A80EB11CB5018FE692E00E94EE
:101D7000AE0D21E030E0A6016101CC1ADD0AB6010A
:101D80008FE692E00E94AE0D9FE3892E912C801A7F
:101D9000910A21E030E0A401B5018FE692E00E94B3
:101DA000AE0D21E030E0A401B6018FE692E00E9482
:101DB000AE0D0C171D070CF48DCFDF91CF911F9145
:101DC0000F91FF90EF90DF90CF90BF90AF909F90DA
:101DD0008F907F906F905F904F903F902F900895DD
:101DE0002F923F924F925F926F927F928F929F922B
:101DF000AF92BF92CF92DF92EF92FF920F931F9319
:101E0000CF93DF9300D000D000D0CDB7DEB73C0138
:101E10006A013E832D83FC82EB825801A41AB50A25
:101E2000B7FE03C0B194A194B1088D809E80861A3C
:101E3000970A97FE03C09194819491088A149B0499
:101E40005CF0902F812F0D811E819D838E839C2DB0
:101E50008D2D6B01692F782F0C151D055CF09D8170
:101E60008E817E836D83692F782F902F812F86013D
:101E7000C92ED82E1601201A310A2B012D813E8140
:101E8000421A530A57FE03C05194419451087101FC
:101E900037FE03C03FEFE31AF30AF594E7948D8110
:101EA0009E81861797075CF5A1E0B0E0BA83A9830D
:101EB000C016D1064CF1D301ED91FC910484F58557
:101EC000E02D2B813C81A8016D817E818A149B04C9
:101ED0001CF04D815E81B801C3010995E418F50835
:101EE000F7FE0AC02D813E8189819A81280F391F12
:101EF0003E832D83E20CF31C0F5F1F4FD9CF2FEFD2
:101F00003FEF3A832983D4CF26960FB6F894DEBFED
:101F10000FBECDBFDF91CF911F910F91FF90EF903A
:101F2000DF90CF90BF90AF909F908F907F906F90F9
:101F30005F904F903F902F90089508952091D20187
:101F4000260F3327331F21323105ECF42091F6019F
:101F5000FC0190E080E0243069F082E00895A091D7
:101F6000D2012191AC014E545E4FA40FB52FB11D8B
:101F70002C930196861798F38091D201680F609395
:101F8000D20180E0089581E008951092F60181E089
:101F90008093F8011092F70161E082E10E94CA0586
:101FA00061E083E10E94CA05E9EBF0E080818E7F69
:101FB000808380818D7F808388E48093B80085E46E
:101FC0008093BC000895CF93DF9391E09093B1018B
:101FD0008823B9F0C091B800D091BA008091BC00BC
:101FE0008A7B8093BC0060E082E10E94CA0560E0C9
:101FF00083E10E94CA050E94C50FD093BA00C09326
:10200000B800DF91CF910895E0912C0280912B02CE
:10201000E81730F4F0E0E457FE4F808190E0089537
:102020008FEF9FEF089590912C0280912B022FEF5C
:102030003FEF981748F4E92FF0E0E457FE4F208176
:1020400030E09F5F90932C02C901089580912B028C
:1020500090912C02891B990B0895CF92DF92EF92F9
:10206000FF920F931F93CF93DF937C01CB018A01E3
:1020700020913A02222389F0EB016B01C40ED51E98
:10208000CC15DD0569F06991D701ED91FC910190C6
:10209000F081E02DC7010995F3CF642F0E949E0FB8
:1020A000C801DF91CF911F910F91FF90EF90DF90CA
:1020B000CF900895CF93DF931F92CDB7DEB769839A
:1020C00020913A022223F9F020913702203258F071
:1020D00021E030E0FC013383228390E080E00F9028
:1020E000DF91CF91089580913802E82FF0E0E45914
:1020F000FE4F998190838F5F8093380280933702DF
:1021000081E090E0ECCF61E0CE0101960E949E0F4D
:10211000F7CFCF92DF92EF92FF920F931F93CF935F
:10212000DF93D091370281E0D13208F09CC0C0919A
:1021300039020E9416066B017C018091F601811123
:102140006CC082E08093F60181E08093F8018FEF0C
:102150008093F50110921A02D0931902ACE6B1E017
:10216000E9EFF1E080E0D8138DC010921B0280915E
:102170001B02CC0FC82BC0931B028091F70181304A
:1021800009F084C01092F7010E9416066B017C01D1
:1021900080911B028093BB008091AD019091AE01B4
:1021A000A091AF01B091B001892B8A2B8B2BA1F0AC
:1021B0000E9416060091AD011091AE012091AF0171
:1021C0003091B0016C197D098E099F090617170718
:1021D0002807390708F442C08091BC0083FDD8CF9E
:1021E00085EC8093BC000E9416066B017C018091F7
:1021F000F601823009F44CC08091F5018F3F09F45B
:1022000069C08091F501803209F466C08091F501C2
:10221000803309F463C084E026C08091AD019091C1
:10222000AE01A091AF01B091B001892B8A2B8B2B0D
:1022300009F483CF0E9416060091AD011091AE0102
:102240002091AF013091B0016C197D098E099F0971
:10225000061717072807390708F06FCF8091AC01E0
:102260000E94E30F85E0109238021092370210921C
:102270003A02DF91CF911F910F91FF90EF90DF9085
:10228000CF9008959D9191938F5F6DCF85EEA9CFEB
:102290008091AD019091AE01A091AF01B091B001DC
:1022A000892B8A2B8B2B09F4A2CF0E941606009152
:1022B000AD011091AE012091AF013091B0016C19C8
:1022C0007D098E099F09061717072807390708F0A7
:1022D0008ECFC4CF80E0C7CF82E0C5CF83E0C3CF2D
:1022E000EF92FF920F931F93CF93DF937C01C62F42
:1022F00080918C0290918D02009709F459C0209131
:10230000900231E030933A02209339021092380261
:1023100010923702DC01ED91FC910190F081E02DEB
:1023200060E009958701EE24E394F12CD1E0C150DF
:1023300080918C0290918D02CF3F91F1B0E2EB162B
:10234000F104D8F00E94891080918C0290918D0246
:1023500020919002D0933A022093390210923802D1
:1023600010923702DC01ED91FC910190F081E02D9B
:1023700060E00995EE24E394F12C80918C02909119
:102380008D02F8016491DC01ED91FC910190F081E6
:10239000E02D0995BFEFEB1AFB0A0F5F1F4FC7CF68
:1023A000DF91CF911F910F91FF90EF900C948910C6
:1023B000E0919C02F0919D0290818091A202809513
:1023C000892380838701C15008F438C0F8018491C3
:1023D00020918A0230918B02232B29F00E94C4089D
:1023E0000F5F1F4FF0CF28E030E040E8E091980207
:1023F000F09199029091A002582F5423D9F0508166
:10240000952B9083E0919A02F0919B0290815091DC
:10241000A102952B9083E0919A02F0919B0250814A
:102420009091A10290959523908346952150310972
:10243000E9F6D6CF508190959523E3CFDF91CF91E8
:102440001F910F91FF90EF9008951F93CF93DF930B
:10245000EC018D8D9E8D009721F1162F29A131E081
:1024600030933A02209339021092380210923702C8
:10247000DC01ED91FC910190F081E02D60E0099587
:102480008D8D9E8DDC01ED91FC910190F081E02D10
:10249000612F09958D8D9E8DDF91CF911F910C94A9
:1024A0008910ADA5BEA59C918BA9809589238C939D
:1024B0008B8D9C8D892B31F0862FDF91CF911F91D1
:1024C0000C94C40828E030E080E8A9A5BAA599A931
:1024D000462F4823C1F04C91942B9C93ABA5BCA5EF
:1024E0009C914AA9942B9C93ABA5BCA54C919AA90D
:1024F000909594239C9386952150310931F7DF9173
:10250000CF911F9108954C9190959423E6CF1F93FE
:10251000CF93DF93EC01162F8D8D9E8D892BB1F11A
:102520002DA93EA94FA958AD60E074E284EF90E078
:102530000E949B1C2051310941095109569547952C
:10254000379527952093B80066EA111167EACE0106
:102550000E9425128D8D9E8D892B41F129AD3AADBA
:102560004BAD5CAD60E074E284EF90E00E949B1C98
:1025700020513109410951095695479537952795BD
:102580002093B800DF91CF911F9108958B8D9C8D82
:10259000892B21F08EAD9FAD0E94CB08EFA5F8A945
:1025A00090818CA9809589238083CECFEFA5F8A94F
:1025B00080819CA9892B8083E5CF90E080E00895FD
:1025C0002091750230917602C901079697FD079612
:1025D00023E0959587952A95E1F720917302309134
:1025E0007402829FA001839F500D929F500D112471
:1025F00070E060E080918E0290918F020C946420D4
:102600000E945F2085ED8093BC008091AD01909188
:10261000AE01A091AF01B091B0010796A11DB11D0F
:1026200023E0B695A795979587952A95D1F72091A0
:10263000BC0024FD03C01092F60108954091AD0145
:102640005091AE016091AF017091B001452B462BC6
:10265000472B69F30097A105B10541F025E32A95C1
:10266000F1F700000197A109B109E1CF8091AC0118
:102670000C94E30F8F929F92AF92BF92CF92DF9212
:10268000EF92FF920F931F93CF93DF9380913102CC
:10269000909132022AE0289FB001299F700D1124E9
:1026A000072E000C880B990B0E94761D25E33AEF4C
:1026B0004EE85CE30E94461E4B015C0160913502CE
:1026C00070913602072E000C880B990B0E94761D24
:1026D00025E33AEF4EE85CE30E94461E0E94B31EDB
:1026E00020E030E040E752E40E94461E6B017C018E
:1026F000C501B4010E94391D9B01AC01C701B6019F
:102700000E94461E9B01AC0160E070E080E892E40C
:102710000E94CC1C609368017093690180936A01E8
:1027200090936B01C501B4010E94B31E9B01AC01E3
:10273000C701B6010E94461E9B01AC0160E070E03B
:102740008CE792E40E94CC1C609364017093650155
:10275000809366019093670181E090E090938202FC
:10276000809381029093800280937F020E94160ED4
:102770008FE390E00E94160E6091640170916501F4
:1027800080916601909167010E943E1D6B016091EE
:1027900068017091690180916A0190916B010E94BA
:1027A0003E1D21E030E0A6018FE692E00E94140871
:1027B00080918C0290918D02892B09F498C0209110
:1027C000A4023091A5024091A6025091A70260E0B8
:1027D00074E284EF90E00E949B1C20513109410972
:1027E000510956954795379527952093B80065E090
:1027F00086E890E00E9470116091730261508FE64C
:1028000092E00E9425122091750230917602C90152
:10281000079697FD079633E0959587953A95E1F7EA
:102820002091730230917402829F8001839F100D6A
:10283000929F100D1124C0918E02D0918F02809131
:102840008C0290918D020C0F1D1F009709F494C00B
:102850002091900231E030933A0220933902109295
:10286000380210923702DC01ED91FC910190F08169
:10287000E02D60E40995EE24E394F12CDD24D3945B
:1028800080918C0290918D020C171D0709F446C0AF
:10289000B0E2EB16F104D8F00E94891080918C020E
:1028A00090918D0220919002D0923A0220933902A9
:1028B0001092380210923702DC01ED91FC910190E8
:1028C000F081E02D60E40995EE24E394F12C8091F1
:1028D0008C0290918D026991DC01ED91FC91019047
:1028E000F081E02D0995BFEFEB1AFB0AC9CF80916B
:1028F0008A0290918B02892B31F08091AD029091E8
:10290000AE020E94CB08E0919E02F0919F0290815E
:102910008091A30280958923808369CF0E948910CA
:1029200080918C0290918D02892B09F466C02091D0
:10293000A8023091A9024091AA025091AB0260E036
:1029400074E284EF90E00E949B1C20513109410900
:10295000510956954795379527952093B800DF91F3
:10296000CF911F910F91FF90EF90DF90CF90BF908C
:10297000AF909F908F900895E0919C02F0919D02FE
:1029800080819091A202892B80830C171D0741F250
:10299000899120918A0230918B02232B19F00E9499
:1029A000C408F3CF28E030E040E8E0919802F091CD
:1029B00099029091A002582F5423D9F05081952B61
:1029C0009083E0919A02F0919B0290815091A10234
:1029D000952B9083E0919A02F0919B025081909107
:1029E000A102909595239083469521503109E9F6EF
:1029F000CCCF508190959523E3CFE0919E02F0914A
:102A00009F0280819091A302892B8083A8CF1F927F
:102A10000F920FB60F9211242F933F938F939F9392
:102A2000AF93BF9380911E0290911F02A09120024C
:102A3000B091210230911D0223E0230F2D3758F56C
:102A40000196A11DB11D20931D0280931E0290933B
:102A50001F02A0932002B093210280912202909144
:102A60002302A0912402B09125020196A11DB11D5F
:102A70008093220290932302A0932402B093250214
:102A8000BF91AF919F918F913F912F910F900FBE6A
:102A90000F901F90189526E8230F0296A11DB11DD7
:102AA000D2CF1F920F920FB60F9211242F933F9304
:102AB0004F935F936F937F938F939F93AF93BF9346
:102AC000CF93DF93EF93FF9380911C02C0915F023D
:102AD000D0E087FF24C0109285001092840080917E
:102AE0001C028F5F80931C0280911C02082E000C38
:102AF000990B8C179D0724F480911C028C30C4F133
:102B00008091840090918500049680349C4908F45B
:102B10007AC08091840090918500049676C080915F
:102B20001C02082E000C990B8C179D07C4F6E0912F
:102B30001C028E2FEE0F990BFC01EE0FFF1FE80F0A
:102B4000F91FE55CFD4F808186FFC9CFE0911C0233
:102B50008E2FEE0F990BFC01EE0FFF1FE80FF91FF0
:102B6000E55CFD4F808160E08F730E94CA05B7CF9E
:102B70002091840030918500E0911C028E2FEE0F91
:102B8000990BFC01EE0FFF1FE80FF91FE55CFD4FED
:102B900081819281820F931F909389008093880096
:102BA000E0911C028E2FEE0F990BFC01EE0FFF1F20
:102BB000E80FF91FE55CFD4F808186FF11C0E091B1
:102BC0001C028E2FEE0F990BFC01EE0FFF1FE80F7A
:102BD000F91FE55CFD4F808161E08F730E94CA059B
:102BE000FF91EF91DF91CF91BF91AF919F918F9125
:102BF0007F916F915F914F913F912F910F900FBEF9
:102C00000F901F90189580E49CE990938900809321
:102C100088008FEF80931C02E3CF1F920F920FB6B4
:102C20000F9211242F933F934F935F936F937F9352
:102C30008F939F93AF93BF93EF93FF938091B900CE
:102C4000887F803609F44AC0F0F5883209F4A7C0BD
:102C500018F5803109F49BC0B8F4882309F4F9C051
:102C6000883009F494C0FF91EF91BF91AF919F918B
:102C70008F917F916F915F914F913F912F910F9025
:102C80000FBE0F901F901895883109F488C08032CC
:102C900051F78093F50114C0803409F49DC040F4CD
:102CA0008033B9F38833F9F68093F50185ECB0C031
:102CB000803509F485C0883509F496C0883499F6C2
:102CC0000E940213D0CF883909F48CC038F58837B8
:102CD00029F050F4883611F0803729F683E080938C
:102CE000F6011092F40157C0883809F47BC080398E
:102CF00019F0803809F0B7CF8091F401803208F0E4
:102D000071C0E091F40181E08E0F8093F401809115
:102D1000BB00F0E0EC52FE4F80833DC0803B39F0B9
:102D2000E0F4803A09F479C0883A09F09CCF84E055
:102D30008093F6011092D3011092D201E091290202
:102D4000F0912A0209958091D20181110FC081E092
:102D50008093D2011092B20109C0803C09F4A6CF41
:102D6000883C09F4A3CF883B09F07DCFE091D301E3
:102D700081E08E0F8093D301F0E0EE54FE4F80810E
:102D80008093BB009091D3018091D20129C08091A2
:102D90001B028093BB0085EC8093BC0064CF9091B4
:102DA0001A0280911902981758F5E0911A0281E0F1
:102DB0008E0F80931A02F0E0E750FE4F8081E9CF3A
:102DC000E0911A0281E08E0F80931A028091BB007D
:102DD000F0E0E750FE4F808390911A028091190233
:102DE0009817C8F285E8D8CFE0911A0281E08E0FDB
:102DF00080931A028091BB00F0E0E750FE4F808381
:102E00008091F80181115CCF81E08093F70184EA21
:102E10008093BC001092F60126CF85EC8093BC0015
:102E20001092F6018091F401803230F4E091F401C7
:102E3000F0E0EC52FE4F10826091F40170E0E091FE
:102E40002702F091280284ED91E009951092F40197
:102E50000ACF1092F50134CF1092660210926502EB
:102E600088EE93E0A0E0B0E0809367029093680260
:102E7000A0936902B0936A028AE291E0909364029F
:102E800080936302109272021092710220E830E087
:102E9000309374022093730280E490E09093760262
:102EA00080937502309378022093770290937A0290
:102EB000809379021092850210927C0210927B021C
:102EC00010927E0210927D0281E0809384028093B2
:102ED00083022FEF3FEF30938202209381023093E1
:102EE000800220937F0280938602109287021092C4
:102EF0008902109288028CE391E090937002809393
:102F00006F0210928B0210928A0283E692E09093F5
:102F10008D0280938C0210928F0210928E029FEF8E
:102F200090939302909394029093950290939602BB
:102F300084E08093970240E85AE166E070E04093B5
:102F4000A4025093A5026093A6027093A70240EAE0
:102F500056E861E070E04093A8025093A9026093A4
:102F6000AA027093AB0280E58093AD021092AE028C
:102F700080915F028C3098F491E0980F90935F02FB
:102F80008093600290E0FC01EE0FFF1FE80FF91F35
:102F9000E55CFD4F88EB9BE09283818308959093DD
:102FA00060020895CF93DF9300D01F92CDB7DEB7B4
:102FB000789484B5826084BD84B5816084BD85B514
:102FC000826085BD85B5816085BD80916E00816020
:102FD00080936E00109281008091810082608093C6
:102FE00081008091810081608093810080918000C8
:102FF0008160809380008091B10084608093B100F3
:103000008091B00081608093B00080917A008460EC
:1030100080937A0080917A00826080937A00809118
:103020007A00816080937A0080917A008068809332
:103030007A001092C10010922C0210922B02109272
:103040003802109237020E94C50F8BE995E09093E9
:103050002A02809329028CE995E0909328028093BC
:10306000270280918E0290918F02892B11F10E948C
:10307000E012209175023091760280917302909156
:103080007402213231050CF0A4C1B90160527109FA
:1030900077FF02C06F5F7F4F7595679583579109E2
:1030A00097FD019600E210E023E730E041EC55E0A7
:1030B000A3C12091750230917602C901079697FD50
:1030C0000796B3E095958795BA95E1F7209173023D
:1030D00030917402AC01429FC001439F900D529FFA
:1030E000900D11240E943A1F90938F0280938E02BC
:1030F000892B09F0BCCF0E94E01281E090E0909310
:103100008202809381029093800280937F0280915B
:1031100060028C3008F052C085E00E947B058091EF
:103120006002282F30E0F901EE0FFF1FE20FF31FBE
:10313000E55CFD4F9081907C956090839EE8909334
:10314000610294E6909362022CE0622F0E94281F95
:10315000829FB001112430E020E0AB01420F531FE9
:10316000FA01EE0FFF1FE40FF51FE55CFD4F9081A4
:1031700096FD16C02F5F3F4F2C30310571F781113E
:103180000FC01092800082E0809381001092850031
:1031900010928400B19A80916F00826080936F00DA
:1031A000E09160028E2F90E0FC01EE0FFF1FE80F10
:1031B000F91FE55CFD4F80818064808388E00E9478
:1031C0007B0589E00E947B058AE00E947B058BE0FD
:1031D0000E947B05E5E02E2E312CF4EB8F2E912CF6
:1031E000A12CB12CCC24C394D12CB2E1EB2EF12C28
:1031F0000E94E0123092360220923502A0913502F0
:10320000B0913602AB35B1050CF04CC34091600271
:1032100049834C3008F05BC08091620208E512E0FF
:10322000081B110987FD1395000F111F000F111FB7
:1032300080916102E8E8F0E0E81BF10987FDF39571
:10324000EE0FFF1FEE0FFF1FFB83EA832F01FF0F1F
:1032500066087708B7FF02C0B0E0A0E09801012E31
:10326000000C440B550B24193509460957090E94D7
:10327000931CA50194010E94691C420E531E641EFA
:10328000751E2A813B81421653063CF01B830A833C
:103290004016510614F45B824A824A815B81425097
:1032A0005109440F551F5B834A834FB7F8945981E6
:1032B000252F30E0C901880F991F820F931FFC0151
:1032C000E55CFD4F8A819B81928381834FBF809112
:1032D000330290913402892B09F076C20E943A138E
:1032E00000E011E0E6E0F1E0FB83EA83EA81FB81A4
:1032F000608188E00E94CA05EA81FB81628189E0E1
:103300000E94CA05EA81FB8164818AE00E94CA05A5
:10331000EA81FB8166818BE00E94CA0520E030E0F3
:1033200044E35EE360912D0270912E0280912F02A2
:10333000909130020E94CD1C60932D0270932E025A
:1033400080932F029093300220E030E040E251E47D
:103350000E94411E87FD13C080913102909132027C
:10336000019690933202809331020E943A13109298
:103370002D0210922E0210922F021092300262E360
:1033800070E080E090E00E943B062A813B81285F4C
:103390003F4F3B832A8346E251E04217530709F02F
:1033A000A5CF0150110909F09DCFD0923402C092EF
:1033B0003302F0923202E09231020E943A1380917D
:1033C000350290913602059690933602809335022D
:1033D00015CFB9016054710977FF02C06F5F7F4F4D
:1033E000759567958255910997FD019600E410E067
:1033F00022E530E041EA57E0959587950E94B50DAA
:1034000082E08093910280918C0290918D02892BB1
:1034100009F4DFC08DE38093900210922C02109289
:103420002B0210923802109237020E94C50F8BE9CE
:1034300095E090932A02809329028CE995E090937D
:103440002802809327028091970287FD1DC00E9469
:103450007B0561E0809197020E94CA0561E070E0FF
:1034600080E090E00E943B0660E0809197020E941D
:10347000CA056AE070E080E090E00E943B0661E0EF
:10348000809197020E94CA0580918C0290918D02D2
:10349000892B09F458C12091A4023091A5024091D2
:1034A000A6025091A70260E074E284EF90E00E94CF
:1034B0009B1C205131094109510956954795379573
:1034C00027952093B80064E08DEB95E00E94701181
:1034D0006091750261508FE692E00E94251264E0CF
:1034E00089EB95E00E9470118091910264E1813036
:1034F00009F460E18FE692E00E94251264E085EB1A
:1035000095E00E9470118FE88093AC028091730265
:10351000909174028038910509F02EC18091750256
:10352000909176028034910509F03BC1809191021F
:10353000813009F41FC18FEC8093AC0292E1998332
:103540006AED8FE692E00E94251269818FE692E093
:103550000E94251261E88FE692E00E942512609198
:10356000AC028FE692E00E94251269ED8FE692E0B0
:103570000E9425128091910261EF813009F462E28C
:103580008FE692E00E94251266E08FEA95E00E94A5
:10359000701180918C0290918D02892B09F40AC1DF
:1035A0002091A8023091A9024091AA025091AB0249
:1035B00060E074E284EF90E00E949B1C205131098E
:1035C0004109510956954795379527952093B8009D
:1035D00092CD809195020E947B05809196020E9477
:1035E0007B0580919502082E000C990BFC01EB588D
:1035F000F54FE491F0E0EE0FFF1FEF59F54F2591E5
:10360000349130939D0220939C02FC01E757F54FC3
:10361000E491E093A20280919602082E000C990B8F
:10362000FC01EB58F54FE491F0E0EE0FFF1FEF596E
:10363000F54FA591B491B0939F02A0939E02FC0117
:10364000E757F54FE491E093A3028C91E82BEC93BC
:1036500080918A0290918B02892B09F433C05FB765
:103660005983F89480912602811124C0EFE7FAE093
:103670008491E3E9FAE09491E82FF0E0EE0FFF1F68
:10368000E559F54FA591B491EC91E92321F461E05E
:103690008AE00E94CA058AE00E947B058CB58061A1
:1036A0008CBD8CB580648CBD8DE00E947B058BE069
:1036B0000E947B05809126028F5F8093260289817C
:1036C0008FBFC1CE809193020E947B0580919402AE
:1036D0000E947B0580919302082E000C990BFC013F
:1036E000EB58F54FE491F0E0EE0FFF1FEF59F54F67
:1036F000259134913093990220939802FC01E75769
:10370000F54FE491E093A00280919402082E000C02
:10371000990BFC01EB58F54FE491F0E0EE0FFF1F21
:10372000EF59F54FA591B491B0939B02A0939A02E3
:10373000FC01E757F54FE491E093A1028C91E095ED
:10374000E823EC9380CE80918A0290918B02892BA2
:1037500031F08091AD029091AE020E94CB08E091D1
:103760009E02F0919F0290818091A302809589230F
:103770008083A9CE8FE9E0CE80369105A9F48091AF
:10378000750290917602409791F480919102813078
:1037900031F08FEA8093AC02E2E0E983D1CE80E1A0
:1037A000F9CFF2E0F983CCCE22E02983C9CE32E012
:1037B0003983C6CEE0919E02F0919F028081909164
:1037C000A302892B808397CC0E943A1300E011E07A
:1037D00086E091E09B838A83EA81FB81608D88E0AB
:1037E0000E94CA05EA81FB81628D89E00E94CA05B8
:1037F000EA81FB81648D8AE00E94CA05EA81FB812F
:10380000668D8BE00E94CA0520E030E044E35EE371
:1038100060912D0270912E0280912F0290913002C2
:103820000E94CD1C60932D0270932E0280932F0274
:103830009093300220E030E040E251E40E94411ECB
:1038400087FD13C0809131029091320201979093CD
:103850003202809331020E943A1310922D0210928C
:103860002E0210922F021092300262E370E080E08C
:1038700090E00E943B062A813B81285031093B831E
:103880002A83265E304009F0A7CF0150110909F0C4
:103890009FCF109234021092330210923202109293
:1038A00031028BCD80E090E0892B09F4A1CC0E94FD
:1038B00000009ECC8CE391E09093700280936F02A5
:1038C00080918E0290918F02009711F00C94D61F78
:1038D0000895052E97FB1EF400940E94801C57FD4E
:1038E00007D00E949B1C07FC03D04EF40C94801C54
:1038F00050954095309521953F4F4F4F5F4F08951C
:1039000090958095709561957F4F8F4F9F4F08954B
:103910000E94BD1CA59F900DB49F900DA49F800D8B
:10392000911D11240895B7FF0C94881C0E94881CD7
:10393000821B930B0895A1E21A2EAA1BBB1BFD014B
:103940000DC0AA1FBB1FEE1FFF1FA217B307E4077E
:10395000F50720F0A21BB30BE40BF50B661F771FD6
:10396000881F991F1A9469F76095709580959095B6
:103970009B01AC01BD01CF010895A29FB001B39F8F
:10398000C001A39F700D811D1124911DB29F700D68
:10399000811D1124911D08955058BB27AA270E940C
:1039A000E41C0C94F31D0E94BA1D38F00E94C11D46
:1039B00020F039F49F3F19F426F40C94B71D0EF44F
:1039C000E095E7FB0C94B11DE92F0E94181E58F3F7
:1039D000BA17620773078407950720F079F4A6F5F4
:1039E0000C943A1E0EF4E0950B2EBA2FA02D0B016D
:1039F000B90190010C01CA01A0011124FF27591B34
:103A000099F0593F50F4503E68F11A16F040A22F39
:103A1000232F342F4427585FF3CF469537952795AA
:103A2000A795F0405395C9F77EF41F16BA0B620BA9
:103A3000730B840BBAF09150A1F0FF0FBB1F661FF0
:103A4000771F881FC2F70EC0BA0F621F731F841F33
:103A500048F4879577956795B795F7959E3F08F059
:103A6000B0CF9395880F08F09927EE0F979587951B
:103A700008950E94CA1DE3950C94041E0E94451DE2
:103A80006894B1110C943B1E08950E94201E88F08A
:103A90009F5798F0B92F9927B751B0F0E1F0660F12
:103AA000771F881F991F1AF0BA95C9F714C0B13053
:103AB00091F00E943A1EB1E008950C943A1E672FCF
:103AC000782F8827B85F39F0B93FCCF38695779582
:103AD0006795B395D9F73EF490958095709561956B
:103AE0007F4F8F4F9F4F0895E89409C097FB3EF496
:103AF00090958095709561957F4F8F4F9F4F99233B
:103B0000A9F0F92F96E9BB279395F69587957795B8
:103B10006795B795F111F8CFFAF4BB0F11F460FF78
:103B20001BC06F5F7F4F8F4F9F4F16C0882311F0D0
:103B300096E911C0772321F09EE8872F762F05C0E4
:103B4000662371F096E8862F70E060E02AF09A957F
:103B5000660F771F881FDAF7880F9695879597F974
:103B6000089597F99F6780E870E060E008959FEFFF
:103B700080EC089500240A94161617061806090604
:103B8000089500240A9412161306140605060895D3
:103B90000C94B71D0E94201ED8F3E894E0E0BB27E8
:103BA0009F57F0F02AED3FE049EC06C0EE0FBB0F47
:103BB000661F771F881F28F0B23A620773078407D1
:103BC00028F0B25A620B730B840BE3959A9572F747
:103BD000803830F49A95BB0F661F771F881FD2F785
:103BE00090480C94E11E092E0394000C11F48823D4
:103BF00052F0BB0F40F4BF2B11F460FF04C06F5FA5
:103C00007F4F8F4F9F4F0895EF93E0FF07C0A2EAC9
:103C10002AED3FE049EC5FEB0E94E41C0E94F31D9B
:103C20000F90039401FC9058E8E6F0E00C94ED1E30
:103C300057FD9058440F551F59F05F3F71F047955D
:103C4000880F97FB991F61F09F3F79F08795089542
:103C5000121613061406551FF2CF4695F1DF08C061
:103C6000161617061806991FF1CF8695710561057E
:103C700008940895E894BB2766277727CB0197F926
:103C800008950E94BB1E08F48FEF08950E94591EEC
:103C90000C94F31D0E94BA1D38F00E94C11D20F043
:103CA000952311F00C94B11D0C94B71D11240C94A4
:103CB0003B1E0E94181E70F3959FC1F3950F50E0B4
:103CC000551F629FF001729FBB27F00DB11D639FCE
:103CD000AA27F00DB11DAA1F649F6627B00DA11D74
:103CE000661F829F2227B00DA11D621F739FB00D1A
:103CF000A11D621F839FA00D611D221F749F33278A
:103D0000A00D611D231F849F600D211D822F762F22
:103D10006A2F11249F5750409AF0F1F088234AF0FF
:103D2000EE0FFF1FBB1F661F771F881F915050406B
:103D3000A9F79E3F510580F00C94B11D0C943B1ED9
:103D40005F3FE4F3983ED4F3869577956795B795F2
:103D5000F795E7959F5FC1F7FE2B880F911D96950C
:103D6000879597F908959F930E94CA1D0F9007FCAD
:103D7000EE5F0C94041E990F0008550FAA0BE0E8A3
:103D8000FEEF16161706E807F907C0F0121613061D
:103D9000E407F50798F0621B730B840B950B39F45D
:103DA0000A2661F0232B242B252B21F408950A26C3
:103DB00009F4A140A6958FEF811D811D08959F3FB5
:103DC00031F0915020F4879577956795B795880FD6
:103DD000911D9695879597F908959F938F937F935B
:103DE0006F93FF93EF939B01AC010E94461EEF91EE
:103DF000FF910E94011F2F913F914F915F910C9471
:103E0000461EDF93CF931F930F93FF92EF92DF92A3
:103E10007B018C01689406C0DA2EEF010E94591EC6
:103E2000FE01E894A5912591359145915591A6F310
:103E3000EF010E94E41CFE019701A801DA9469F7E2
:103E4000DF90EF90FF900F911F91CF91DF91089538
:103E5000991B79E004C0991F961708F0961B881FDC
:103E60007A95C9F780950895EE0FFF1F0590F4919C
:103E7000E02D09940F931F93CF93DF938230910528
:103E800010F482E090E0E091B102F091B20230E0F3
:103E900020E0B0E0A0E0309799F42115310509F455
:103EA0004AC0281B390B24303105D8F58A819B8103
:103EB0006115710589F1FB0193838283FE0111C0B5
:103EC000408151810281138148175907E0F048175A
:103ED000590799F4109761F012960C931297139664
:103EE0001C933296CF01DF91CF911F910F910895CE
:103EF0000093B1021093B202F4CF2115310551F0B5
:103F00004217530738F0A901DB019A01BD01DF0117
:103F1000F801C1CFEF01F9CF9093B2028093B102C3
:103F2000CDCFFE01E20FF31F81939193225031090F
:103F300039832883D7CF2091AF023091B002232B51
:103F400041F420910201309103013093B00220939B
:103F5000AF0220910001309101012115310541F49A
:103F60002DB73EB74091040150910501241B350B3C
:103F7000E091AF02F091B002E217F307A0F42E1B1C
:103F80003F0B2817390778F0AC014E5F5F4F2417BD
:103F9000350748F04E0F5F1F5093B0024093AF02B9
:103FA000819391939FCFF0E0E0E09CCFCF93DF939C
:103FB0000097E9F0FC01329713821282A091B102BE
:103FC000B091B202ED0130E020E01097A1F4208121
:103FD0003181820F931F2091AF023091B0022817D8
:103FE000390709F061C0F093B002E093AF02DF91AE
:103FF000CF910895EA01CE17DF07E8F54A815B818A
:104000009E0141155105B1F7E901FB83EA8349910E
:104010005991C40FD51FEC17FD0761F48081918180
:104020000296840F951FE901998388838281938189
:104030009B838A83F0E0E0E012968D919C91139728
:104040000097B9F52D913C911197CD010296820F01
:10405000931F2091AF023091B0022817390739F62B
:10406000309751F51092B2021092B102B093B002A3
:10407000A093AF02BCCFD383C28340815181840F10
:10408000951FC817D90761F44E5F5F4F88819981EA
:10409000480F591F518340838A819B819383828378
:1040A0002115310509F0B0CFF093B202E093B102CF
:1040B0009ECFFD01DC01C0CF13821282D7CF81E0F9
:1040C00090E0F8940C946B20DC0101C06D9341509A
:1040D0005040E0F7089515E0C0E5D5E004C0FE01CA
:1040E0000E94341F2196C135D107C9F7F894FFCF3C
:1040F0000000B30280000100010000000000000089
:1041000001000100000000000000010001000100AA
:10411000000000000100000000005A102D10DD1208
:104120009A0526101310041000000000090B9D05CD
:10413000DD129D0F14089A05AE0D860DA20D960D89
:10414000F00E9A05CF0887128407CD07CF0CB20C6A
:044150003A0CDB0B3F
:107E0000112484B714BE81FFF0D085E080938100F7
:107E100082E08093C00088E18093C10086E0809377
:107E2000C20080E18093C4008EE0C9D0259A86E02C
:107E300020E33CEF91E0309385002093840096BBD3
:107E4000B09BFECF1D9AA8958150A9F7CC24DD24C4
:107E500088248394B5E0AB2EA1E19A2EF3E0BF2EE7
:107E6000A2D0813461F49FD0082FAFD0023811F036
:107E7000013811F484E001C083E08DD089C08234E0
:107E800011F484E103C0853419F485E0A6D080C0E4
:107E9000853579F488D0E82EFF2485D0082F10E0AE
:107EA000102F00270E291F29000F111F8ED06801E7
:107EB0006FC0863521F484E090D080E0DECF843638
:107EC00009F040C070D06FD0082F6DD080E0C81688
:107ED00080E7D80618F4F601B7BEE895C0E0D1E017
:107EE00062D089930C17E1F7F0E0CF16F0E7DF06D8
:107EF00018F0F601B7BEE89568D007B600FCFDCFD4
:107F0000A601A0E0B1E02C9130E011968C91119780
:107F100090E0982F8827822B932B1296FA010C0160
:107F200087BEE89511244E5F5F4FF1E0A038BF0790
:107F300051F7F601A7BEE89507B600FCFDCF97BE46
:107F4000E89526C08437B1F42ED02DD0F82E2BD052
:107F50003CD0F601EF2C8F010F5F1F4F84911BD097
:107F6000EA94F801C1F70894C11CD11CFA94CF0C13
:107F7000D11C0EC0853739F428D08EE10CD085E9AC
:107F80000AD08FE07ACF813511F488E018D01DD067
:107F900080E101D065CF982F8091C00085FFFCCF94
:107FA0009093C60008958091C00087FFFCCF809118
:107FB000C00084FD01C0A8958091C6000895E0E648
:107FC000F0E098E1908380830895EDDF803219F02E
:107FD00088E0F5DFFFCF84E1DECF1F93182FE3DFCA
:107FE0001150E9F7F2DF1F91089580E0E8DFEE27F6
:047FF000FF270994CA
:027FFE00040479
:00000001FF
