:020000040000FA
:100000000C9456050C947E050C947E050C947E058C
:100010000C947E050C947E050C947E050C947E0554
:100020000C947E050C947E050C947E050C94171E92
:100030000C947E050C947E050C947E050C947E0534
:100040000C94CD1D0C947E050C947E050C947E05BD
:100050000C947E050C947E050C947E050C947E0514
:100060000C94D31E0C947E0505A84CCDB2D44EB989
:100070003836A9020C50B9918688083CA6AAAA2A4B
:10008000BE000000803F00000000003E5B4F5B3E72
:100090003E6B4F6B3E1C3E7C3E1C183C7E3C181C4D
:1000A000577D571C1C5E7F5E1C00183C1800FFE744
:1000B000C3E7FF0018241800FFE7DBE7FF30483AEA
:1000C000060E2629792926407F050507407F05254C
:1000D0003F5A3CE73C5A7F3E1C1C08081C1C3E7FD4
:1000E00014227F22145F5F005F5F06097F017F009B
:1000F0006689956A606060606094A2FFA2940804BB
:100100007E040810207E201008082A1C08081C2ADB
:1001100008081E101010100C1E0C1E0C30383E3833
:1001200030060E3E0E06000000000000005F0000DA
:100130000007000700147F147F14242A7F2A12234B
:100140001308646236495620500008070300001C5B
:100150002241000041221C002A1C7F1C2A08083E64
:100160000808008070300008080808080000606077
:100170000020100804023E5149453E00427F4000E5
:1001800072494949462141494D331814127F1027BD
:10019000454545393C4A494931412111090736490C
:1001A000494936464949291E0000140000004034E0
:1001B00000000008142241141414141400412214E5
:1001C0000802015909063E415D594E7C1211127C0C
:1001D0007F494949363E414141227F4141413E7F6D
:1001E000494949417F090909013E414151737F084D
:1001F00008087F00417F41002040413F017F0814F3
:1002000022417F404040407F021C027F7F04081053
:100210007F3E4141413E7F090909063E4151215E31
:100220007F09192946264949493203017F01033FC5
:100230004040403F1F2040201F3F4038403F631454
:1002400008146303047804036159494D43007F4156
:1002500041410204081020004141417F0402010293
:1002600004404040404000030708002054547840B8
:100270007F284444383844444428384444287F384C
:100280005454541800087E090218A4A49C787F08CE
:1002900004047800447D40002040403D007F102849
:1002A000440000417F40007C047804787C0804040A
:1002B000783844444438FC1824241818242418FCA2
:1002C0007C08040408485454542404043F44243C47
:1002D0004040207C1C2040201C3C4030403C4428B6
:1002E0001028444C9090907C4464544C4400083650
:1002F00041000000770000004136080002010204BE
:10030000023C2623263C1EA1A161123A4040207ADD
:100310003854545559215555794122545478422125
:100320005554784020545579400C1E52721239555C
:100330005555593954545459395554545800004559
:100340007C410002457D420001457C407D12111236
:100350007DF0282528F07C545545002054547C54C9
:100360007C0A097F4932494949323A4444443A3285
:100370004A4848303A4141217A3A42402078009D2B
:10038000A0A07D3D4242423D3D4040403D3C24FFD7
:100390002424487E4943662B2FFC2F2BFF0929F686
:1003A00020C0887E090320545479410000447D41D7
:1003B0003048484A32384040227A007A0A0A727D30
:1003C0000D19317D2629292F28262929292630484B
:1003D0004D4020380808080808080808382F10C8B9
:1003E000ACBA2F102834FA00007B000008142A143D
:1003F0002222142A14085500550055AA55AA55AAB8
:10040000FF55FF55FF000000FF00101010FF001403
:100410001414FF001010FF00FF1010F010F014145F
:1004200014FC001414F700FF0000FF00FF1414F484
:1004300004FC141417101F10101F101F1414141F85
:1004400000101010F0000000001F101010101F10FE
:10045000101010F010000000FF10101010101010FD
:100460001010FF10000000FF140000FF00FF00004C
:100470001F10170000FC04F414141710171414F4C0
:1004800004F40000FF00F714141414141414F700FB
:10049000F7141414171410101F101F141414F4144C
:1004A0001010F010F000001F101F0000001F1400BB
:1004B0000000FC140000F010F01010FF10FF1414E6
:1004C00014FF141010101F00000000F010FFFFFFB9
:1004D000FFFFF0F0F0F0F0FFFFFF0000000000FF72
:1004E000FF0F0F0F0F0F3844443844FC4A4A4A3478
:1004F0007E02020606027E027E026355494163388F
:1005000044443C04407E201E2006027E020299A53F
:10051000E7A5991C2A492A1C4C7201724C304A4D9D
:100520004D303048784830BC625A463D3E494949D2
:10053000007E0101017E2A2A2A2A2A44445F44447B
:1005400040514A444040444A51400000FF0103E00A
:1005500080FF000008086B6B083612362436060F41
:10056000090F06000018180000001010003040FFAE
:100570000101001F01011E00191D1712003C3C3C27
:100580003C0000000000000103070F1F3F7F0080B8
:10059000C0E0F0F8FCFE00000008000201000003CB
:1005A000040700000000000000000000000024001C
:1005B00027002A00DB40A4A62EAF2000A1C8D3004C
:1005C000408DAED580A800000000250028002B003B
:1005D00000006000000000000000000000000000BB
:1005E00000E000000000000000000000000000012A
:1005F000E00000000000000000000000000001F02A
:100600000000000000000000000000000003F000F7
:1006100000000000000000000000000007F00000E3
:10062000000000000000000000000007F8000000CB
:10063000000000000000000000000FF800000003B0
:10064000C0007E000001E0007F0FF800000003C042
:1006500000FE000001E000FFEFF800000003C00012
:10066000FE000001E000FFFFF800000003C000F002
:100670000000000F007FFE7FC0000003C000F000FC
:1006800000000F003FFE7FF83FF1FBCFFCFEF3BC04
:100690003DEFE01FFE7FFF7FFBFFDFFEFEFFBC3D67
:1006A000EFE01FC6FFFF7FFBFFDFFEFEFFBC3DEF5D
:1006B000E00FE3C7FE787BC3DE1EF0FFBC3DEF001A
:1006C00007FF87FC787BC3DE1EF0F83C3DEF00019E
:1006D000FFFFF0007BC3C01EF0F03C3DEF0001F3D4
:1006E0007FE03FFBC3CFFEF0F03C3DEF0003E33F74
:1006F000807FFBC3DFFEF0F03C3DEF0007E73C00EE
:10070000787BC3DE1EF0F03C3DEF0007FFBE0078B3
:100710007BC3DE1EF0F03C3DEF0007FFFE00787B60
:10072000C3DE1EF0F03C3DEF000FFFFE007FFBFF3D
:10073000DFFEF0F03FFDEFE00FFFFF007FFBFFDF8C
:10074000FEF0F03FFDEFE00FF9FF003E79F9CF9E9C
:10075000F0F01F3DE7E01FF1FF0000000000000087
:1007600000000000001F80FF007FFFFFFFFFFFFF72
:10077000FFFFFFE01C007F007FFFFFFFFEB46D88DE
:100780008D18E000001F007FFFFFFFFE95AD7DB5D7
:1007900077E000000F007FFFFFFFFEA5AD9D8D19E4
:1007A000E0000006007FFFFFFFFEB5ADEDB57EE087
:1007B00000000000000180000000000000000000B8
:1007C000038000000000000000000007C0000000DF
:1007D00000000000000007C0000000000000000052
:1007E000000FC00000000000000000001FE000003B
:1007F000000000000000001FE000000000000000FA
:1008000000003FE00000000000000000003FF0009A
:1008100000000000000000007FF000000000000069
:10082000001FF87FF0000000000000003FFE7FF096
:10083000000000000000003FFF7FF000000000000B
:1008400000001FFFFBE0000000000000000FFFF9A8
:10085000FFC00000000000000FFFF9FFF8000000DB
:1008600000000007FFF1FFFF00000000000003FC94
:1008700073FFFF80000000000001FE3FFFFF8000CB
:100880000000000000FF1E0FFF000000000000003D
:100890007FFE1FFC000000000000003FFFFFF8008B
:1008A0000000000000000FDFFFE00000000000007B
:1008B000001F19FFC0000000000000003F3CFF00C7
:1008C000000000000000007E7CF800000000000036
:1008D00000007FFE7C0000000000000000FFFFFC25
:1008E0000000000000000000FFFFFE00000000000C
:1008F000000000FFFFFE0000000000000001FFEF0D
:10090000FE0000000000000001FFCFFE000000001C
:1009100000000003FF07FE0000000000000003FCD1
:1009200007FE0000000000000003F003FE000000CE
:1009300000000000018000FE000000000000000038
:1009400000007E000000000000000000003E0000EB
:1009500000000000000000000C0000000000000784
:100960008000FC000003C0000000078001FC0000C4
:1009700003C0000000078001FC000003C00000006D
:10098000078001E00000001E000000078001E00079
:1009900000001E007FE3F79FF9FDE7787BDFC0FFD3
:1009A000F7FFBFFDFDFF787BDFC0FFF7FFBFFDFD59
:1009B000FF787BDFC0F0F787BC3DE1FF787BDE008E
:1009C000F0F787BC3DE1F0787BDE0000F787803DE3
:1009D000E1E0787BDE007FF7879FFDE1E0787BDE5A
:1009E00000FFF787BFFDE1E0787BDE00F0F787BC12
:1009F0003DE1E0787BDE00F0F787BC3DE1E0787B0D
:100A0000DE00F0F787BC3DE1E0787BDE00FFF7FF1A
:100A1000BFFDE1E07FFBDFC0FFF7FFBFFDE1E07F4F
:100A2000FBDFC07CF3F39F3DE1E03E7BCFC00000E5
:100A3000000000000000000000FFFFFFFFFFFFFFBD
:100A4000FFFFFFC0FFFFFFFFFD68DB111A31C0FF92
:100A5000FFFFFFFD2B5AFB6AEFC0FFFFFFFFFD4BBF
:100A60005B3B1A33C0FFFFFFFFFD6B5BDB6AFDC022
:100A700000000000230026002900040404040404EC
:100A8000040402020202020203030303030301023D
:100A9000040810204080010204081020010204080C
:100AA00010202200FF2100003720442411241FBE03
:100AB000CFEFD8E0DEBFCDBF11E0A0E0B1E0ECE0C9
:100AC000F2E502C005900D92A038B107D9F722E0F7
:100AD000A0E8B1E001C01D92AF3EB207E1F715E01A
:100AE000C5E5D5E004C02197FE010E94C227C435A8
:100AF000D107C9F70E94E8200C94F9280C94000053
:100B0000089508950895AF92BF92CF92DF92EF9229
:100B1000FF920F931F93CF93DF936C017B018B01A7
:100B2000040F151FEB015E01AE18BF08C017D107F7
:100B300059F06991D601ED91FC910190F081E02D81
:100B4000C6010995892B79F7C501DF91CF911F91D6
:100B50000F91FF90EF90DF90CF90BF90AF900895EE
:100B6000833081F028F4813099F08230A9F0089523
:100B70008730A9F08830C9F08430B1F480918000CA
:100B80008F7D03C0809180008F77809380000895CF
:100B900084B58F7784BD089584B58F7DFBCF809118
:100BA000B0008F778093B00008958091B0008F7D62
:100BB000F9CFCF93DF93282F30E0F901EA56FA4FAF
:100BC0008491F901E257F54FD491F901E658F54FB8
:100BD000C491CC23A1F081110E94B005EC2FF0E06C
:100BE000EE0FFF1FE059F54FA591B491EC91ED2365
:100BF00081E090E009F480E0DF91CF91089580E0FA
:100C000090E0FACF1F93CF93DF93282F30E0F901C4
:100C1000EA56FA4F8491F901E257F54FD491F90160
:100C2000E658F54FC491CC23A9F0162F81110E94EC
:100C3000B005EC2FF0E0EE0FFF1FEA53FA4FA5913D
:100C4000B4918FB7F894EC91111108C0D095DE23C0
:100C5000DC938FBFDF91CF911F910895DE2BF8CFEA
:100C6000CF93DF9390E0FC01E257F54F2491865833
:100C7000954FFC0184918823D1F090E0880F991F53
:100C8000FC01E655FA4FA591B491FC01EA53FA4FE5
:100C9000C591D49161110EC09FB7F8948C91E22F49
:100CA000E0958E238C932881E223E8839FBFDF9118
:100CB000CF9108958FB7F894EC91E22BEC938FBF0E
:100CC000F6CF3FB7F8948091540290915502A091CD
:100CD0005602B091570226B5A89B05C02F3F19F0C8
:100CE0000196A11DB11D3FBFBA2FA92F982F8827AC
:100CF000BC01CD01620F711D811D911D42E0660F87
:100D0000771F881F991F4A95D1F708958F929F9258
:100D1000AF92BF92CF92DF92EF92FF924B015C01B4
:100D20000E9461066B017C010E9461066C197D09BD
:100D30008E099F09683E734081059105A8F321E063
:100D4000821A9108A108B10888EEC80E83E0D81E67
:100D5000E11CF11C81149104A104B10429F7FF9056
:100D6000EF90DF90CF90BF90AF909F908F900895BD
:100D7000EF92FF920F931F93CF93DF93EC01EC80E0
:100D8000FD806E157F050CF070C057FF04C0240F66
:100D9000351F50E040E08E819F81FA01E20FF31F82
:100DA0008E179F071CF49C01241B350B121613068B
:100DB0000CF05BC0922F842F8695869586958E9D2C
:100DC000D0018F9DB00D11246A0F7B1FAF8DB8A18C
:100DD000A60FB71F477049F188E0841B482F682F82
:100DE00070E0FB01E257FA4FE491281708F063C066
:100DF000621B71092FEF30E002C0359527956A9587
:100E0000E2F7E2230130110539F0B0F102301105AB
:100E100061F58C91E82702C08C91E82BEC93941734
:100E200020F12C813D81A20FB31FE92FE41BE83094
:100E300078F00230110521F58E2F9C9190959C93AE
:100E40002C813D81A20FB31F88508830B0F7E77026
:100E5000EE2359F0F0E0EA57FA4FE4910130110522
:100E6000F9F010F10230110519F1DF91CF911F91C6
:100E70000F91FF90EF900895E0958C91E823CECFED
:100E800081E00115110509F480E081959E2F8C9376
:100E90002C813D81A20FB31F98509830C0F7D7CF57
:100EA0008C91E82BEC93E1CFE0958C91E823FACF7D
:100EB0008C91E827F7CF0130110509F4ADCFE0F2AE
:100EC0000230110509F4A5CFAE0DBF1DAECF0F93B3
:100ED0001F93CF93DF9377FF04C0260F371F70E077
:100EE00060E0DC011496CD91DC91FB01E20FF31F71
:100EF000CE17DF071CF49E01261B370B12161306B4
:100F00004CF5FA0157FD3796A3E0F595E795AA95BC
:100F1000E1F7EC9FD001ED9FB00DFC9FB00D1124C7
:100F20006A0F7B1FDC015F96ED91FC91E60FF71FC6
:100F30004770552781E090E001C0880F4A95EAF795
:100F4000482F0130110559F0A8F02E0F3F1F023035
:100F50001105E1F0DF91CF911F910F9108952E0FB0
:100F60003F1FE217F307B1F38191DF011197842B43
:100F70008C93F7CF80952E0F3F1FE217F30751F3A5
:100F80009191DF01119798239C93F7CFE217F30714
:100F900009F38191DF01119784278C93F7CF0F9389
:100FA0001F93FA01DC0156964C9156974230E9F0B6
:100FB0004330A1F1413061F514964D915C91DA0115
:100FC000AE1BBF0BFD01E21BF30B77FD0BC0DC0179
:100FD00016964D915C916417750724F4AB01BF011F
:100FE0000E9467071F910F91089514964D915C918F
:100FF000DA01A61BB70BBD0161507109DC01169621
:101000004D915C91DA01AE1BBF0BFD01E21BF30BAE
:1010100077FDE8CFAF010E94B806E4CF16964D9158
:101020005C91DA01A61BB70BBD0161507109CDCFF0
:101030000F931F93FA01DC0156964C91569742305C
:10104000A9F0433091F1413019F514964D915C911E
:10105000DA01AE1BBF0BFD013197F7FD04C0AB01F8
:10106000BF010E94B8061F910F91089514964D91EB
:101070005C91DA01A61BB70BBD01DC0116964D9100
:101080005C91DA01AE1BBF0BFD013197621B730B44
:10109000F7FDE9CFDC0116964D915C91E417F50759
:1010A00014F7AF010E946707DECF16964D915C9151
:1010B000DA01A61BB70BBD01621B730BCECFFC017F
:1010C00077FD64C080859185681779070CF05EC054
:1010D00057FD5CC082859385481759070CF056C0B0
:1010E00086898230B1F0833029F1813041F48481E6
:1010F0009581841B950BAB01BC01615071092130B6
:10110000310509F108F443C02230310509F463C008
:10111000089584819581DC01A61BB70BBD01615048
:10112000710986819781DC01A41BB50BAD0141508B
:101130005109E5CF86819781861B970BBA01AC01D7
:1011400041505109DCCFCA0157FD0796A3E09595A0
:101150008795AA95E1F7A481B5818A9F90018B9F1D
:10116000300D9A9F300D1124620F731F078CF0A170
:10117000E02DE60FF71F4770552721E030E001C052
:10118000220F4A95EAF78081822B80830895CA0155
:1011900057FD079633E0959587953A95E1F7A48139
:1011A000B5818A9F90018B9F300D9A9F300D11243D
:1011B000620F731F078CF0A1E02DE60FF71F477039
:1011C000552781E090E001C0880F4A95EAF78095A5
:1011D00090818923DACFCA0157FD079623E09595C0
:1011E00087952A95E1F7A481B5818A9F90018B9F0D
:1011F000300D9A9F300D1124620F731F078CF0A1E0
:10120000E02DE60FF71F4770552721E030E001C0C1
:10121000220F4A95EAF780818227B7CF08958EBDC5
:1012200000000DB407FEFDCF8EB508958CBD9DBDA9
:1012300008950895FC016370668B848195812681F1
:101240003781613039F0633029F0918780873387A7
:1012500022870895318720879387828708952F9268
:101260003F924F925F926F927F928F929F92AF9236
:10127000BF92CF92DF92EF92FF920F931F93CF9383
:10128000DF93CDB7DEB76A970FB6F894DEBF0FBE17
:10129000CDBF9A8F898F7A8369834A01D22E1887AE
:1012A0000F833701BC2CDC0159962D913C915A9744
:1012B0002115310509F015C118968D919C9119974A
:1012C000681779070CF0D7C11A968D919C91481731
:1012D00059070CF0D0C14C2C512CB6E0CB9E600DC0
:1012E000711D11247C876B87161617060CF0C3C17D
:1012F000EA2DF0E0FA87E98793E0EE0FFF1F9A9559
:10130000E1F7F88BEF87CF01840F951F18161906A8
:101310000CF0B1C1A98DBA8D58968C91811104C081
:10132000BFEABD1508F4D394A98DBA8DED91FC9157
:1013300011970284F385E02DCD010995B5E0DB9E80
:10134000C0011124E981FA81FC83EB83312C212C2B
:101350009C012A573F4F388F2F8B4A2D50E05E8BD0
:101360004D8BEF89F88DE20DF31D44919E828D82A5
:10137000D12CC12C69817A81620D731D7A8B698BA6
:10138000842F90E09C8B8B8BE98DFA8DA081B181AD
:1013900040FF82C0F1E0BF126FC0AF126DC01C965B
:1013A000ED91FC912F813885A4014C0D5D1D69895B
:1013B0007A89898D9A8D0995EB89FC89F595E79550
:1013C0004E2F5FEFC51AD50A6D817E818D899E896A
:1013D000680F791F7E836D8398E0C916D10481F66A
:1013E000AFEF2A1A3A0AEB81FC81E40DF51DFC836C
:1013F000EB83F5E02F16310409F0B3CF2F81388548
:1014000026153705B9F0A98DBA8DED91FC91B1E0A3
:10141000BB1257C0AB1255C069817A816B5F7F4F99
:101420000088F189E02D830128E030E0A401898D56
:101430009A8D0995A98DBA8DED91FC911197068829
:10144000F789E02DCD016A960FB6F894DEBF0FBE86
:10145000CDBFDF91CF911F910F91FF90EF90DF9063
:10146000CF90BF90AF909F908F907F906F905F9044
:101470004F903F902F9009941E96ED91FC91EF8034
:10148000F88409851A8592014D815E816B817C818A
:10149000898D9A8D099590CF2F813885261537052E
:1014A00009F48ACF31E0B31207C0A31205C01C961D
:1014B000ED91FC91930178CF1E96ED91FC91730113
:1014C000E0CF6B857C85641975090684F785E02D6E
:1014D00073010F8518899201A401898D9A8D099550
:1014E000A9CFF90134969491329745915491D91A24
:1014F000B7E0DB9E400D511D1124F9012591349177
:101500003C8B2B8BFA0125903490FA013296749023
:1015100031963491398B329664903196449041E003
:101520004C1518F04A1508F07FC0662D062C000CEB
:10153000770B7C836B83842D042C000C990B9E838A
:101540008D83A98DBA8DED91FC9111970284F3855D
:10155000E02DCD010995512CD12CC12CEA2DF0E0C4
:10156000FA87E9872B2D30E03C872B87A401440DB7
:10157000511D47FC5A95588F4F8B69817A81660DB2
:10158000711D67FC7A957E876D877989C71608F08B
:1015900051CF2C2D30E04D815E81420F531FA98524
:1015A000BA854A9FC0014B9F900D5A9F900D112400
:1015B000FC01E80DF91DF88BEF87852D612C4F8913
:1015C000588D420F531F5E8B4D8B671408F050C02F
:1015D00044244394480E877041F4C1010196EB897D
:1015E000FC89E20DF31DD4901C01D7FE19C0A98D12
:1015F000BA8DED91FC91662D70E0B1E0BB1219C07F
:10160000AB1217C02D853E85620F731F0484F585CC
:10161000E02D2F8138854D895E89898D9A8D0995B8
:10162000DD0C6394842DD1CF1E821D821C821B820F
:1016300088CF4B815C81640F751FAB85BC856A9F29
:10164000C0016B9F900D7A9F900D112469817A8162
:10165000680F791F0684F785E02DEF80F8840985EF
:101660001A859D014F855889898D9A8D0995D8CF06
:10167000570CC3948ACF6A960FB6F894DEBF0FBE9C
:10168000CDBFDF91CF911F910F91FF90EF90DF9031
:10169000CF90BF90AF909F908F907F906F905F9012
:1016A0004F903F902F9008958F929F92AF92CF923C
:1016B000EF92FF920F931F93CF93DF93EC01262FAE
:1016C000898D9A8D009709F051C06A30D1F41D863A
:1016D0001C868D8948E0849F900111248E859F850A
:1016E000820F931F9F878E8781E090E0DF91CF91DB
:1016F0001F910F91FF90EF90CF90AF909F908F90A0
:1017000008956D3089F3CC88AD888F898823C1F026
:101710008C859D8536E0C39E800D911D11244885E2
:1017200059854817590764F44E855F851D861C86C8
:1017300038E0A39EC0011124840F951F9F878E87D8
:10174000EA88FB88088919894E855F856C857D85C7
:10175000CE010E942F092C898C859D8546E0249F0F
:10176000800D911D11249D878C87BECF6A3069F44E
:101770001D861C86FC013896E4912D898E859F85F7
:10178000E29F800D911D1124ADCF6D3009F4ACCFD7
:10179000FC0134963491631708F4A6CF3296E49195
:1017A000E61708F4A1CFFC01329685909490462F5D
:1017B000431B342F47E0349F800C911C1124F4010B
:1017C000329634913196E4913323A9F1EE2399F1C5
:1017D000CC88F4013596E491AD884F89442301F11A
:1017E0000E2E000CFF0BE30FF11DCE9EA001CF9E2D
:1017F000500D11246C857D85460F571F68857985AE
:10180000641775076CF44E855F851D861C86FC0188
:101810003896E491AE9E400D511D11245F874E878E
:10182000EA88FB88088919894E855F856C857D85E6
:10183000CE010E942F09F4013496E4912C898C8505
:101840009D85E29F800D911D11248DCF6F927F9217
:101850008F929F92AF92BF92CF92DF92EF92FF92C0
:101860000F931F93CF93DF93EC016B015A01390162
:101870004801E881F9810284F385E02D0995E8812A
:10188000F9810288F389E02D87019301A501B60152
:10189000CE010995A501480D591D41505109E88116
:1018A000F9810288F389E02D9301B601CE010995F3
:1018B000E881F9810088F189E02D9401A501B60144
:1018C000CE010995C60CD71CB60161507109E8819B
:1018D000F9810088F189E02D9401A501CE010995D7
:1018E000E881F9810688F789E02DCE01DF91CF915B
:1018F0001F910F91FF90EF90DF90CF90BF90AF902E
:101900009F908F907F906F9009946F927F928F92AB
:101910009F92AF92BF92CF92DF92EF92FF920F937E
:101920001F93CF93DF935C01EB016A0149013801FA
:101930008701DC01ED91FC916217730719F56416BC
:1019400075062CF0962D872D3A01C92ED82E9601BA
:10195000261937092F5F3F4F048CF58DE02DA30129
:10196000BE01C5010995DF91CF911F910F91FF90A5
:10197000EF90DF90CF90BF90AF909F908F907F902F
:101980006F9008954615570591F42617370724F0F0
:10199000892D4B01C22FD82F9E01281939092F5F9D
:1019A0003F4F068CF78DE02DA601B401DACF0284FB
:1019B000F385E02D0995D501ED91FC910488F58919
:1019C000E02D83019401A601BE01C5010995D50151
:1019D000ED91FC910688F789E02DC501DF91CF914B
:1019E0001F910F91FF90EF90DF90CF90BF90AF903D
:1019F0009F908F907F906F900994EF92FF920F933A
:101A00001F93DC011A960D911C911B9718962D912E
:101A10003C911997ED91FC9100A0F1A1E02D7B0183
:101A200050E040E070E060E009951F910F91FF9059
:101A3000EF9008954F925F926F927F928F929F9254
:101A4000AF92BF92CF92DF92EF92FF920F931F93CC
:101A5000CF93DF936C012B015A0139014801DC015E
:101A6000ED91FC910284F385E02D0995E201640C6F
:101A7000751CD601ED91FC91C615D7055CF4008864
:101A8000F189E02D87019401A501BE01C6010995E8
:101A90002196EFCF0688F789E02DC601DF91CF911F
:101AA0001F910F91FF90EF90DF90CF90BF90AF907C
:101AB0009F908F907F906F905F904F9009948F923E
:101AC0009F92AF92BF92CF92DF92EF92FF920F93CD
:101AD0001F93CF93DF93EC015B014A016901E88119
:101AE000F9810284F385E02D099595012C0D3D1DAA
:101AF00021503109E881F9810488F589E02D7801C8
:101B00008401A401B501CE010995E881F981068817
:101B1000F789E02DCE01DF91CF911F910F91FF90BA
:101B2000EF90DF90CF90BF90AF909F908F900994EF
:101B30008F929F92AF92BF92CF92DF92EF92FF92DD
:101B40000F931F93CF93DF93EC015B014A0169016F
:101B50007801E881F9810284F385E02D0995C80CAC
:101B6000D91C860101501109E881F9810488F589A1
:101B7000E02D9501A401B501CE010995E881F98117
:101B80000688F789E02DCE01DF91CF911F910F914B
:101B9000FF90EF90DF90CF90BF90AF909F908F908D
:101BA0000994EF92FF920F931F93DC01ED91FC914A
:101BB00000A0F1A1E02D09951F910F91FF90EF90EA
:101BC00008950F931F93DC01ED91FC91068CF78D26
:101BD000E02D09951F910F9108950F931F93DC013C
:101BE000ED91FC91048CF58DE02D09951F910F91DD
:101BF0000895AF92BF92CF92DF92EF92FF920F9330
:101C00001F93CF93DF93EC017B015B0182E0A81A65
:101C1000B1088A0125E030E0A501BE018DE992E01E
:101C20000E94ED0DBE016F5F7F4F25E030E0A50102
:101C30008DE992E00E94ED0DBE016150710925E031
:101C400030E0A5018DE992E00E94ED0D81E0E81AF7
:101C5000F108BE016E5F7F4F23E030E0A7018DE900
:101C600092E00E94ED0DBE016250710923E030E068
:101C7000A7018DE992E00E94ED0DDF91CF911F91B8
:101C80000F91FF90EF90DF90CF90BF90AF900895AD
:101C9000DC01ED91FC910084F185E02D09943F92E7
:101CA0004F925F926F927F928F929F92AF92BF926C
:101CB000CF92DF92EF92FF920F931F93CF93DF9318
:101CC0005C017B014A016901390187E0680E711CE2
:101CD00093E0759467949A95E1F72B01400E511E9D
:101CE00010E000E0312CD0E0C0E0CE0187709927F1
:101CF000330C892B59F4FE0183E0F595E7958A951D
:101D0000E1F7E00FF11FE80DF91D349037FE0AC02E
:101D100021E030E0A701B5016C0F7D1F8DE992E055
:101D20000E94480E2196CC16DD06F9F68FEFE81AD0
:101D3000F80A060D171DE414F504A9F6DF91CF91FA
:101D40001F910F91FF90EF90DF90CF90BF90AF90D9
:101D50009F908F907F906F905F904F903F900895ED
:101D60002F923F924F925F926F927F928F929F92AB
:101D7000AF92BF92CF92DF92EF92FF920F931F9399
:101D8000CF93DF9300D000D0CDB7DEB77C018B01BD
:101D90005C834B8381E090E05C01A41AB50A1A01D0
:101DA000319421943108220C331C460F571F21E037
:101DB00030E0B7018DE992E00E94480EA8012B8126
:101DC0003C81421B530B21E030E0B7018DE992E0EA
:101DD0000E94480E6B817C816E0D7F1D21E030E0FA
:101DE000A8018DE992E00E94480EB7018B819C8189
:101DF000681B790B21E030E0A8018DE992E00E9498
:101E0000480ED12CC12C21E030E03A8329838B810C
:101E10009C81C816D9060CF073C0B7FC08C00197A6
:101E20009C838B8392E0290E311CA20CB31C2FEFF4
:101E3000C21AD20A89819A8102969A838983A80E4E
:101E4000B91E37016C0C7D1C21E030E08B809C803A
:101E5000800E911EA401B3018DE992E00E94480E0C
:101E600027014C185D0821E030E0A401B2018DE9A2
:101E700092E00E94480E21E030E048018B819C8175
:101E8000881A990AA401B3018DE992E00E94480ED4
:101E900021E030E0A401B2018DE992E00E94480EF9
:101EA0004601800E911E21E030E0A4016B807C8011
:101EB0006E0C7F1CB3018DE992E00E94480E21E078
:101EC00030E0A40127018B819C81481A590AB20194
:101ED0008DE992E00E94480E48018C189D0821E08F
:101EE00030E0A401B3018DE992E00E94480E21E0A8
:101EF00030E0A401B2018DE992E00E94480E87CF44
:101F00000F900F900F900F90DF91CF911F910F9135
:101F1000FF90EF90DF90CF90BF90AF909F908F9009
:101F20007F906F905F904F903F902F9008952F92E9
:101F30003F924F925F926F927F928F929F92AF9259
:101F4000BF92CF92DF92EF92FF920F931F93CF93A6
:101F5000DF9300D000D000D0CDB7DEB73C016A01DE
:101F60003E832D83FC82EB825801A41AB50AB7FE8A
:101F700003C0B194A194B1088D809E80861A970AFF
:101F800097FE03C09194819491088A149B045CF09D
:101F9000902F812F0D811E819D838E839C2D8D2DF1
:101FA0006B01692F782F0C151D055CF09D818E81CA
:101FB0007E836D83692F782F902F812F8601C92E04
:101FC000D82E1601201A310A2B012D813E81421A8A
:101FD000530A57FE03C0519441945108710137FED2
:101FE00003C03FEFE31AF30AF594E7948D819E81D5
:101FF000861797075CF5A1E0B0E0BA83A983C01605
:10200000D1064CF1D301ED91FC910484F585E02DCE
:102010002B813C81A8016D817E818A149B041CF078
:102020004D815E81B801C3010995E418F508F7FEFA
:102030000AC02D813E8189819A81280F391F3E83F4
:102040002D83E20CF31C0F5F1F4FD9CF2FEF3FEF13
:102050003A832983D4CF26960FB6F894DEBF0FBEFD
:10206000CDBFDF91CF911F910F91FF90EF90DF9047
:10207000CF90BF90AF909F908F907F906F905F9028
:102080004F903F902F900895089520910802260FB9
:102090003327331F21323105ECF420912C02FC014F
:1020A00090E080E0243069F082E00895A091080279
:1020B0002191AC0148515E4FA40FB52FB11D2C9357
:1020C0000196861798F380910802680F60930802C2
:1020D00080E0089581E0089510922C0281E08093C1
:1020E0002E0210922D0261E082E10E94020661E060
:1020F00083E10E940206E9EBF0E080818E7F80831D
:1021000080818D7F808388E48093B80085E480930C
:10211000BC000895CF93DF9391E09093E70188236B
:10212000B9F0C091B800D091BA008091BC008A7B10
:102130008093BC0060E082E10E94020660E083E1DF
:102140000E9402060E946C10D093BA00C093B8009F
:10215000DF91CF910895E0915E0280915D02E817D2
:1021600030F4F0E0EE53FE4F808190E008958FEF61
:102170009FEF089590915E0280915D022FEF3FEFF7
:10218000981748F4E92FF0E0EE53FE4F208130E03D
:102190009F5F90935E02C901089580915D029091C6
:1021A0005E02891B990B0895CF92DF92EF92FF9206
:1021B0000F931F93CF93DF937C01CB018A01209172
:1021C0006802222389F0EB016B01C40ED51ECC15E9
:1021D000DD0569F06991D701ED91FC910190F081E5
:1021E000E02DC7010995F3CF642F0E944510C80167
:1021F000DF91CF911F910F91FF90EF90DF90CF90E3
:102200000895CF93DF931F92CDB7DEB769832091F6
:1022100068022223F9F020916502203258F021E073
:1022200030E0FC013383228390E080E00F90DF9167
:10223000CF91089580916602E82FF0E0EE55FE4FB1
:10224000998190838F5F809366028093650281E01D
:1022500090E0ECCF61E0CE0101960E944510F7CFEF
:10226000CF92DF92EF92FF920F931F93CF93DF9362
:10227000D091650281E0D13208F09CC0C091670224
:102280000E9461066B017C0180912C0281116CC05F
:1022900082E080932C0281E080932E028FEF809366
:1022A0002B0210925002D0934F02A2EAB1E0EFE26B
:1022B000F2E080E0D8138DC010925102809151025B
:1022C000CC0FC82BC093510280912D02813009F0B0
:1022D00084C010922D020E9461066B017C018091E6
:1022E00051028093BB008091E3019091E401A091A1
:1022F000E501B091E601892B8A2B8B2BA1F00E947E
:1023000061060091E3011091E4012091E501309113
:10231000E6016C197D098E099F0906171707280722
:10232000390708F442C08091BC0083FDD8CF85EC0A
:102330008093BC000E9461066B017C0180912C029D
:10234000823009F44CC080912B028F3F09F469C0A0
:1023500080912B02803209F466C080912B02803379
:1023600009F463C084E026C08091E3019091E40108
:10237000A091E501B091E601892B8A2B8B2B09F402
:1023800083CF0E9461060091E3011091E401209146
:10239000E5013091E6016C197D098E099F09061748
:1023A00017072807390708F06FCF8091E2010E94D4
:1023B0008A1085E0109266021092650210926802FF
:1023C000DF91CF911F910F91FF90EF90DF90CF9011
:1023D00008959D9191938F5F6DCF85EEA9CF8091E8
:1023E000E3019091E401A091E501B091E601892B10
:1023F0008A2B8B2B09F4A2CF0E9461060091E30186
:102400001091E4012091E5013091E6016C197D09FC
:102410008E099F09061717072807390708F08ECF7E
:10242000C4CF80E0C7CF82E0C5CF83E0C3CFEF92B7
:10243000FF920F931F93CF93DF937C01C62F809160
:10244000BA029091BB02009709F459C02091BE02D4
:1024500031E0309368022093670210926602109276
:102460006502DC01ED91FC910190F081E02D60E0CE
:1024700009958701EE24E394F12CD1E0C1508091BD
:10248000BA029091BB02CF3F91F1B0E2EB16F1049A
:10249000D8F00E9430118091BA029091BB02209135
:1024A000BE02D093680220936702109266021092D7
:1024B0006502DC01ED91FC910190F081E02D60E07E
:1024C0000995EE24E394F12C8091BA029091BB021D
:1024D000F8016491DC01ED91FC910190F081E02D17
:1024E0000995BFEFEB1AFB0A0F5F1F4FC7CFDF91B4
:1024F000CF911F910F91FF90EF900C943011E091CC
:10250000CA02F091CB0290818091D00280958923FC
:1025100080838701C15008F438C0F801849120916C
:10252000B8023091B902232B29F00E940F090F5FE6
:102530001F4FF0CF28E030E040E8E091C602F09174
:10254000C7029091CE02582F5423D9F05081952B79
:102550009083E091C802F091C90290815091CF021E
:10256000952B9083E091C802F091C902508190911F
:10257000CF02909595239083469521503109E9F635
:10258000D6CF508190959523E3CFDF91CF911F91C6
:102590000F91FF90EF9008951F93CF93DF93EC017D
:1025A0008D8D9E8D009721F1162F29A131E030935A
:1025B0006802209367021092660210926502DC01A5
:1025C000ED91FC910190F081E02D60E009958D8DF9
:1025D0009E8DDC01ED91FC910190F081E02D612F49
:1025E00009958D8D9E8DDF91CF911F910C943011A7
:1025F000ADA5BEA59C918BA9809589238C938B8DCD
:102600009C8D892B31F0862FDF91CF911F910C94F7
:102610000F0928E030E080E8A9A5BAA599A9462FBE
:102620004823C1F04C91942B9C93ABA5BCA59C91E5
:102630004AA9942B9C93ABA5BCA54C919AA99095C3
:1026400094239C9386952150310931F7DF91CF91E6
:102650001F9108954C9190959423E6CFDF92EF92CD
:10266000FF920F931F93CF93DF938091BA029091C3
:10267000BB02892B09F498C02091D2023091D30279
:102680004091D4025091D50260E074E284EF90E072
:102690000E948524205131094109510956954795D9
:1026A000379527952093B80065E082EA9AE00E946A
:1026B00017126091A10261508DE992E00E94CC1244
:1026C0002091A3023091A402C901079697FD0796B5
:1026D00033E0959587953A95E1F72091A1023091E5
:1026E000A202829F8001839F100D929F100D1124E2
:1026F000C091BC02D091BD028091BA029091BB0200
:102700000C0F1D1F009709F48FC02091BE0231E00D
:10271000309368022093670210926602109265025D
:10272000DC01ED91FC910190F081E02D60E40995D0
:10273000EE24E394F12CDD24D3948091BA0290919D
:10274000BB020C171D0709F446C0B0E2EB16F104FA
:10275000D8F00E9430118091BA029091BB02209172
:10276000BE02D09268022093670210926602109215
:102770006502DC01ED91FC910190F081E02D60E4B7
:102780000995EE24E394F12C8091BA029091BB025A
:102790006991DC01ED91FC910190F081E02D0995AA
:1027A000BFEFEB1AFB0AC9CF8091B8029091B90232
:1027B000892B31F08091DB029091DC020E94160996
:1027C000E091CC02F091CD0290818091D102809570
:1027D0008923808369CF0E9430118091BA02909141
:1027E000BB02892B09F461C02091D6023091D70237
:1027F0004091D8025091D90260E074E284EF90E0F9
:102800000E94852420513109410951095695479567
:10281000379527952093B800DF91CF911F910F91A5
:10282000FF90EF90DF900895E091CA02F091CB0203
:1028300080819091D002892B80830C171D0769F24B
:1028400089912091B8023091B902232B19F00E948E
:102850000F09F3CF28E030E040E8E091C602F091A4
:10286000C7029091CE02582F5423D9F05081952B56
:102870009083E091C802F091C90290815091CF02FB
:10288000952B9083E091C802F091C90250819091FC
:10289000CF02909595239083469521503109E9F612
:1028A000CCCF508190959523E3CFE091CC02F0916D
:1028B000CD0280819091D102892B8083ADCF1F936F
:1028C000CF93DF93EC01162F8D8D9E8D892BB1F167
:1028D0002DA93EA94FA958AD60E074E284EF90E0C5
:1028E0000E94852420513109410951095695479587
:1028F000379527952093B80066EA111167EACE0153
:102900000E94CC128D8D9E8D892B41F129AD3AAD5F
:102910004BAD5CAD60E074E284EF90E00E948524F2
:102920002051310941095109569547953795279509
:102930002093B800DF91CF911F9108958B8D9C8DCE
:10294000892B21F08EAD9FAD0E941609EFA5F8A945
:1029500090818CA9809589238083CECFEFA5F8A99B
:1029600080819CA9892B8083E5CF90E080E0089549
:10297000EF92FF921F93CF93DF9361E08091E30288
:102980000E9402066AEF70E080E090E00E948606F6
:102990002FB7F8948091610290916202A091630236
:1029A000B09164022FBF4091E6025091E70260911E
:1029B000E8027091E90284179507A607B70740F46B
:1029C0001092E6021092E7021092E8021092E902D9
:1029D0002091EA02211118C04091E6025091E702CD
:1029E0006091E8027091E902841B950BA60BB70B6E
:1029F000803D9740A105B10538F481E0DF91CF918A
:102A00001F91FF90EF9008951092EA022FB7F8946B
:102A10008091610290916202A0916302B091640280
:102A20002FBF8093E6029093E702A093E802B09351
:102A3000E9021092E1021092E0021092DF0210927D
:102A4000DE021092DD0261E08091E3020E94300616
:102A500060E08091E3020E94020664E170E080E0A1
:102A600090E00E948606F89461E08091E3020E9463
:102A700002068BE990E00197F1F760E08091E302B4
:102A80000E94300610E081E0C0E0D0E0E82EF12C9A
:102A90008091E3020E94D9058E159F0519F4DF5F2E
:102AA000DF3FB1F78091E3020E94D905DF3FC1F01B
:102AB000C43098F0C0FD11C0E12FE695E695E6958B
:102AC000F0E0E352FD4F9081990F90832091E50251
:102AD0002D1710F4916090831F5FCF5FC535A9F665
:102AE00078941832B8F04091E1022091DD02809193
:102AF000DE02280F3327331F8091DF02280F311D9C
:102B00008091E002820F932F911D99274817190693
:102B100009F473CF80E072CF0E94B814882341F08B
:102B20008091E4028B3039F018F08551823038F012
:102B300089E19CEF08958091DF0290E00895309143
:102B4000DF02832F8F7790E0982F88272091E00273
:102B5000820F911D6AE070E00E94AE27CB0137FF23
:102B6000E9CF91958195910908950E94B814882321
:102B700041F08091E4028B3031F018F085518230C1
:102B800028F08FEF08958091DD0208958091DD0295
:102B900090E0982F88272091DE02820F911D6AE035
:102BA00070E00E949A27862F08952091A302309109
:102BB000A402C901079697FD079623E0959587958E
:102BC0002A95E1F72091A1023091A202829FA001F3
:102BD000839F500D929F500D112470E060E0809112
:102BE000BC029091BD020C94F228FC0101900020DF
:102BF000E9F73197AF01481B590BBC018DE992E011
:102C00000C9483058F929F92AF92BF920F931F9364
:102C1000CF93DF93CDB7DEB7A1970FB6F894DEBFA1
:102C20000FBECDBF19A2423008F44AE08E010F5DFD
:102C30001F4F842E912CB12CA12CA50194010E9430
:102C40008524E62FB901CA01EA30F4F4E05DD80129
:102C5000EE938D01232B242B252B79F790E080E038
:102C6000109719F0CD010E94F515A1960FB6F894B2
:102C7000DEBF0FBECDBFDF91CF911F910F91BF90EF
:102C8000AF909F908F900895E95CE1CFCF92DF9253
:102C9000EF92FF92CF93DF936C01990FEE08FF083C
:102CA000F7FE19C06DE28DE992E00E94540BEC0131
:102CB00066277727CB016C197D098E099F094AE0A9
:102CC0000E9402168C0F9D1FDF91CF91FF90EF9015
:102CD000DF90CF9008954AE0C701B601DF91CF9110
:102CE000FF90EF90DF90CF900C9402164F925F927E
:102CF0006F927F928F929F92AF92BF92CF92DF920C
:102D0000EF92FF920F931F93CF936B017C01742E70
:102D1000AC019B010E944027882399F084E491E054
:102D2000CF911F910F91FF90EF90DF90CF90BF90C8
:102D3000AF909F908F907F906F905F904F900C948A
:102D4000F51546015701E894B7F82FEF3FEF4FE72D
:102D50005FE7C501B4010E94402781110DC02FEF2C
:102D60003FEF4FE75FE7C501B4010E942325181626
:102D70001CF488E491E0D4CF2FEF3FEF4FE75FE4FE
:102D8000C701B6010E94C62618161CF48CE491E017
:102D9000C7CF2FEF3FEF4FE75FECC701B6010E94AF
:102DA000232587FDF3CF20E030E0A901C701B6015C
:102DB0000E94232510E000E087FF0AC06DE28DE944
:102DC00092E00E94540B8C01F7FAF094F7F8F0941B
:102DD000C0E060E070E080E09FE37C1641F020E01E
:102DE00030E040E251E40E942D25CF5FF6CFA701ED
:102DF00096010E94B7242B013C010E94A6254B019D
:102E00005C014AE00E9402167C01E00EF11ECC2318
:102E1000C1F1C501B4010E94D5259B01AC01C301DC
:102E2000B2010E94B6244B015C016EE28DE992E092
:102E30000E94540BE80EF91EC15018F120E030E05A
:102E400040E251E4C501B4010E94CB262B013C01B4
:102E50000E94A6254B01B12CA12C4AE0C501B4016A
:102E60000E940216E80EF91EC501B4010E94D52584
:102E70009B01AC01C301B2010E94B6244B015C016D
:102E8000DBCFC701CF911F910F91FF90EF90DF90A3
:102E9000CF90BF90AF909F908F907F906F905F90FA
:102EA0004F9008950F931F93E8E9FAE06491E4E8E6
:102EB000FAE0E491F0E0EE0FFF1FE059F54F859145
:102EC000949100E412E42FE030E0462F0E94F21FBC
:102ED000611571058105910529F06F5F7F4F8F4F57
:102EE0009F4F9F701F910F9108950E94ED2885EDCF
:102EF0008093BC008091E3019091E401A091E501F1
:102F0000B091E6010796A11DB11D23E0B695A795E6
:102F1000979587952A95D1F72091BC0024FD03C091
:102F200010922C0208954091E3015091E4016091C8
:102F3000E5017091E601452B462B472B69F300977D
:102F4000A105B10541F025E32A95F1F700000197AD
:102F5000A109B109E1CF8091E2010C948A102F926E
:102F60003F924F925F926F927F928F929F92AF9219
:102F7000BF92CF92DF92EF92FF920F931F93CF9366
:102F8000DF93CDB7DEB72C970FB6F894DEBF0FBE38
:102F9000CDBF61E082E00E94020661E070E080E067
:102FA00090E00E94860660E082E00E9402060E9495
:102FB00052170E94D5252DEC3CEC48E652E40E94C5
:102FC0002D2520E030E040E251E40E942D25609361
:102FD0009E0170939F018093A0019093A1012224F0
:102FE0002394312CC0909E01D0909F01E090A001CD
:102FF000F090A10120E030E040E752E4C701B601C3
:103000000E94232518160CF4DAC320E030E040E8D3
:1030100050E4C701B6010E94C62687FDD0C361E017
:1030200082E00E94020661E070E080E090E00E9491
:10303000860660E082E00E9402060E9452170E940B
:10304000D5252DEC3CEC48E652E40E942D2520E0ED
:1030500030E040E251E40E942D256B017C01C092DA
:103060009E01D0929F01E092A001F092A1010E94E6
:10307000B51590E090939D0180939C010E948C1562
:1030800090939B0180939A01809096019090970174
:10309000A0909801B0909901C501B4010E94282523
:1030A0009B01AC01C701B6010E94CB2620E030E0B5
:1030B00040E852E40E94B724609392017093930118
:1030C0008093940190939501C501B4010E94382723
:1030D0009B01AC01C701B6010E94CB2620E030E085
:1030E00040E752E40E94B72460938E0170938F01F1
:1030F00080939001909391018BE00E94D9050197F4
:1031000009F0E5C010928D0110928C0160918C0144
:1031100070918D01072E000C880B990B0E94D7250A
:103120006B017C0120E030E040E050E460919E01C2
:1031300070919F018091A0019091A1010E94B724FC
:103140009B01AC01C701B6010E94232518160CF49F
:10315000B6C00E94D5153092B0022092AF023092D4
:10316000AE022092AD021092AA021092A902109211
:10317000AC021092AB0280E591E00E94F51581E06F
:103180008093B1028093B20286E090E09093AA020D
:103190008093A9021092AC021092AB0260919E0142
:1031A00070919F018091A0019091A10142E00E9445
:1031B000761642E050E06CE370E080E490E00E941C
:1031C000B00E4CE350E06CE370E080E490E00E94CD
:1031D000B00E60918E0170918F018091900190915D
:1031E00091010E949F256B01609192017091930162
:1031F00080919401909195010E949F25CB0143E01D
:1032000050E0B6010E94B00E809180019091810142
:10321000892BA9F560918E0170918F0180919001A9
:10322000909191010E949F256B0160919201709194
:10323000930180919401909195010E949F25CB016B
:1032400041E050E0B6010E94F90D309281012092D8
:10325000800140918C0150918D016CE370E080E41D
:1032600090E00E94B00E0E942E1380918C019091EC
:103270008D01019690938D0180938C0147CF6091D1
:103280008E0170918F0180919001909191010E9427
:103290009F256B016091920170919301809194013F
:1032A000909195010E949F25CB0150E040E0B6012E
:1032B0000E94F90D1092810110928001CACF1092E4
:1032C0008D0110928C0130928B0120928A018DE049
:1032D0000E94D9057C0191E0E916F10409F09EC134
:1032E00080918A0190918B018130910509F01FC274
:1032F00090938D0180938C0160918C0170918D0170
:10330000072E000C880B990B0E94D7256B017C01BE
:1033100020919E0130919F014091A0015091A10107
:103320000E94232518160CF44AC1809096019090B3
:103330009701A0909801B0909901C501B4010E9435
:1033400028259B01AC01C701B6010E94CB2620E0D5
:1033500030E040E852E40E94B72460938601709305
:1033600087018093880190938901C501B4010E946F
:1033700038279B01AC01C701B6010E94CB2620E093
:1033800030E040E752E40E94B724609382017093DA
:10339000830180938401909385010E94D51530921A
:1033A000B0022092AF023092AE022092AD0281E0D4
:1033B0008093B1028093B2021092AA021092A902E5
:1033C0001092AC021092AB0280E591E00E94F515DC
:1033D00091E09093B1029093B20286E090E09093D6
:1033E000AA028093A9021092AC021092AB026091E3
:1033F0009E0170919F018091A0019091A10142E0F6
:103400000E94761642E050E06CE370E080E490E0C9
:103410000E94B00E4CE350E06CE370E080E490E07A
:103420000E94B00E40908201509083016090840110
:103430007090850120E030E040EC50E4C301B2011F
:103440000E94B6240E949F2569837A838B839C8384
:10345000C0908601D0908701E0908801F0908901AA
:10346000C701B6010E949F256D837E838F83988755
:10347000C301B2010E949F254B0120E030E040E4EF
:1034800050E4C701B6010E94B6240E949F252B017B
:1034900020E030E040E450E4C701B6010E94B724C8
:1034A0000E949F2569877A878B879C87EE24E39407
:1034B000F12C84019201A40169857A858DE992E05D
:1034C0000E94850C09811A812D813E81A401B201DF
:1034D0008DE992E00E94850C840129853A85498115
:1034E0005A816D817E818DE992E00E94850C609108
:1034F0008E0170918F0180919001909191010E94B5
:103500009F256B01609192017091930180919401CC
:10351000909195010E949F25CB0143E050E0B601B8
:103520000E94B00E8091800190918101892B39F524
:1035300060918E0170918F01809190019091910125
:103540000E949F256B01609192017091930180917F
:103550009401909195010E949F25CB0141E050E09C
:10356000B6010E94F90D30928101209280010E94E3
:103570002E1380918C0190918D010196B9CE6091AE
:103580008E0170918F0180919001909191010E9424
:103590009F256B016091920170919301809194013C
:1035A000909195010E949F25CB0150E040E0B6012B
:1035B0000E94F90D1092810110928001D8CF0E94D3
:1035C000D5153092B0022092AF023092AE02209216
:1035D000AD0291E09093B1029093B20286E190E047
:1035E0009093AA028093A9028DE190E09093AC029F
:1035F0008093AB0283E591E00E94F5150E942E13A3
:1036000064EF71E080E090E00E94860610928D01E8
:1036100010928C0110928B0110928A010E94D51594
:103620003092B0022092AF023092AE022092AD02F0
:1036300091E09093B1029093B2021092AA0210927C
:10364000A9021092AC021092AB0280E591E00E94B8
:10365000F51581E08093B1028093B20286E090E09C
:103660009093AA028093A9021092AC021092AB022E
:1036700060919E0170919F018091A0019091A101A4
:1036800042E00E94761642E050E06CE370E080E495
:1036900090E00E94B00E4CE350E06CE370E080E4F8
:1036A00090E00E94B00E60918E0170918F01809128
:1036B0009001909191010E949F256B016091920170
:1036C0007091930180919401909195010E949F25A2
:1036D000CB0143E050E0B6010E94B00E8091800122
:1036E00090918101892B09F04AC060918E017091FF
:1036F0008F0180919001909191010E949F256B0113
:103700006091920170919301809194019091950143
:103710000E949F25CB0141E050E0B6010E94F90DC7
:1037200030928101209280010E942E135BCC0E9476
:10373000D515F092B002E092AF02F092AE02E092A4
:10374000AD0291E09093B1029093B2028CE190E0CF
:103750009093AA028093A9028DE190E09093AC022D
:103760008093AB0282E691E00E94F5150E942E1331
:1037700064EF71E080E090E00E9486064FCF609198
:103780008E0170918F0180919001909191010E9422
:103790009F256B016091920170919301809194013A
:1037A000909195010E949F25CB0150E040E0B60129
:1037B0000E94F90D1092810110928001B5CF1092F4
:1037C0008D0110928C0110928B0110928A0120E0E1
:1037D00030E040E850E4C701B6010E94232587FF8E
:1037E00065C00E94D515F12CE12C81E090E090930A
:1037F000B0028093AF029093AE028093AD02A70116
:103800006CE370E080E490E00E94B00E0E942E1302
:1038100064E670E080E090E00E94860693E0E90EA6
:10382000F11C8FE3E816F10401F70E94D51581E041
:1038300090E09093B0028093AF029093AE02809399
:10384000AD0282E08093B1028093B20284E090E006
:103850009093AA028093A9028AE190E09093AC022F
:103860008093AB028FE691E00E94F5150E942E1323
:1038700064EF71E080E090E02C960FB6F894DEBF24
:103880000FBECDBFDF91CF911F910F91FF90EF90B1
:10389000DF90CF90BF90AF909F908F907F906F9070
:1038A0005F904F903F902F900C9486060E94B51524
:1038B00090E090939D0180939C010E948C159093C1
:1038C0009B0180939A01A0915F02B0916002A032A7
:1038D00092E0B9070CF03FC080918F02E8E88E2E8D
:1038E000912C881A910887FD9394880C991C880C58
:1038F000991C092C000CAA08BB088091900218E5BD
:10390000C12E12E0D12EC81AD10887FDD394CC0C59
:10391000DD1CCC0CDD1C0D2C000CEE08FF08A701F3
:103920009601281939094A095B09A53BB10514F02C
:10393000A4EBB0E0B7FF02C0B0E0A0E00E947D249D
:1039400024EB30E040E050E00E945324820E931EAE
:10395000A41EB51ED401E0918E02EC3080F52091BA
:103960008F0288E890E0821B910927FD9395880FCC
:10397000991F880F991FA817B90784F0209190020A
:1039800088E592E0821B910927FD9395880F991F86
:10399000880F991FA817B9070CF4CD010297880F5B
:1039A000991F4FB7F8942E2F30E0F901EE0FFF1F4B
:1039B000E20FF31FE759FD4F928381834FBF609160
:1039C0005F0270916002645B7109072E000C880B26
:1039D000990B0E94D72525E33AEF4EE85CE30E945D
:1039E000CB266B017C01C0929601D0929701E092A8
:1039F0009801F09299010E94282520E030E040E7EC
:103A000052E40E94CB2620E030E040E852E40E94DD
:103A1000B7246093920170939301809394019093E3
:103A20009501C701B6010E94382720E030E040E749
:103A300052E40E94CB2620E030E040E752E40E94AE
:103A4000B72460938E0170938F01809390019093BF
:103A500091010E94D51581E090E09093B00280938F
:103A6000AF029093AE028093AD028093B102809337
:103A7000B2021092AA021092A9021092AC02109205
:103A8000AB028AE791E00E94F51591E09093B102B4
:103A90009093B20287E090E09093AA028093A902EB
:103AA0001092AC021092AB0280919C0190919D010A
:103AB0000E94461681E08093B1028093B2028CE5A9
:103AC00090E09093AA028093A9021092AC02109207
:103AD000AB028DE791E00E94F51591E09093B10261
:103AE0009093B20282E690E09093AA028093A9029A
:103AF0001092AC021092AB0280919A0190919B01BE
:103B00000E94461642E050E06CE370E080E490E0F2
:103B10000E94B00E4CE350E06CE370E080E490E073
:103B20000E94B00E60918E0170918F018091900182
:103B3000909191010E949F254B016091920170919B
:103B4000930180919401909195010E949F25EE240C
:103B5000E394F12C0CE310E020E430E0A4018DE9C3
:103B600092E00E94850C2C960FB6F894DEBF0FBE33
:103B7000CDBFDF91CF911F910F91FF90EF90DF901C
:103B8000CF90BF90AF909F908F907F906F905F90FD
:103B90004F903F902F900C942E131F920F920FB6C0
:103BA0000F9211242F933F938F939F93AF93BF93C3
:103BB0008091610290916202A0916302B0916402CF
:103BC0003091530223E0230F2D3758F50196A11DA4
:103BD000B11D209353028093610290936202A093DF
:103BE0006302B09364028091540290915502A091B7
:103BF0005602B09157020196A11DB11D8093540247
:103C000090935502A0935602B0935702BF91AF9183
:103C10009F918F913F912F910F900FBE0F901F900A
:103C2000189526E8230F0296A11DB11DD2CF1F9231
:103C30000F920FB60F9211242F933F934F935F93E0
:103C40006F937F938F939F93AF93BF93CF93DF93A4
:103C5000EF93FF9380915202C0918D02D0E087FFD5
:103C600024C01092850010928400809152028F5FD0
:103C70008093520280915202082E000C990B8C17EF
:103C80009D0724F4809152028C30C4F1809184000D
:103C900090918500049680349C4908F47AC0809104
:103CA000840090918500049676C080915202082E7F
:103CB000000C990B8C179D07C4F6E09152028E2FD1
:103CC000EE0F990BFC01EE0FFF1FE80FF91FE759EC
:103CD000FD4F808186FFC9CFE09152028E2FEE0FFB
:103CE000990BFC01EE0FFF1FE80FF91FE759FD4F7D
:103CF000808160E08F730E940206B7CF209184001C
:103D000030918500E09152028E2FEE0F990BFC014D
:103D1000EE0FFF1FE80FF91FE759FD4F81819281D8
:103D2000820F931F9093890080938800E091520244
:103D30008E2FEE0F990BFC01EE0FFF1FE80FF91FFE
:103D4000E759FD4F808186FF11C0E09152028E2F0E
:103D5000EE0F990BFC01EE0FFF1FE80FF91FE7595B
:103D6000FD4F808161E08F730E940206FF91EF9109
:103D7000DF91CF91BF91AF919F918F917F916F9183
:103D80005F914F913F912F910F900FBE0F901F9019
:103D9000189580E49CE990938900809388008FEFC8
:103DA00080935202E3CF1F920F920FB60F9211240D
:103DB0002F933F934F935F936F937F938F939F9333
:103DC000AF93BF93EF93FF938091B900887F8036C4
:103DD00009F44AC0F0F5883209F4A7C018F580311B
:103DE00009F49BC0B8F4882309F4F9C0883009F4B9
:103DF00094C0FF91EF91BF91AF919F918F917F916F
:103E00006F915F914F913F912F910F900FBE0F9047
:103E10001F901895883109F488C0803251F780933B
:103E20002B0214C0803409F49DC040F48033B9F3F0
:103E30008833F9F680932B0285ECB0C0803509F405
:103E400085C0883509F496C0883499F60E947717A2
:103E5000D0CF883909F48CC038F5883729F050F470
:103E6000883611F0803729F683E080932C02109277
:103E70002A0257C0883809F47BC0803919F080388D
:103E800009F0B7CF80912A02803208F071C0E0912A
:103E90002A0281E08E0F80932A028091BB00F0E01D
:103EA000E65FFD4F80833DC0803B39F0E0F4803A0F
:103EB00009F479C0883A09F09CCF84E080932C0201
:103EC0001092090210920802E0915B02F0915C02EC
:103ED00009958091080281110FC081E0809308024A
:103EE0001092E80109C0803C09F4A6CF883C09F48F
:103EF000A3CF883B09F07DCFE091090281E08E0FCE
:103F000080930902F0E0E851FE4F80818093BB006E
:103F1000909109028091080229C0809151028093FA
:103F2000BB0085EC8093BC0064CF909150028091DF
:103F30004F02981758F5E091500281E08E0F809360
:103F40005002F0E0E15DFD4F8081E9CFE091500249
:103F500081E08E0F809350028091BB00F0E0E15D24
:103F6000FD4F80839091500280914F029817C8F2C4
:103F700085E8D8CFE091500281E08E0F8093500207
:103F80008091BB00F0E0E15DFD4F808380912E02C7
:103F900081115CCF81E080932D0284EA8093BC0084
:103FA00010922C0226CF85EC8093BC0010922C023C
:103FB00080912A02803230F4E0912A02F0E0E65F3C
:103FC000FD4F108260912A0270E0E0915902F09159
:103FD0005A028AE092E0099510922A020ACF1092C2
:103FE0002B0234CFCF92DF92EF92FF920F931F9369
:103FF000E82FF92F05C0015011092109310961F19C
:10400000908196239417B9F305C001501109210935
:10401000310911F1908196239413F7CFC12CD12C43
:10402000E12CF12C0AC08FEFC81AD80AE80AF80A66
:104030000C151D052E053F0579F080818623841718
:1040400091F36C2D7D2D8E2D9F2D1F910F91FF9043
:10405000EF90DF90CF90089560E070E080E090E016
:104060001F910F91FF90EF90DF90CF9008951092E5
:1040700094021092930288EE93E0A0E0B0E0809367
:10408000950290939602A0939702B09398028AE0CB
:1040900091E0909392028093910287E08093E302F3
:1040A0008BE08093E40286E08093E50281E08093D8
:1040B000EA021092A00210929F0240E850E0509352
:1040C000A2024093A10220E430E03093A4022093A6
:1040D000A3025093A6024093A5023093A802209316
:1040E000A7021092B3021092AA021092A902109293
:1040F000AC021092AB028093B2028093B1022FEF18
:104100003FEF3093B0022093AF023093AE02209382
:10411000AD028093B4021092B5021092B7021092D1
:10412000B6028CE191E090939E0280939D021092E2
:10413000B9021092B80281E992E09093BB02809399
:10414000BA021092BD021092BC029FEF9093C1027E
:104150009093C2029093C3029093C40284E0809330
:10416000C50240E85AE166E070E04093D202509305
:10417000D3026093D4027093D50240EA56E861E01E
:1041800070E04093D6025093D7026093D8027093A8
:10419000D90280E58093DB021092DC0280918D02CF
:1041A0008C3098F491E0980F90938D0280938E025A
:1041B00090E0FC01EE0FFF1FE80FF91FE759FD4FDC
:1041C00088EB9BE092838183089590938E020895FB
:1041D000789484B5826084BD84B5816084BD85B5E2
:1041E000826085BD85B5816085BD80916E008160EE
:1041F00080936E0010928100809181008260809394
:104200008100809181008160809381008091800095
:104210008160809380008091B10084608093B100C0
:104220008091B00081608093B00080917A008460BA
:1042300080937A0080917A00826080937A008091E6
:104240007A00816080937A0080917A008068809300
:104250007A001092C10010925E0210925D021092DC
:104260006602109265020E946C1081E895E09093BE
:104270005C0280935B0282E895E090935A028093FF
:1042800059028091BC029091BD02892B11F10E94CC
:10429000D5152091A3023091A4028091A1029091A2
:1042A000A202213231050CF0DCC0B9016052710963
:1042B00077FF02C06F5F7F4F7595679583579109B0
:1042C00097FD019600E210E023E730E040ED55E075
:1042D000DBC02091A3023091A402C901079697FD8B
:1042E0000796B3E095958795BA95E1F72091A102DD
:1042F0003091A202AC01429FC001439F900D529F9A
:10430000900D11240E94C8279093BD028093BC0297
:10431000892B09F0BCCF0E94D51581E090E09093E5
:10432000B0028093AF029093AE028093AD0260E042
:104330008091E3020E94300661E08091E3020E94D6
:1043400002061092E6021092E7021092E802109222
:10435000E90280918E028C3008F053C061E086E063
:104360000E94300680918E02282F30E0F901EE0F76
:10437000FF1FE20FF31FE759FD4F9081907C96607D
:1043800090839EE890938F0294E6909390022CE0A5
:10439000622F0E948E27829FB001112430E020E01E
:1043A000AB01420F531FFA01EE0FFF1FE40FF51F81
:1043B000E759FD4F908196FD16C02F5F3F4F2C307F
:1043C000310571F781110FC01092800082E0809357
:1043D00081001092850010928400B19A80916F0044
:1043E000826080936F00E0918E028E2F90E0FC013E
:1043F000EE0FFF1FE80FF91FE759FD4F8081806422
:10440000808361E082E00E94300660E087E00E94E5
:10441000300660E08AE00E94300660E08BE00E9497
:10442000300660E08DE00E943006C4EBD0E000E092
:1044300010E01092600210925F0280915F029091F2
:104440006002853B91050CF002C20E94AF1780917B
:104450005F02909160020A969093600280935F02DF
:10446000ECCFB9016054710977FF02C06F5F7F4FD5
:10447000759567958255910997FD019600E410E0C6
:1044800022E530E040EB57E0959587950E944F0E6E
:1044900082E08093BF028091BA029091BB02892B87
:1044A00009F4DFC08DE38093BE0210925E02109289
:1044B0005D0210926602109265020E946C1081E803
:1044C00095E090935C0280935B0282E895E0909384
:1044D0005A02809359028091C50287FD1EC061E097
:1044E0000E94300661E08091C5020E94020661E0F0
:1044F00070E080E090E00E94860660E08091C50256
:104500000E9402066AE070E080E090E00E94860669
:1045100061E08091C5020E9402068091BA029091EA
:10452000BB02892B09F45CC12091D2023091D302E5
:104530004091D4025091D50260E074E284EF90E0A3
:104540000E9485242051310941095109569547950A
:10455000379527952093B80064E082EC95E00E949F
:1045600017126091A30261508DE992E00E94CC1273
:1045700064E08EEB95E00E9417128091BF0264E127
:10458000813009F460E18DE992E00E94CC1264E090
:104590008AEB95E00E9417128FE88093DA028091EF
:1045A000A1029091A2028038910509F032C1809158
:1045B000A3029091A4028034910509F03AC1809140
:1045C000BF02813009F423C18FEC8093DA02C2E18B
:1045D0006AED8DE992E00E94CC126C2F8DE992E099
:1045E0000E94CC1261E88DE992E00E94CC126091A9
:1045F000DA028DE992E00E94CC1269ED8DE992E039
:104600000E94CC128091BF0261EF813009F462E216
:104610008DE992E00E94CC1266E084EB95E00E9466
:1046200017128091BA029091BB02892B09F405C13F
:104630002091D6023091D7024091D8025091D902F0
:1046400060E074E284EF90E00E94852420513109FB
:104650004109510956954795379527952093B800FC
:104660005ACE61E08091C3020E94300661E08091E1
:10467000C4020E9430068091C302082E000C990BE0
:10468000FC01E658F54FE491F0E0EE0FFF1FEA530E
:10469000FA4F259134913093CB022093CA02FC014A
:1046A000E257F54FE491E093D0028091C402082EC6
:1046B000000C990BFC01E658F54FE491F0E0EE0F89
:1046C000FF1FEA53FA4FA591B491B093CD02A09386
:1046D000CC02FC01E257F54FE491E093D1028C91BA
:1046E000E82BEC938091B8029091B902892B09F4E0
:1046F00034C0CFB7F89480915802811127C0E4E804
:10470000FAE08491E8E9FAE09491E82FF0E0EE0F06
:10471000FF1FE655FA4FA591B491EC91E92321F4DE
:1047200061E08AE00E94020661E08AE00E943006B1
:104730008CB580618CBD8CB580648CBD61E08DE0F2
:104740000E94300661E08BE00E94300680915802A2
:104750008F5F80935802CFBFBECE61E08091C102CF
:104760000E94300661E08091C2020E943006809172
:10477000C102082E000C990BFC01E658F54FE4919C
:10478000F0E0EE0FFF1FEA53FA4F2591349130937A
:10479000C7022093C602FC01E257F54FE491E09373
:1047A000CE028091C202082E000C990BFC01E65843
:1047B000F54FE491F0E0EE0FFF1FEA53FA4FA59199
:1047C000B491B093C902A093C802FC01E257F54F1F
:1047D000E491E093CF028C91E095E823EC937BCEBB
:1047E0008091B8029091B902892B31F08091DB025F
:1047F0009091DC020E941609E091CC02F091CD026A
:1048000090818091D102809589238083A5CE8FE904
:10481000DCCE8036910569F48091A3029091A402C8
:10482000409739F48091BF02813029F08FEA80935C
:10483000DA02C2E0CDCE80E1FACFE091CC02F09175
:10484000CD0280819091D102892B808364CDD09359
:104850006002C0935F0280915F029091600297FDB9
:104860000CC00E94AF1780915F02909160020A977E
:104870009093600280935F02EECF0115110509F459
:10488000D8CD0E940000D5CD8CE191E090939E029E
:1048900080939D028091BC029091BD02009711F01F
:1048A0000C9464280895052E97FB1EF400940E9432
:1048B0006A2457FD07D00E94852407FC03D04EF4DC
:1048C0000C946A2450954095309521953F4F4F4F59
:1048D0005F4F089590958095709561957F4F8F4FAC
:1048E0009F4F08950E94A724A59F900DB49F900DFF
:1048F000A49F800D911D11240895B7FF0C9472247C
:104900000E947224821B930B0895A1E21A2EAA1B07
:10491000BB1BFD010DC0AA1FBB1FEE1FFF1FA2176F
:10492000B307E407F50720F0A21BB30BE40BF50B6C
:10493000661F771F881F991F1A9469F760957095F5
:10494000809590959B01AC01BD01CF010895A29F78
:10495000B001B39FC001A39F700D811D1124911D53
:10496000B29F700D811D1124911D08955058BB27D1
:10497000AA270E94CE240C9478260E943F2638F065
:104980000E94462620F039F49F3F19F426F40C9437
:104990003C260EF4E095E7FB0C943626E92F0E94A6
:1049A0009D2658F3BA17620773078407950720F00E
:1049B00079F4A6F50C94BF260EF4E0950B2EBA2FD1
:1049C000A02D0B01B90190010C01CA01A001112415
:1049D000FF27591B99F0593F50F4503E68F11A16C1
:1049E000F040A22F232F342F4427585FF3CF469552
:1049F00037952795A795F0405395C9F77EF41F1674
:104A0000BA0B620B730B840BBAF09150A1F0FF0F3D
:104A1000BB1F661F771F881FC2F70EC0BA0F621F29
:104A2000731F841F48F4879577956795B795F79519
:104A30009E3F08F0B0CF9395880F08F09927EE0FAE
:104A40009795879508950E94122608F481E00895AD
:104A50000E944F26E3950C9489260E9441250C94D0
:104A600078260E94462658F00E943F2640F029F4FE
:104A70005F3F29F00C94362651110C94C0260C94FB
:104A80003C260E949D2668F39923B1F3552391F3A8
:104A9000951B550BBB27AA2762177307840738F0AD
:104AA0009F5F5F4F220F331F441FAA1FA9F335D00A
:104AB0000E2E3AF0E0E832D091505040E695001CBE
:104AC000CAF72BD0FE2F29D0660F771F881FBB1F78
:104AD000261737074807AB07B0E809F0BB0B802D56
:104AE000BF01FF2793585F4F3AF09E3F510578F082
:104AF0000C9436260C94C0265F3FE4F3983ED4F322
:104B0000869577956795B795F7959F5FC9F7880F55
:104B1000911D9695879597F90895E1E0660F771FA7
:104B2000881FBB1F621773078407BA0720F0621B38
:104B3000730B840BBA0BEE1F88F7E09508950E9463
:104B4000A6256894B1110C94C02608950E94A5264C
:104B500088F09F5798F0B92F9927B751B0F0E1F03E
:104B6000660F771F881F991F1AF0BA95C9F714C0EE
:104B7000B13091F00E94BF26B1E008950C94BF2699
:104B8000672F782F8827B85F39F0B93FCCF3869527
:104B900077956795B395D9F73EF490958095709584
:104BA00061957F4F8F4F9F4F0895E89409C097FB01
:104BB0003EF490958095709561957F4F8F4F9F4FF4
:104BC0009923A9F0F92F96E9BB279395F695879538
:104BD00077956795B795F111F8CFFAF4BB0F11F4FB
:104BE00060FF1BC06F5F7F4F8F4F9F4F16C08823A2
:104BF00011F096E911C0772321F09EE8872F762FD8
:104C000005C0662371F096E8862F70E060E02AF018
:104C10009A95660F771F881FDAF7880F9695879504
:104C200097F90895990F0008550FAA0BE0E8FEEFD9
:104C300016161706E807F907C0F012161306E40760
:104C4000F50798F0621B730B840B950B39F40A2659
:104C500061F0232B242B252B21F408950A2609F437
:104C6000A140A6958FEF811D811D089597F99F673B
:104C700080E870E060E008959FEF80EC08950024E4
:104C80000A941616170618060906089500240A94B1
:104C9000121613061406050608950C943C260E946D
:104CA000A526D8F3E894E0E0BB279F57F0F02AED63
:104CB0003FE049EC06C0EE0FBB0F661F771F881F51
:104CC00028F0B23A62077307840728F0B25A620BE1
:104CD000730B840BE3959A9572F7803830F49A95AC
:104CE000BB0F661F771F881FD2F790480C94472789
:104CF000092E0394000C11F4882352F0BB0F40F4EA
:104D0000BF2B11F460FF04C06F5F7F4F8F4F9F4F29
:104D10000895EF93E0FF07C0A2EA2AED3FE049ECD7
:104D20005FEB0E94CE240E9478260F90039401FC32
:104D30009058E8E6F0E00C94532757FD9058440F44
:104D4000551F59F05F3F71F04795880F97FB991FEA
:104D500061F09F3F79F087950895121613061406A7
:104D6000551FF2CF4695F1DF08C016161706180634
:104D7000991FF1CF86957105610508940895E8940F
:104D8000BB2766277727CB0197F908950E94122643
:104D900008F48FEF08950E94DE260C9478260E9476
:104DA0003F2638F00E94462620F0952311F00C94FF
:104DB00036260C943C2611240C94C0260E949D2675
:104DC00070F3959FC1F3950F50E0551F629FF0015E
:104DD000729FBB27F00DB11D639FAA27F00DB11D77
:104DE000AA1F649F6627B00DA11D661F829F222700
:104DF000B00DA11D621F739FB00DA11D621F839F87
:104E0000A00D611D221F749F3327A00D611D231F5C
:104E1000849F600D211D822F762F6A2F11249F57AA
:104E200050409AF0F1F088234AF0EE0FFF1FBB1FAD
:104E3000661F771F881F91505040A9F79E3F51056C
:104E400080F00C9436260C94C0265F3FE4F3983E25
:104E5000D4F3869577956795B795F795E7959F5F16
:104E6000C1F7FE2B880F911D9695879597F90895A8
:104E70009F930E944F260F9007FCEE5F0C948926AB
:104E80000E941226880B990B08959F3F31F0915094
:104E900020F4879577956795B795880F911D96951E
:104EA000879597F908959F938F937F936F93FF93BF
:104EB000EF939B01AC010E94CB26EF91FF910E94E2
:104EC00067272F913F914F915F910C94CB26DF93F1
:104ED000CF931F930F93FF92EF92DF927B018C0190
:104EE000689406C0DA2EEF010E94DE26FE01E894E7
:104EF000A5912591359145915591A6F3EF010E9419
:104F0000CE24FE019701A801DA9469F7DF90EF90B3
:104F1000FF900F911F91CF91DF910895991B79E038
:104F200004C0991F961708F0961B881F7A95C9F739
:104F300080950895AA1BBB1B51E107C0AA1FBB1F88
:104F4000A617B70710F0A61BB70B881F991F5A9515
:104F5000A9F780959095BC01CD01089597FB072E88
:104F600016F4009407D077FD09D00E949A2707FC19
:104F700005D03EF4909581959F4F08957095619569
:104F80007F4F0895EE0FFF1F0590F491E02D0994D7
:104F90000F931F93CF93DF938230910510F482E03B
:104FA00090E0E091ED02F091EE0230E020E0B0E020
:104FB000A0E0309799F42115310509F44AC0281B67
:104FC000390B24303105D8F58A819B816115710533
:104FD00089F1FB0193838283FE0111C040815181DD
:104FE0000281138148175907E0F04817590799F4CF
:104FF000109761F012960C93129713961C933296A9
:10500000CF01DF91CF911F910F9108950093ED0291
:105010001093EE02F4CF2115310551F042175307DA
:1050200038F0A901DB019A01BD01DF01F801C1CF10
:10503000EF01F9CF9093EE028093ED02CDCFFE0108
:10504000E20FF31F81939193225031093983288312
:10505000D7CF2091EB023091EC02232B41F4209129
:105060000201309103013093EC022093EB02209176
:105070000001309101012115310541F42DB73EB7F2
:105080004091040150910501241B350BE091EB0286
:10509000F091EC02E217F307A0F42E1B3F0B281748
:1050A000390778F0AC014E5F5F4F2417350748F0A1
:1050B0004E0F5F1F5093EC024093EB02819391934C
:1050C0009FCFF0E0E0E09CCFCF93DF930097E9F033
:1050D000FC01329713821282A091ED02B091EE0290
:1050E000ED0130E020E01097A1F420813181820FA2
:1050F000931F2091EB023091EC022817390709F039
:1051000061C0F093EC02E093EB02DF91CF91089540
:10511000EA01CE17DF07E8F54A815B819E01411560
:105120005105B1F7E901FB83EA8349915991C40F15
:10513000D51FEC17FD0761F4808191810296840FE1
:10514000951FE90199838883828193819B838A8358
:10515000F0E0E0E012968D919C9113970097B9F5DD
:105160002D913C911197CD010296820F931F2091B2
:10517000EB023091EC022817390739F6309751F5D8
:105180001092EE021092ED02B093EC02A093EB02AB
:10519000BCCFD383C28340815181840F951FC81730
:1051A000D90761F44E5F5F4F88819981480F591F7D
:1051B000518340838A819B819383828321153105AA
:1051C00009F0B0CFF093EE02E093ED029ECFFD0127
:1051D000DC01C0CF13821282D7CF81E090E0F89437
:1051E0000C94F928DC0101C06D9341505040E0F768
:1051F000089515E0C5E5D5E004C0FE010E94C22770
:105200002196C635D107C9F7F894FFCF0000EF0209
:105210008000000000000111D410B5148005CD10ED
:10522000BA10AB1000000000540B8305B5144410F5
:105230005F088005480ED10DED0DE10D970F80053B
:105240001A095F14CF0718081A0DFD0C850C260CDF
:105250006E616E00696E66006F76660044200074B1
:1052600061726765742072656D6F76656400616C4C
:1052700061726D206265666F726500796F7560722C
:0C52800020646561640048200054200098
:107E0000112484B714BE81FFF0D085E080938100F7
:107E100082E08093C00088E18093C10086E0809377
:107E2000C20080E18093C4008EE0C9D0259A86E02C
:107E300020E33CEF91E0309385002093840096BBD3
:107E4000B09BFECF1D9AA8958150A9F7CC24DD24C4
:107E500088248394B5E0AB2EA1E19A2EF3E0BF2EE7
:107E6000A2D0813461F49FD0082FAFD0023811F036
:107E7000013811F484E001C083E08DD089C08234E0
:107E800011F484E103C0853419F485E0A6D080C0E4
:107E9000853579F488D0E82EFF2485D0082F10E0AE
:107EA000102F00270E291F29000F111F8ED06801E7
:107EB0006FC0863521F484E090D080E0DECF843638
:107EC00009F040C070D06FD0082F6DD080E0C81688
:107ED00080E7D80618F4F601B7BEE895C0E0D1E017
:107EE00062D089930C17E1F7F0E0CF16F0E7DF06D8
:107EF00018F0F601B7BEE89568D007B600FCFDCFD4
:107F0000A601A0E0B1E02C9130E011968C91119780
:107F100090E0982F8827822B932B1296FA010C0160
:107F200087BEE89511244E5F5F4FF1E0A038BF0790
:107F300051F7F601A7BEE89507B600FCFDCF97BE46
:107F4000E89526C08437B1F42ED02DD0F82E2BD052
:107F50003CD0F601EF2C8F010F5F1F4F84911BD097
:107F6000EA94F801C1F70894C11CD11CFA94CF0C13
:107F7000D11C0EC0853739F428D08EE10CD085E9AC
:107F80000AD08FE07ACF813511F488E018D01DD067
:107F900080E101D065CF982F8091C00085FFFCCF94
:107FA0009093C60008958091C00087FFFCCF809118
:107FB000C00084FD01C0A8958091C6000895E0E648
:107FC000F0E098E1908380830895EDDF803219F02E
:107FD00088E0F5DFFFCF84E1DECF1F93182FE3DFCA
:107FE0001150E9F7F2DF1F91089580E0E8DFEE27F6
:047FF000FF270994CA
:027FFE00040479
:00000001FF
