:100000000C94E9020C9411030C9411030C94110349
:100010000C9411030C9411030C9411030C94110310
:100020000C9411030C9411030C9411030C94110300
:100030000C9411030C9411030C9411030C941103F0
:100040000C94A40E0C9411030C9411030C94110342
:100050000C9411030C9411030C9411030C941103D0
:100060000C94EE0E0C94110300000000003E5B4F58
:100070005B3E3E6B4F6B3E1C3E7C3E1C183C7E3C08
:10008000181C577D571C1C5E7F5E1C00183C180016
:10009000FFE7C3E7FF0018241800FFE7DBE7FF30A6
:1000A000483A060E2629792926407F050507407F14
:1000B00005253F5A3CE73C5A7F3E1C1C08081C1C87
:1000C0003E7F14227F22145F5F005F5F06097F017D
:1000D0007F006689956A606060606094A2FFA29468
:1000E00008047E040810207E201008082A1C080836
:1000F0001C2A08081E101010100C1E0C1E0C303884
:100100003E3830060E3E0E06000000000000005F84
:1001100000000007000700147F147F14242A7F2AA0
:100120001223130864623649562050000807030062
:10013000001C2241000041221C002A1C7F1C2A08AE
:10014000083E080800807030000808080808000011
:1001500060600020100804023E5149453E00427F85
:10016000400072494949462141494D331814127FD4
:100170001027454545393C4A494931412111090774
:100180003649494936464949291E000014000000F5
:1001900040340000000814224114141414140041C7
:1001A00022140802015909063E415D594E7C121184
:1001B000127C7F494949363E414141227F414141BC
:1001C0003E7F494949417F090909013E4141517337
:1001D0007F0808087F00417F41002040413F017FA8
:1001E000081422417F404040407F021C027F7F0470
:1001F00008107F3E4141413E7F090909063E4151B9
:10020000215E7F09192946264949493203017F01A8
:10021000033F4040403F1F2040201F3F4038403FA9
:10022000631408146303047804036159494D4300BF
:100230007F4141410204081020004141417F0402F6
:10024000010204404040404000030708002054548D
:1002500078407F284444383844444428384444286B
:100260007F385454541800087E090218A4A49C78BE
:100270007F0804047800447D40002040403D007F1A
:100280001028440000417F40007C047804787C08FA
:100290000404783844444438FC18242418182424CE
:1002A00018FC7C08040408485454542404043F44B3
:1002B000243C4040207C1C2040201C3C4030403CE2
:1002C00044281028444C9090907C4464544C440042
:1002D00008364100000077000000413608000201A6
:1002E0000204023C2623263C1EA1A161123A404092
:1002F000207A38545455592155557941225454780F
:1003000042215554784020545579400C1E527212A7
:100310003955555559395454545939555454580030
:1003200000457C410002457D420001457C407D1234
:1003300011127DF0282528F07C5455450020545496
:100340007C547C0A097F4932494949323A44444441
:100350003A324A4848303A4141217A3A424020787C
:10036000009DA0A07D3D4242423D3D4040403D3C7D
:1003700024FF2424487E4943662B2FFC2F2BFF09A2
:1003800029F620C0887E0903205454794100004496
:100390007D413048484A32384040227A007A0A0A81
:1003A000727D0D19317D2629292F282629292926F4
:1003B00030484D4020380808080808080808382F39
:1003C00010C8ACBA2F102834FA00007B00000814C3
:1003D0002A142222142A14085500550055AA55AA99
:1003E00055AAFF55FF55FF000000FF00101010FF39
:1003F00000141414FF001010FF00FF1010F010F094
:10040000141414FC001414F700FF0000FF00FF1484
:1004100014F404FC141417101F10101F101F1414D0
:10042000141F00101010F0000000001F101010101A
:100430001F10101010F010000000FF10101010100E
:1004400010101010FF10000000FF140000FF00FF4C
:1004500000001F10170000FC04F4141417101714E8
:1004600014F404F40000FF00F7141414141414140A
:10047000F700F7141414171410101F101F1414147D
:10048000F4141010F010F000001F101F0000001FE7
:1004900014000000FC140000F010F01010FF10FF1A
:1004A000141414FF141010101F00000000F010FFAF
:1004B000FFFFFFFFF0F0F0F0F0FFFFFF0000000093
:1004C00000FFFF0F0F0F0F0F3844443844FC4A4A17
:1004D0004A347E02020606027E027E0263554941CC
:1004E000633844443C04407E201E2006027E020203
:1004F00099A5E7A5991C2A492A1C4C7201724C3017
:100500004A4D4D303048784830BC625A463D3E49ED
:100510004949007E0101017E2A2A2A2A2A44445F91
:10052000444440514A444040444A51400000FF0185
:1005300003E080FF000008086B6B08361236243693
:10054000060F090F060000181800000010100030F8
:1005500040FF0101001F01011E00191D1712003C80
:100560003C3C3C0000000000000103070F1F3F7FE0
:100570000080C0E0F0F8FCFE00000008000201006E
:100580000003040700000000000000002200FF211B
:100590000000000000250028002B000000000024BF
:1005A0000027002A000404040404040404020202D4
:1005B00002020203030303030301020408102040A4
:1005C0008001020408102001020408102000091014
:1005D000E51211241FBECFEFD8E0DEBFCDBF11E082
:1005E000A0E0B1E0E4EBF8E202C005900D92A43681
:1005F000B107D9F722E0A4E6B1E001C01D92A2350F
:10060000B207E1F712E0C8EED2E004C02197FE0184
:100610000E941613C73ED107C9F70E9465100C94BB
:100620004D140C94000090E0FC01E754FA4F249123
:100630008B559A4FFC018491882399F090E0880FA4
:10064000991FFC01E556FA4FA591B491FC01EF56B4
:10065000FA4F859194918FB7F894EC91E22BEC933B
:100660008FBF0895AF92BF92CF92DF92EF92FF9229
:100670000F931F93CF93DF936C017B018B01040FCA
:10068000151FEB015E01AE18BF08C017D10759F066
:100690006991D601ED91FC910190F081E02DC601A8
:1006A0000995892B79F7C501DF91CF911F910F91A2
:1006B000FF90EF90DF90CF90BF90AF90089590E0C3
:1006C000FC01E858FA4F2491FC01E754FA4F3491A9
:1006D000FC01EB55FA4FE491EE23C9F0222339F0E7
:1006E000233001F1A8F4213019F1223029F1F0E092
:1006F000EE0FFF1FEF56FA4FA591B4918FB7F89404
:10070000EC91611126C030953E233C938FBF089534
:100710002730A9F02830C9F0243049F780918000B3
:100720008F7D03C0809180008F7780938000DFCF22
:1007300084B58F7784BDDBCF84B58F7DFBCF80916F
:10074000B0008F778093B000D2CF8091B0008F7DC2
:10075000F9CF3E2BDACF3FB7F8948091FA01909110
:10076000FB01A091FC01B091FD0126B5A89B05C03D
:100770002F3F19F00196A11DB11D3FBFBA2FA92F20
:10078000982F8827BC01CD01620F711D811D911D1D
:1007900042E0660F771F881F991F4A95D1F7089589
:1007A0008F929F92AF92BF92CF92DF92EF92FF9281
:1007B0004B015C010E94AB036B017C010E94AB0307
:1007C0006C197D098E099F09683E7340810591056A
:1007D000A8F321E0821A9108A108B10888EEC80E9A
:1007E00083E0D81EE11CF11C81149104A104B10422
:1007F00029F7FF90EF90DF90CF90BF90AF909F9040
:100800008F900895EF92FF920F931F93CF93DF93F2
:10081000EC01EC80FD806E157F050CF070C057FF79
:1008200004C0240F351F50E040E08E819F81FA0103
:10083000E20FF31F8E179F071CF49C01241B350B3E
:10084000121613060CF05BC0922F842F86958695A6
:1008500086958E9DD0018F9DB00D11246A0F7B1F50
:10086000AF8DB8A1A60FB71F477049F188E0841B70
:10087000482F682F70E0FB01E059FA4FE4912817E8
:1008800008F063C0621B71092FEF30E002C035959C
:1008900027956A95E2F7E2230130110539F0B0F1AE
:1008A0000230110561F58C91E82702C08C91E82B8C
:1008B000EC93941720F12C813D81A20FB31FE92FF7
:1008C000E41BE83078F00230110521F58E2F9C9161
:1008D00090959C932C813D81A20FB31F8850883046
:1008E000B0F7E770EE2359F0F0E0E859FA4FE491E1
:1008F00001301105F9F010F10230110519F1DF9105
:10090000CF911F910F91FF90EF900895E0958C91FA
:10091000E823CECF81E00115110509F480E081952F
:100920009E2F8C932C813D81A20FB31F985098303D
:10093000C0F7D7CF8C91E82BEC93E1CFE0958C9169
:10094000E823FACF8C91E827F7CF0130110509F49D
:10095000ADCFE0F20230110509F4A5CFAE0DBF1DF9
:10096000AECF0F931F93CF93DF9377FF04C0260F73
:10097000371F70E060E0DC011496CD91DC91FB0143
:10098000E20FF31FCE17DF071CF49E01261B370B67
:10099000121613064CF5FA0157FD3796A3E0F595AC
:1009A000E795AA95E1F7EC9FD001ED9FB00DFC9F74
:1009B000B00D11246A0F7B1FDC015F96ED91FC9155
:1009C000E60FF71F4770552781E090E001C0880FC0
:1009D0004A95EAF7482F0130110559F0A8F02E0F7B
:1009E0003F1F02301105E1F0DF91CF911F910F9170
:1009F00008952E0F3F1FE217F307B1F38191DF0136
:100A00001197842B8C93F7CF80952E0F3F1FE21701
:100A1000F30751F39191DF01119798239C93F7CF3E
:100A2000E217F30709F38191DF01119784278C9373
:100A3000F7CF0F931F93FA01DC0156964C9156970E
:100A40004230E9F04330A1F1413061F514964D9107
:100A50005C91DA01AE1BBF0BFD01E21BF30B77FDCE
:100A60000BC0DC0116964D915C916417750724F458
:100A7000AB01BF010E94B1041F910F91089514961C
:100A80004D915C91DA01A61BB70BBD016150710954
:100A9000DC0116964D915C91DA01AE1BBF0BFD0196
:100AA000E21BF30B77FDE8CFAF010E940204E4CF15
:100AB00016964D915C91DA01A61BB70BBD016150F2
:100AC0007109CDCF0F931F93FA01DC0156964C911B
:100AD00056974230A9F0433091F1413019F5149600
:100AE0004D915C91DA01AE1BBF0BFD013197F7FD13
:100AF00004C0AB01BF010E9402041F910F91089531
:100B000014964D915C91DA01A61BB70BBD01DC0177
:100B100016964D915C91DA01AE1BBF0BFD0131972A
:100B2000621B730BF7FDE9CFDC0116964D915C91CA
:100B3000E417F50714F7AF010E94B104DECF169653
:100B40004D915C91DA01A61BB70BBD01621B730BC3
:100B5000CECFFC0177FD64C0808591856817790749
:100B60000CF05EC057FD5CC082859385481759071D
:100B70000CF056C086898230B1F0833029F1813083
:100B800041F484819581841B950BAB01BC016150BC
:100B900071092130310509F108F443C022303105D3
:100BA00009F463C0089584819581DC01A61BB70B0D
:100BB000BD016150710986819781DC01A41BB50BD1
:100BC000AD0141505109E5CF86819781861B970B76
:100BD000BA01AC0141505109DCCFCA0157FD07965B
:100BE000A3E095958795AA95E1F7A481B5818A9FA1
:100BF00090018B9F300D9A9F300D1124620F731F4F
:100C0000078CF0A1E02DE60FF71F4770552721E074
:100C100030E001C0220F4A95EAF78081822B808361
:100C20000895CA0157FD079633E0959587953A9543
:100C3000E1F7A481B5818A9F90018B9F300D9A9F27
:100C4000300D1124620F731F078CF0A1E02DE60F09
:100C5000F71F4770552781E090E001C0880F4A9543
:100C6000EAF7809590818923DACFCA0157FD07966C
:100C700023E0959587952A95E1F7A481B5818A9F10
:100C800090018B9F300D9A9F300D1124620F731FBE
:100C9000078CF0A1E02DE60FF71F4770552721E0E4
:100CA00030E001C0220F4A95EAF780818227B7CF52
:100CB00008958EBD00000DB407FEFDCF8EB50895DA
:100CC0008CBD9DBD08950895FC016370668B848181
:100CD000958126813781613039F0633029F0918721
:100CE000808733872287089531872087938782877B
:100CF00008952F923F924F925F926F927F928F92C0
:100D00009F92AF92BF92CF92DF92EF92FF920F939A
:100D10001F93CF93DF93CDB7DEB76A970FB6F894E2
:100D2000DEBF0FBECDBF9A8F898F7A8369834A0158
:100D3000D22E18870F833701BC2CDC0159962D91D8
:100D40003C915A972115310509F015C118968D91DE
:100D50009C911997681779070CF0D7C11A968D9155
:100D60009C91481759070CF0D0C14C2C512CB6E07F
:100D7000CB9E600D711D11247C876B87161617069C
:100D80000CF0C3C1EA2DF0E0FA87E98793E0EE0F9B
:100D9000FF1F9A95E1F7F88BEF87CF01840F951F1E
:100DA000181619060CF0B1C1A98DBA8D58968C9100
:100DB000811104C0BFEABD1508F4D394A98DBA8D82
:100DC000ED91FC9111970284F385E02DCD010995F9
:100DD000B5E0DB9EC0011124E981FA81FC83EB833D
:100DE000312C212C9C0128593F4F388F2F8B4A2DB5
:100DF00050E05E8B4D8BEF89F88DE20DF31D449131
:100E00009E828D82D12CC12C69817A81620D731DE5
:100E10007A8B698B842F90E09C8B8B8BE98DFA8D7C
:100E2000A081B18140FF82C0F1E0BF126FC0AF125C
:100E30006DC01C96ED91FC912F813885A4014C0D5D
:100E40005D1D69897A89898D9A8D0995EB89FC895F
:100E5000F595E7954E2F5FEFC51AD50A6D817E8116
:100E60008D899E89680F791F7E836D8398E0C916EE
:100E7000D10481F6AFEF2A1A3A0AEB81FC81E40D26
:100E8000F51DFC83EB83F5E02F16310409F0B3CF99
:100E90002F81388526153705B9F0A98DBA8DED91CA
:100EA000FC91B1E0BB1257C0AB1255C069817A8189
:100EB0006B5F7F4F0088F189E02D830128E030E0EF
:100EC000A401898D9A8D0995A98DBA8DED91FC911A
:100ED00011970688F789E02DCD016A960FB6F89430
:100EE000DEBF0FBECDBFDF91CF911F910F91FF905D
:100EF000EF90DF90CF90BF90AF909F908F907F90BA
:100F00006F905F904F903F902F9009941E96ED91B7
:100F1000FC91EF80F88409851A8592014D815E81EC
:100F20006B817C81898D9A8D099590CF2F81388531
:100F30002615370509F48ACF31E0B31207C0A31292
:100F400005C01C96ED91FC91930178CF1E96ED9112
:100F5000FC917301E0CF6B857C856419750906846B
:100F6000F785E02D73010F8518899201A401898D01
:100F70009A8D0995A9CFF9013496949132974591AC
:100F80005491D91AB7E0DB9E400D511D1124F9018F
:100F9000259134913C8B2B8BFA0125903490FA01EA
:100FA0003296749031963491398B329664903196A2
:100FB000449041E04C1518F04A1508F07FC0662DAA
:100FC000062C000C770B7C836B83842D042C000C87
:100FD000990B9E838D83A98DBA8DED91FC9111970C
:100FE0000284F385E02DCD010995512CD12CC12C23
:100FF000EA2DF0E0FA87E9872B2D30E03C872B873C
:10100000A401440D511D47FC5A95588F4F8B69819F
:101010007A81660D711D67FC7A957E876D87798967
:10102000C71608F051CF2C2D30E04D815E81420F64
:10103000531FA985BA854A9FC0014B9F900D5A9FA7
:10104000900D1124FC01E80DF91DF88BEF87852D1B
:10105000612C4F89588D420F531F5E8B4D8B671447
:1010600008F050C044244394480E877041F4C101F5
:101070000196EB89FC89E20DF31DD4901C01D7FE8B
:1010800019C0A98DBA8DED91FC91662D70E0B1E08B
:10109000BB1219C0AB1217C02D853E85620F731F9E
:1010A0000484F585E02D2F8138854D895E89898DF1
:1010B0009A8D0995DD0C6394842DD1CF1E821D82FB
:1010C0001C821B8288CF4B815C81640F751FAB85AE
:1010D000BC856A9FC0016B9F900D7A9F900D112473
:1010E00069817A81680F791F0684F785E02DEF808A
:1010F000F88409851A859D014F855889898D9A8DB7
:101100000995D8CF570CC3948ACF6A960FB6F89436
:10111000DEBF0FBECDBFDF91CF911F910F91FF902A
:10112000EF90DF90CF90BF90AF909F908F907F9087
:101130006F905F904F903F902F9008958F929F9265
:10114000AF92CF92EF92FF920F931F93CF93DF93C3
:10115000EC01262F898D9A8D009709F051C06A30D5
:10116000D1F41D861C868D8948E0849F900111244E
:101170008E859F85820F931F9F878E8781E090E0E9
:10118000DF91CF911F910F91FF90EF90CF90AF9093
:101190009F908F9008956D3089F3CC88AD888F89AA
:1011A0008823C1F08C859D8536E0C39E800D911DFE
:1011B0001124488559854817590764F44E855F8581
:1011C0001D861C8638E0A39EC0011124840F951F44
:1011D0009F878E87EA88FB88088919894E855F85F5
:1011E0006C857D85CE010E9479062C898C859D8534
:1011F00046E0249F800D911D11249D878C87BECFD2
:101200006A3069F41D861C86FC013896E4912D89AC
:101210008E859F85E29F800D911D1124ADCF6D308D
:1012200009F4ACCFFC0134963491631708F4A6CFCF
:101230003296E491E61708F4A1CFFC01329685902E
:101240009490462F431B342F47E0349F800C911C11
:101250001124F401329634913196E4913323A9F1AB
:10126000EE2399F1CC88F4013596E491AD884F894D
:10127000442301F10E2E000CFF0BE30FF11DCE9E57
:10128000A001CF9E500D11246C857D85460F571F00
:1012900068857985641775076CF44E855F851D86B2
:1012A0001C86FC013896E491AE9E400D511D112420
:1012B0005F874E87EA88FB88088919894E855F8594
:1012C0006C857D85CE010E947906F4013496E49107
:1012D0002C898C859D85E29F800D911D11248DCFD9
:1012E0006F927F928F929F92AF92BF92CF92DF9236
:1012F000EF92FF920F931F93CF93DF93EC016B015B
:101300005A0139014801E881F9810284F385E02D11
:101310000995E881F9810288F389E02D870193011D
:10132000A501B601CE010995A501480D591D4150F1
:101330005109E881F9810288F389E02D9301B60112
:10134000CE010995E881F9810088F189E02D9401A9
:10135000A501B601CE010995C60CD71CB601615096
:101360007109E881F9810088F189E02D9401A501D6
:10137000CE010995E881F9810688F789E02DCE0133
:10138000DF91CF911F910F91FF90EF90DF90CF9061
:10139000BF90AF909F908F907F906F9009946F92C5
:1013A0007F928F929F92AF92BF92CF92DF92EF92F5
:1013B000FF920F931F93CF93DF935C01EB016A01C0
:1013C000490138018701DC01ED91FC916217730737
:1013D00019F5641675062CF0962D872D3A01C92E45
:1013E000D82E9601261937092F5F3F4F048CF58DB3
:1013F000E02DA301BE01C5010995DF91CF911F9199
:101400000F91FF90EF90DF90CF90BF90AF909F90A3
:101410008F907F906F9008954615570591F4261789
:10142000370724F0892D4B01C22FD82F9E01281990
:1014300039092F5F3F4F068CF78DE02DA601B401CF
:10144000DACF0284F385E02D0995D501ED91FC9169
:101450000488F589E02D83019401A601BE01C50130
:101460000995D501ED91FC910688F789E02DC5011C
:10147000DF91CF911F910F91FF90EF90DF90CF9070
:10148000BF90AF909F908F907F906F900994EF9254
:10149000FF920F931F93DC011A960D911C911B97DD
:1014A00018962D913C911997ED91FC9100A0F1A116
:1014B000E02D7B0150E040E070E060E009951F9175
:1014C0000F91FF90EF9008954F925F926F927F92ED
:1014D0008F929F92AF92BF92CF92DF92EF92FF9244
:1014E0000F931F93CF93DF936C012B015A013901A6
:1014F0004801DC01ED91FC910284F385E02D099512
:10150000E201640C751CD601ED91FC91C615D7055E
:101510005CF40088F189E02D87019401A501BE01EA
:10152000C60109952196EFCF0688F789E02DC601FF
:10153000DF91CF911F910F91FF90EF90DF90CF90AF
:10154000BF90AF909F908F907F906F905F904F90E3
:1015500009948F929F92AF92BF92CF92DF92EF92B7
:10156000FF920F931F93CF93DF93EC015B014A012E
:101570006901E881F9810284F385E02D09959501DF
:101580002C0D3D1D21503109E881F9810488F58930
:10159000E02D78018401A401B501CE010995E8810F
:1015A000F9810688F789E02DCE01DF91CF911F9157
:1015B0000F91FF90EF90DF90CF90BF90AF909F90F2
:1015C0008F9009948F929F92AF92BF92CF92DF92A9
:1015D000EF92FF920F931F93CF93DF93EC015B0188
:1015E0004A0169017801E881F9810284F385E02DDF
:1015F0000995C80CD91C860101501109E881F981AF
:101600000488F589E02D9501A401B501CE01099565
:10161000E881F9810688F789E02DCE01DF91CF912D
:101620001F910F91FF90EF90DF90CF90BF90AF9000
:101630009F908F9009940895EF92FF920F931F93BC
:10164000DC01ED91FC9100A0F1A1E02D09951F9125
:101650000F91FF90EF9008950F931F93DC01ED9190
:10166000FC91068CF78DE02D09951F910F9108953F
:101670000F931F93DC01ED91FC91048CF58DE02D0F
:1016800009951F910F910895DC01ED91FC91008463
:10169000F185E02D09942F923F924F925F926F92C5
:1016A0007F928F929F92AF92BF92CF92DF92EF92F2
:1016B000FF920F931F93CF93DF9300D000D000D001
:1016C000CDB7DEB73C016A013E832D83FC82EB82FD
:1016D0005801A41AB50AB7FE03C0B194A194B10889
:1016E0008D809E80861A970A97FE03C091948194FC
:1016F00091088A149B045CF0902F812F0D811E812C
:101700009D838E839C2D8D2D6B01692F782F0C1559
:101710001D055CF09D818E817E836D83692F782FFE
:10172000902F812F8601C92ED82E1601201A310A3A
:101730002B012D813E81421A530A57FE03C051945A
:1017400041945108710137FE03C03FEFE31AF30AD9
:10175000F594E7948D819E81861797075CF5A1E04B
:10176000B0E0BA83A983C016D1064CF1D301ED9144
:10177000FC910484F585E02D2B813C81A8016D81CD
:101780007E818A149B041CF04D815E81B801C301E7
:101790000995E418F508F7FE0AC02D813E8189817C
:1017A0009A81280F391F3E832D83E20CF31C0F5FB3
:1017B0001F4FD9CF2FEF3FEF3A832983D4CF2696FF
:1017C0000FB6F894DEBF0FBECDBFDF91CF911F9152
:1017D0000F91FF90EF90DF90CF90BF90AF909F90D0
:1017E0008F907F906F905F904F903F902F900895D3
:1017F00008951F93CF93DF93C1E0C0938A0188239C
:1018000099F1D091B8001091BA008091BC008A7B08
:101810008093BC0060E082E10E945F0360E083E1AE
:101820000E945F031092CF01C093D1011092D001AA
:1018300061E082E10E945F0361E083E10E945F0357
:101840008091B9008E7F8093B9008091B9008D7F1F
:101850008093B90088E48093B80085E48093BC004D
:101860001093BA00D093B800DF91CF911F910895E3
:101870002091AB01260F3327331F21323105ECF4C1
:101880002091CF01FC0190E080E0243069F082E0FB
:101890000895A091AB012191AC0145575E4FA40F73
:1018A000B52FB11D2C930196861798F38091AB014B
:1018B000680F6093AB0180E0089581E008958FEF99
:1018C0009FEF08958FEF9FEF08958091840190E03E
:1018D0009195819591090895CF92DF92EF92FF92B1
:1018E0000F931F93CF93DF937C01CB018A0120914B
:1018F0000102222389F0EB016B01C40ED51ECC1529
:10190000DD0569F06991D701ED91FC910190F081BD
:10191000E02DC7010995F3CF642F0E94380CC80150
:10192000DF91CF911F910F91FF90EF90DF90CF90BB
:101930000895CF93DF931F92CDB7DEB769832091CF
:1019400001022223F9F02091FE01203258F021E01B
:1019500030E0FC013383228390E080E00F90DF9140
:10196000CF9108958091FF01E82FF0E0EC59FE4FF0
:10197000998190838F5F8093FF018093FE0181E0C6
:1019800090E0ECCF61E0CE0101960E94380CF7CFD9
:10199000CF92DF92EF92FF920F931F93CF93DF933B
:1019A000D091FE0181E0D13208F09CC0C0910002CC
:1019B0000E94AB036B017C018091CF0181116CC04F
:1019C00082E08093CF0181E08093D1018FEF8093FB
:1019D000CE011092F301D093F201A4E6B1E0E2ED62
:1019E000F1E080E0D8138DC01092F4018091F401F1
:1019F000CC0FC82BC093F4018091D001813009F045
:101A000084C01092D0010E94AB036B017C018091D5
:101A1000F4018093BB008091860190918701A09191
:101A20008801B0918901892B8A2B8B2BA1F00E9410
:101A3000AB030091860110918701209188013091BC
:101A400089016C197D098E099F0906171707280758
:101A5000390708F442C08091BC0083FDD8CF85ECE3
:101A60008093BC000E94AB036B017C018091CF018D
:101A7000823009F44CC08091CE018F3F09F469C0D7
:101A80008091CE01803209F466C08091CE0180330E
:101A900009F463C084E026C080918601909187019B
:101AA000A0918801B0918901892B8A2B8B2B09F495
:101AB00083CF0E94AB030091860110918701209192
:101AC0008801309189016C197D098E099F090617DB
:101AD00017072807390708F06FCF809185010E940A
:101AE000F90B85E01092FF011092FE0110920102A5
:101AF000DF91CF911F910F91FF90EF90DF90CF90EA
:101B000008959D9191938F5F6DCF85EEA9CF8091C0
:101B1000860190918701A0918801B0918901892B5C
:101B20008A2B8B2B09F4A2CF0E94AB030091860174
:101B30001091870120918801309189016C197D09EC
:101B40008E099F09061717072807390708F08ECF57
:101B5000C4CF80E0C7CF82E0C5CF83E0C3CF1F935F
:101B6000CF93DF93EC018D8D9E8D009721F1162F81
:101B700029A131E030930102209300021092FF016D
:101B80001092FE01DC01ED91FC910190F081E02DBD
:101B900060E009958D8D9E8DDC01ED91FC910190A9
:101BA000F081E02D612F09958D8D9E8DDF91CF9174
:101BB0001F910C94C80CADA5BEA59C918BA98095D6
:101BC00089238C938B8D9C8D892B31F0862FDF910F
:101BD000CF911F910C94590628E030E080E8A9A528
:101BE000BAA599A9462F4823C1F04C91942B9C93F8
:101BF000ABA5BCA59C914AA9942B9C93ABA5BCA575
:101C00004C919AA9909594239C93869521503109E3
:101C100031F7DF91CF911F9108954C9190959423C6
:101C2000E6CF1F93CF93DF93EC01162F8D8D9E8D02
:101C3000892BB1F12DA93EA94FA958AD60E074E2FE
:101C400084EF90E00E94F4122051310941095109BA
:101C500056954795379527952093B80066EA111158
:101C600067EACE010E94AF0D8D8D9E8D892B41F1CB
:101C700029AD3AAD4BAD5CAD60E074E284EF90E02D
:101C80000E94F41220513109410951095695479596
:101C9000379527952093B800DF91CF911F91089534
:101CA0008B8D9C8D892B21F08EAD9FAD0E9460069F
:101CB000EFA5F8A990818CA9809589238083CECF48
:101CC000EFA5F8A980819CA9892B8083E5CF90E0BE
:101CD00080E008950E94411485ED8093BC008091BE
:101CE000860190918701A0918801B09189010796A2
:101CF000A11DB11D23E0B695A795979587952A95C7
:101D0000D1F72091BC0024FD03C01092CF010895AB
:101D100040918601509187016091880170918901FD
:101D2000452B462B472B69F30097A105B10541F0E0
:101D300025E32A95F1F700000197A109B109E1CF48
:101D4000809185010C94F90B1F920F920FB60F92A0
:101D500011242F933F938F939F93AF93BF938091C1
:101D6000F6019091F701A091F801B091F90130913D
:101D7000F50123E0230F2D3758F50196A11DB11D64
:101D80002093F5018093F6019093F701A093F80159
:101D9000B093F9018091FA019091FB01A091FC01AF
:101DA000B091FD010196A11DB11D8093FA019093A0
:101DB000FB01A093FC01B093FD01BF91AF919F91F6
:101DC0008F913F912F910F900FBE0F901F901895FC
:101DD00026E8230F0296A11DB11DD2CF1F920F92AC
:101DE0000FB60F9211242F933F934F935F936F93EE
:101DF0007F938F939F93AF93BF93EF93FF938091C4
:101E0000B900887F803609F44AC0F0F5883209F4B9
:101E1000A5C018F5803109F499C0B8F4882309F4F5
:101E2000F5C0883009F492C0FF91EF91BF91AF9156
:101E30009F918F917F916F915F914F913F912F91E2
:101E40000F900FBE0F901F901895883109F486C02F
:101E5000803251F78093CE0114C0803409F49BC0C6
:101E600040F48033B9F38833F9F68093CE0185ECE2
:101E7000AEC0803509F483C0883509F494C0883435
:101E800099F60E946C0ED0CF883909F48AC038F5D3
:101E9000883729F050F4883611F0803729F683E02E
:101EA0008093CF011092CD0155C0883809F479C0D4
:101EB000803919F0803809F0B7CF8091CD01803298
:101EC00008F06FC0E091CD0181E08E0F8093CD01CD
:101ED0008091BB00F0E0E355FE4F80833BC0803B28
:101EE00039F0D0F4803A09F477C0883A09F09CCFF1
:101EF00084E08093CF011092AC011092AB01F0E02E
:101F0000E0E009958091AB0181110FC081E08093E1
:101F1000AB0110928B0109C0803C09F4A8CF883C2A
:101F200009F4A5CF883B09F07FCFE091AC0181E0B7
:101F30008E0F8093AC01F0E0E557FE4F80818093D7
:101F4000BB009091AC018091AB0129C08091F4015C
:101F50008093BB0085EC8093BC0066CF9091F30129
:101F60008091F201981758F5E091F30181E08E0F0E
:101F70008093F301F0E0EE52FE4F8081E9CFE091D3
:101F8000F30181E08E0F8093F3018091BB00F0E0BC
:101F9000EE52FE4F80839091F3018091F2019817E9
:101FA000C8F285E8D8CFE091F30181E08E0F8093ED
:101FB000F3018091BB00F0E0EE52FE4F80838091F0
:101FC000D10181115ECF81E08093D00184EA8093BA
:101FD000BC001092CF0128CF85EC8093BC001092FA
:101FE000CF018091CD01803230F4E091CD01F0E05D
:101FF000E355FE4F10826091CD0170E08DEA91E0D3
:10200000F0E0E0E009951092CD010ECF1092CE01E4
:1020100038CFA2E0B2E013961C921E92129748EEBF
:1020200053E060E070E014964D935D936D937C9364
:1020300017978AE291E011969C938E93EEE0F2E07E
:102040001382128220E830E03583248380E490E01C
:10205000978386833187208793878287168A1586A0
:1020600014861786168681E0858B848B2FEF3FEFD1
:10207000338B228B318B208B878B108E128E118E9F
:102080008CE391E091838083148E138EB68FA58F9D
:1020900010A2178E8FEF84A385A386A387A384E065
:1020A00080A780E89AE1A6E0B0E085AB96ABA7AB4D
:1020B000B0AF80EA96E8A1E0B0E081AF92AFA3AF05
:1020C000B4AF80E586AF17AE0895789484B582608A
:1020D00084BD84B5816084BD85B5826085BD85B5CC
:1020E000816085BD80916E00816080936E0010924A
:1020F00081008091810082608093810080918100C5
:102100008160809381008091800081608093800055
:102110008091B10084608093B1008091B0008160B3
:102120008093B00080917A00846080937A008091DF
:102130007A00826080937A0080917A008160809337
:102140007A0080917A00806880937A001092C100B2
:1021500088E00E94130389E00E9413038AE00E9432
:1021600013038BE00E94130344244394512C812CCD
:10217000B4E29B2EB4EFAB2EB12C33243394F6E0B3
:10218000CF2ED12C06E011E0D8016C9188E00E949E
:102190005F03F801628189E00E945F03D801149611
:1021A0006C918AE00E945F03F80166818BE00E94D7
:1021B0005F032091140230911502C901079697FD23
:1021C0000796E3E095958795EA95E1F7209112024D
:1021D00030911302829FA001839F500D929F500D5A
:1021E000112470E060E080912D0290912E020E94F7
:1021F0004614509221024092200250921F024092B7
:102200001E0221E030E044E150E06AE070E08EE040
:1022100092E00E94A90580912B0290912C02892BBB
:1022200009F46EC02091430230914402409145026E
:1022300050914602C501B4010E94F41220513109A7
:102240004109510956954795379527952093B80030
:1022500080912B0290912C02009709F4E2C020910A
:102260002F0230920102209300021092FF0110927F
:10227000FE01DC01ED91FC910190F081E02D60E028
:1022800009955CE8E52E55E0F52E66E0762EC1E076
:10229000D0E080912B0290912C027A94772009F45F
:1022A00046C0C032D105D0F00E94C80C80912B02EC
:1022B00090912C0220912F02309201022093000273
:1022C0001092FF011092FE01DC01ED91FC91019052
:1022D000F081E02D60E00995C1E0D0E080912B0213
:1022E00090912C02F7016491DC01ED91FC91019039
:1022F000F081E02D09952196BFEFEB1AFB0AC9CFBB
:102300008091290290912A02892B31F080914C0210
:1023100090914D020E946006E0913D02F0913E02D4
:1023200090818091420280958923808391CF0E9481
:10233000C80C6091120261508EE092E00E94AF0DD5
:102340002091140230911502C901079697FD079656
:1023500033E0959587953A95E1F7209112023091F7
:102360001302829F3001839F700C929F700C112486
:10237000C0912D02D0912E0280912B0290912C02BF
:102380006C0E7D1E009709F4D4C020912F0230926C
:102390000102209300021092FF011092FE01DC0165
:1023A000ED91FC910190F081E02D60E40995EE241F
:1023B000E394F12C80912B0290912C026C167D06F7
:1023C00009F478C0B0E2EB16F104D8F00E94C80C12
:1023D00080912B0290912C0220912F0230920102C9
:1023E000209300021092FF011092FE01DC01ED919A
:1023F000FC910190F081E02D60E40995EE24E394D6
:10240000F12C80912B0290912C026991DC01ED91CD
:10241000FC910190F081E02D0995BFEFEB1AFB0ACA
:10242000C9CFE0913B02F0913C0290818091410242
:10243000809589238083CCE8D5E046E0F42EFA9499
:10244000FF2009F476CFFE0184912091290230917A
:102450002A02232B21F00E9459062196F0CF28E072
:1024600030E040E8E0913702F091380290913F026D
:10247000582F5423D9F05081952B9083E091390245
:10248000F0913A02908150914002952B9083E09117
:102490003902F0913A025081909140029095952333
:1024A0009083469521503109E9F6D7CF5081909518
:1024B0009523E3CF0E94C80C80912B0290912C02AF
:1024C000892B09F478C0209147023091480240914D
:1024D000490250914A02C501B4010E94F4122051F0
:1024E000310941095109569547953795279520930C
:1024F000B80068EE73E080E090E00E94D003085FCF
:102500001F4FE1E006311E0709F03ECEF1E0CF1A81
:10251000D10809F037CE60ED77E080E090E00E94CE
:10252000D00380E090E0892B09F429CE0E940000BE
:1025300026CEE0913B02F0913C02808190914102D5
:10254000892B80836C167D0609F4B6CF8991209182
:10255000290230912A02232B19F00E945906F2CF4A
:1025600028E030E040E8E0913702F09138029091A5
:102570003F02582F5423D9F05081952B9083E0913E
:102580003902F0913A02908150914002952B90834C
:10259000E0913902F0913A02508190914002909579
:1025A00095239083469521503109E9F6CBCF508190
:1025B00090959523E3CFE0913D02F0913E0280811A
:1025C00090914202892B808394CF8CE391E0909389
:1025D0000F0280930E0280912D0290912E0200979F
:1025E00011F00C94B8130895A1E21A2EAA1BBB1B7C
:1025F000FD010DC0AA1FBB1FEE1FFF1FA217B307CF
:10260000E407F50720F0A21BB30BE40BF50B661FE4
:10261000771F881F991F1A9469F7609570958095A8
:1026200090959B01AC01BD01CF010895EE0FFF1FF6
:102630000590F491E02D09940F931F93CF93DF93AE
:102640008230910510F482E090E0E0915002F09128
:10265000510230E020E0B0E0A0E0309799F421157D
:10266000310509F44AC0281B390B24303105D8F54F
:102670008A819B816115710589F1FB0193838283B6
:10268000FE0111C040815181028113814817590711
:10269000E0F04817590799F4109761F012960C93DF
:1026A000129713961C933296CF01DF91CF911F9111
:1026B0000F9108950093500210935102F4CF211509
:1026C000310551F04217530738F0A901DB019A0197
:1026D000BD01DF01F801C1CFEF01F9CF90935102A5
:1026E00080935002CDCFFE01E20FF31F81939193AF
:1026F0002250310939832883D7CF20914E0230915F
:102700004F02232B41F420910201309103013093B9
:102710004F0220934E0220910001309101012115BA
:10272000310541F42DB73EB74091040150910501A8
:10273000241B350BE0914E02F0914F02E217F30794
:10274000A0F42E1B3F0B2817390778F0AC014E5F21
:102750005F4F2417350748F04E0F5F1F50934F020D
:1027600040934E02819391939FCFF0E0E0E09CCFA5
:10277000CF93DF930097E9F0FC0132971382128226
:10278000A0915002B0915102ED0130E020E010978D
:10279000A1F420813181820F931F20914E0230914C
:1027A0004F022817390709F061C0F0934F02E093F8
:1027B0004E02DF91CF910895EA01CE17DF07E8F5C9
:1027C0004A815B819E0141155105B1F7E901FB8307
:1027D000EA8349915991C40FD51FEC17FD0761F4A5
:1027E000808191810296840F951FE90199838883E6
:1027F000828193819B838A83F0E0E0E012968D9141
:102800009C9113970097B9F52D913C911197CD01AB
:102810000296820F931F20914E0230914F0228178B
:10282000390739F6309751F5109251021092500243
:10283000B0934F02A0934E02BCCFD383C28340819A
:102840005181840F951FC817D90761F44E5F5F4F00
:1028500088819981480F591F518340838A819B81C8
:10286000938382832115310509F0B0CFF093510293
:10287000E09350029ECFFD01DC01C0CF1382128293
:10288000D7CF81E090E0F8940C944D14DC0101C0A6
:102890006D9341505040E0F7089512E0C8EED2E049
:1028A00004C0FE010E9416132196C93ED107C9F744
:0428B000F894FFCFCA
:1028B400000052028000010001000000000000003E
:1028C40001000100000000000000010001000100FF
:1028D40000000000010000000000990C6C0C670E61
:1028E4001B0B650C620C5F0C000000009E08320399
:1028F400670EF80BA9051B0B440B1C0B380B2C0B98
:102904004B0B1B0B6406110E19056205640A470A7A
:04291400CF0970096E
:00000001FF
